:10000000E82200202D4F0000255000002550000060
:1000100000000000000000000000000000000000E0
:10002000000000000000000000000000255000005B
:1000300000000000000000002550000025500000D6
:100040002550000025500000BD1A0000255000007A
:10005000290A00002550000025500000255000000E
:10006000255000002550000025500000E11D000033
:1000700025500000255000002550000025500000AC
:100080002550000025500000193F000025500000B9
:100090002550000000000000000000002550000076
:1000A000255000002550000025500000255000007C
:1000B0000000000010B5064C2378002B07D1054B3B
:1000C000002B02D0044800E000BF0123237010BDC4
:1000D0007C0000200000000070890000084B10B573
:1000E000002B03D00749084800E000BF0748036819
:1000F000002B00D110BD064B002BFBD09847F9E731
:10010000000000008000002070890000708900005D
:100110000000000080B582B000AF78607B680022EC
:100120001A707B6801225A707B6804229A707B687F
:100130000C22DA707B6800221A717B6800225A71E7
:10014000C046BD4602B080BD80B582B000AF3B0066
:100150001800094B98473B0000221A703B000A2206
:10016000DA703B0009225A713B001800034B984794
:10017000C046BD4602B080BD15010000291900002F
:1001800080B500AFC046BD4680BDC04680B582B0D8
:1001900000AF78607B6800221A70C046BD4602B08E
:1001A00080BDC04680B582B000AF02003960FB1D43
:1001B0001A70FB1D1B78012B0AD0022B0FD0002BCD
:1001C00014D10E4B0D4A91693A680A439A610FE0C7
:1001D0000A4B0A4AD1693A680A43DA6108E0074BD8
:1001E000064A116A3A680A431A6201E0172300E0DE
:1001F00000231800BD4602B080BDC0460004004088
:1002000080B582B000AF78607B6880221A707B680E
:1002100000225A707B6801229A707B680022DA7093
:10022000C046BD4602B080BD80B582B000AF0200BE
:10023000FB1D1A70FB1D1B78002B02D0012B07D071
:100240000DE0084B074A126C02210A431A6406E0CB
:10025000044B044A126C04210A431A64C046BD468A
:1002600002B080BD0008004080B584B000AF786067
:100270007B681B68FB60FB685B7EDBB25BB2002BBC
:1002800001DA012300E000231800BD4604B080BD60
:1002900080B582B000AF78607B6800221A707B68FE
:1002A00000225A707B6800225A807B6800221A71F3
:1002B0007B6800221A767B6800221A627B68002223
:1002C000DA617B6800229A607B6800221A737B687F
:1002D000C0225201DA817B6800221A747B680022F6
:1002E0005A747B6800229A747B680022DA747B68F7
:1002F00000221A757B682A22002199547B6800220B
:100300005A757B6800229A757B68242200219954D3
:100310007B680022DA847B6800221A857B680022D1
:10032000DA757B682B22002199547B682C220021EE
:100330009954C046BD4602B080BDC04680B598B055
:1003400000AF78600C23FA18154B100019005023E9
:100350001A00144B9847144BFB657B68132B1AD873
:100360000C23FB187A689200D358FB650823FB180E
:1003700018000E4B98470823FB1800229A70082398
:10038000FB1801221A70FB6DDBB20822BA181100AB
:100390001800074B9847C046BD4618B080BDC04600
:1003A000E08200009D700000FFFF000001020000DD
:1003B000A54E0000F0B589B000AF786039601F230A
:1003C000FB1800221A701023BB611723FB180022B0
:1003D0001A707B681B683B610C23FB181800CE4B1E
:1003E00098473B681A780C23FB181A700C23FB18EB
:1003F00019001E20C94B98471E20C94B98473B68DF
:100400002C229B5C002B40D01623FB183A682B2132
:10041000525C1A703B68197B1523FB181622BA1818
:1004200012788A181A703B682C22995C0F23FB18EB
:100430001522BA1812788A181A7018E01623FB18B9
:100440001B780F2213403A68127B9B181800B54B9B
:1004500098471523FB181A781523FB1801321A70D8
:100460001623FB181A781623FB1801321A7015236D
:10047000FA180F23FB1812781B789A42DED33B68D8
:10048000DB891800A74B984709E03B681B7B1800E5
:10049000A44B98473B68DB891800A24B98473B6800
:1004A0005B7D9B00DAB23B691A703B689B7DDB0188
:1004B0005AB23B685B785BB213435BB2DAB23B691A
:1004C0005A703B681B79342B46D89A00964BD31848
:1004D0001B689F461F23FB183A68527C1A7017232B
:1004E000FB183A68127C1A701023BB6136E01F2398
:1004F000FB1801221A701723FB1802221A7010230E
:10050000BB612BE01F23FB1802221A701723FB1874
:1005100004221A701023BB6120E01F23FB18012264
:100520001A701723FB1806221A701023BB6115E0FE
:100530001F23FB1800221A701723FB1808221A70B9
:100540001023BB610AE03023BB6107E02023BB61BD
:1005500004E00023BB6101E01723AEE11F23FB1879
:100560001B781B01DBB270221340DAB21723FB1891
:100570001B781343DAB23B699A703B68DB7D3F2BF3
:1005800001D9172399E13B68DA7D3B69DA70C046EF
:100590007B681800654B9847031EF9D13B685A8861
:1005A000BB699BB213439AB23B6824215B5C9BB24C
:1005B000DB009BB213439AB23B681B7D9BB29B004E
:1005C0009BB213439AB23B689B7C9BB2DB189BB2F5
:1005D00013439AB23B68DB7C9BB213439AB23B69EC
:1005E0009A803B681B7E002B00D1C4E0BB69102BB6
:1005F00000D176E002D8002B4DD0BCE0202B23D0D8
:10060000302B00D0B7E03B68DB7C002B11D03B687F
:10061000DB697F2B0BDC3B68DB69803307DB3B68E6
:100620001B6A7F2B03DC3B681B6A803301DA1723CC
:1006300043E13B68DB69FF2B04DC3B681B6AFF2B53
:1006400000DC91E0172338E13B68DB7C002B15D000
:100650003B68DB69364A93420EDC3B68DB69354A0E
:10066000934209DB3B681B6A314A934204DC3B68D6
:100670001B6A304A934201DA17231EE13B68DB69AB
:100680002D4A934205DC3B681B6A2B4A934200DCEF
:100690006CE0172311E13B68DB7C002B15D03B6835
:1006A000DB69264A93420EDC3B68DB69244A9342AD
:1006B00009DB3B681B6A214A934204DC3B681B6AE6
:1006C0001F4A934201DA1723F7E03B68DB691D4AB2
:1006D000934204DC3B681B6A1A4A934248DD1723A5
:1006E000EBE03B68DB7C002B32D03B68DB69164AD1
:1006F00093420EDC3B68DB69144A934209DB3B689A
:100700001B6A114A934204DC3B681B6A0F4A9342FE
:100710001EDA1723D1E0C0468D010000714B0000A6
:10072000B54B00003D03000030830000690200006B
:10073000FF01000000FEFFFFFF030000FF070000B5
:1007400000F8FFFFFF0F0000FF7F00000080FFFFA9
:100750003B68DB695B4A934204DC3B681B6A594A8D
:10076000934207DD1723A8E0C04604E0C04602E03C
:10077000C04600E0C046C0467B681800524B984710
:10078000031EF9D13B681A7E3B691A72C0467B682A
:1007900018004D4B9847031EF9D13B68DB699AB2AC
:1007A0003B699A83C0467B681800474B9847031EF5
:1007B000F9D13B681B6A9AB23B691A841423FB186F
:1007C0003A682C21525C1A701423FB181B78002BFA
:1007D00006D01423FB181A781423FB18013A1A7058
:1007E0001423FB181B780F2B04D83B682B229B5C2F
:1007F0000F2B01D9172360E0C0467B681800324BED
:100800009847031EF9D13B689B683A682B21525CDC
:10081000120513431422BA181278120413433A68CB
:10082000D28913433A68127B1A433B691A613B68C9
:100830002A229A5C3B691A753B690F229A753B68BC
:1008400024229B5C002B1ED03B68DB8C1F4A93420A
:1008500001D9172331E03B68DA8C3B699A843B6805
:1008600028229B5E1A4A934205DC3B6828229B5E45
:10087000184A934201DA17231FE03B6828229B5E47
:100880009AB23B69DA84144B1B68DB089BB21B02EB
:100890009AB2E023DB0013409AB2104B5C681B68ED
:1008A0006101DD0E0D43E60EABB2FF210B409BB2A2
:1008B00013439AB23B691A8500231800BD4609B05C
:1008C000F0BDC046FFFF000069020000FF0F0000FE
:1008D000FF07000000F8FFFF246080002060800018
:1008E00080B584B000AFF860B9607A60FB68BA6820
:1008F0001A6080235B0219000220154B9847BB68E1
:100900001B78DBB21A000123134001D005231AE043
:10091000BB681B78DBB21A000223134001D01C23F2
:1009200011E07B685A78FB681A71FB681B79002B11
:1009300002D10120074B98477A68FB681100180024
:10094000054B984703001800BD4604B080BDC04663
:10095000A501000029020000B503000080B584B0A5
:1009600000AF0200FB1D1A700F23FB18FA1D12784E
:1009700052091A700F23FB181B78002B0CD1094B5E
:10098000BB600F23FB181B789B0010229446BC44CD
:100990006344083B1B6800E000231800BD4604B018
:1009A00080BDC0460018004080B584B000AF020092
:1009B000FB1D1A70FB1D1B7818000B4B984703009A
:1009C000FB60FB1D1B781F22134001229A4013007D
:1009D000BB60FB681B69BA6813405A1E9341DBB2C7
:1009E0001800BD4604B080BD5D09000080B584B02C
:1009F00000AF0200FB1D1A70FB1D1B781800094B8D
:100A000098470300FB60FB1D1B781F221340012247
:100A10009A401300BB60FB68BA681A61C046BD46C5
:100A200004B080BD5D09000080B500AF154B002209
:100A30001A7020E0134B1B781800134B9847031EC5
:100A400013D0104B1B781800104B98470D4B1B7898
:100A50001A000F4B9200D358002B06D0094B1B787D
:100A60001A000B4B9200D3589847064B1B78013362
:100A7000DAB2044B1A70034B1B780F2BDAD9C0463D
:100A8000BD4680BDD0000020A9090000ED0900008E
:100A9000D400002080B582B000AF78607B6800226F
:100AA0001A70C046BD4602B080BDC04680B582B057
:100AB00000AF02003960FB1D1A70FB1D1B78012B73
:100AC0000AD0022B0FD0002B14D10E4B0D4A916986
:100AD0003A680A439A610FE00A4B0A4AD1693A68B8
:100AE0000A43DA6108E0074B064A116A3A680A438A
:100AF0001A6201E0172300E000231800BD4602B08F
:100B000080BDC0460004004080B582B000AF020046
:100B1000FB1D1A70064BFA1D127811001F220A40A5
:100B2000012191400A001A60C046BD4602B080BD56
:100B300000E100E080B582B000AF0F4B3B600023C6
:100B40007B6011E07B689B0008229446BC446344B0
:100B5000083B1B685B78DBB25BB2002B01DA012338
:100B600006E07B6801337B607B68002BEAD00023C2
:100B70001800BD4602B080BD0018004080B584B0AA
:100B800000AF2D4B7B60402100202C4B98473B0051
:100B900018002B4B98473B0000221A703B001900AD
:100BA0000520284B98470520274B98470023FB60DA
:100BB00018E0FB689B0010229446BC4463440C3B45
:100BC0001A68FB689B0010218C46BC4463440C3BB4
:100BD0001B681B78DBB201210B43DBB21370FB688F
:100BE0000133FB60FB68002BE3D0C046174B9847EE
:100BF000031EFBD10B23FB1800221A700DE00B2300
:100C0000FB181A78124B92000021D1500B23FB18CD
:100C10001A780B23FB1801321A700B23FB181B7870
:100C20000F2BECD904200B4B98470B4B9847C04631
:100C3000BD4604B080BDC04600180040AD0A0000AB
:100C4000950A0000714B0000B54B0000350B000009
:100C5000D4000020090B00005D0C000080B582B0BC
:100C600000AF154B3B6000237B6018E07B689B0066
:100C700008229446BC446344083B1A687B689B0086
:100C800008218C46BC446344083B1B681B78DBB2DC
:100C900002210B43DBB213707B6801337B607B68FE
:100CA000002BE3D0C046054B9847031EFBD1C0463E
:100CB000BD4602B080BDC04600180040350B0000A4
:100CC00080B582B000AF78607B6880221A707B6844
:100CD00000225A707B6801229A707B680022DA70C9
:100CE000C046BD4602B080BD80B584B000AF0200F2
:100CF0003960FB1D1A700C23FB181800104B984725
:100D00000C23FB1880221A703B681A780C23FB18FE
:100D10005A703B685A780C23FB189A703B689A7893
:100D20000C23FB18DA700C23FA18FB1D1B7811003A
:100D30001800044B9847C046BD4604B080BDC0466D
:100D4000C10C0000A54E000080B582B000AF7860F5
:100D50007B6800221A70C046BD4602B080BDC04606
:100D600080B582B000AF02003960FB1D1A70FB1D18
:100D70001B78012B0AD0022B0FD0002B14D10E4B65
:100D80000D4A91693A680A439A610FE00A4B0A4A90
:100D9000D1693A680A43DA6108E0074B064A116AEA
:100DA0003A680A431A6201E0172300E000231800A2
:100DB000BD4602B080BDC0460004004080B582B090
:100DC00000AF78607B6880221A707B6800225A70BE
:100DD0007B6801229A707B680022DA70C046BD46AB
:100DE00002B080BD80B500AF054B9B78DBB21A0026
:100DF000022313405A1E9341DBB21800BD4680BD4A
:100E00000020004180B584B000AF78607B681B682B
:100E1000FB60FB68DB69072213405A1E9341DBB27B
:100E20001800BD4604B080BD80B582B000AF7860C8
:100E3000C0467B681800044B9847031EF9D1C04692
:100E4000BD4602B080BDC046050E0000F0B595B0AD
:100E500000AFF860B96000237B630023BB6400230C
:100E60007B643B2308229446BC44634400221A70EE
:100E7000FB681B683B63FB681B68FB62232308223B
:100E8000BA18D418FB6A1800DB4B9847030023708C
:100E90000C2308229446BC4463441800D74B98475F
:100EA000BB68DB69FB63BB681B6ABB63FB6B002B26
:100EB00006D1FB6A00211800D14B98470300FB6361
:100EC000FB6BDAB20C2308218C46BC4463441A70D5
:100ED0000C2308229446BC44634402225A70FB6BE4
:100EE0001B0CDBB20C2208218C46BC44624411006E
:100EF0001800C44B9847BB6B002B06D1FB6A01213D
:100F00001800BF4B98470300BB63BB6BDAB20C23DE
:100F100008218C46BC4463441A700C230822944672
:100F2000BC44634402225A70BB6B1B0CDBB20C2224
:100F300008218C46BC44624411001800B14B98470C
:100F4000BB689A8AFB68DA80BB68DA8AFB681A8118
:100F5000BB681B7E002B03D1AB4B9847031E02D00E
:100F60008023FB6401E00023FB64BB681B69002B4A
:100F700004D0BB681B69FA6C1343FB64BB689B68B5
:100F8000FA6C1343FB64BB6824229B5C002B04D0E7
:100F9000FB6C8022D2051343FB64BB689B6A002B69
:100FA00004D0BB689B6AFA6C1343FB64BB682C22B9
:100FB0009B5C002B05D1BB689A6880239B049A42F6
:100FC00004D1FB6C802212051343FB64BB682D2205
:100FD0009B5C002B04D0FB6C802212041343FB6447
:100FE000BB682E229B5C002B04D0FB6C8022D203BA
:100FF0001343FB643B6B1A68FB6C1A433B6B1A6030
:101000003B6B802252005A60232308229446BC4442
:1010100063441B781433DBB218007C4B9847030001
:101020007B62BB681B68FA22920053433B62BB6839
:101030005B68FA2292005343FB61BB681B8EBB6165
:10104000734B786A984705000E00714B386A9847D1
:10105000386079607B6ABA695A436D4B10009847D3
:101060006C4C6D4A6D4BA04703000C00180021002A
:101070006B4C00226B4BA04703000C001A002300AE
:10108000644C38687968A04703000C001A002300FC
:10109000654C28003100A04703000C001D0026000D
:1010A0003B6A5A005A4B1000984702000B005C4CF8
:1010B00028003100A04703000C00180021005A4C02
:1010C00000225A4BA04703000C001D0026003B6A7B
:1010D0005A004F4B1000984702000B00544C280058
:1010E0003100A04703000C0019002200514B0800FA
:1010F0001100984703007B63BB689A6880239B04B8
:101100009A4245D1424B786A9847454C02000B0001
:10111000A04703000C001D0026003D4BF8699847CE
:101120003C4C0022444BA04703000C001A00230053
:101130003F4C28003100A04703000C00180021009C
:10114000394C0022394BA04703000C001900220043
:10115000384B08001100984703007B647B6C002B20
:1011600009D0364BF969786A984703009A1E7B6C60
:10117000D31ABB640CE0FB695A007B6AD3185A1E71
:10118000FB6959002D4B100098470300013BBB64DD
:101190007B6BFF2B08DC7B6B002B05DBBB6CFF2B19
:1011A00002DCBB6C002B06DA3B2308229446BC44CD
:1011B000634440221A703B2308229446BC44634493
:1011C0001B78402B0ED07B6BFF221A40BB6C1B049C
:1011D0001900FF231B040B4013437A6C12061A43B9
:1011E0003B6BDA603B2308229446BC4463441B7883
:1011F0001800BD4615B0F0BD2D180000BD0D000053
:1012000071160000A54E0000E50D0000DD4C000049
:101210008D6F00008563000095D626E80B2E113EE9
:101220000157000000002440796800000000F03FF2
:10123000595D0000216F000000000840FD510000D2
:1012400080B58AB000AFF860B9607A60FB68BA68B0
:101250001A60FB681B687B62FB681B681800254BE3
:10126000984703003B623B6A0233FB613B6A1433DD
:10127000BB610122FB699A401300190002201E4B3A
:1012800098471423FB1818001C4B98477B681A7B5F
:101290001423FB181A70BB69DBB21422BA181100B0
:1012A0001800174B9847BB69DBB21800154B9847DD
:1012B0007B681B7B00211800134B98477B6A1B68D7
:1012C0000222134001D01C2310E07B6A1B6801221C
:1012D000134001D0052309E07B6A14221A607A6862
:1012E000FB6811001800094B984703001800BD4621
:1012F0000AB080BD2D180000610D0000490D0000EE
:10130000714B0000B54B0000E51500004D0E0000CC
:1013100080B584B000AF78607B681B68FB60FB68B9
:101320001B7EDBB21A00022313400BD0FB680222A3
:101330001A76FB685B8B9BB21A000223134011D014
:10134000412310E0FB685B8B9BB21A00042313401F
:1013500008D0FB685B68C02292021A43FB685A609F
:10136000182300E000231800BD4604B080BDC0462D
:1013700080B584B000AF78607B681B68BB600E23CB
:10138000FB1800221A800FE00E23FB180E22BA1859
:10139000128801321A807B681B890E22BA181288C3
:1013A0009A4201D312230EE0BB681B7EDBB21A0007
:1013B0000123134006D1BB681B7EDBB21A00022357
:1013C0001340E1D000231800BD4604B080BDC046E4
:1013D00090B585B000AF78600A00FB1C1A707B687E
:1013E0001B68FB60FB685B688022D2021A43FB68C3
:1013F0005A60FB1C1A78FB685A620B23FC187B6846
:101400001800074B984703002370FB6801221A76E7
:101410000B23FB181B781800BD4605B090BDC046D5
:101420007113000090B587B000AF786039607B68B9
:101430001B68FB601423FB183A6852881A807B688B
:101440001800514B98473B685B7A002B06D03B68ED
:101450009A7A7B68110018004C4B9847FB685B68D0
:101460004B4A1A40FB685A603B681B7A002B0DD030
:101470003B681B885A003B685B7A9B0313431A0046
:1014800080231B021A43FB685A6209E03B681B88F1
:101490005A003B685B7A9B0313431A00FB685A624D
:1014A0001723FC187B6818003A4B984703002370F9
:1014B0001723FB181B78002B07D11723FC187B6818
:1014C0001800354B9847030023701723FB181B782F
:1014D000002B52D11223FB1800221A8033E0FB6844
:1014E0005B8B9BB21A002023134001D1412347E0BC
:1014F0007B681800244B98473B685A681223FB18F6
:101500001B8812217918581C0880D3181978FB6899
:10151000282299541723FC187B6818001D4B984704
:10152000030023701723FB181B78002B15D1FB68D1
:101530005B8B9BB21A000423134004D01723FB18C3
:101540001E221A700AE01423FB181B881422BA18F2
:10155000591E1180002BC2D100E0C0467B689B7AE7
:10156000002B0AD07B681800074B9847FB685B6824
:10157000C02292021A43FB685A601723FB181B789B
:101580001800BD4607B090BD290E0000D113000021
:10159000FFFFFBFF711300001113000080B582B044
:1015A00000AF786039607B6801229A727B68012203
:1015B000DA723A687B6811001800034B9847030001
:1015C0001800BD4602B080BD2514000080B582B071
:1015D00000AF78607B6800221A70C046BD4602B03A
:1015E00080BDC04680B584B000AF0200FB1D1A70FC
:1015F000BB1D0A1C1A701A4B1B7801225340DBB228
:10160000002B03D1BB1D1B78002B1BD00C23FB1818
:101610001800144B98470C23FB18FA1D12781A7007
:101620000C23FB18190013200F4B984713200F4B66
:1016300098470B4BFA1D12785A70094B01221A7009
:10164000002308E0064B5B78FA1D12789A4201D11C
:10165000002300E01D231800BD4604B080BDC04635
:1016600098000020CD150000714B0000B54B000024
:1016700080B582B000AF78600A00FB1C1A707B68EE
:101680004D4A93423FD04C4A934206D84B4A93422C
:101690000FD04B4A934221D089E04A4A934200D16D
:1016A0005BE0494A934200D16CE0484A93423FD004
:1016B0007DE0FB1C1B78012B0AD002DC002B05D03F
:1016C00075E0022B06D0032B06D070E0404B6FE094
:1016D000404B6DE0404B6BE0404B69E0FB1C1B78DE
:1016E000012B0AD002DC002B05D060E0022B06D0D3
:1016F000032B06D05BE003235AE0394B58E0394B0B
:1017000056E0394B54E0FB1C1B78012B0AD002DC5D
:10171000002B05D04BE0022B06D0032B06D046E071
:10172000324B45E0324B43E0324B41E0324B3FE03D
:10173000FB1C1B78012B0AD002DC002B05D036E005
:10174000022B06D0032B06D031E02C4B30E02C4B83
:101750002EE02C4B2CE02C4B2AE0FB1C1B78012BA1
:101760000AD002DC002B05D021E0022B06D0032B8F
:1017700006D01CE0254B1BE0254B19E0254B17E05C
:10178000254B15E0FB1C1B78012B0AD002DC002B3B
:1017900005D00CE0022B06D0032B06D007E01F4B30
:1017A00006E01F4B04E01F4B02E01F4B00E000234C
:1017B0001800BD4602B080BD001000420008004283
:1017C000000C004200180042001C004200140042BD
:1017D00003000400030005000300060003000700E7
:1017E0000300010003001E0003001F0003000800A7
:1017F0000300090003000A0003000B0003001000AF
:1018000003001100030012000300130003000C008A
:1018100003000D0003000E0003000F00030016007C
:1018200003001700030018000300190090B58BB0E7
:1018300000AF78600C23FB180F4A13CA13C313CAF6
:1018400013C300237B620EE00C23FB187A6A92001C
:10185000D3581A1E7B689A4202D17B6ADBB206E03B
:101860007B6A01337B627B6A052BEDD9002318006C
:10187000BD460BB090BDC0460484000080B582B068
:1018800000AF02003960FB1D1A70FB1D1B78012B95
:101890000AD0022B0FD0002B14D10E4B0D4A9169A8
:1018A0003A680A439A610FE00A4B0A4AD1693A68DA
:1018B0000A43DA6108E0074B064A116A3A680A43AC
:1018C0001A6201E0172300E000231800BD4602B0B1
:1018D00080BDC0460004004080B582B000AF074B19
:1018E0007B607B68DB79DBB25BB2002B01DA012322
:1018F00000E000231800BD4602B080BD001000408B
:1019000080B582B000AF074B7B607B681B78DBB291
:101910001A00802313405A1E9341DBB21800BD46C3
:1019200002B080BD0010004080B586B000AF786086
:10193000544B3B6110210020534B9847534B984721
:10194000031E01D0102398E07B68DB78002B01D1C7
:10195000172392E07B68DA787B681B799A4205D37B
:101960007B68DA787B685B799A4201D2172384E03E
:101970003B691B78DBB202229343DAB23B691A70EF
:10198000C046434B9847031EFBD17B685B7801221E
:101990005340DBB2002B01D000236EE07B689A78C5
:1019A0000C23FB181A700C23FB1819000320394B69
:1019B00098470320384B98477B681B78002B02D050
:1019C0000320364B984700237B617B68DB78013B23
:1019D0001A007B6913437B617B681B79002B10D055
:1019E0003B691B78DBB204221343DAB23B691A70FD
:1019F0007B681B79013B1B011A007B6913437B61E8
:101A000007E03B691B78DBB204229343DAB23B69FF
:101A10001A70C0461E4B9847031EFBD17B69DAB291
:101A20003B695A707B685B79002B0AD0C046184B23
:101A30009847031EFBD17B685B79013BDAB23B69B7
:101A40009A707B681B78002B09D03B691B78DBB24E
:101A5000802252421343DAB23B691A7007E03B69B5
:101A60001B78DBB202221343DAB23B691A70C0461C
:101A7000074B9847031EFBD100231800BD4606B054
:101A800080BDC046001000407D1800000119000014
:101A9000D9180000714B0000B54B0000954C0000B8
:101AA00080B582B000AF044B7B607B6801229A71E5
:101AB000C046BD4602B080BD0010004080B500AFFA
:101AC000054B9847054B1B68002B02D0034B1B6846
:101AD0009847C046BD4680BDA11A000014010020F1
:101AE00080B582B000AF0200FB1D1A70064BFA1DD4
:101AF000127811001F220A40012191400A001A6049
:101B0000C046BD4602B080BD00E100E0B0B582B085
:101B100000AF02003960FB1D1A70FB1D1B787F2B84
:101B200032D92F4CFB1D1B781A000F231340083BA2
:101B300099082B4AFB1D1B7818000F230340083B14
:101B40009B0806339B00D31804331B68FA1D1278D8
:101B5000100003220240D200FF2090400200D24336
:101B60001A403B689B01FF201840FB1D1B781D009D
:101B700003232B40DB00984003001A438B1D9B007E
:101B8000E31804331A6027E0164CFB1D1B785BB288
:101B90009B081449FA1D127852B29208C032920082
:101BA0005258F91D0978080003210140C900FF209F
:101BB00088400100C94311403A689201FF2010405B
:101BC000FA1D1278150003222A40D200904002002C
:101BD0000A43C0339B001A51C046BD4602B0B0BD97
:101BE00000ED00E000E100E080B500AF044B012211
:101BF0001A70BFF35F8F62B6C046BD4680BDC04657
:101C00001100002080B500AF72B6BFF35F8F034BA9
:101C100000221A70C046BD4680BDC046110000209B
:101C200080B500AF134A136801210B431360C0460F
:101C3000104B1B68DB07DB0FDBB2002BF8D10D4B21
:101C4000DB69DB07DB0FDBB2002BF1D10A4B0A4A61
:101C5000126A10210A431A62084B094A5A80C04688
:101C6000064B5B78DBB25BB2002BF9DBC046BD46AE
:101C700080BDC0460010004200040040000C00403F
:101C80001640000080B582B000AF1C4B802252008D
:101C90005A601A4B8022D2009A60184B8022D200E0
:101CA0009A61164A3523D35CDBB21A003023134005
:101CB0007B60124A7B68DBB203210B43D9B2352328
:101CC000D1540E4A4A230121D1540C4A3423D35C07
:101CD000DBB21A00302313407B60084A7B68DBB21A
:101CE00003210B43D9B23423D154044A482303219E
:101CF000D154C046BD4602B080BDC046004400413C
:101D000080B500AF184B9847184B9847184B194AA5
:101D10001A60174B184A9A81154BC02292025A60DA
:101D2000C046134BDB695B07DB0FDBB2002BF8D13E
:101D30000F4B04229A750B20104B984701210B2062
:101D40000F4B98470A4A136802210B431360C046A1
:101D5000074BDB699B07DB0FDBB2002BF8D1094B8C
:101D60009847C046BD4680BD211C0000851C000070
:101D7000001000428400014014FBFFFFE11A000044
:101D80000D1B00003D1E000080B584B000AF7860E0
:101D9000104B98470023FB600FE00F4B1B7EDB07C7
:101DA000DB0FDBB2012B08D10B49FB685A1CFA6030
:101DB0007A68D3181B789BB20B857A68FB68D318B6
:101DC0001B78002BE9D1054B9847C046BD4604B0AF
:101DD00080BDC046051C000000100042E91B000049
:101DE00080B500AF124B1B7E5B07DB0FDBB2002B15
:101DF0001AD0104B1B687F2B0BDD0E4B00221A6094
:101E00000C4B1B680A4A128D92B2D1B20A4AD154C5
:101E10000AE0084B1B68591C064A1160044A128DDF
:101E200092B2D1B2044AD154C046BD4680BDC0462C
:101E3000001000429C0000203401002080B582B0D8
:101E400000AF00237B6007E0084A7B68D3180022BC
:101E50001A707B6801337B607B687F2BF4D9044B5D
:101E600000221A60C046BD4602B080BD3401002089
:101E70009C00002090B58DB000AF78607B681800A2
:101E8000E64B98470300FB62E5497B680322180094
:101E9000E44B9847031E2AD1E34B1800E34B9847C5
:101EA0007B681800DD4B98470400DD4B1800DB4BC6
:101EB000984703009C421AD92823FA18DC497B680A
:101EC0001800DC4B9847BB6A002B01DC0123BB6286
:101ED000BA6AD94B1A60BA6AD8490823FB181800A5
:101EE000D74B98470823FB181800D04B9847D54983
:101EF0007B6804221800CB4B9847031E7BD1D24B42
:101F00005B7801221343DAB2CF4B5A70CE4B9B78E9
:101F100001221343DAB2CC4B9A70CB4BDB7801220F
:101F20001343DAB2C84BDA70C74B1B790122134353
:101F3000DAB2C54B1A71C44B9B7802221343DAB252
:101F4000C14B9A70C04B5B7802221343DAB2BE4B8E
:101F50005A70BD4B9B7804221343DAB2BA4B9A7085
:101F6000B94B5B7804221343DAB2B74B5A70B64BC5
:101F70001B7904221343DAB2B34B1A71B24BDB78EC
:101F800004221343DAB2B04BDA70AF4BDB78022293
:101F90001343DAB2AC4BDA70AB4B1B79022213431A
:101FA000DAB2A94B1A71A84B9B7808221343DAB214
:101FB000A54B9A70A44B5B7808221343DAB2A24B6C
:101FC0005A70A14BDB7808221343DAB29E4BDA70C9
:101FD0009D4BDB7810221343DAB29B4BDA709A4B9D
:101FE0005B7810221343DAB2974B5A70974B012259
:101FF0001A7000F089FC96497B6804221800894B0E
:102000009847031E7BD1904B5B7801229343DAB251
:102010008D4B5A708C4B9B7801229343DAB28A4BDA
:102020009A70894BDB7801229343DAB2864BDA70DF
:10203000854B1B7901229343DAB2834B1A71824B91
:102040009B7802229343DAB27F4B9A707E4B5B7887
:1020500002229343DAB27C4B5A707B4B9B7804226A
:102060009343DAB2784B9A70774B5B7804229343B0
:10207000DAB2754B5A70744B1B7904229343DAB26F
:10208000714B1A71704BDB7804229343DAB26E4BBA
:10209000DA706D4BDB7802229343DAB26A4BDA7066
:1020A000694B1B7902229343DAB2674B1A71664B74
:1020B0009B7808229343DAB2634B9A70624B5B7849
:1020C00008229343DAB2604B5A705F4BDB780822E8
:1020D0009343DAB25C4BDA705B4BDB7810229343AC
:1020E000DAB2594BDA70584B5B7810229343DAB26C
:1020F000554B5A70554B00221A7000F005FC55499B
:102100007B6805221800474B9847031E0AD1524BA3
:1021100001221A70514B01221A70514B01221A7080
:1021200000F0F2FB4F497B68052218003D4B9847B1
:10213000031E0AD1484B00221A70484B00221A7025
:10214000474B00221A7000F0DFFB47497B680522ED
:102150001800344B9847031E04D13F4B01221A70DC
:1021600000F0D2FB41497B68052218002D4B9847AF
:10217000031E04D1384B00221A7000F0C5FB3C4905
:102180007B6805221800274B9847031E04D1334B68
:1021900001221A7000F0B8FB36497B68052218004E
:1021A000204B9847031E04D12C4B00221A7000F0DC
:1021B000ABFB31497B68062218001A4B9847031E77
:1021C00004D12E4B01221A7000F09EFB2C497B6833
:1021D00006221800134B9847031E04D1274B0022F8
:1021E0001A7000F091FB27497B68062218000D4BFE
:1021F0009847031E04D1244B01221A7000F084FB7F
:1022000022497B6806221800064B9847031E3FD1DF
:102210001D4B00221A7000F077FBC0464971000088
:102220000C000020577100001C840000891D000074
:102230002C840000F57000005C0200203484000053
:10224000B17000003C8400001C010020CE01002081
:10225000448400004C8400002D010020CD010020AA
:10226000CA010020548400005C84000064840000E3
:102270006C840000748400007C840000CF01002086
:10228000848400008C8400002E01002094840000CF
:10229000BA497B6806221800B94B9847031E03D140
:1022A000B84B01221A702FE3B7497B680622180049
:1022B000B34B9847031E03D1B24B00221A7023E39D
:1022C000B2497B6806221800AD4B9847031E03D124
:1022D000AF4B01221A7017E3AE497B680622180043
:1022E000A74B9847031E03D1A94B00221A700BE39A
:1022F000A9497B6806221800A14B9847031E03D109
:102300000B20A64B9847FFE2A5497B6806221800E0
:102310009B4B9847031E03D10B20A24B9847F3E237
:10232000A1497B6806221800954B9847031E03D1EC
:102330000C209A4B9847E7E29C497B6806221800DC
:102340008F4B9847031E03D10C20964B9847DBE236
:1023500097497B6806221800894B9847031E03D1D2
:102360000D208E4B9847CFE292497B6806221800D9
:10237000834B9847031E03D10D208A4B9847C3E235
:102380008D497B68062218007D4B9847031E03D1B8
:102390000E20824B9847B7E288497B6806221800D6
:1023A000774B9847031E03D10E207E4B9847ABE234
:1023B00083497B6806221800714B9847031E03D19E
:1023C0000F20764B98479FE27E497B6806221800D3
:1023D0006B4B9847031E03D10F20724B984793E233
:1023E00079497B6806221800654B9847031E03D184
:1023F00010206A4B984787E274497B6806221800D0
:102400005F4B9847031E03D11020664B98477BE231
:102410006F497B6806221800594B9847031E03D169
:1024200011205E4B98476FE26A497B6806221800CC
:10243000534B9847031E03D111205A4B984763E230
:1024400065497B68062218004D4B9847031E03D14F
:102450001220524B984757E260497B6806221800C9
:10246000474B9847031E03D112204E4B98474BE22F
:102470005B497B6806221800414B9847031E03D135
:102480001320464B98473FE256497B6806221800C6
:102490003B4B9847031E03D11320424B984733E22E
:1024A00051497B6806221800354B9847031E03D11B
:1024B00014203A4B984727E24C497B6806221800C3
:1024C0002F4B9847031E03D11420364B98471BE22D
:1024D00047497B6806221800294B9847031E03D101
:1024E00015202E4B98470FE242497B6806221800C0
:1024F000234B9847031E03D115202A4B984703E22C
:102500003D497B68052218001D4B9847031E03D1E7
:102510003A4B01221A70F7E139497B68052218000D
:10252000174B9847031E05D1344B00221A70354BC8
:102530009847E9E134497B6805221800104B984719
:10254000031E03D1314B01221A70DDE12E497B6855
:10255000052218000A4B9847031E03D12B4B00227B
:102560001A70D1E12A497B6805221800044B98476C
:10257000031E51D1274B01221A70C5E19C84000033
:1025800057710000B5010020A4840000AC84000055
:10259000D5010020B4840000BC8400009D420000EE
:1025A000C4840000C1420000CC840000D484000038
:1025B000DC840000E4840000EC840000F48400006B
:1025C000FC840000048500000C85000014850000D8
:1025D0001C850000248500002C8500003485000047
:1025E0003C850000448500004C85000054850000B7
:1025F0005C850000648500006C850000C901002036
:1026000074850000213300007C8500001901002042
:1026100084850000D4010020BF497B680522180092
:10262000BE4B9847031E03D1BD4B00221A706BE1CD
:10263000BC497B6805221800B84B9847031E18D187
:10264000B94B5B7804221343DAB2B74B5A70B64BDE
:102650009B7804221343DAB2B34B9A70B24B5B7887
:1026600010221343DAB2B04B5A70B04B01221A70E9
:102670004AE1AF497B6805221800A84B9847031E22
:1026800018D1A94B5B7804229343DAB2A64B5A7057
:10269000A54B9B7804229343DAB2A34B9A70A24BCA
:1026A0005B7810229343DAB29F4B5A709F4B002203
:1026B0001A7029E19F497B6805221800974B9847BB
:1026C000031E2AD1984B9B7802221343DAB2964B11
:1026D0009A70954B5B7802221343DAB2924B5A7090
:1026E000914B5B7801221343DAB28F4B5A708E4BB9
:1026F0009B7801221343DAB28B4B9A708A4BDB78BA
:1027000001221343DAB2884BDA70874B1B7901221E
:102710001343DAB2844B1A71F6E087497B680522CD
:1027200018007E4B9847031E2AD17F4B9B780222CC
:102730009343DAB27C4B9A707B4B5B7802229343D3
:10274000DAB2794B5A70784B5B7801229343DAB254
:10275000754B5A70744B9B7801229343DAB2724BDB
:102760009A70714BDB7801229343DAB26E4BDA70C8
:102770006D4B1B7901229343DAB26B4B1A71C3E0A4
:102780006E497B6807221800644B9847031E2AD1C4
:10279000654B9B7808221343DAB2634B9A70624B05
:1027A0005B7808221343DAB25F4B5A705E4B5B785A
:1027B00001221343DAB25C4B5A705B4B9B780122C7
:1027C0001343DAB2584B9A70574BDB78012213430C
:1027D000DAB2554BDA70544B1B7901221343DAB24B
:1027E000514B1A7190E056497B68072218004B4BF9
:1027F0009847031E2AD14C4B9B7808229343DAB2A8
:10280000494B9A70484B5B7808229343DAB2464BA7
:102810005A70454B5B7801229343DAB2424B5A70AF
:10282000414B9B7801229343DAB23F4B9A703E4B67
:10283000DB7801229343DAB23B4BDA703A4B1B79D7
:1028400001229343DAB2384B1A715DE03D497B684F
:1028500007221800314B9847031E03D13A4B01223F
:102860001A7051E039497B68072218002B4B9847B2
:10287000031E03D1344B00221A7045E034497B68B3
:1028800007221800254B9847031E03D1314B012224
:102890001A7039E030497B68072218001F4B9847AF
:1028A000031E03D12B4B00221A702DE02B497B68AD
:1028B00008221800194B9847031E03D1284B012208
:1028C0001A7021E027497B6808221800134B9847AB
:1028D000031E03D1224B00221A7015E022497B68A7
:1028E0000A2218000D4B9847031E02D11F4B984730
:1028F000FEE71F497B680A221800084B9847031E11
:1029000002D11C4B01221A701B4B18001B4B98471D
:10291000C046BD460DB090BD8C85000057710000CB
:10292000D4010020948500001C010020B401002087
:102930009C850000A4850000AC850000B4850000E3
:10294000BC850000C485000031010020CC8500005A
:10295000D4850000B7010020DC850000E48500007C
:10296000D2010020F0850000FC8500004901000034
:1029700008860000CC01002014860000891D00009C
:1029800080B582B000AF00237B601EE0324A7B68D6
:10299000D3181B78802252421343D9B22E4A7B6847
:1029A000D3180A1C1A702C4A7B68D31808331B787A
:1029B000802252421343D9B2274A7B68D318083386
:1029C0000A1C1A707B6801337B607B68072BDDDD96
:1029D000214B1978204B1B7A1A0020201F4B984757
:1029E0001D4B59781C4B5B7A1A0021201B4B9847D2
:1029F000194B9978184B9B7A1A002220174B98474D
:102A0000154BD978144BDB7A1A002320134B9847C7
:102A1000114B1979104B1B7B1A0024200F4B984740
:102A20000D4B59790C4B5B7B1A0025200B4B9847BB
:102A3000094B9979084B9B7B1A002620074B984736
:102A4000054BD979044BDB7B1A002720034B9847B1
:102A5000C046BD4602B080BD1C01002021370000E9
:102A600080B582B000AF78607B681B88814A934252
:102A70002AD9814BDB7808221343DAB27E4BDA7015
:102A80007D4BDB7810221343DAB27B4BDA707A4B42
:102A90001B7902221343DAB2774B1A71764BDB783B
:102AA00002221343DAB2744BDA70734B9B78042220
:102AB0001343DAB2704B9A706F4B5B780422134366
:102AC000DAB26D4B5A7029E06B4BDB7808229343E6
:102AD000DAB2694BDA70684BDB7810229343DAB2D2
:102AE000654BDA70644B1B7902229343DAB2624B76
:102AF0001A71614BDB7802229343DAB25E4BDA70D3
:102B00005D4B9B7804229343DAB25B4B9A705A4B2D
:102B10005B7804229343DAB2574B5A707B680233D6
:102B20001B88544A93421CD9534B9B780122134370
:102B3000DAB2514B9A70504B5B7801221343DAB2F0
:102B40004D4B5A704C4B1B7901221343DAB24A4B5E
:102B50001A71494BDB7801221343DAB2464BDA7023
:102B60001BE0454B9B7801229343DAB2424B9A70AB
:102B7000414B5B7801229343DAB23F4B5A703E4B94
:102B80001B7901229343DAB23B4B1A713A4BDB7843
:102B900001229343DAB2384BDA707B6804331B8826
:102BA000344A93420ED9344B9B7802221343DAB253
:102BB000314B9A70304B5B7802221343DAB22E4BC2
:102BC0005A700DE02C4B9B7802229343DAB22A4BC9
:102BD0009A70294B5B7802229343DAB2264B5A70E3
:102BE0007B6808331B88234A93420ED9224B1B79FA
:102BF00004221343DAB2204B1A711F4BDB780422F4
:102C00001343DAB21C4BDA700DE01B4B1B79042224
:102C10009343DAB2184B1A71174BDB7804229343B3
:102C2000DAB2154BDA707B680A331B88114A93427B
:102C30000ED9114B5B7808221343DAB20E4B5A704F
:102C40000D4B9B7808221343DAB20B4B9A700DE0C0
:102C5000094B5B7808229343DAB2074B5A70064B54
:102C60009B7808229343DAB2034B9A70C046BD4664
:102C700002B080BDC40900001C01002080B500AF77
:102C8000874B1B78132B00D901E19A00854BD31891
:102C90001B689F46844B9847844B9B7804221343C0
:102CA000DAB2824B9A707E4B1B780133DAB27C4BDE
:102CB0001A70F2E07D4B9B7804229343DAB27B4B8F
:102CC0009A707A4B9B7802221343DAB2774B9A7050
:102CD000734B1B780133DAB2714B1A70DDE0734B22
:102CE0009B7802229343DAB2704B9A706F4B9B78B9
:102CF00001221343DAB26D4B9A70694B1B78013392
:102D0000DAB2674B1A70C8E0684B9B780122934394
:102D1000DAB2664B9A70654B5B7801221343DAB2E4
:102D2000624B5A705E4B1B780133DAB25C4B1A70FF
:102D3000B3E05E4B5B7801229343DAB25B4B5A708F
:102D40005A4B5B7802221343DAB2584B5A70544BF9
:102D50001B780133DAB2524B1A709EE0534B5B780A
:102D600002229343DAB2514B5A70504B5B780422E3
:102D70001343DAB24D4B5A70494B1B780133DAB228
:102D8000474B1A7089E0494B5B7804229343DAB2CF
:102D9000464B5A70454BDB7804221343DAB2434B5F
:102DA000DA703F4B1B780133DAB23D4B1A7074E096
:102DB0003E4BDB7804229343DAB23C4BDA703B4B58
:102DC000DB7802221343DAB2384BDA70344B1B78CB
:102DD0000133DAB2324B1A705FE0344BDB780222F7
:102DE0009343DAB2314BDA70304BDB780122134374
:102DF000DAB22E4BDA702A4B1B780133DAB2284B49
:102E00001A704AE0294BDB7801229343DAB2274B50
:102E1000DA70264B1B7902221343DAB2234B1A7164
:102E20001F4B1B780133DAB21D4B1A7035E01F4B74
:102E30001B7902229343DAB21C4B1A711B4B1B798C
:102E400001221343DAB2194B1A71154B1B78013367
:102E5000DAB2134B1A7020E0144B1B790122934312
:102E6000DAB2124B1A71114B1B7904221343DAB2F6
:102E70000E4B1A710A4B1B780133DAB2084B1A70E9
:102E80000BE0094B9847064B00221A7005E0064BF1
:102E90009847034B00221A70C046C046BD4680BD0D
:102EA000A000002018860000213300001C01002033
:102EB00080B500AF9E4B1B780A2B00D930E19A00F9
:102EC0009C4BD3181B689F469B4B98479B4B5B784A
:102ED00010221343DAB2994B5A70954B1B78013389
:102EE000DAB2934B1A7020E1944B5B781022934333
:102EF000DAB2924B5A708E4B1B780133DAB28C4B9C
:102F00001A7012E18D4B5B7810221343DAB28B4BAF
:102F10005A70874B1B780133DAB2854B1A7004E183
:102F2000864B5B7810229343DAB2844B5A70804B05
:102F30001B780133DAB27E4B1A70F6E07F4B5B7878
:102F400010221343DAB27D4B5A70794B1B78013350
:102F5000DAB2774B1A70E8E0784B5B781022934333
:102F6000DAB2764B5A70724B1B780133DAB2704B7F
:102F70001A70DAE0714B5B7804221343DAB26F4BBC
:102F80005A706E4B9B7804221343DAB26B4B9A70E3
:102F90006A4BDB7802221343DAB2684BDA70674B74
:102FA0001B7902221343DAB2644B1A71604B1B780F
:102FB0000133DAB25E4B1A70B7E0604B5B780422E3
:102FC0009343DAB25D4B5A705C4B9B780422934377
:102FD000DAB25A4B9A70594B5B7802221343DAB239
:102FE000564B5A70554B9B7802221343DAB2534B1F
:102FF0009A70524BDB7802229343DAB24F4BDA706D
:103000004E4B1B7902229343DAB24C4B1A71484B58
:103010001B780133DAB2464B1A7086E0474B5B7877
:1030200002229343DAB2454B5A70444B9B780222FA
:103030009343DAB2414B9A70404B5B7808221343BA
:10304000DAB23E4B5A703D4B9B7808221343DAB2FA
:103050003A4B9A70394BDB7801221343DAB2374B83
:10306000DA70364B1B7901221343DAB2334B1A71F3
:103070002F4B1B780133DAB22D4B1A7055E02F4BD2
:103080005B7808229343DAB22C4B5A702B4B9B7817
:1030900008229343DAB2294B9A70284B5B780222BC
:1030A0001343DAB2254B5A70244B9B780222134308
:1030B000DAB2224B9A70214BDB7801229343DAB2C9
:1030C0001E4BDA701D4B1B7901229343DAB21B4B66
:1030D0001A71174B1B780133DAB2154B1A7024E0C2
:1030E000164B5B7802229343DAB2144B5A70134B9F
:1030F0009B7802229343DAB2104B9A700F4B5B78A5
:1031000004221343DAB20D4B5A700C4B9B78042205
:103110001343DAB2094B9A70054B00221A7004E08F
:10312000054B9847024B00221A70C046BD4680BD31
:10313000A100002068860000213300001C0100204F
:1031400080B500AF734B1A78734B1B789A4262D9E3
:10315000724B5B7801221343DAB2704B5A706F4B9B
:103160009B7801221343DAB26C4B9A706B4BDB787D
:1031700001221343DAB2694BDA70684B1B790122E2
:103180001343DAB2654B1A71644B9B7802221343E6
:10319000DAB2624B9A70614B5B7802221343DAB267
:1031A0005E4B5A705D4B9B7804221343DAB25B4B43
:1031B0009A705A4B5B7804221343DAB2574B5A7019
:1031C000564B1B7904221343DAB2544B1A71534BFA
:1031D000DB7804221343DAB2504BDA704F4BDB78C2
:1031E00002221343DAB24D4BDA704C4B1B790222A8
:1031F0001343DAB2494B1A71484B9B7808221343A8
:10320000DAB2464B9A70454B5B7808221343DAB228
:10321000424B5A7061E0414B5B7801229343DAB232
:103220003E4B5A703D4B9B7801229343DAB23B4BA5
:103230009A703A4BDB7801229343DAB2374BDA705B
:10324000364B1B7901229343DAB2344B1A71334B5C
:103250009B7802229343DAB2304B9A702F4B5B7803
:1032600002229343DAB22D4B5A702C4B9B780422E6
:103270009343DAB2294B9A70284B5B78042293432C
:10328000DAB2264B5A70254B1B7904229343DAB2EB
:10329000224B1A71214BDB7804229343DAB21F4B85
:1032A000DA701E4BDB7802229343DAB21B4BDA70E2
:1032B0001A4B1B7902229343DAB2184B1A71174B3F
:1032C0009B7808229343DAB2144B9A70134B5B78C5
:1032D00008229343DAB2114B5A700E4B1B7801331C
:1032E000DAB20C4B1A700B4B1B78632B0FD9094BBE
:1032F00000221A70084B1B780A33DAB2064B1A7098
:10330000054B1B78632B02D9034B0A221A70C04667
:10331000BD4680BDA2000020100000201C0100203E
:1033200080B582B000AF00237B600DE00A4A7B6865
:10333000D31880221A70084A7B68D3180833802279
:103340001A707B6801337B607B68072BEEDDC0461B
:10335000BD4602B080BDC0461C01002080B584B0CF
:1033600000AF78607B681B68FB60FB68DB69072245
:1033700013405A1E9341DBB21800BD4604B080BD15
:1033800080B582B000AF7860C0467B681800044BFF
:103390009847031EF9D1C046BD4602B080BDC04665
:1033A0005D33000080B582B000AF78607B68642236
:1033B0001A607B681B4A5A607B6800229A607B68AF
:1033C00000221A737B6800221A767B68802292039F
:1033D0001A617B6801225242DA827B6801225242E2
:1033E0009A827B680022DA617B6800221A627B681D
:1033F0002422002199547B6800229A627B682C2247
:10340000002199547B682D22002199547B682E223B
:10341000002199547B68D7221A86C046BD4602B067
:1034200080BDC046480D000080B584B000AF786014
:103430007B681B68BB600023FB607B681800104B37
:103440009847BB681B6802221A43BB681A600CE0ED
:10345000FB680133FB607B68DB881A1EFB689A42BD
:1034600003D8BB6810225A8306E0BB685B8B9BB213
:103470001A0010231340EBD0BD4604B080BDC046F7
:103480008133000080B58EB000AF3B1D18000B4BA0
:1034900098473B1D0A4ADA823B1D64221A603A1D96
:1034A0000849094B1800094B9847074B1800084B6F
:1034B0009847C046BD460EB080BDC046A53300004B
:1034C00010270000001C0042800200204112000072
:1034D0002934000080B586B000AF39601100FB1DB3
:1034E000021C1A70BB1D0A1C1A70FB1D1B789AB2B5
:1034F0000823FB181A80BB1D1B789AB20823FB18FF
:103500005A800823FB183A685A600823FB180022E7
:103510001A720823FB1800225A720823FB18002293
:103520009A721623FB1800221A800823FA18054BFA
:1035300011001800044B984703001800BD4606B060
:1035400080BDC046800200209D15000080B584B07B
:1035500000AF0200FB1D1A700F23FB18FA1D127832
:10356000D2091A700E23FB18FA1D127852091A702C
:103570000D4BBB600F23FB181B78002B0FD10F23C3
:10358000FB181B789B0010229446BC446344083B04
:103590001A680E23FB181B78DB01D31800E0002308
:1035A0001800BD4604B080BD0044004180B582B023
:1035B00000AF0200FB1D1A70FB1D1B781800034BA7
:1035C000984703001800BD4602B080BD4D3500008D
:1035D00080B582B000AF78607B6800221A707B688B
:1035E00001225A707B6800229A70C046BD4602B024
:1035F00080BDC04680B584B000AF0200FB1D1A70CC
:10360000BB1D0A1C1A70FB1D1B7818000D4B984738
:103610000300FB60FB1D1B781F22134001229A4010
:103620001300BB60BB1D1B78002B03D0FB68BA687E
:103630009A6102E0FB68BA685A61C046BD4604B0B0
:1036400080BDC046AD35000090B585B000AF0F23FA
:10365000FB1800221A703B1D00225A700023BB6029
:1036600036E03B1D00221A70BB68DBB22033DBB2B0
:10367000FC1D391D02221800284B984703002370B7
:10368000FB1D1B78002B20D13B1D01221A70BB684B
:10369000DBB22033DBB2FC1D391D022218001F4BA8
:1036A000984703002370FB1D1B78002B0DD10122CE
:1036B000BB689A4013005AB20F23FB181B785BB209
:1036C00013435AB20F23FB181A70BB680133BB6057
:1036D000BB68072BC5DD3B1D80225A703B1D1222A3
:1036E0001A70BC1D3B1D0222190021200B4B98476C
:1036F000030023703B1D13221A70BC1D3B1D0222C8
:1037000019002120054B9847030023700F23FB1855
:103710001B781800BD4605B090BDC046D5340000EA
:1037200090B585B000AF040008001100FB1D221CFD
:103730001A70BB1D021C1A707B1D0A1C1A700C2308
:10374000FB1812221A700C23FB18BA1D12785A703B
:103750000C23F918FB1D1B78022218000B4B98470D
:103760000C23FB1813221A700C23FB187A1D1278F5
:103770005A700C23F918FB1D1B7802221800034B0A
:103780009847C046BD4605B090BDC046D534000040
:1037900080B582B000AF3B1D18000A4B98473B1D17
:1037A00001225A703B1D01221A703B1D190007208F
:1037B000054B984701210720044B9847C046BD465A
:1037C00002B080BDD1350000E90C0000F5350000E5
:1037D00080B584B000AF0200FB1D1A700F23FB18E8
:1037E000FA1D1278D2091A700E23FB18FA1D1278EE
:1037F00052091A700D4BBB600F23FB181B78002B6E
:103800000FD10F23FB181B789B0010229446BC4459
:103810006344083B1A680E23FB181B78DB01D3189E
:1038200000E000231800BD4604B080BD0044004104
:1038300080B584B000AF78607B681B68FB60FB6874
:103840005B7EDBB25BB2002B01DA012300E00023D8
:103850001800BD4604B080BD80B586B000AF78606A
:103860007B681B683B613B691B7EDBB2FB6000230E
:103870007B61FB680122134003D07B690122134363
:103880007B61FB680422134003D07B69022213434F
:103890007B61FB680222134003D07B69042213433F
:1038A0007B617B691800BD4606B080BD80B584B0E1
:1038B00000AF786039607B681B68BB600023FB60E9
:1038C0003B680122134003D0FB6801221343FB60D5
:1038D0003B680222134003D0FB6804221343FB60C1
:1038E0003B680422134003D0FB6802221343FB60B1
:1038F000FB68DAB2BB681A76C046BD4604B080BD2C
:1039000080B584B000AF78607B681B68FB60C04600
:103910007B6818000E4B9847031EF9D1FB680F22F5
:103920009A75FB680F221A76FB681B78DBB20222BD
:103930001343DAB2FB681A70C0467B681800044B68
:103940009847031EF9D100231800BD4604B080BD7E
:103950003138000080B584B000AF78607B681B68A8
:10396000FB60C0467B6818000B4B9847031EF9D1DB
:10397000FB681B7BDBB202221343DAB2FB681A73CB
:10398000C0467B681800044B9847031EF9D1C04617
:10399000BD4604B080BDC0463138000080B584B05B
:1039A00000AF786039607B681800184B98470200B8
:1039B0000123134001D1052323E07B681B68FB60D2
:1039C000C0467B681800124B9847031EF9D1FB686C
:1039D0005B8B9AB23B681A807B68012118000D4B03
:1039E00098477B681800094B98470200042313404E
:1039F00006D07B6804211800064B98471E2300E080
:103A000000231800BD4604B080BDC04659380000F0
:103A100031380000AD38000080B582B000AF020040
:103A2000FB1D1A70FB1D1B781800034B9847030001
:103A30001800BD4602B080BDD137000080B582B00D
:103A400000AF78607B6800221A707B6801225A7090
:103A50007B6800229A70C046BD4602B080BDC04659
:103A600080B584B000AF0200FB1D1A70BB1D0A1C9C
:103A70001A70FB1D1B7818000D4B98470300FB6064
:103A8000FB1D1B781F22134001229A401300BB60CC
:103A9000BB1D1B78002B03D0FB68BA689A6102E05B
:103AA000FB68BA685A61C046BD4604B080BDC046D6
:103AB000193A000080B500AF034B9847034B984775
:103AC000C046BD4680BDC046D13A0000293B00003B
:103AD00080B582B000AF3B1D1800104B98473B1DCE
:103AE00002225A703B1D01221A703B1D1900192039
:103AF0000B4B9847002119200A4B98473B1D012288
:103B00005A703B1D19001820054B984701211820B9
:103B1000044B9847C046BD4602B080BD3D3A000008
:103B2000E90C0000613A000080B58CB000AF3B00AA
:103B300018000E4B98473B0000229A603B0002227F
:103B40001A733B000022DA743B00C0225201DA8172
:103B50003A000749074B1800074B9847054B1800D8
:103B6000064B9847C046BD460CB080BD9102000090
:103B7000004000428C020020E108000001390000F2
:103B800080B582B000AF094B1800094B9847BA1DA9
:103B9000064B11001800074B9847031E052BF6D063
:103BA000BB1D1B881800BD4602B080BD8C020020E2
:103BB000553900009D390000F0B58FB000AFF862B4
:103BC00001211920534B98470020534B984703007D
:103BD0003B6100237B61514B002438697969C0182F
:103BE00061414F4C4F4A0023A04703000C001800CE
:103BF0004D4B984700211920464B98470020464BD3
:103C000098470300BB610023FB61BB69FC699A0F05
:103C1000A0007862786A104378629B003B623B6A3E
:103C20007C6AB969FA695B1854411A0F2601164378
:103C30001D01ED1AA6412B003400384900225B1803
:103C4000544118002100364C364A0023A047030097
:103C50000C001800344B984700237B6352E000218E
:103C600018202C4B984700202B4B98470300BB6033
:103C70000023FB602D4C28220023B868F968A04778
:103C800003000C0019002200244B0024C9186241D3
:103C900008001100224C234A0023A04703000C0017
:103CA0001800214B98477B6B5B00FA6AD418204BB5
:103CB00098470300238001211820164B98470020C5
:103CC000154B984703003B6000237B60174C28226C
:103CD000002338687968A04703000C00190022000F
:103CE0000E4B0024C9186241080011000C4C0D4A0B
:103CF0000023A04703000C0018000B4B98477B6B78
:103D000001337B637B6B062BA9DDC046BD460FB03C
:103D1000F0BDC046613A0000994A0000BFCF6A007A
:103D2000E9540000C0CF6A000100002029550000BE
:103D3000813B000080B582B000AF0200FB1D1A700D
:103D4000064BFA1D127811001F220A4001219140F2
:103D50000A001A60C046BD4602B080BD00E100E026
:103D6000B0B582B000AF02003960FB1D1A70FB1DB8
:103D70001B787F2B32D92F4CFB1D1B781A000F2389
:103D80001340083B99082B4AFB1D1B7818000F2392
:103D90000340083B9B0806339B00D31804331B6881
:103DA000FA1D1278100003220240D200FF2090403A
:103DB0000200D2431A403B689B01FF201840FB1DC4
:103DC0001B781D0003232B40DB00984003001A439F
:103DD0008B1D9B00E31804331A6027E0164CFB1D73
:103DE0001B785BB29B081449FA1D127852B29208F4
:103DF000C03292005258F91D097808000321014091
:103E0000C900FF2088400100C94311403A6892016F
:103E1000FF201040FA1D1278150003222A40D2001C
:103E2000904002000A43C0339B001A51C046BD4671
:103E300002B0B0BD00ED00E000E100E080B582B06E
:103E400000AF78607B6800221A707B6801225A708C
:103E50007B6800229A70C046BD4602B080BDC04655
:103E600080B582B000AF0B4B00221A603B1D1800DA
:103E7000094B98473B1D00225A703B1D01221A70C6
:103E80003B1D19000220054B9847C046BD4602B0B5
:103E900080BDC0467C0200203D3E0000E90C0000D1
:103EA00080B500AF154B154A126A802109010A43FB
:103EB0001A62134B134A5A80134B144A1A80124B3E
:103EC00000221A82104BE22292011A830E4A0E4BF4
:103ED0001B889BB202210B439BB213800A4B012229
:103EE0001A72094B10225A731220094B984702216B
:103EF0001220084B9847C046BD4680BD00040040D4
:103F0000000C00401B400000002C0042202000005C
:103F1000353D0000613D000080B500AF0D4B9B7B3F
:103F2000DB07DB0FDBB2012B11D10B4B1B685A1CDB
:103F3000094B1A60084B1B68642B05DD074B0122F7
:103F40001A70054B00221A60024B10229A73C04669
:103F5000BD4680BD002C00427C020020580200209B
:103F6000F0B587B004AF294B1B78DBB2002B07D02C
:103F7000274B1800274B9847254B1800264B98478E
:103F8000264B1A68264B1921100098470B1E0ED19C
:103F9000244B1B78DBB2002B02D0234B984706E062
:103FA000224B1B78DBB2002B01D0214B9847214BD1
:103FB0001B78DBB2002B01D01F4B9847134B1B78AB
:103FC000DBB2002B1ED0124B1B881E00104B5B88EF
:103FD0007B600F4B9B881A000D4BDB881C000C4B41
:103FE0001B891D000A4B5B891449154803930295F0
:103FF000019400927B683200124CA047104B1800CD
:10400000114B9847C046BD4603B0F0BDC901002022
:10401000D4020020B93B0000612A00007C0200208D
:10402000DD540000B70100207D2C0000310100208C
:10403000B12E0000D2010020413100009486000022
:1040400094020020B1700000891D000080B584B08A
:1040500000AF0200FB1D1A700F23FB18FA1D127827
:10406000D2091A700E23FB18FA1D127852091A7021
:104070000D4BBB600F23FB181B78002B0FD10F23B8
:10408000FB181B789B0010229446BC446344083BF9
:104090001A680E23FB181B78DB01D31800E00023FD
:1040A0001800BD4604B080BD0044004180B582B018
:1040B00000AF0200FB1D1A70FB1D1B781800034B9C
:1040C000984703001800BD4602B080BD4D40000077
:1040D00080B582B000AF78607B6800221A707B6880
:1040E00001225A707B6800229A70C046BD4602B019
:1040F00080BDC04680B584B000AF0200FB1D1A70C1
:10410000BB1D0A1C1A70FB1D1B7818000D4B98472D
:104110000300FB60FB1D1B781F22134001229A4005
:104120001300BB60BB1D1B78002B03D0FB68BA6873
:104130009A6102E0FB68BA685A61C046BD4604B0A5
:1041400080BDC046AD40000080B582B000AF3B1DD1
:104150001800494B98473B1D01225A703B1D012214
:104160001A703B1D19000520444B98473B1D190050
:104170000620424B98473B1D190007203F4B9847AC
:104180003B1D19001C203D4B984701211C203C4B36
:1041900098473B1D19000B20384B984701210B20F5
:1041A000374B98473B1D19000C20344B9847012191
:1041B0000C20334B98473B1D19000D202F4B98477F
:1041C00001210D202E4B98473B1D19000E202B4B33
:1041D000984701210E202A4B98473B1D19000F20BC
:1041E000264B984701210F20254B98473B1D19006E
:1041F0001020224B984701211020214B98473B1D4E
:10420000190011201D4B9847012111201C4B984784
:104210003B1D19001220194B984701211220184B01
:1042200098473B1D19001320144B98470121132078
:10423000134B98473B1D19001420104B9847012140
:1042400014200F4B98473B1D190015200B4B984726
:10425000012115200A4B98473B1D01221A703B1D76
:1042600019001B20054B984701211B20044B984740
:10427000C046BD4602B080BDD1400000E90C000040
:10428000F540000080B500AF00210520024B9847A3
:10429000C046BD4680BDC046F540000080B582B036
:1042A00000AF0200FB1D1A70FB1D1B7800211800D7
:1042B000024B9847C046BD4602B080BDF5400000A5
:1042C00080B582B000AF0200FB1D1A70FB1D1B7889
:1042D00001211800024B9847C046BD4602B080BD80
:1042E000F540000080B500AFC046BD4680BDC04669
:1042F00080B582B000AF104B1B68002B12D1EFF3DA
:1043000010837B607B68002B09D172B6BFF35F8F8F
:104310000A4B00221A700A4B01221A7002E0084B65
:1043200000221A70044B1B685A1C034B1A60C046CB
:10433000BD4602B080BDC046A40000201100002090
:10434000A800002080B500AF0B4B1B685A1E0A4B1B
:104350001A60094B1B68002B0AD1084B1B78DBB293
:10436000002B05D0064B01221A70BFF35F8F62B697
:10437000C046BD4680BDC046A4000020A800002065
:104380001100002080B582B000AF78607B68012208
:104390005A607B6800225A707B6806221A707B681C
:1043A00000221A727B6800225A72C046BD4602B0D3
:1043B00080BDC04680B582B000AF78607B680322C4
:1043C0001A707B6800225A707B6801229A70C0467E
:1043D000BD4602B080BDC04680B582B000AF0200CD
:1043E000FB1D1A70034AFB1D1B781372C046BD46A5
:1043F00002B080BD0004004080B582B000AF020072
:10440000FB1D1A70BB1D0A1C1A70FB1D1B78012BAB
:1044100008D0022B0BD0002B0ED10B4ABB1D1B78F2
:1044200053720BE0084ABB1D1B78937206E0064AE4
:10443000BB1D1B78D37201E0172300E00023180096
:10444000BD4602B080BDC0460004004080B582B0C9
:1044500000AF0200FB1D1A70084AFB1D1B780F21DC
:104460000B40D9B253680F20014049001E208343FE
:104470000B435360C046BD4602B080BD00400041C2
:1044800080B500AFC046044BDB6810221340FAD061
:10449000C046BD4680BDC0460008004080B500AFA4
:1044A0000C4B02229A840C4B98470A4A0B4B9B6890
:1044B000D362084A094B5B689362064B00229A84D8
:1044C000054B9847034A054B1B689BB29384C04633
:1044D000BD4680BD0008004081440000AC000020C3
:1044E00080B582B000AF0200FB1D1A70FB1D1B7867
:1044F000082B40D89A00224BD3181B689F46214BAB
:104500001B6939E0204B1B6A9B059B0FDBB21A002D
:104510001E4BD34030E080231B022DE080231B0282
:104520002AE0184B5B6927E0164B1B6802221340F8
:1045300001D1002320E0164B9847124B1B68042240
:10454000134009D00020134B984702000D4B9B6885
:104550001B041B0C53430FE00F4B0DE00A4A502382
:10456000D35CDBB21A000423134001D1002303E023
:10457000044BDB6800E000231800BD4602B080BD9C
:10458000A8860000AC0000200008004000127A005D
:1045900081440000DD4C0000006CDC0280B584B07A
:1045A00000AF78601A4B1B6AFB607B681B781A1C93
:1045B00003231340DAB20D23FB1803210A40100035
:1045C0001A7803218A43111C021C0A431A707B6863
:1045D0009A780C23FB18D0011A787F210A40111C0D
:1045E000021C0A431A707B685A780C23FB180121BD
:1045F0000A4090011A7840218A43111C021C0A4388
:104600001A70034BFA681A62C046BD4604B080BDFA
:104610000008004080B582B000AF0200FB1D1A7098
:10462000FB1D1B78082B3BD89A00214BD3181B6825
:104630009F46204B1F4A126A02210A431A62002336
:1046400031E01C4B1B4A926902210A439A6129E01E
:10465000184A184B1B8A9BB202210B439BB2138250
:1046600020E0144A134B9B8A9BB202210B439BB25E
:10467000938217E0104B1B6802221A430E4B1A60FC
:104680000E4B98470EE00B4A0A494423CB5CDBB241
:1046900002210B43D9B24423D15403E0002302E0AA
:1046A000172300E000231800BD4602B080BDC046BD
:1046B000CC86000000080040AC0000209D440000B3
:1046C00080B582B000AF3B0002221A7000237B60ED
:1046D00009E07B68DBB23A0011001800054B9847EF
:1046E0007B6801337B607B68242BF2D9C046BD46D2
:1046F00002B080BD714B000080B5A0B000AF454B4B
:10470000C222D2009A600020434B9847434B9847FF
:104710007C23FB181800424B98477C23FB1800228F
:104720001A707C23FB1801229A707C23FB1800224C
:104730005A707C23FB1818003A4B984706203A4BD6
:1047400098473A4B98476423FB181800384B984712
:104750006423FB1806221A706423FB1801225A6096
:104760006423FB1801221A726423FB1800225A7278
:104770006423FB18190001202E4B984701202E4B73
:1047800098474023FB181800294B98474023FB18F3
:1047900006221A704023FB1801225A604023FB189E
:1047A00000221A724023FB1800225A724023FB1881
:1047B000190004201F4B984704201F4B98470020E6
:1047C0001E4B9847002100201D4B984700210120D7
:1047D0001B4B984700210220194B98473B1D18009E
:1047E000134B98473B1D06221A703B1D01225A604D
:1047F0003B1D01221A723B1D00225A723B1D1900FB
:1048000000200C4B984700200B4B9847C046BD46F4
:1048100020B080BD000800404D440000C1460000AB
:10482000B54300009D45000015460000E948000022
:1048300085430000194900003D4A0000D9430000AB
:10484000F943000080B582B000AF02003960FB1D63
:104850001A70FB1D1B78012B0AD0022B0FD0002BE6
:1048600014D10E4B0D4A91693A680A439A610FE0E0
:104870000A4B0A4AD1693A680A43DA6108E0074BF1
:10488000064A116A3A680A431A6201E0172300E0F7
:1048900000231800BD4602B080BDC04600040040A1
:1048A00080B500AF024B9847C046BD4680BDC046AC
:1048B000F142000080B500AF024B9847C046BD46AC
:1048C00080BDC0464543000080B500AF054B5B7816
:1048D000DBB25BB2002B01DA012300E000231800F9
:1048E000BD4680BD000C004080B500AF082100200F
:1048F000074B9847074B01221A70C046054B1B789F
:10490000DBB21A0001231340F8D1C046BD4680BD7A
:1049100045480000000C004080B586B000AF0200A2
:104920003960FB1D1A70FB1D1B787B61FB1D1B781A
:104930003B613B681B781B021A007B6913437B6158
:104940003B685B78002B04D07B698022D202134342
:104950007B613B685B7A002B04D07B698022120369
:1049600013437B613B685B68012B2CD93B685A6819
:104970003B685B68013B13401AD10023FB600223B4
:10498000BB6005E0FB680133FB60BB685B00BB609C
:104990003B685A68BB689A42F4D8FB681B023A69C4
:1049A00013433B617B698022520313437B610AE01E
:1049B0003B685B681B023A6913433B617B69802259
:1049C000920213437B613B681B7A002B04D07B6906
:1049D0008022920313437B61C046134B9847031E0A
:1049E000FBD1124B9847124AFB1D1B781370C0462F
:1049F0000D4B9847031EFBD10E4B3A699A60C04697
:104A0000094B9847031EFBD10A4B0A4A5168802282
:104A1000520211407A690A435A60074B9847C046D0
:104A2000BD4606B080BDC046C9480000A148000090
:104A3000080C0040000C0040B548000080B582B072
:104A400000AF0200FB1D1A70C0460E4B9847031EB4
:104A5000FBD10D4B98470D4AFB1D1B781370C046C8
:104A6000084B9847031EFBD1094B094A5268802125
:104A700049020A435A60074B9847C046BD4602B0F8
:104A800080BDC046C9480000A1480000040C004099
:104A9000000C0040B548000080B586B000AF0200B1
:104AA000FB1D1A70C0462A4B9847031EFBD1294BA9
:104AB0009847294AFB1D1B781370C046244B984722
:104AC000031EFBD1254B5B68DB04DB0EDBB2180059
:104AD000234B984703007B611F4AFB1D1B78137013
:104AE0001E4B5B68DB02DB0FDAB21323FB181A7074
:104AF0001C4AFB1D1B781370C046154B9847031EBC
:104B0000FBD1164B9B681B021B0C9BB2FB60164B28
:104B100098471323FB181B78002B09D1FB68012B46
:104B200006D9124BF9687869984703007B610AE05F
:104B30001323FB181B78002B05D0FB6801337A691F
:104B4000DA4013007B617B691800BD4606B080BD6A
:104B5000C9480000A1480000040C0040000C0040BF
:104B6000E1440000080C0040B5480000FD51000081
:104B700080B584B000AF02003960FB1D1A70FB1DC8
:104B80001B78FB603B681B781B021A00FB68134311
:104B9000FB60FB1D1B781800044B9847044BFA6818
:104BA00092B25A80C046BD4604B080BDFD4B0000A5
:104BB000000C004080B582B000AF0200FB1D1A70EF
:104BC0000A4B98470A4AFB1D1B7813700949094B89
:104BD0005B889BB28022D20113439BB24B80064B71
:104BE0009847C046BD4602B080BDC046A1480000FF
:104BF000020C0040000C0040B548000080B584B0B5
:104C000000AF0200FB1D1A701C4B98471C4AFB1D8D
:104C10001B7813701B4B5B881B051B0FDBB2FB6003
:104C2000184A538818490B405380164A154B5B8825
:104C30009BB216490B409BB25380C046114B5B8818
:104C40009BB21A008023DB011340F7D10D4AFB68A9
:104C5000DBB2191C0F230B40D9B25388081C0F215B
:104C60000140080208490B40191C031C0B435380E8
:104C7000074B9847C046BD4604B080BDA148000020
:104C8000020C0040000C0040FFF0FFFFFFBFFFFFE1
:104C9000B548000080B582B000AF0200FB1D1A705D
:104CA000094B9847094AFB1D1B781370084A084BAB
:104CB0005B889BB207490B439BB25380064B9847D6
:104CC000C046BD4602B080BDA1480000020C0040B5
:104CD000000C004000C0FFFFB548000080B584B064
:104CE00000AF0200FB1D1A700D4B98470D4AFB1DCB
:104CF0001B7813700C4B5B881B051B0FDAB20F235C
:104D0000FB181A70094B98470F23FB181B781800E3
:104D1000074B984703001800BD4604B080BDC0464D
:104D2000A1480000020C0040000C0040B548000003
:104D3000994A000080B584B000AF0200FB1D1A70D4
:104D40000F23FB18FA1D1278D2091A700E23FB18D4
:104D5000FA1D127852091A700D4BBB600F23FB1815
:104D60001B78002B0FD10F23FB181B789B00102200
:104D70009446BC446344083B1A680E23FB181B7816
:104D8000DB01D31800E000231800BD4604B080BD4D
:104D90000044004180B588B000AFF860B9607A6027
:104DA0000023FB617B68DB7801225340DBB2002BE0
:104DB00035D07B681B78802B0BD0FB698022520298
:104DC0001343FB617B681B781B061A00FB691343C6
:104DD000FB617B685B78002B03D07B685B78022BE0
:104DE00010D1FB69802292021343FB617B689B78A0
:104DF000002B04D0FB698022D2021343FB61FB68C5
:104E0000BA685A607B685B78012B03D07B685B785B
:104E1000022B07D1FB69224A1340FB6102E0FB68C9
:104E2000BA685A60BB681B041B0CBB61BB681B0CD7
:104E30007B61BA69FB691343A022D2051A43FB6860
:104E40009A627A69FB691343D02212061A43FB68FF
:104E50009A627B68DB7801225340DBB2002B1AD0C8
:104E6000FA698023DB0213400AD07B689B78012B10
:104E700003D1FB68BA689A6102E0FB68BA685A61BC
:104E80007B685B78012B03D07B685B78022B02D1B7
:104E9000FB68BA689A60C046BD4608B080BDC0468F
:104EA000FFFFFBFF80B584B000AF02003960FB1D3F
:104EB0001A70FB1D1B7818000A4B98470300FB6013
:104EC000FB1D1B781F22134001229A401300BB6078
:104ED0003A68B968FB681800034B9847C046BD465E
:104EE00004B080BD354D0000954D000080B500AF89
:104EF000C046BD4680BDC04680B500AF064B984752
:104F0000064B9847064B9847064B9847064B9847E1
:104F1000C046BD4680BDC046F9460000E5420000DF
:104F2000ED4E00007D0B0000ED4E000080B582B01C
:104F300000AF2F4B7B602F4B3B607A683B689A42F7
:104F40000CD007E03B681A1D3A607A68111D796041
:104F500012681A603A68284B9A42F3D3274B3B6099
:104F600004E03B681A1D3A6000221A603A68244B3C
:104F70009A42F6D3234B7B60234B7A68FF218A4306
:104F80009A60224A90235B000221D150204AD378B4
:104F900003218B43191C02230B43D3701C4AD37883
:104FA0000C218B43191C08230B43D370194A937BA4
:104FB00030218B43191C20230B439373154A937B99
:104FC0000C218B43191C08230B439373114A937BC9
:104FD00003218B43191C02230B4393730E4A53681E
:104FE00080210B4353600D4B98470D4B9847FEE7CC
:104FF00070890000000000207C0000207C00002060
:10500000E40200200000000000ED00E0007000411C
:105010000050004100480041004000415170000034
:105020007D50000080B582B000AF044B7B60EFF391
:1050300005833B603B687B60F9E7C0460F270000B3
:1050400080B584B000AF78600A4B1B68002B02D19A
:10505000084B094A1A60074B1B68FB60054B1A682E
:105060007B68D218034B1A60FB681800BD4604B079
:1050700080BDC046C4000020E8220020F0B54F46A5
:105080004646C0B489B006AF474B9847474B984750
:10509000474B9847474B9847474B9847FC1C474B13
:1050A000984703002370FB1C1B78DB09DBB21A0056
:1050B00001231A409046FB1C1B789B09DBB21A00A7
:1050C00001231A409146FB1C1B785B09DBB21A00D6
:1050D00001231340FA1C12781209D2B211000122E6
:1050E0000A40F91C0978C908C9B208000121014029
:1050F000F81C00788008C0B2040001202040FC1C8D
:1051000024786408E4B2250001242C40FD1C2D788D
:10511000012635402A4EB4462A4E05950494039044
:105120000291019200934B46424661463000264C64
:10513000A047244B1800254B9847254B9847254BF3
:105140009847254B9847254B9847254B9847002370
:105150007B6017E0234A7B68D3181B78DBB20A2BED
:1051600006D1204B1800204B9847204B984706E06B
:105170001C4A7B68D3181B78DBB2002B06D07B68F7
:1051800001337B607B687F2BE4D900E0C046184B7D
:105190001B78002BDBD0164B00221A70154B98475A
:1051A000154B9847D3E7C046F94E00008101000037
:1051B000011D0000913700008534000049360000D1
:1051C000F086000094020020B1700000891D0000EC
:1051D00049410000613E0000A13E0000B53A0000D8
:1051E0008542000034010020751E00003D1E0000B5
:1051F00058020020613F000081290000002243087E
:105200008B4274D303098B425FD3030A8B4244D38E
:10521000030B8B4228D3030C8B420DD3FF220902D0
:1052200012BA030C8B4202D31212090265D0030B8F
:105230008B4219D300E0090AC30B8B4201D3CB0385
:10524000C01A5241830B8B4201D38B03C01A5241C7
:10525000430B8B4201D34B03C01A5241030B8B42C9
:1052600001D30B03C01A5241C30A8B4201D3CB02B4
:10527000C01A5241830A8B4201D38B02C01A524199
:10528000430A8B4201D34B02C01A5241030A8B429C
:1052900001D30B02C01A5241CDD2C3098B4201D3B4
:1052A000CB01C01A524183098B4201D38B01C01A32
:1052B000524143098B4201D34B01C01A52410309A9
:1052C0008B4201D30B01C01A5241C3088B4201D358
:1052D000CB00C01A524183088B4201D38B00C01A05
:1052E000524143088B4201D34B00C01A5241411A2C
:1052F00000D20146524110467047FFE701B5002039
:1053000000F0F0F802BDC0460029F7D076E77047FC
:1053100003460B437FD4002243088B4274D3030916
:105320008B425FD3030A8B4244D3030B8B4228D3B7
:10533000030C8B420DD3FF22090212BA030C8B42DD
:1053400002D31212090265D0030B8B4219D300E07D
:10535000090AC30B8B4201D3CB03C01A5241830B02
:105360008B4201D38B03C01A5241430B8B4201D3B2
:105370004B03C01A5241030B8B4201D30B03C01ADB
:105380005241C30A8B4201D3CB02C01A5241830A55
:105390008B4201D38B02C01A5241430A8B4201D384
:1053A0004B02C01A5241030A8B4201D30B02C01AAE
:1053B0005241CDD2C3098B4201D3CB01C01A524115
:1053C00083098B4201D38B01C01A524143098B429E
:1053D00001D34B01C01A524103098B4201D30B0187
:1053E000C01A5241C3088B4201D3CB00C01A5241AC
:1053F00083088B4201D38B00C01A524143088B4271
:1054000001D34B00C01A5241411A00D20146524109
:10541000104670475DE0CA0F00D04942031000D328
:105420004042534000229C4603098B422DD3030A7D
:105430008B4212D3FC22890112BA030A8B420CD38D
:10544000890192118B4208D3890192118B4204D3B6
:1054500089013AD0921100E08909C3098B4201D336
:10546000CB01C01A524183098B4201D38B01C01A70
:10547000524143098B4201D34B01C01A52410309E7
:105480008B4201D30B01C01A5241C3088B4201D396
:10549000CB00C01A524183088B4201D38B00C01A43
:1054A0005241D9D243088B4201D34B00C01A52411A
:1054B000411A00D20146634652415B10104601D3A7
:1054C0004042002B00D54942704763465B1000D331
:1054D000404201B5002000F005F802BD0029F8D0D7
:1054E00016E770477047C046002B11D1002A0FD134
:1054F000002900D1002802D00021C943081C07B4AC
:10550000024802A14018029003BDC046D9FFFFFF28
:1055100003B4684601B5029800F032F8019B9E463C
:1055200002B00CBC7047C046F0B54F464646C0B40A
:105530001604360C9946330005042C0C070C150C88
:1055400063437E436F4365431C0CAD1964199C464D
:10555000A64203D980235B02984647446346250C44
:10556000EF191D044B464A4343432D0C2404641990
:105570009918C91920000CBC90469946F0BDC04648
:10558000F0B54D46564644465F46F0B4924683B069
:1055900004000D0099468B422FD82CD04946504626
:1055A00001F04AFD29000600200001F045FD331AF4
:1055B0009846203B9B4600D574E053465A4693409C
:1055C0001F005346424693401E00AF4229D826D0C2
:1055D0005B46A41BBD41002B00DA79E000220023CA
:1055E0000092019301235A469340019301234246BE
:1055F0009340009319E08242D0D900220023009208
:1056000001930C9B002B01D01C605D6000980199F8
:1056100003B03CBC90469946A246AB46F0BDA342BF
:10562000D6D900220023009201934346002BE8D0F4
:10563000FB0772081A4346467B080EE0AB4201D1D5
:10564000A2420CD8A41A9D41012024196D410021C9
:10565000013E24184D41002E06D0AB42EED9013E4A
:1056600024196D41002EF8D15B460098019900196C
:105670006941002B22DB2B005A46D3402A004446C6
:10568000E2401C005B461500002B2CDB26009E40F0
:10569000330026004746BE403200801A99410090F0
:1056A0000191AEE7424620239B1A5246DA4041461A
:1056B00013004A468A4017001F4382E742462023D0
:1056C0009B1A2A0046469A402300F3401343D5E72D
:1056D0004246202300219B1A0022009101920122C0
:1056E000DA40019282E74246202326009B1ADE40E0
:1056F0002F00B446974066463B003343C9E7C04697
:10570000F8B556465F464D464446F0B40F00FD0FCF
:10571000AA4609037C002E005F00450F490A7F0D51
:105720002943C5001803BC46400A570F640DDB0F20
:105730003843D2009A4500D1AAE06646A61B002E47
:1057400000DCFFE06346002B39D10300134300D097
:10575000D9E06B0709D00F232B40042B05D02B1D5C
:10576000AB42AD416D4249191D000B0200D482E0ED
:10577000CA4B01349C4200D1FEE00A005646C84B99
:10578000ED081A405007640552020543120B640DE0
:10579000002112030B0D1B056405120B1A4363084D
:1057A000C04CF60714401C436400640834432800CE
:1057B00021003CBC90469946A246AB46F8BDB74B8B
:1057C0009C42C6D080231B041843382E00DDEBE03A
:1057D0001F2E00DD1EE120239B1B9C460300674615
:1057E000BB40984613004746F3403B436746BA40E8
:1057F000571EBA4113430200F240EB1A9D42B641D4
:105800001D008A1A7642911B0B0231D54A02560AB4
:10581000002E00D1B4E0300001F0F0FB0300083BA3
:105820001F2B00DDB5E020222900D21AD1409E4076
:105830000A009D4032439C4200DDB1E01C1B631C0A
:105840001F2B00DDD5E0202114002800C91A8C4050
:10585000D8408D400443DA40681E8541110025433D
:10586000002476E74146314300D134E23100454619
:105870006B0700D06FE756464807ED08C908054397
:10588000864B9C4235D00A036405120B640D7FE7FA
:105890006346E31A9B46002B00DC8BE06746002F33
:1058A0003CD07E4FBC4200D153E780273F043843B1
:1058B0005B46382B00DCF7E00243501E824100209B
:1058C000D2B253194218AB4289411D00494289188E
:1058D0000B02CDD5714B01349C4200D13DE101203A
:1058E0006F4A6B080A4028401843D5070543510802
:1058F0002FE72B000B4300D1CBE180231B030B438D
:105900001A03120B44E7013E002E6DD1AE1AB542C8
:105910009B41091A5B42C91A350075E70700174316
:1059200000D116E701235B429C46E3445B46002B13
:1059300000D0E0E0AA18AA429B4109185B4259181E
:105940001500C5E7002E75D1661C7605760D012E73
:1059500000DCF3E0AE1AB0464545BF410E1A7F4267
:10596000F61B370200D48FE0551BAA42B641411AFC
:1059700076428E1B9A464BE756460022002507E7E3
:10598000280001F03BFB20300300083B1F2B00DC0C
:1059900049E72A002838824000259C4200DC4DE778
:1059A0003F49E41A1140D4E60243501E8241D3B26B
:1059B000002222E7002B00D0F3E0631C9C465B052D
:1059C0005B0D012B00DC9FE0344B9C4500D1C3E014
:1059D000AA180918AA42804140424118CD0752082E
:1059E000154349086446B4E62C4B9C4200D0ECE6D3
:1059F000AFE611001F3CE1400C00202B00D17FE0FE
:105A00004021CB1A9A4015436A1E95410021254337
:105A100000242DE733000700203BDF403B00202E11
:105A200070D04027BE1BB0400243501E824113433A
:105A30000022E2E6002C4FD0184CA44500D1ABE088
:105A40008024240476422143382E00DDDFE01F2E1F
:105A500000DD43E12027BC1BA1460C004F46BC40A3
:105A6000A0462C004746F4403C434F46BD406F1EC5
:105A7000BD41F1402C43151BAA429241411A5242AA
:105A8000891A64469A46BFE641464546314300D0EE
:105A9000BEE6002600240025F2E6C046FF0700000F
:105AA000FFFF7FFFFFFF0F801F2B59DC2027FF1A0E
:105AB000BC46070063469F405B46B9461700DF407F
:105AC000B8464F4643461F4363469A40531E9A4189
:105AD0005B463A43D840F4E60C002C435CD0F643D6
