:1000000078230020C15D0000B95E0000B95E0000E9
:1000100000000000000000000000000000000000E0
:10002000000000000000000000000000B95E0000B9
:100030000000000000000000B95E0000B95E000092
:10004000B95E0000B95E0000611D0000B95E0000ED
:10005000290A0000B95E0000B95E0000B95E000028
:10006000B95E0000B95E0000B95E000085200000A6
:10007000B95E0000B95E0000B95E0000B95E000024
:10008000B95E0000B95E000095490000B95E00004D
:10009000B95E00000000000000000000B95E000032
:1000A000B95E0000B95E0000B95E0000B95E0000F4
:1000B0000000000010B5064C2378002B07D1054B3B
:1000C000002B02D0044800E000BF0123237010BDC4
:1000D000FC000020000000002C9D0000084B10B523
:1000E000002B03D00749084800E000BF0748036819
:1000F000002B00D110BD064B002BFBD09847F9E731
:1001000000000000000100202C9D00002C9D00003C
:100110000000000080B582B000AF78607B680022EC
:100120001A707B6801225A707B6804229A707B687F
:100130000C22DA707B6800221A717B6800225A71E7
:10014000C046BD4602B080BD80B582B000AF3B0066
:100150001800094B98473B0000221A703B000A2206
:10016000DA703B0009225A713B001800034B984794
:10017000C046BD4602B080BD15010000CD1B000089
:1001800080B500AFC046BD4680BDC04680B582B0D8
:1001900000AF78607B6800221A70C046BD4602B08E
:1001A00080BDC04680B582B000AF02003960FB1D43
:1001B0001A70FB1D1B78012B0AD0022B0FD0002BCD
:1001C00014D10E4B0D4A91693A680A439A610FE0C7
:1001D0000A4B0A4AD1693A680A43DA6108E0074BD8
:1001E000064A116A3A680A431A6201E0172300E0DE
:1001F00000231800BD4602B080BDC0460004004088
:1002000080B582B000AF78607B6880221A707B680E
:1002100000225A707B6801229A707B680022DA7093
:10022000C046BD4602B080BD80B582B000AF0200BE
:10023000FB1D1A70FB1D1B78002B02D0012B07D071
:100240000DE0084B074A126C02210A431A6406E0CB
:10025000044B044A126C04210A431A64C046BD468A
:1002600002B080BD0008004080B584B000AF786067
:100270007B681B68FB60FB685B7EDBB25BB2002BBC
:1002800001DA012300E000231800BD4604B080BD60
:1002900080B582B000AF78607B6800221A707B68FE
:1002A00000225A707B6800225A807B6800221A71F3
:1002B0007B6800221A767B6800221A627B68002223
:1002C000DA617B6800229A607B6800221A737B687F
:1002D000C0225201DA817B6800221A747B680022F6
:1002E0005A747B6800229A747B680022DA747B68F7
:1002F00000221A757B682A22002199547B6800220B
:100300005A757B6800229A757B68242200219954D3
:100310007B680022DA847B6800221A857B680022D1
:10032000DA757B682B22002199547B682C220021EE
:100330009954C046BD4602B080BDC04680B598B055
:1003400000AF78600C23FA18154B100019005023E9
:100350001A00144B9847144BFB657B68132B1AD873
:100360000C23FB187A689200D358FB650823FB180E
:1003700018000E4B98470823FB1800229A70082398
:10038000FB1801221A70FB6DDBB20822BA181100AB
:100390001800074B9847C046BD4618B080BDC04600
:1003A000F8940000B5820000FFFF00000102000089
:1003B000395D0000F0B589B000AF786039601F2367
:1003C000FB1800221A701023BB611723FB180022B0
:1003D0001A707B681B683B610C23FB181800CE4B1E
:1003E00098473B681A780C23FB181A700C23FB18EB
:1003F00019001E20C94B98471E20C94B98473B68DF
:100400002C229B5C002B40D01623FB183A682B2132
:10041000525C1A703B68197B1523FB181622BA1818
:1004200012788A181A703B682C22995C0F23FB18EB
:100430001522BA1812788A181A7018E01623FB18B9
:100440001B780F2213403A68127B9B181800B54B9B
:1004500098471523FB181A781523FB1801321A70D8
:100460001623FB181A781623FB1801321A7015236D
:10047000FA180F23FB1812781B789A42DED33B68D8
:10048000DB891800A74B984709E03B681B7B1800E5
:10049000A44B98473B68DB891800A24B98473B6800
:1004A0005B7D9B00DAB23B691A703B689B7DDB0188
:1004B0005AB23B685B785BB213435BB2DAB23B691A
:1004C0005A703B681B79342B46D89A00964BD31848
:1004D0001B689F461F23FB183A68527C1A7017232B
:1004E000FB183A68127C1A701023BB6136E01F2398
:1004F000FB1801221A701723FB1802221A7010230E
:10050000BB612BE01F23FB1802221A701723FB1874
:1005100004221A701023BB6120E01F23FB18012264
:100520001A701723FB1806221A701023BB6115E0FE
:100530001F23FB1800221A701723FB1808221A70B9
:100540001023BB610AE03023BB6107E02023BB61BD
:1005500004E00023BB6101E01723AEE11F23FB1879
:100560001B781B01DBB270221340DAB21723FB1891
:100570001B781343DAB23B699A703B68DB7D3F2BF3
:1005800001D9172399E13B68DA7D3B69DA70C046EF
:100590007B681800654B9847031EF9D13B685A8861
:1005A000BB699BB213439AB23B6824215B5C9BB24C
:1005B000DB009BB213439AB23B681B7D9BB29B004E
:1005C0009BB213439AB23B689B7C9BB2DB189BB2F5
:1005D00013439AB23B68DB7C9BB213439AB23B69EC
:1005E0009A803B681B7E002B00D1C4E0BB69102BB6
:1005F00000D176E002D8002B4DD0BCE0202B23D0D8
:10060000302B00D0B7E03B68DB7C002B11D03B687F
:10061000DB697F2B0BDC3B68DB69803307DB3B68E6
:100620001B6A7F2B03DC3B681B6A803301DA1723CC
:1006300043E13B68DB69FF2B04DC3B681B6AFF2B53
:1006400000DC91E0172338E13B68DB7C002B15D000
:100650003B68DB69364A93420EDC3B68DB69354A0E
:10066000934209DB3B681B6A314A934204DC3B68D6
:100670001B6A304A934201DA17231EE13B68DB69AB
:100680002D4A934205DC3B681B6A2B4A934200DCEF
:100690006CE0172311E13B68DB7C002B15D03B6835
:1006A000DB69264A93420EDC3B68DB69244A9342AD
:1006B00009DB3B681B6A214A934204DC3B681B6AE6
:1006C0001F4A934201DA1723F7E03B68DB691D4AB2
:1006D000934204DC3B681B6A1A4A934248DD1723A5
:1006E000EBE03B68DB7C002B32D03B68DB69164AD1
:1006F00093420EDC3B68DB69144A934209DB3B689A
:100700001B6A114A934204DC3B681B6A0F4A9342FE
:100710001EDA1723D1E0C0468D010000055A000003
:10072000495A00003D03000048950000690200009E
:10073000FF01000000FEFFFFFF030000FF070000B5
:1007400000F8FFFFFF0F0000FF7F00000080FFFFA9
:100750003B68DB695B4A934204DC3B681B6A594A8D
:10076000934207DD1723A8E0C04604E0C04602E03C
:10077000C04600E0C046C0467B681800524B984710
:10078000031EF9D13B681A7E3B691A72C0467B682A
:1007900018004D4B9847031EF9D13B68DB699AB2AC
:1007A0003B699A83C0467B681800474B9847031EF5
:1007B000F9D13B681B6A9AB23B691A841423FB186F
:1007C0003A682C21525C1A701423FB181B78002BFA
:1007D00006D01423FB181A781423FB18013A1A7058
:1007E0001423FB181B780F2B04D83B682B229B5C2F
:1007F0000F2B01D9172360E0C0467B681800324BED
:100800009847031EF9D13B689B683A682B21525CDC
:10081000120513431422BA181278120413433A68CB
:10082000D28913433A68127B1A433B691A613B68C9
:100830002A229A5C3B691A753B690F229A753B68BC
:1008400024229B5C002B1ED03B68DB8C1F4A93420A
:1008500001D9172331E03B68DA8C3B699A843B6805
:1008600028229B5E1A4A934205DC3B6828229B5E45
:10087000184A934201DA17231FE03B6828229B5E47
:100880009AB23B69DA84144B1B68DB089BB21B02EB
:100890009AB2E023DB0013409AB2104B5C681B68ED
:1008A0006101DD0E0D43E60EABB2FF210B409BB2A2
:1008B00013439AB23B691A8500231800BD4609B05C
:1008C000F0BDC046FFFF000069020000FF0F0000FE
:1008D000FF07000000F8FFFF246080002060800018
:1008E00080B584B000AFF860B9607A60FB68BA6820
:1008F0001A6080235B0219000220154B9847BB68E1
:100900001B78DBB21A000123134001D005231AE043
:10091000BB681B78DBB21A000223134001D01C23F2
:1009200011E07B685A78FB681A71FB681B79002B11
:1009300002D10120074B98477A68FB681100180024
:10094000054B984703001800BD4604B080BDC04663
:10095000A501000029020000B503000080B584B0A5
:1009600000AF0200FB1D1A700F23FB18FA1D12784E
:1009700052091A700F23FB181B78002B0CD1094B5E
:10098000BB600F23FB181B789B0010229446BC44CD
:100990006344083B1B6800E000231800BD4604B018
:1009A00080BDC0460018004080B584B000AF020092
:1009B000FB1D1A70FB1D1B7818000B4B984703009A
:1009C000FB60FB1D1B781F22134001229A4013007D
:1009D000BB60FB681B69BA6813405A1E9341DBB2C7
:1009E0001800BD4604B080BD5D09000080B584B02C
:1009F00000AF0200FB1D1A70FB1D1B781800094B8D
:100A000098470300FB60FB1D1B781F221340012247
:100A10009A401300BB60FB68BA681A61C046BD46C5
:100A200004B080BD5D09000080B500AF154B002209
:100A30001A7020E0134B1B781800134B9847031EC5
:100A400013D0104B1B781800104B98470D4B1B7898
:100A50001A000F4B9200D358002B06D0094B1B787D
:100A60001A000B4B9200D3589847064B1B78013362
:100A7000DAB2044B1A70034B1B780F2BDAD9C0463D
:100A8000BD4680BD50010020A9090000ED0900000D
:100A90005401002080B582B000AF78607B680022EE
:100AA0001A70C046BD4602B080BDC04680B582B057
:100AB00000AF02003960FB1D1A70FB1D1B78012B73
:100AC0000AD0022B0FD0002B14D10E4B0D4A916986
:100AD0003A680A439A610FE00A4B0A4AD1693A68B8
:100AE0000A43DA6108E0074B064A116A3A680A438A
:100AF0001A6201E0172300E000231800BD4602B08F
:100B000080BDC0460004004080B582B000AF020046
:100B1000FB1D1A70064BFA1D127811001F220A40A5
:100B2000012191400A001A60C046BD4602B080BD56
:100B300000E100E080B582B000AF0F4B3B600023C6
:100B40007B6011E07B689B0008229446BC446344B0
:100B5000083B1B685B78DBB25BB2002B01DA012338
:100B600006E07B6801337B607B68002BEAD00023C2
:100B70001800BD4602B080BD0018004080B584B0AA
:100B800000AF2D4B7B60402100202C4B98473B0051
:100B900018002B4B98473B0000221A703B001900AD
:100BA0000520284B98470520274B98470023FB60DA
:100BB00018E0FB689B0010229446BC4463440C3B45
:100BC0001A68FB689B0010218C46BC4463440C3BB4
:100BD0001B681B78DBB201210B43DBB21370FB688F
:100BE0000133FB60FB68002BE3D0C046174B9847EE
:100BF000031EFBD10B23FB1800221A700DE00B2300
:100C0000FB181A78124B92000021D1500B23FB18CD
:100C10001A780B23FB1801321A700B23FB181B7870
:100C20000F2BECD904200B4B98470B4B9847C04631
:100C3000BD4604B080BDC04600180040AD0A0000AB
:100C4000950A0000055A0000495A0000350B0000C3
:100C500054010020090B00005D0C000080B582B03B
:100C600000AF154B3B6000237B6018E07B689B0066
:100C700008229446BC446344083B1A687B689B0086
:100C800008218C46BC446344083B1B681B78DBB2DC
:100C900002210B43DBB213707B6801337B607B68FE
:100CA000002BE3D0C046054B9847031EFBD1C0463E
:100CB000BD4602B080BDC04600180040350B0000A4
:100CC00080B582B000AF78607B6880221A707B6844
:100CD00000225A707B6801229A707B680022DA70C9
:100CE000C046BD4602B080BD80B584B000AF0200F2
:100CF0003960FB1D1A700C23FB181800104B984725
:100D00000C23FB1880221A703B681A780C23FB18FE
:100D10005A703B685A780C23FB189A703B689A7893
:100D20000C23FB18DA700C23FA18FB1D1B7811003A
:100D30001800044B9847C046BD4604B080BDC0466D
:100D4000C10C0000395D000080B582B000AF786052
:100D50007B6800221A70C046BD4602B080BDC04606
:100D600080B582B000AF02003960FB1D1A70FB1D18
:100D70001B78012B0AD0022B0FD0002B14D10E4B65
:100D80000D4A91693A680A439A610FE00A4B0A4A90
:100D9000D1693A680A43DA6108E0074B064A116AEA
:100DA0003A680A431A6201E0172300E000231800A2
:100DB000BD4602B080BDC0460004004080B582B090
:100DC00000AF78607B6880221A707B6800225A70BE
:100DD0007B6801229A707B680022DA70C046BD46AB
:100DE00002B080BD80B500AF054B9B78DBB21A0026
:100DF000022313405A1E9341DBB21800BD4680BD4A
:100E00000020004180B584B000AF78607B681B682B
:100E1000FB60FB68DB69072213405A1E9341DBB27B
:100E20001800BD4604B080BD80B582B000AF7860C8
:100E3000C0467B681800044B9847031EF9D1C04692
:100E4000BD4602B080BDC046050E0000F0B595B0AD
:100E500000AFF860B96000237B630023BB6400230C
:100E60007B643B2308229446BC44634400221A70EE
:100E7000FB681B683B63FB681B68FB62232308223B
:100E8000BA18D418FB6A1800DB4B9847030023708C
:100E90000C2308229446BC4463441800D74B98475F
:100EA000BB68DB69FB63BB681B6ABB63FB6B002B26
:100EB00006D1FB6A00211800D14B98470300FB6361
:100EC000FB6BDAB20C2308218C46BC4463441A70D5
:100ED0000C2308229446BC44634402225A70FB6BE4
:100EE0001B0CDBB20C2208218C46BC44624411006E
:100EF0001800C44B9847BB6B002B06D1FB6A01213D
:100F00001800BF4B98470300BB63BB6BDAB20C23DE
:100F100008218C46BC4463441A700C230822944672
:100F2000BC44634402225A70BB6B1B0CDBB20C2224
:100F300008218C46BC44624411001800B14B98470C
:100F4000BB689A8AFB68DA80BB68DA8AFB681A8118
:100F5000BB681B7E002B03D1AB4B9847031E02D00E
:100F60008023FB6401E00023FB64BB681B69002B4A
:100F700004D0BB681B69FA6C1343FB64BB689B68B5
:100F8000FA6C1343FB64BB6824229B5C002B04D0E7
:100F9000FB6C8022D2051343FB64BB689B6A002B69
:100FA00004D0BB689B6AFA6C1343FB64BB682C22B9
:100FB0009B5C002B05D1BB689A6880239B049A42F6
:100FC00004D1FB6C802212051343FB64BB682D2205
:100FD0009B5C002B04D0FB6C802212041343FB6447
:100FE000BB682E229B5C002B04D0FB6C8022D203BA
:100FF0001343FB643B6B1A68FB6C1A433B6B1A6030
:101000003B6B802252005A60232308229446BC4442
:1010100063441B781433DBB218007C4B9847030001
:101020007B62BB681B68FA22920053433B62BB6839
:101030005B68FA2292005343FB61BB681B8EBB6165
:10104000734B786A984705000E00714B386A9847D1
:10105000386079607B6ABA695A436D4B10009847D3
:101060006C4C6D4A6D4BA04703000C00180021002A
:101070006B4C00226B4BA04703000C001A002300AE
:10108000644C38687968A04703000C001A002300FC
:10109000654C28003100A04703000C001D0026000D
:1010A0003B6A5A005A4B1000984702000B005C4CF8
:1010B00028003100A04703000C00180021005A4C02
:1010C00000225A4BA04703000C001D0026003B6A7B
:1010D0005A004F4B1000984702000B00544C280058
:1010E0003100A04703000C0019002200514B0800FA
:1010F0001100984703007B63BB689A6880239B04B8
:101100009A4245D1424B786A9847454C02000B0001
:10111000A04703000C001D0026003D4BF8699847CE
:101120003C4C0022444BA04703000C001A00230053
:101130003F4C28003100A04703000C00180021009C
:10114000394C0022394BA04703000C001900220043
:10115000384B08001100984703007B647B6C002B20
:1011600009D0364BF969786A984703009A1E7B6C60
:10117000D31ABB640CE0FB695A007B6AD3185A1E71
:10118000FB6959002D4B100098470300013BBB64DD
:101190007B6BFF2B08DC7B6B002B05DBBB6CFF2B19
:1011A00002DCBB6C002B06DA3B2308229446BC44CD
:1011B000634440221A703B2308229446BC44634493
:1011C0001B78402B0ED07B6BFF221A40BB6C1B049C
:1011D0001900FF231B040B4013437A6C12061A43B9
:1011E0003B6BDA603B2308229446BC4463441B7883
:1011F0001800BD4615B0F0BDD11A0000BD0D0000AD
:1012000015190000395D0000E50D0000715B00005C
:10121000A58100009D75000095D626E80B2E113E95
:101220001969000000002440917A00000000F03F9E
:10123000716F000039810000000008401564000053
:1012400080B58AB000AFF860B9607A60FB68BA68B0
:101250001A60FB681B687B62FB681B681800254BE3
:10126000984703003B623B6A0233FB613B6A1433DD
:10127000BB610122FB699A401300190002201E4B3A
:1012800098471423FB1818001C4B98477B681A7B5F
:101290001423FB181A70BB69DBB21422BA181100B0
:1012A0001800174B9847BB69DBB21800154B9847DD
:1012B0007B681B7B00211800134B98477B6A1B68D7
:1012C0000222134001D01C2310E07B6A1B6801221C
:1012D000134001D0052309E07B6A14221A607A6862
:1012E000FB6811001800094B984703001800BD4621
:1012F0000AB080BDD11A0000610D0000490D000048
:10130000055A0000495A0000891800004D0E0000DF
:1013100080B584B000AF78607B681B68FB60FB68B9
:101320001B7EDBB21A00022313400BD0FB680222A3
:101330001A76FB685B8B9BB21A000223134011D014
:10134000412310E0FB685B8B9BB21A00042313401F
:1013500008D0FB685B68C02292021A43FB685A609F
:10136000182300E000231800BD4604B080BDC0462D
:1013700080B584B000AF78607B681B68BB600E23CB
:10138000FB1800221A800FE00E23FB180E22BA1859
:10139000128801321A807B681B890E22BA181288C3
:1013A0009A4201D312230EE0BB681B7EDBB21A0007
:1013B0000123134006D1BB681B7EDBB21A00022357
:1013C0001340E1D000231800BD4604B080BDC046E4
:1013D00090B585B000AF78600A00FB1C1A707B687E
:1013E0001B68FB60FB685B688022D2021A43FB68C3
:1013F0005A60FB1C1A78FB685A620B23FC187B6846
:101400001800074B984703002370FB6801221A76E7
:101410000B23FB181B781800BD4605B090BDC046D5
:101420007113000090B587B000AF786039607B68B9
:101430001B68FB601423FB183A6852881A80122339
:10144000FB1800221A80FB681B681B01DB0FDBB254
:101450001A000B23FB18511E8A411A703B685B7AF5
:10146000002B06D03B689A7A7B6811001800854BE8
:101470009847FB685B68844A1A40FB685A603B687F
:101480001B7A002B42D03B681B885A003B685B7A72
:101490009B0313431A0080231B021A43FB685A6202
:1014A0001723FC187B681800784B984703002370BB
:1014B000FB685B68744A1A40FB685A601723FB1884
:1014C0001B78002B07D11723FC187B681800704B82
:1014D0009847030023701723FB181B78002B11D1AA
:1014E0003B681B881B0A9BB2782213439BB25A00AD
:1014F0003B685B7A9B031343012213431A00FB688A
:101500005A620FE01723FB181B78B6E03B681B8874
:101510005B0001221A433B685B7A9B0313431A006A
:10152000FB685A621723FC187B681800574B9847D2
:10153000030023700B23FB181B78002B0BD03B6898
:101540005B88012B07D1FB685B688022D2021A43BB
:10155000FB685A6005E0FB685B684B4A1A40FB6811
:101560005A601723FB181B78002B07D11723FC1890
:101570007B681800464B9847030023701723FB181D
:101580001B78002B00D075E04BE0FB685B8B9BB2B7
:101590001A002023134001D141236EE07B68DB7ADF
:1015A000002B1ED00B23FB181B7801225340DBB20B
:1015B000002B04D01423FB181B88002B09D00B230D
:1015C000FB181B78002B0CD01423FB181B88012B55
:1015D00007D1FB685B688022D2021A43FB685A601D
:1015E0001AE07B6818002B4B98473B685A68122317
:1015F000FB181B8812217918581C0880D318FA6828
:101600002821525CD2B21A701723FC187B6818008C
:101610001E4B9847030023701723FB181B78002BE1
:1016200009D11423FB181B881422BA18591E1180E3
:10163000002BAAD100E0C0467B689B7A002B0AD021
:101640007B681800134B9847FB685B68C0229202C6
:101650001A43FB685A607B6818000E4B98473B683A
:101660005A681223FB181B88D318FA682821525C89
:10167000D2B21A701723FB181B781800BD4607B0AA
:1016800090BDC046D1130000FFFFFBFF71130000A7
:1016900011130000290E000080B582B000AF786001
:1016A00039607B6801229A727B680122DA723A689B
:1016B0007B6811001800034B984703001800BD46D3
:1016C00002B080BD2514000090B587B000AF7860EF
:1016D00039607B681B68FB601423FB183A685288EA
:1016E0001A807B681800514B98473B685B7A002B47
:1016F00006D03B689A7A7B68110018004C4B9847DB
:10170000FB685B684B4A1A40FB685A603B681B7A6F
:10171000002B0DD03B681B885A003B685B7A9B030B
:1017200013431A0080231B021A43FB685A6209E024
:101730003B681B885A003B685B7A9B0313431A0083
:10174000FB685A621723FC187B6818003A4B9847CD
:10175000030023701723FB181B78002B07D11723D6
:10176000FC187B681800354B98470300237017233B
:10177000FB181B78002B52D11223FB1800221A8071
:1017800033E0FB685B8B9BB21A002023134001D12E
:10179000412347E07B681800244B98473B685A6810
:1017A0001223FB181B8812217918581C0880D318A3
:1017B0001978FB68282299541723FC187B681800B5
:1017C0001D4B9847030023701723FB181B78002B31
:1017D00015D1FB685B8B9BB21A000423134004D025
:1017E0001723FB181E221A700AE01423FB181B880B
:1017F0001422BA18591E1180002BC2D100E0C04635
:101800007B689B7A002B0AD07B681800074B9847AF
:10181000FB685B68C02292021A43FB685A60172378
:10182000FB181B781800BD4607B090BD290E0000BC
:10183000D1130000FFFFFBFF711300001113000024
:1018400080B582B000AF786039607B6801229A72FF
:101850007B680122DA723A687B6811001800034B3A
:10186000984703001800BD4602B080BDC9160000AD
:1018700080B582B000AF78607B6800221A70C046E5
:10188000BD4602B080BDC04680B584B000AF020046
:10189000FB1D1A70BB1D0A1C1A701A4B1B78012203
:1018A0005340DBB2002B03D1BB1D1B78002B1BD098
:1018B0000C23FB181800144B98470C23FB18FA1D37
:1018C00012781A700C23FB18190013200F4B98473D
:1018D00013200F4B98470B4BFA1D12785A70094B87
:1018E00001221A70002308E0064B5B78FA1D12787B
:1018F0009A4201D1002300E01D231800BD4604B028
:1019000080BDC0461801002071180000055A000073
:10191000495A000080B582B000AF78600A00FB1C15
:101920001A707B684D4A93423FD04C4A934206D886
:101930004B4A93420FD04B4A934221D089E04A4A06
:10194000934200D15BE0494A934200D16CE0484A9F
:1019500093423FD07DE0FB1C1B78012B0AD002DCB8
:10196000002B05D075E0022B06D0032B06D070E0CB
:10197000404B6FE0404B6DE0404B6BE0404B69E00B
:10198000FB1C1B78012B0AD002DC002B05D060E089
:10199000022B06D0032B06D05BE003235AE0394B21
:1019A00058E0394B56E0394B54E0FB1C1B78012BB7
:1019B0000AD002DC002B05D04BE0022B06D0032B13
:1019C00006D046E0324B45E0324B43E0324B41E03B
:1019D000324B3FE0FB1C1B78012B0AD002DC002BB2
:1019E00005D036E0022B06D0032B06D031E02C4B7D
:1019F00030E02C4B2EE02C4B2CE02C4B2AE0FB1C37
:101A00001B78012B0AD002DC002B05D021E0022B31
:101A100006D0032B06D01CE0254B1BE0254B19E01C
:101A2000254B17E0254B15E0FB1C1B78012B0AD03A
:101A300002DC002B05D00CE0022B06D0032B06D0D5
:101A400007E01F4B06E01F4B04E01F4B02E01F4B5B
:101A500000E000231800BD4602B080BD0010004227
:101A600000080042000C004200180042001C004226
:101A700000140042030004000300050003000600F8
:101A8000030007000300010003001E0003001F0005
:101A9000030008000300090003000A0003000B0014
:101AA00003001000030011000300120003001300E4
:101AB00003000C0003000D0003000E0003000F00E4
:101AC00003001600030017000300180003001900AC
:101AD00090B58BB000AF78600C23FB180F4A13CA87
:101AE00013C313CA13C300237B620EE00C23FB183D
:101AF0007A6A9200D3581A1E7B689A4202D17B6A96
:101B0000DBB206E07B6A01337B627B6A052BEDD991
:101B100000231800BD460BB090BDC0461C960000C7
:101B200080B582B000AF02003960FB1D1A70FB1D4A
:101B30001B78012B0AD0022B0FD0002B14D10E4B97
:101B40000D4A91693A680A439A610FE00A4B0A4AC2
:101B5000D1693A680A43DA6108E0074B064A116A1C
:101B60003A680A431A6201E0172300E000231800D4
:101B7000BD4602B080BDC0460004004080B582B0C2
:101B800000AF074B7B607B68DB79DBB25BB2002B7D
:101B900001DA012300E000231800BD4602B080BD39
:101BA0000010004080B582B000AF074B7B607B68BF
:101BB0001B78DBB21A00802313405A1E9341DBB21C
:101BC0001800BD4602B080BD0010004080B586B050
:101BD00000AF7860544B3B6110210020534B984775
:101BE000534B9847031E01D0102398E07B68DB78A5
:101BF000002B01D1172392E07B68DA787B681B7990
:101C00009A4205D37B68DA787B685B799A4201D285
:101C1000172384E03B691B78DBB202229343DAB2DC
:101C20003B691A70C046434B9847031EFBD17B6843
:101C30005B7801225340DBB2002B01D000236EE021
:101C40007B689A780C23FB181A700C23FB18190078
:101C50000320394B98470320384B98477B681B7803
:101C6000002B02D00320364B984700237B617B6812
:101C7000DB78013B1A007B6913437B617B681B792E
:101C8000002B10D03B691B78DBB204221343DAB27D
:101C90003B691A707B681B79013B1B011A007B6949
:101CA00013437B6107E03B691B78DBB2042293435B
:101CB000DAB23B691A70C0461E4B9847031EFBD12F
:101CC0007B69DAB23B695A707B685B79002B0AD07A
:101CD000C046184B9847031EFBD17B685B79013BDC
:101CE000DAB23B699A707B681B78002B09D03B699C
:101CF0001B78DBB2802252421343DAB23B691A707E
:101D000007E03B691B78DBB202221343DAB23B697E
:101D10001A70C046074B9847031EFBD100231800DA
:101D2000BD4606B080BDC04600100040211B00002B
:101D3000A51B00007D1B0000055A0000495A000049
:101D4000295B000080B582B000AF044B7B607B68EC
:101D500001229A71C046BD4602B080BD001000400D
:101D600080B500AF054B9847054B1B68002B02D090
:101D7000034B1B689847C046BD4680BD451D00000B
:101D80009401002080B582B000AF0200FB1D1A70E4
:101D9000064BFA1D127811001F220A4001219140C2
:101DA0000A001A60C046BD4602B080BD00E100E0F6
:101DB000B0B582B000AF02003960FB1D1A70FB1D88
:101DC0001B787F2B32D92F4CFB1D1B781A000F2359
:101DD0001340083B99082B4AFB1D1B7818000F2362
:101DE0000340083B9B0806339B00D31804331B6851
:101DF000FA1D1278100003220240D200FF2090400A
:101E00000200D2431A403B689B01FF201840FB1D93
:101E10001B781D0003232B40DB00984003001A436E
:101E20008B1D9B00E31804331A6027E0164CFB1D42
:101E30001B785BB29B081449FA1D127852B29208C3
:101E4000C03292005258F91D097808000321014060
:101E5000C900FF2088400100C94311403A6892013F
:101E6000FF201040FA1D1278150003222A40D200EC
:101E7000904002000A43C0339B001A51C046BD4641
:101E800002B0B0BD00ED00E000E100E080B500AFC1
:101E9000044B01221A70BFF35F8F62B6C046BD4685
:101EA00080BDC0469100002080B500AF72B6BFF380
:101EB0005F8F034B00221A70C046BD4680BDC046EE
:101EC0009100002080B500AF134A136801210B4335
:101ED0001360C046104B1B68DB07DB0FDBB2002B27
:101EE000F8D10D4BDB69DB07DB0FDBB2002BF1D147
:101EF0000A4B0A4A126A10210A431A62084B094A1D
:101F00005A80C046064B5B78DBB25BB2002BF9DB34
:101F1000C046BD4680BDC0460010004200040040DF
:101F2000000C00401640000080B582B000AF1C4B92
:101F3000802252005A601A4B8022D2009A60184BBD
:101F40008022D2009A61164A3523D35CDBB21A0094
:101F5000302313407B60124A7B68DBB203210B43C2
:101F6000D9B23523D1540E4A4A230121D1540C4A07
:101F70003423D35CDBB21A00302313407B60084A61
:101F80007B68DBB203210B43D9B23423D154044A1A
:101F900048230321D154C046BD4602B080BDC0468F
:101FA0000044004180B500AF184B9847184B984744
:101FB000184B194A1A60174B184A9A81154BC022C0
:101FC00092025A60C046134BDB695B07DB0FDBB242
:101FD000002BF8D10F4B04229A750B20104B984719
:101FE00001210B200F4B98470A4A136802210B432B
:101FF0001360C046074BDB699B07DB0FDBB2002B8E
:10200000F8D1094B9847C046BD4680BDC51E0000AB
:10201000291F0000001000428400014014FBFFFF54
:10202000851D0000B11D0000E120000080B584B0D6
:1020300000AF7860104B98470023FB600FE00F4B18
:102040001B7EDB07DB0FDBB2012B08D10B49FB68E2
:102050005A1CFA607A68D3181B789BB20B857A6891
:10206000FB68D3181B78002BE9D1054B9847C04675
:10207000BD4604B080BDC046A91E0000001000424D
:102080008D1E000080B500AF124B1B7E5B07DB0F7F
:10209000DBB2002B1AD0104B1B687F2B0BDD0E4BD5
:1020A00000221A600C4B1B680A4A128D92B2D1B200
:1020B0000A4AD1540AE0084B1B68591C064A1160B1
:1020C000044A128D92B2D1B2044AD154C046BD46E0
:1020D00080BDC046001000421C010020C401002049
:1020E00080B582B000AFFB1D00221A7009E0FB1D15
:1020F0001B780A4A0021D154FB1D1A78FB1D0132BE
:102100001A70FB1D1B785BB2002BF0DA044B002227
:102110001A60C046BD4602B080BDC046C401002062
:102120001C010020F0B597B000AFF860FB68180004
:10213000E44B984703007B65E349FB6803221800E2
:10214000E24B9847031E32D1E14B1800E14B984710
:10215000FB681800DB4B98470400DB4B1800D94B99
:10216000984703009C4222D948230822BA18D21863
:10217000D949FB681800D94B98473B6D002B01DC0F
:1021800001233B653A6DD64B1A603A6DD549082359
:1021900008208446BC4463441800D34B9847082366
:1021A00008229446BC4463441800CA4B9847CF4960
:1021B000FB6804221800C54B9847031E7CD10123FD
:1021C000002201210020CA4CA04701230022022145
:1021D0000020C74CA0470123002203210020C44C4B
:1021E000A0470123002204210020C14CA047012365
:1021F000012202210020BE4CA0470123012201211F
:102200000020BB4CA0470123022202210020B84C31
:10221000A0470123022201210020B54CA047012341
:10222000022204210020B24CA047012302220321F4
:102230000020AF4CA0470123012203210020AC4C19
:10224000A0470123012204210020A94CA04701231B
:10225000032202210020A64CA047012303220121D2
:102260000020A34CA0470123032203210020A04CFF
:10227000A04701230422032100209D4CA0470123F5
:102280000422012100209A4CA047012303220521AA
:102290000020974CA0470123022205210020944CE6
:1022A000A0470123042205210020914CA047914B17
:1022B00001221A7000F013FE8F49FB6804221800F7
:1022C000824B9847031E7CD100230022012100206D
:1022D000874CA0470023002202210020844CA04705
:1022E0000023002203210020814CA047002300226C
:1022F000042100207E4CA04700230122022100205F
:102300007B4CA0470023012201210020784CA047EC
:102310000023022202210020754CA0470023022244
:1023200001210020724CA04700230222042100203A
:102330006F4CA04700230222032100206C4CA047D1
:102340000023012203210020694CA0470023012221
:1023500004210020664CA047002303220221002014
:10236000634CA0470023032201210020604CA047BA
:1023700000230322032100205D4CA04700230422F8
:10238000032100205A4CA0470023042201210020F1
:10239000574CA0470023032205210020544CA0479E
:1023A0000023022205210020514CA04700230422D3
:1023B000052100204E4CA0474E4B00221A7000F021
:1023C0008EFD4E49FB6805221800404B9847031EBE
:1023D0000AD14B4B01221A704A4B01221A704A4B08
:1023E00001221A7000F07BFD4849FB6805221800A5
:1023F000364B9847031E0AD1414B00221A70414BBD
:1024000000221A70404B00221A7000F068FD40490B
:10241000FB68052218002D4B9847031E04D1384B4A
:1024200001221A7000F05BFD3A49FB680522180092
:10243000264B9847031E04D1314B00221A7000F03E
:102440004EFD3549FB6805221800204B9847031EB6
:1024500004D12C4B01221A7000F041FD2F49FB687A
:1024600005221800194B9847031E04D1254B002262
:102470001A7000F034FD2A49FB6806221800134B3D
:102480009847031E04D1274B01221A7000F027FD44
:102490002549FB68062218000C4B9847031E04D1FF
:1024A000204B00221A7000F01AFD2049FB6806221A
:1024B0001800064B9847031E3CD11D4B01221A7091
:1024C00000F00DFD618300000C0000206F83000010
:1024D000349600002D200000449600000D8300007B
:1024E000EC0200204C960000C982000054960000C7
:1024F000053B00005E0200205C9600006496000030
:10250000AD0100205D0200205A0200206C96000000
:10251000749600007C960000849600008C96000063
:1025200094960000600200209C960000A496000093
:10253000AE010020C949FB6806221800C84B984725
:10254000031E04D1C74B00221A7000F0C8FCC64914
:10255000FB6806221800C24B9847031E04D1C34BE8
:1025600001221A7000F0BBFCC149FB68062218006A
:10257000BB4B9847031E04D1BC4B00221A7000F0DD
:10258000AEFCBC49FB6806221800B54B9847031EF9
:1025900004D1B94B01221A7000F0A1FCB749FB68C5
:1025A00006221800AE4B9847031E04D1B24B0022FE
:1025B0001A7000F094FCB249FB6806221800A84B80
:1025C0009847031E04D10B20AE4B984700F087FCC0
:1025D000AD49FB6806221800A14B9847031E04D1A1
:1025E0000B20AA4B984700F07AFCA949FB68062209
:1025F00018009B4B9847031E04D10C20A14B984711
:1026000000F06DFCA349FB6806221800944B984724
:10261000031E04D10C209D4B984700F060FC9E499E
:10262000FB68062218008E4B9847031E04D10D202C
:10263000944B984700F053FC9849FB680622180019
:10264000874B9847031E04D10D20904B984700F00C
:1026500046FC9349FB6806221800814B9847031EED
:1026600004D10E20874B984700F039FC8D49FB6858
:10267000062218007A4B9847031E04D10E20834B84
:10268000984700F02CFC8849FB6806221800744B20
:102690009847031E04D10F207A4B984700F01FFC87
:1026A0008249FB68062218006D4B9847031E04D12F
:1026B0000F20764B984700F012FC7D49FB680622FC
:1026C0001800674B9847031E04D110206D4B9847A4
:1026D00000F005FC7749FB6806221800604B98471C
:1026E000031E04D11020694B984700F0F8FB724993
:1026F000FB68062218005A4B9847031E04D111208C
:10270000604B984700F0EBFB6C49FB680622180011
:10271000534B9847031E04D111205C4B984700F09F
:10272000DEFB6749FB68062218004D4B9847031EE5
:1027300004D11220534B984700F0D1FB6149FB684C
:1027400006221800464B9847031E04D112204F4B17
:10275000984700F0C4FB5C49FB6806221800404B18
:102760009847031E04D11320464B984700F0B7FB4F
:102770005649FB6806221800394B9847031E04D1BE
:102780001320424B984700F0AAFB5149FB680622F0
:102790001800334B9847031E04D11420394B984737
:1027A00000F09DFB4B49FB68062218002C4B984714
:1027B000031E04D11420354B984700F090FB464986
:1027C000FB6806221800264B9847031E04D11520EB
:1027D0002C4B984700F083FB4049FB680622180009
:1027E0001F4B9847031E03D11520284B984776E3CB
:1027F0003B49FB6808221800194B9847031E06D076
:10280000384B1800384B9847384B984767E338499E
:10281000FB6805221800124B9847031E03D1354B65
:1028200001221A705BE33449FB68052218000C4B47
:102830009847031E05D12F4B00221A702F4B984743
:102840004DE32F49FB6805221800054B9847031EEE
:102850005AD12C4B01221A7041E3C046AC960000BD
:102860006F830000AE010020B496000045020020F6
:10287000BC960000C496000066020020CC960000C2
:10288000D4960000F54C0000DC9600007D4D000061
:10289000E4960000EC960000F4960000FC96000020
:1028A000049700000C970000149700001C9700008C
:1028B000249700002C970000349700003C970000FC
:1028C000449700004C970000549700005C9700006C
:1028D000649700006C970000749700007C970000DC
:1028E00084970000909700002D200000A14D00006B
:1028F000A097000059020020A89700008D38000022
:10290000B097000099010020C849FB680522180013
:10291000C74B9847031E03D1C64B00221A70DEE254
:10292000C549FB6805221800C14B9847031E03D117
:10293000C24B01221A70D2E2C149FB68052218007D
:10294000BB4B9847031E03D1BC4B00221A70C6E252
:10295000BC49FB6805221800B54B9847031E15D1EA
:102960000123022201210020B74CA04701230222AB
:1029700002210020B44CA0470123042201210020A1
:10298000B14CA047B14B01221A70A8E2B049FB68D4
:1029900005221800A64B9847031E15D100230222DA
:1029A00001210020A84CA047002302220221002080
:1029B000A54CA0470023042201210020A24CA047DF
:1029C000A24B00221A708AE2A249FB680522180075
:1029D000974B9847031E24D1012301220221002096
:1029E000994CA0470123012201210020964CA047C9
:1029F0000123002201210020934CA0470123002243
:102A000002210020904CA047012300220321002036
:102A10008D4CA04701230022042100208A4CA047AE
:102A20005DE28D49FB6805221800814B9847031E23
:102A300024D10023012202210020834CA04700233F
:102A4000012201210020804CA04700230022012107
:102A500000207D4CA04700230022022100207A4C58
:102A6000A0470023002203210020774CA047002329
:102A7000002204210020744CA04730E27749FB6813
:102A8000072218006A4B9847031E24D10123032212
:102A9000022100206C4CA0470123032201210020C9
:102AA000694CA0470123002201210020664CA04769
:102AB0000123002202210020634CA04701230022B1
:102AC00003210020604CA0470123002204210020A4
:102AD0005D4CA04703E26249FB6807221800544B93
:102AE0009847031E24D10023032202210020564CC4
:102AF000A0470023032201210020534CA0470023BC
:102B0000002201210020504CA04700230022022176
:102B100000204D4CA04700230022032100204A4CF6
:102B2000A0470023002204210020474CA047D6E103
:102B30004C49FB68072218003D4B9847031E03D100
:102B4000494B01221A70CAE14849FB680722180064
:102B5000374B9847031E05D1434B00221A70444B54
:102B60009847BCE14349FB6807221800304B98475F
:102B7000031E03D1404B01221A70B0E13F49FB68AC
:102B8000072218002A4B9847031E05D1384B984757
:102B9000394B00221A70A2E13949FB68082218005B
:102BA000234B9847031E03D1364B01221A7096E13E
:102BB0003549FB68082218001D4B9847031E05D1B4
:102BC0002B4B98472F4B00221A7088E12F49FB6846
:102BD0000A221800164B9847031E6BD12C4B180085
:102BE0002C4B984700202C4B984703003B60002358
:102BF0007B602A4CFA22002338687968A0470300DA
:102C00000C0019002200264B0024C918624108005C
:102C10001100244C244A0023A04703000C00180094
:102C2000224B9847224B9847FEE7C046B0970000DA
:102C30006F83000099010020B89700006502002012
:102C4000C0970000C8970000053B00004402002028
:102C5000D0970000D8970000E0970000E8970000A8
:102C6000F0970000F8970000B301002000980000E2
:102C70008D380000089800004702002010980000DE
:102C8000189800006302002024980000309800008B
:102C90003C9800002D2000002D59000041670000E5
:102CA000571B000001670000581B000001000020B6
:102CB000490100008E49FB68092218008D4B984796
:102CC000031E2FD18C4B18008C4B984700208C4B47
:102CD000984703001D0000231E008A4CFA2200239F
:102CE00028003100A04703000C0019002200864B89
:102CF0000024C918624108001100844C844A002352
:102D0000A04703000C001800824B9847824B98475D
:102D1000824B9847824B00221A70824B1800774BE7
:102D20009847DCE08049FB6808221800714B9847FF
:102D3000031E0FD10923FB6444230822BA18D218BA
:102D40007A49FB6818007A4B9847FB6C9AB2794B2A
:102D50001A80C4E07849FB6808221800654B984740
:102D6000031E0FD1754BBB6440230822BA18D2183A
:102D70007349FB6818006E4B9847BB6C9AB26D4B59
:102D80005A80ACE06F49FB6808221800594B9847FD
:102D9000031E0FD1694B7B643C230822BA18D2185A
:102DA0006949FB681800624B98477B6C9AB2614B8B
:102DB0009A8094E06549FB68082218004D4B9847BB
:102DC000031E0FD15D4B3B6438230822BA18D2187A
:102DD0005F49FB681800564B98473B6C9AB2554BBD
:102DE000DA807CE05B49FB6808221800414B984779
:102DF000031E0FD1514BFB6334230822BA18D2189B
:102E00005549FB6818004A4B9847FB6B9AB2494BEF
:102E10001A8164E05149FB6808221800354B984735
:102E2000031E0FD1454BBB6330230822BA18D218BA
:102E30004B49FB6818003E4B9847BB6B9AB23D4B21
:102E40005A814CE04749FB6808221800294B9847F3
:102E5000031E0FD1394B7B632C230822BA18D218DA
:102E60004149FB681800324B98477B6B9AB2314B53
:102E70009A8134E03D49FB68082218001D4B9847B1
:102E8000031E0FD12D4B3B6328230822BA18D218FA
:102E90003749FB681800264B98473B6B9AB2254B85
:102EA000DA811CE03349FB6805221800114B984772
:102EB000031E06D1304B01221A70304B00221A70CB
:102EC0000DE02F49FB68052218000A4B9847031EA6
:102ED00005D1294B00221A70284B01221A70294B68
:102EE0001800064B9847C046BD4617B0F0BDC04617
:102EF000489800006F830000549800002D200000C7
:102F00002D59000041670000571B000001670000B9
:102F1000581B000001000020A14D0000E93F000007
:102F200059020020689800007C98000088980000F2
:102F30000D830000B401002094980000C409000033
:102F4000A0980000AC980000B8980000C498000059
:102F5000D0980000DC980000E8980000F498000089
:102F6000009900000C9900001899000024990000B5
:102F7000309900003C990000B2010020B00100200F
:102F8000449900004C99000080B582B000AF264BF8
:102F90001B7801225340DBB2002B40D0224B012290
:102FA0001A7000237B6034E0204A7B6808211B01F3
:102FB000D3185B181A78802149420A431A701B4AB9
:102FC0007B6808211B01D3185B185A78802149427D
:102FD0000A435A707B68DBB22033D8B2134A7B684D
:102FE0001B01D31808331978104A7B681B01D318CA
:102FF00009331B781A000E4B9847030019000B4A3F
:103000007B681B01D31803330A1C1A707B680133D9
:103010007B607B68072BC7DD034B00221A70C0461C
:10302000BD4602B080BDC0465F02002010000020F7
:10303000C140000090B583B000AF78607B681A880B
:10304000944B1B889A4218D90123032203210020A4
:10305000914CA04701230422032100208E4CA0475D
:1030600001230122042100208B4CA04701230122CF
:1030700003210020884CA04717E0002303220321EE
:103080000020854CA0470023042203210020824C0D
:10309000A04700230122042100207F4CA0470023E9
:1030A0000122032100207C4CA0477B6802331A8850
:1030B000784B5B889A422AD9012300220221002002
:1030C000754CA0470123002201210020724CA0472B
:1030D00001230022042100206F4CA047012300227D
:1030E000032100206C4CA04701230322052100206E
:1030F000694CA0470123022205210020664CA0470D
:103100000123042205210020634CA04729E000236D
:10311000002202210020604CA04700230022012150
:1031200000205D4CA04700230022042100205A4CBF
:10313000A0470023002203210020574CA047002372
:10314000032205210020544CA04700230222052120
:103150000020514CA04700230422052100204E4CA2
:10316000A0477B6804331A884A4B9B889A420CD943
:103170000123012202210020474CA0470123012204
:1031800001210020444CA0470BE000230122022132
:103190000020414CA04700230122012100203E4C89
:1031A000A0477B6806331A883A4BDB889A420CD9D1
:1031B0000123022202210020374CA04701230222D2
:1031C00001210020344CA0470BE000230222022101
:1031D0000020314CA04700230222012100202E4C68
:1031E000A0477B6808331A882A4B1B899A420CD95E
:1031F0000123022204210020274CA04701230222A0
:1032000003210020244CA0470BE0002302220421CC
:103210000020214CA04700230222032100201E4C45
:10322000A0477B680A331A881A4B5B899A420CD9EB
:103230000123032201210020174CA0470123032270
:1032400002210020144CA0470BE00023032201219F
:103250000020114CA04700230322022100200E4C25
:10326000A0477B680C331A880A4B9B899A4206D97F
:103270000123042201210020074CA04705E0002380
:10328000042201210020044CA047C046BD4603B0E3
:1032900090BDC046B4010020053B0000B0B500AFB2
:1032A0007C4B1B78132B00D9EAE09A007A4BD31899
:1032B0001B689F46794B9847012302220221002078
:1032C000774CA047734B1B780133DAB2714B1A70FD
:1032D000DCE00023022202210020714CA0470123E0
:1032E0000122022100206E4CA0476A4B1B7801335B
:1032F000DAB2684B1A70C9E00023012202210020D3
:10330000674CA0470123002202210020644CA04703
:10331000604B1B780133DAB25E4B1A70B6E00023C3
:103320000022022100205E4CA0470123002201213F
:1033300000205B4CA047574B1B780133DAB2554B4A
:103340001A70A3E00023002201210020544CA04762
:103350000123012201210020514CA0474D4B1B7835
:103360000133DAB24B4B1A7090E0002301220121A5
:1033700000204B4CA0470123022201210020484C91
:10338000A047444B1B780133DAB2424B1A707DE000
:103390000023022201210020414CA04701230222E8
:1033A000032100203E4CA0473A4B1B780133DAB290
:1033B000384B1A706AE00023022203210020384CA7
:1033C000A0470123012203210020354CA047314BA7
:1033D0001B780133DAB22F4B1A7057E00023012219
:1033E000032100202E4CA0470123002203210020AE
:1033F0002B4CA047274B1B780133DAB2254B1A70B0
:1034000044E00023002203210020254CA047012393
:10341000012204210020224CA0471E4B1B780133BF
:10342000DAB21C4B1A7031E0002301220421002083
:103430001B4CA0470123002204210020184CA04768
:10344000144B1B780133DAB2124B1A701EE00023C2
:10345000002204210020124CA04701230222042153
:1034600000200F4CA0470B4B1B780133DAB2094BFD
:103470001A700BE0094B9847064B00221A7005E0C2
:10348000064B9847034B00221A70C046C046BD4603
:10349000B0BDC04620010020789900008D380000A2
:1034A000053B0000B0B500AF8E4B1B780A2B00D94E
:1034B00010E19A008C4BD3181B689F468B4B9847A2
:1034C0000123042201210020894CA047854B1B7851
:1034D0000133DAB2834B1A7001E100230422012187
:1034E0000020834CA0477F4B1B780133DAB27D4B21
:1034F0001A70F4E001230422012100207C4CA04733
:10350000784B1B780133DAB2764B1A70E7E0002370
:10351000042201210020764CA047724B1B78013316
:10352000DAB2704B1A70DAE0012304220121002084
:103530006F4CA0476B4B1B780133DAB2694B1A70A2
:10354000CDE00023042201210020694CA047654BF7
:103550001B780133DAB2634B1A70C0E001230222F8
:1035600001210020624CA0470123022202210020F9
:103570005F4CA04701230122032100205C4CA0479F
:103580000123012204210020594CA047554B1B78F0
:103590000133DAB2534B1A70A1E000230222012159
:1035A0000020534CA0470023022202210020504C4F
:1035B000A04701230122012100204D4CA0470123F7
:1035C0000122022100204A4CA047002301220321AE
:1035D0000020474CA0470023012204210020444C36
:1035E000A047404B1B780133DAB23E4B1A7076E0AD
:1035F00000230122012100203D4CA047002301228D
:10360000022100203A4CA04701230322012100207F
:10361000374CA0470123032202210020344CA0474D
:103620000123002203210020314CA0470123002266
:10363000042100202E4CA0472A4B1B780133DAB21C
:10364000284B1A704BE00023032201210020284C54
:10365000A0470023032202210020254CA04701237C
:10366000012201210020224CA04701230122022136
:1036700000201F4CA04700230022032100201C4CE7
:10368000A0470023002204210020194CA047154B1D
:103690001B780133DAB2134B1A7020E000230122A9
:1036A00001210020124CA04700230122022100200A
:1036B0000F4CA04701230222012100200C4CA047FF
:1036C0000123022202210020094CA047054B0022C1
:1036D0001A7004E0054B9847024B00221A70C0464E
:1036E000BD46B0BD21010020C89900008D38000002
:1036F000053B0000B0B500AF614B1B781A1E614B53
:103700001B689A4254DA01230022012100205E4CFA
:10371000A04701230022022100205B4CA047012387
:10372000002203210020584CA0470123002204213D
:103730000020554CA0470123012202210020524CB9
:10374000A04701230122012100204F4CA047012363
:103750000222022100204C4CA04701230222012119
:103760000020494CA0470123022204210020464C9E
:10377000A0470123022203210020434CA04701233C
:10378000012203210020404CA047012301220421F3
:1037900000203D4CA04701230322022100203A4C87
:1037A000A0470123032201210020374CA04753E00A
:1037B0000023002201210020334CA04700230022D7
:1037C00002210020304CA0470023002203210020CA
:1037D0002D4CA04700230022042100202A4CA047A2
:1037E0000023012202210020274CA04700230122B0
:1037F00001210020244CA0470023022202210020A6
:10380000214CA04700230222012100201E4CA0478A
:1038100000230222042100201B4CA0470023022287
:1038200003210020184CA04700230122032100207F
:10383000154CA0470023012204210020124CA04770
:1038400000230322022100200F4CA0470023032263
:10385000012100200C4CA0470A4B1B68C72B0CDD34
:10386000074B1B781433DAB2054B1A70044B1B78E4
:10387000C72B02D9024B32221A70C046BD46B0BDDA
:103880009000002010030020053B000080B582B0AE
:1038900000AF00237B6010E00B4A7B681B01D3184C
:1038A000083380221A70084A7B681B01D318093339
:1038B00080221A707B6801337B607B68072BEBDD0D
:1038C000C046BD4602B080BD10000020F0B54F4696
:1038D0004646C0B495B006AF0823FA18814B1100D4
:1038E0001800814B98472F2308229446BC44634418
:1038F00001221A7000233B63A2E07C4B3A6B120159
:10390000D35C002B6ED0794A3B6B1B01D318083374
:103910001A7874493B6BCB181B78D31AD9B2734A07
:103920003B6B1B01D3180C330A1C1A706F4A3B6B9C
:103930001B01D31809331A786A493B6BCB1808333B
:103940001B78D31AD9B2694A3B6B1B01D3180D33CC
:103950000A1C1A70654A3B6B1B01D3180C331B7889
:103960001900624A3B6B1B01D3180D331B78CB182F
:10397000002B06DD5D4A3B6B1B01D318023301228D
:103980001A70584A3B6BD3181A7858493B6B1B0185
:10399000CB1808331B785340DBB21A0080239A43BC
:1039A000131E06D02F2308229446BC4463440022F1
:1039B0001A704C4A3B6BD31808331A784B493B6B4F
:1039C0001B01CB1809331B785340DBB21A0080234C
:1039D0009A43131E06D02F2308229446BC44634406
:1039E00000221A700823FA183B6BD31819783F4A43
:1039F0003B6B1B01D31803330A1C1A703B4A3B6B09
:103A00001B01D31803331B783A6B3949082008246B
:103A1000A446BC446044374CA0470823082294467F
:103A2000BC4463441800344B98470823082294464A
:103A3000BC4463441800314B98473B6B01333B63F4
:103A40003B6B072B00DC58E7284B72229B5C7B60AA
:103A5000264B62229B5C3B60244B52229B5C1C00E9
:103A6000224B42229B5C1D00204B32229B5C1E009D
:103A70001E4B22229B5C1A001C4B9B7C9C461B4BC2
:103A80009B7899461E49082008239846B84440442C
:103A90004B46059363460493039202960195009466
:103AA0003B687A68134CA047082308229446BC441C
:103AB00063441800104B9847082308229446BC44DE
:103AC000634418000D4B98472F2308229446BC44AA
:103AD00063441B781800BD460FB00CBC9046994655
:103AE000F0BDC046480200205941000010000020EF
:103AF00050990000C98200002D200000B95000003C
:103B000060990000B0B582B000AF05000C00100055
:103B10001900FB1D2A1C1A70BB1D221C1A707B1D6C
:103B2000021C1A703B1D0A1C1A703B1D1B78002BCF
:103B30001FD0BB1D1A78FB1D1B78B91D0878F91D15
:103B400009781E4C0001201841180831097848B244
:103B5000791D097801248C40210049B2014349B202
:103B6000C8B2164912018A18D3180833021C1A70F9
:103B700020E0BB1D1A78FB1D1B78B91D0878F91DC4
:103B800009780E4C0001201841180831097849B213
:103B9000781D007801248440200040B2C04340B228
:103BA000014049B2C8B2054912018A18D318083336
:103BB000021C1A70C046BD4602B0B0BD1000002005
:103BC00080B584B000AF78607B681B68FB60FB68E1
:103BD000DB69072213405A1E9341DBB21800BD4631
:103BE00004B080BD80B582B000AF7860C0467B680D
:103BF0001800044B9847031EF9D1C046BD4602B0D9
:103C000080BDC046C13B000080B582B000AF786087
:103C10007B6864221A607B681B4A5A607B680022BA
:103C20009A607B6800221A737B6800221A767B6890
:103C3000802292031A617B6801225242DA827B68F9
:103C4000012252429A827B680022DA617B6800225C
:103C50001A627B682422002199547B6800229A62B0
:103C60007B682C22002199547B682D2200219954D5
:103C70007B682E22002199547B68D7221A86C04681
:103C8000BD4602B080BDC046480D000080B584B07E
:103C900000AF78607B681B68BB600023FB607B68BB
:103CA0001800104B9847BB681B6802221A43BB6878
:103CB0001A600CE0FB680133FB607B68DB881A1E2E
:103CC000FB689A4203D8BB6810225A8306E0BB689F
:103CD0005B8B9BB21A0010231340EBD0BD4604B09F
:103CE00080BDC046E53B000080B58EB000AF3B1DF7
:103CF00018000E4B98473B1D0D4ADA823B1D64228B
:103D00001A603B1D0B4ADA613B1D0B4A1A623A1DD1
:103D10000A490B4B18000B4B9847094B18000A4BEC
:103D20009847C046BD460EB080BDC046093C000065
:103D300010270000020016000200170000140042C5
:103D400014030020411200008D3C000080B586B0B5
:103D500000AF39601100FB1D021C1A70BB1D0A1C4C
:103D60001A70FB1D1B789AB20823FB181A80BB1D22
:103D70001B789AB20823FB185A800823FB183A686C
:103D80005A600823FB1800221A720823FB1800222D
:103D90005A720823FB1800229A721623FB1800227D
:103DA0001A800823FA18054B11001800044B984795
:103DB00003001800BD4606B080BDC04614030020B5
:103DC0004118000090B58BB000AF0400080011004E
:103DD0003B60FB1D221C1A70BB1D021C1A707B1D50
:103DE0000A1C1A702523FB1800221A702023FB18C6
:103DF000BA1D12781A702023FB18FF225A70FB1D7F
:103E00001B789BB28022520013439AB21423FB18F2
:103E10001A807B1D1B789AB21423FB185A80142336
:103E2000FB182022BA185A601423FB1800221A72B9
:103E30001423FB1800225A721423FB1800229A72D2
:103E40002623FB1800221A802523FC181423FA18B5
:103E5000234B11001800234B98470300237026239F
:103E6000FB181B882622BA18591C11800A2B03D173
:103E70002523FB181B782EE02523FB181B78002B2D
:103E8000E2D1FB1D1B789AB20823FB181A807B1D18
:103E90001B789AB20823FB185A800823FB183A684B
:103EA0005A600823FB1800221A720823FB1800220C
:103EB0005A720823FB1800229A722523FC18082343
:103EC000FA18074B11001800074B9847030023709E
:103ED0002523FB181B781800BD460BB090BDC046CB
:103EE00014030020411800009916000080B584B02A
:103EF00000AF0200FB1D1A700F23FB18FA1D127889
:103F0000D2091A700E23FB18FA1D127852091A7082
:103F10000D4BBB600F23FB181B78002B0FD10F2319
:103F2000FB181B789B0010229446BC446344083B5A
:103F30001A680E23FB181B78DB01D31800E000235E
:103F40001800BD4604B080BD0044004180B582B079
:103F500000AF0200FB1D1A70FB1D1B781800034BFD
:103F6000984703001800BD4602B080BDED3E00003A
:103F700080B582B000AF78607B6800221A707B68E1
:103F800001225A707B6800229A70C046BD4602B07A
:103F900080BDC04680B584B000AF0200FB1D1A7022
:103FA000BB1D0A1C1A70FB1D1B7818000D4B98478F
:103FB0000300FB60FB1D1B781F22134001229A4067
:103FC0001300BB60BB1D1B78002B03D0FB68BA68D5
:103FD0009A6102E0FB68BA685A61C046BD4604B007
:103FE00080BDC0464D3F000090B585B000AF0F23A7
:103FF000FB1800221A703B1D00225A700023BB6080
:1040000036E03B1D00221A70BB68DBB22033DBB206
:10401000FC1D391D02221800284B9847030023700D
:10402000FB1D1B78002B20D13B1D01221A70BB68A1
:10403000DBB22033DBB2FC1D391D022218001F4BFE
:10404000984703002370FB1D1B78002B0DD1012224
:10405000BB689A4013005AB20F23FB181B785BB25F
:1040600013435AB20F23FB181A70BB680133BB60AD
:10407000BB68072BC5DD3B1D80225A703B1D1222F9
:104080001A70BC1D3B1D0222190021200B4B9847C2
:10409000030023703B1D13221A70BC1D3B1D02221E
:1040A00019002120054B9847030023700F23FB18AC
:1040B0001B781800BD4605B090BDC0464D3D0000C0
:1040C00090B585B000AF040008001100FB1D221C54
:1040D0001A70BB1D021C1A707B1D0A1C1A700F235C
:1040E000FB1800221A700C23FB1812221A700C23E2
:1040F000FB18BA1D12785A700F23FC180C23F918FC
:10410000FB1D1B7802221800124B984703002370F6
:104110000C23FB1813221A700C23FB187A1D12783B
:104120005A700C23F918FB1D1B7802221800094B4A
:104130009847030019000F23FB180F22BA181278B2
:104140000A431A700F23FB181B781800BD4605B0F0
:1041500090BDC0464D3D0000B0B584B000AF786062
:1041600039600E23FB1800221A700F23FB1800225F
:104170001A703EE00F23FB181B782033D8B20F23B0
:10418000FB181B787A68D3180E22BC180122122162
:104190001C4DA847030023700F23FB181B78203306
:1041A000D8B27B6808331A000F23FB181B78D3188A
:1041B00001221321134CA047030019000E23FB1802
:1041C0000E22BA1812780A431A700F23FB181B78B4
:1041D0003A68D3180E22BA1812781A700E23FB18F8
:1041E00000221A700F23FB181A780F23FB180132D4
:1041F0001A700F23FB181B78072BBBD9C046BD468E
:1042000004B0B0BDC53D000080B582B000AF3B1D1D
:1042100018000A4B98473B1D01225A703B1D012292
:104220001A703B1D19000720054B984701210720F4
:10423000044B9847C046BD4602B080BD713F0000A8
:10424000E90C0000953F000080B584B000AF02008B
:10425000FB1D1A700F23FB18FA1D1278D2091A7071
:104260000E23FB18FA1D127852091A700D4BBB6011
:104270000F23FB181B78002B0FD10F23FB181B7883
:104280009B0010229446BC446344083B1A680E23EA
:10429000FB181B78DB01D31800E000231800BD4693
:1042A00004B080BD0044004180B584B000AF7860A8
:1042B0007B681B68FB60FB685B7EDBB25BB2002B3C
:1042C00001DA012300E000231800BD4604B080BDE0
:1042D00080B586B000AF78607B681B683B613B6946
:1042E0001B7EDBB2FB6000237B61FB680122134075
:1042F00003D07B69012213437B61FB6804221340D6
:1043000003D07B69022213437B61FB6802221340C6
:1043100003D07B69042213437B617B691800BD468F
:1043200006B080BD80B584B000AF786039607B682E
:104330001B68BB600023FB603B680122134003D075
:10434000FB6801221343FB603B680222134003D049
:10435000FB6804221343FB603B680422134003D034
:10436000FB6802221343FB60FB68DAB2BB681A7673
:10437000C046BD4604B080BD80B584B000AF786053
:104380007B681B68FB60C0467B6818000E4B984733
:10439000031EF9D1FB680F229A75FB680F221A766B
:1043A000FB681B78DBB202221343DAB2FB681A7097
:1043B000C0467B681800044B9847031EF9D10023C0
:1043C0001800BD4604B080BDA942000080B584B08D
:1043D00000AF78607B681B68FB60C0467B68180094
:1043E0000B4B9847031EF9D1FB681B7BDBB2022203
:1043F0001343DAB2FB681A73C0467B681800044B9B
:104400009847031EF9D1C046BD4604B080BDC046E2
:10441000A942000080B584B000AF786039607B6845
:104420001800184B984702000123134001D10523BF
:1044300023E07B681B68FB60C0467B681800124B5A
:104440009847031EF9D1FB685B8B9AB23B681A80D0
:104450007B68012118000D4B98477B681800094BB9
:10446000984702000423134006D07B6804211800FB
:10447000064B98471E2300E000231800BD4604B0F9
:1044800080BDC046D1420000A94200002543000083
:1044900080B582B000AF0200FB1D1A70FB1D1B78B7
:1044A0001800034B984703001800BD4602B080BDBA
:1044B0004942000080B582B000AF78607B6800227E
:1044C0001A707B6801225A707B6800229A70C0467D
:1044D000BD4602B080BDC04680B584B000AF0200CA
:1044E000FB1D1A70BB1D0A1C1A70FB1D1B781800DF
:1044F0000D4B98470300FB60FB1D1B781F221340E8
:1045000001229A401300BB60BB1D1B78002B03D017
:10451000FB68BA689A6102E0FB68BA685A61C046F3
:10452000BD4604B080BDC0469144000080B500AFD8
:10453000034B9847034B9847C046BD4680BDC046D5
:1045400049450000A145000080B582B000AF3B1D89
:104550001800104B98473B1D02225A703B1D012248
:104560001A703B1D190019200B4B98470021192088
:104570000A4B98473B1D01225A703B1D1900182019
:10458000054B984701211820044B9847C046BD466B
:1045900002B080BDB5440000E90C0000D944000021
:1045A00080B58CB000AF3B0018000E4B98473B0025
:1045B00000229A603B0002221A733B000022DA7448
:1045C0003B00C0225201DA813A000749074B18002C
:1045D000074B9847054B1800064B9847C046BD4609
:1045E0000CB080BD9102000000400042200300207A
:1045F000E10800007943000080B582B000AF094BAC
:104600001800094B9847BA1D064B11001800074BBC
:104610009847031E052BF6D0BB1D1B881800BD460E
:1046200002B080BD20030020CD43000015440000EF
:10463000F0B58FB000AFF86201211920534B9847B5
:104640000020534B984703003B6100237B61514B93
:10465000002438697969C01861414F4C4F4A0023E2
:10466000A04703000C0018004D4B9847002119206B
:10467000464B98470020464B98470300BB610023F8
:10468000FB61BB69FC699A0FA0007862786A1043ED
:1046900078629B003B623B6A7C6AB969FA695B1885
:1046A00054411A0F260116431D01ED1AA6412B0095
:1046B0003400384900225B18544118002100364C60
:1046C000364A0023A04703000C001800344B9847DB
:1046D00000237B6352E0002118202C4B98470020D8
:1046E0002B4B98470300BB600023FB602D4C282216
:1046F0000023B868F968A04703000C0019002200E5
:10470000244B0024C918624108001100224C234A9E
:104710000023A04703000C001800214B98477B6B37
:104720005B00FA6AD418204B9847030023800121CC
:104730001820164B98470020154B984703003B6004
:1047400000237B60174C2822002338687968A04733
:1047500003000C00190022000E4B0024C91862410E
:10476000080011000C4C0D4A0023A04703000C0068
:1047700018000B4B98477B6B01337B637B6B062BDD
:10478000A9DDC046BD460FB0F0BDC046D94400000B
:104790002D590000BFCF6A0001670000C0CF6A003A
:1047A0000100002041670000F945000080B582B09B
:1047B00000AF0200FB1D1A70064BFA1D12781100A3
:1047C0001F220A40012191400A001A60C046BD46DE
:1047D00002B080BD00E100E0B0B582B000AF0200E1
:1047E0003960FB1D1A70FB1D1B787F2B32D92F4CB3
:1047F000FB1D1B781A000F231340083B99082B4A16
:10480000FB1D1B7818000F230340083B9B08063351
:104810009B00D31804331B68FA1D12781000032282
:104820000240D200FF2090400200D2431A403B6871
:104830009B01FF201840FB1D1B781D0003232B400C
:10484000DB00984003001A438B1D9B00E3180433E0
:104850001A6027E0164CFB1D1B785BB29B081449BD
:10486000FA1D127852B29208C03292005258F91DC5
:104870000978080003210140C900FF208840010099
:10488000C94311403A689201FF201040FA1D127886
:10489000150003222A40D200904002000A43C03390
:1048A0009B001A51C046BD4602B0B0BD00ED00E00D
:1048B00000E100E080B582B000AF78607B68002244
:1048C0001A707B6801225A707B6800229A70C04679
:1048D000BD4602B080BDC04680B582B000AF0B4B74
:1048E00000221A603B1D1800094B98473B1D00220F
:1048F0005A703B1D01221A703B1D19000220054B06
:104900009847C046BD4602B080BDC0461003002097
:10491000B5480000E90C000080B500AF154B154A02
:10492000126A802109010A431A62134B134A5A8002
:10493000134B144A1A80124B00221A82104B124A4F
:104940001A830F4A0E4B1B889BB202210B439BB26A
:1049500013800B4B01221A72094B10225A7312203A
:104960000A4B984702211220094B9847C046BD4682
:1049700080BDC04600040040000C00401B40000009
:10498000002C004220200000409CFFFFAD470000AB
:10499000D947000080B500AF104B9B7BDB07DB0FD6
:1049A000DBB2012B16D10E4B01221A700D4B1B6886
:1049B0005A1C0C4B1A600B4B1B68C82B07DD0A4BAB
:1049C0001B685A1C084B1A60064B00221A60034BE6
:1049D00010229A73C046BD4680BDC046002C0042DE
:1049E000E902002010030020F0020020F0B587B09B
:1049F00004AF274B1B78DBB2002B26D0254B1800C9
:104A0000254B9847234B1800244B9847214B1B8874
:104A10001E00204B5B887B601E4B9B881A001D4B41
:104A2000DB881C001B4B1B891D001A4B5B891C4932
:104A30001C4803930295019400927B6832001A4C43
:104A4000A047184B1800194B9847194B1A68194B77
:104A50001921100098470B1E0ED1174B1B78DBB2A3
:104A6000002B02D0154B984706E0154B1B78DBB2A4
:104A7000002B01D0134B9847134B1B78DBB2002B54
:104A800001D0124B9847C046BD4603B0F0BDC046AA
:104A90005902002068030020314600003530000034
:104AA000F499000028030020C9820000B9500000DA
:104AB00010030020F5660000470200209D32000030
:104AC000B3010020A534000063020020F536000089
:104AD00080B584B000AF0200FB1D1A700F23FB18D5
:104AE000FA1D1278D2091A700E23FB18FA1D1278DB
:104AF00052091A700D4BBB600F23FB181B78002B5B
:104B00000FD10F23FB181B789B0010229446BC4446
:104B10006344083B1A680E23FB181B78DB01D3188B
:104B200000E000231800BD4604B080BD00440041F1
:104B300080B582B000AF0200FB1D1A70FB1D1B7810
:104B40001800034B984703001800BD4602B080BD13
:104B5000D14A000080B582B000AF78607B68002247
:104B60001A707B6801225A707B6800229A70C046D6
:104B7000BD4602B080BDC04680B584B000AF020023
:104B8000FB1D1A70BB1D0A1C1A70FB1D1B78180038
:104B90000D4B98470300FB60FB1D1B781F22134041
:104BA00001229A401300BB60BB1D1B78002B03D071
:104BB000FB68BA689A6102E0FB68BA685A61C0464D
:104BC000BD4604B080BDC046314B000080B582B008
:104BD00000AF3B1D1800444B98473B1D01225A7003
:104BE0003B1D01221A703B1D190005203F4B9847C1
:104BF0003B1D19001C203D4B984701211C203C4BBC
:104C000098473B1D19000B20384B984701210B207A
:104C1000374B98473B1D19000C20344B9847012116
:104C20000C20334B98473B1D19000D202F4B984704
:104C300001210D202E4B98473B1D19000E202B4BB8
:104C4000984701210E202A4B98473B1D19000F2041
:104C5000264B984701210F20254B98473B1D1900F3
:104C60001020224B984701211020214B98473B1DD3
:104C7000190011201D4B9847012111201C4B98470A
:104C80003B1D19001220194B984701211220184B87
:104C900098473B1D19001320144B984701211320FE
:104CA000134B98473B1D19001420104B98470121C6
:104CB00014200F4B98473B1D190015200B4B9847AC
:104CC000012115200A4B98473B1D01221A703B1DFC
:104CD00019001B20054B984701211B20044B9847C6
:104CE000C046BD4602B080BD554B0000E90C000037
:104CF000794B0000F0B583B000AF0200FB1D1A70C5
:104D0000FB1D1B7800211800154B98470020154B00
:104D1000984703001D0000231E00134C9622002319
:104D200028003100A04703000C00190022000F4B9F
:104D30000024C9186241080011000D4C0D4A0023DF
:104D4000A04703000C0018000B4B9847FB1D1B7875
:104D500001211800024B9847C046BD4603B0F0BD84
:104D6000794B00002D59000041670000571B0000DF
:104D700001670000581B00000100002080B582B0D0
:104D800000AF0200FB1D1A70FB1D1B7801211800EB
:104D9000024B9847C046BD4602B080BD794B00002B
:104DA000F0B583B000AF00211C20354B98470020A0
:104DB000344B984703003B6000237B60324C322227
:104DC000002338687968A04703000C00190022000E
:104DD0002E4B0024C9186241080011002C4C2D4AAA
:104DE0000023A04703000C0018002B4B984701211B
:104DF0001C20234B98470B20284B98470C20274B0F
:104E000098470D20254B98470E20244B98470F209C
:104E1000224B98471020214B984711201F4B984751
:104E200012201E4B984713201C4B984714201B4BF5
:104E300098471520194B98470020124B98470300BC
:104E40001D0000231E00104C962200232800310074
:104E5000A04703000C00190022000C4B0024C918C5
:104E60006241080011000A4C0A4A0023A0470300CF
:104E70000C001800084B9847C046BD4603B0F0BD73
:104E8000794B00002D59000041670000571B0000BE
:104E900001670000581B0000010000207D4D00004C
:104EA00080B582B000AF78607B688022D2051A603E
:104EB0007B6800225A607B68FF221A817B6800228F
:104EC0009A727B680022DA727B68962292011A62DB
:104ED0007B682422012199547B6825220121995461
:104EE0007B682622002199547B682722002199544F
:104EF0007B6800229A627B6888225203DA607B68B2
:104F00002C22002199547B682D22002199547B6822
:104F100000221A637B6800225A637B6800229A632E
:104F20007B680022DA637B6800225A617B6800227A
:104F30001A827B680022DA767B6800221A767B6808
:104F400000221A777B6800225A767B6813229A76B1
:104F50007B6800225A77C046BD4602B080BDC0467D
:104F600080B592B000AF3B1D1800494B98473B1DE0
:104F700080225203DA603B1D464A1A633B1D464AB3
:104F80005A633B1D012252429A633B1D0122524249
:104F9000DA633B1D2D2203219954404A13680121F5
:104FA0000B431360C0463D4B1B68DB07DB0FDBB2D6
:104FB000002BF8D1394BDB69DB07DB0FDBB2002BB1
:104FC000F1D1374B364A126A80210A431A62354BB7
:104FD000354A5A80C046334B5B78DBB25BB2002B5C
:104FE000F9DB324A84230821D150304A8823042136
:104FF000D1502E4A98230421D1502C4AB123D35C9E
:10500000DBB21A00302313407B64284A7B6CDBB28E
:1050100003210B43D9B2B123D154244AC223012125
:10502000D154224AB123D35CDBB21A00302313409F
:105030007B641E4A7B6CDBB203210B43D9B2B123E4
:10504000D1541A4AC3230321D154144B184A1A606D
:10505000124B184A9A81114BC02292025A60C046E4
:105060000E4BDB695B07DB0FDBB2002BF8D10B4A81
:10507000136802210B431360C046084BDB699B0792
:10508000DB0FDBB2002BF8D1C046BD4612B080BDAD
:10509000A14E00000300220003002300001C004278
:1050A00000040040000C004019430000004400418F
:1050B0008400104003C5FFFF80B584B000AF786066
:1050C0000023FB600FE00D4B1B7EDB07DB0FDBB229
:1050D000012B08D10949FB685A1CFA607A68D31879
:1050E0001B789BB20B857A68FB68D3181B78002B62
:1050F000E9D1C046BD4604B080BDC046001C004298
:1051000080B500AFC046BD4680BDC04680B582B008
:1051100000AF104B1B68002B12D1EFF310837B60A4
:105120007B68002B09D172B6BFF35F8F0A4B002258
:105130001A700A4B01221A7002E0084B00221A7002
:10514000044B1B685A1C034B1A60C046BD4602B094
:1051500080BDC046240100209100002028010020CD
:1051600080B500AF0B4B1B685A1E0A4B1A60094BE7
:105170001B68002B0AD1084B1B78DBB2002B05D033
:10518000064B01221A70BFF35F8F62B6C046BD4660
:1051900080BDC0462401002028010020910000208D
:1051A00080B582B000AF78607B6801225A607B686E
:1051B00000225A707B6806221A707B6800221A72DD
:1051C0007B6800225A72C046BD4602B080BDC04610
:1051D00080B582B000AF78607B6803221A707B686C
:1051E00000225A707B6801229A70C046BD4602B008
:1051F00080BDC04680B582B000AF0200FB1D1A70B2
:10520000034AFB1D1B781372C046BD4602B080BD29
:105210000004004080B582B000AF0200FB1D1A7090
:10522000BB1D0A1C1A70FB1D1B78012B08D0022B1A
:105230000BD0002B0ED10B4ABB1D1B7853720BE019
:10524000084ABB1D1B78937206E0064ABB1D1B78FB
:10525000D37201E0172300E000231800BD4602B01E
:1052600080BDC0460004004080B582B000AF02009F
:10527000FB1D1A70084AFB1D1B780F210B40D9B289
:1052800053680F20014049001E2083430B435360A5
:10529000C046BD4602B080BD0040004180B500AFB1
:1052A000C046044BDB6810221340FAD0C046BD460E
:1052B00080BDC0460008004080B500AF0C4B022204
:1052C0009A840C4B98470A4A0B4B9B68D362084A56
:1052D000094B5B689362064B00229A84054B984702
:1052E000034A054B1B689BB29384C046BD4680BDF4
:1052F000000800409D5200002C01002080B582B0C3
:1053000000AF0200FB1D1A70FB1D1B78082B40D854
:105310009A00224BD3181B689F46214B1B6939E02A
:10532000204B1B6A9B059B0FDBB21A001E4BD34020
:1053300030E080231B022DE080231B022AE0184B63
:105340005B6927E0164B1B680222134001D1002342
:1053500020E0164B9847124B1B680422134009D0DB
:105360000020134B984702000D4B9B681B041B0C3D
:1053700053430FE00F4B0DE00A4A5023D35CDBB2DE
:105380001A000423134001D1002303E0044BDB681F
:1053900000E000231800BD4602B080BD149A000052
:1053A0002C0100200008004000127A009D520000ED
:1053B000715B0000006CDC0280B584B000AF7860E7
:1053C0001A4B1B6AFB607B681B781A1C0323134073
:1053D000DAB20D23FB1803210A4010001A780321CA
:1053E0008A43111C021C0A431A707B689A780C23AA
:1053F000FB18D0011A787F210A40111C021C0A43B5
:105400001A707B685A780C23FB1801210A4090011E
:105410001A7840218A43111C021C0A431A70034B5C
:10542000FA681A62C046BD4604B080BD000800405C
:1054300080B582B000AF0200FB1D1A70FB1D1B7807
:10544000082B3BD89A00214BD3181B689F46204B52
:105450001F4A126A02210A431A62002331E01C4BE0
:105460001B4A926902210A439A6129E0184A184BA3
:105470001B8A9BB202210B439BB2138220E0144A89
:10548000134B9B8A9BB202210B439BB2938217E082
:10549000104B1B6802221A430E4B1A600E4B9847A2
:1054A0000EE00B4A0A494423CB5CDBB202210B43DA
:1054B000D9B24423D15403E0002302E0172300E0D3
:1054C00000231800BD4602B080BDC046389A0000D7
:1054D000000800402C010020B952000080B582B0C5
:1054E00000AF3B0005221A7000237B6009E07B6857
:1054F000DBB23A0011001800054B98477B68013376
:105500007B607B68242BF2D9C046BD4602B080BDCB
:10551000055A000080B5A0B000AF634BC222D20094
:105520009A600020614B9847614B98477C23FB1899
:105530001800604B98477C23FB1800221A707C23CC
:10554000FB1801229A707C23FB1800225A707C23DE
:10555000FB181800584B98470620584B9847584B53
:1055600098476423FB181800564B98476423FB1890
:1055700006221A706423FB1801225A606423FB1868
:1055800001221A726423FB1800225A726423FB184A
:10559000190001204C4B984701204C4B9847582349
:1055A000FB181800474B98475823FB1806221A701F
:1055B0005823FB1801225A605823FB1801221A7243
:1055C0005823FB1800225A725823FB181900022096
:1055D0003D4B984702203D4B98474C23FB18180041
:1055E000384B98474C23FB1806221A704C23FB18A3
:1055F00001225A604C23FB1801221A724C23FB181B
:1056000000225A724C23FB18190003202E4B984796
:1056100003202E4B98474023FB181800294B98472E
:105620004023FB1806221A704023FB1801225A60FF
:105630004023FB1800221A724023FB1800225A72E2
:105640004023FB18190004201F4B984704201F4BD0
:10565000984700201E4B9847002100201D4B98477B
:10566000002101201B4B984700210220194B98472D
:105670003B1D1800134B98473B1D06221A703B1D1B
:1056800001225A603B1D01221A723B1D00225A72F0
:105690003B1D190000200C4B984700200B4B9847EE
:1056A000C046BD4620B080BD0008004069520000E1
:1056B000DD540000D1510000B95300003154000006
:1056C0007D570000A1510000AD570000D1580000E7
:1056D000F55100001552000080B582B000AF020005
:1056E0003960FB1D1A70FB1D1B78012B0AD0022BA1
:1056F0000FD0002B14D10E4B0D4A91693A680A4322
:105700009A610FE00A4B0A4AD1693A680A43DA61A2
:1057100008E0074B064A116A3A680A431A6201E038
:10572000172300E000231800BD4602B080BDC0462C
:105730000004004080B500AF024B9847C046BD460C
:1057400080BDC0460D51000080B500AF024B9847A8
:10575000C046BD4680BDC0466151000080B500AF67
:10576000054B5B78DBB25BB2002B01DA012300E072
:1057700000231800BD4680BD000C004080B500AF7E
:1057800008210020074B9847074B01221A70C0469A
:10579000054B1B78DBB21A0001231340F8D1C04639
:1057A000BD4680BDD9560000000C004080B586B0D3
:1057B00000AF02003960FB1D1A70FB1D1B787B6176
:1057C000FB1D1B783B613B681B781B021A007B6941
:1057D00013437B613B685B78002B04D07B6980229C
:1057E000D20213437B613B685B7A002B04D07B6958
:1057F0008022120313437B613B685B68012B2CD929
:105800003B685A683B685B68013B13401AD1002330
:10581000FB600223BB6005E0FB680133FB60BB68F3
:105820005B00BB603B685A68BB689A42F4D8FB686F
:105830001B023A6913433B617B6980225203134385
:105840007B610AE03B685B681B023A6913433B617A
:105850007B698022920213437B613B681B7A002B99
:1058600004D07B698022920313437B61C046134BB3
:105870009847031EFBD1124B9847124AFB1D1B7819
:105880001370C0460D4B9847031EFBD10E4B3A696F
:105890009A60C046094B9847031EFBD10A4B0A4A3F
:1058A00051688022520211407A690A435A60074BBC
:1058B0009847C046BD4606B080BDC0465D57000053
:1058C00035570000080C0040000C0040495700000C
:1058D00080B582B000AF0200FB1D1A70C0460E4BAF
:1058E0009847031EFBD10D4B98470D4AFB1D1B78B3
:1058F0001370C046084B9847031EFBD1094B094A59
:105900005268802149020A435A60074B9847C046B3
:10591000BD4602B080BDC0465D570000355700004F
:10592000040C0040000C00404957000080B586B0D0
:1059300000AF0200FB1D1A70C0462A4B9847031E99
:10594000FBD1294B9847294AFB1D1B781370C04691
:10595000244B9847031EFBD1254B5B68DB04DB0E11
:10596000DBB21800234B984703007B611F4AFB1DE5
:105970001B7813701E4B5B68DB02DB0FDAB213235C
:10598000FB181A701C4AFB1D1B781370C046154B80
:105990009847031EFBD1164B9B681B021B0C9BB246
:1059A000FB60164B98471323FB181B78002B09D17B
:1059B000FB68012B06D9124BF968786998470300F8
:1059C0007B610AE01323FB181B78002B05D0FB68D2
:1059D00001337A69DA4013007B617B691800BD46A8
:1059E00006B080BD5D57000035570000040C004034
:1059F000000C0040FD520000080C00404957000018
:105A00001564000080B584B000AF02003960FB1D52
:105A10001A70FB1D1B78FB603B681B781B021A0089
:105A2000FB681343FB60FB1D1B781800044B984771
:105A3000044BFA6892B25A80C046BD4604B080BD9D
:105A4000915A0000000C004080B582B000AF020007
:105A5000FB1D1A700A4B98470A4AFB1D1B781370EE
:105A60000949094B5B889BB28022D20113439BB248
:105A70004B80064B9847C046BD4602B080BDC0462D
:105A800035570000020C0040000C00404957000050
:105A900080B584B000AF0200FB1D1A701C4B984704
:105AA0001C4AFB1D1B7813701B4B5B881B051B0FCF
:105AB000DBB2FB60184A538818490B405380164AE2
:105AC000154B5B889BB216490B409BB25380C04676
:105AD000114B5B889BB21A008023DB011340F7D186
