:1000000068370020814D0000794E0000794E0000D5
:1000100000000000000000000000000000000000E0
:10002000000000000000000000000000794E000009
:100030000000000000000000794E0000794E000032
:10004000794E0000794E00003D120000794E00000C
:10005000C1070000794E0000794E0000794E000083
:10006000794E0000794E00005D410000F112000061
:10007000794E0000794E0000794E0000794E000064
:10008000794E0000794E0000393A0000794E0000A8
:10009000794E0000794E0000794E0000794E000044
:1000A000794E0000794E0000794E0000794E000034
:1000B0000000000010B5064C2378002B07D1054B3B
:1000C000002B02D0044800E000BF0123237010BDC4
:1000D0003C05002000000000D4720000084B10B561
:1000E000002B03D00749084800E000BF0748036819
:1000F000002B00D110BD064B002BFBD09847F9E731
:100100000000000040050020D4720000D4720000FE
:1001100000000000F0B585B000AF314B9847314B7F
:100120001800314B9847314B18002F4B9847304BF4
:1001300018002D4B984700202E4B984703003B603A
:1001400000237B603868796803000C009A0FA600D2
:1001500016439D0003000C005B197441DB186441D9
:1001600019002200244B0024C91862410800110024
:10017000224C234A0023A04703000C001800214B07
:100180009847214B1800184B9847204B102200210C
:1001900018001F4B98470F23FB1800221A7015E018
:1001A0000E23FB180F22BA18127852011A700E2370
:1001B000FB181B78042219000120164B98470F23C7
:1001C000FB181A780F23FB1801321A700F23FB1843
:1001D0001B78032BE4D9C046BD4605B0F0BDC04630
:1001E00009050000006C00009D050000086C00007F
:1001F000106C0000A54A0000571B0000E1550000EC
:10020000581B000001000020186C00009C09002011
:10021000B758000019020000F0B58FB000AFB86108
:10022000796010001F22BA18397E11701E22BA1888
:10023000397911701D22BA18011C11706A46BA6111
:100240001F211822BA185218002111701E211822DD
:10025000BA185218002111701D22BA181278110014
:10026000013939633A61002179613969490F786947
:10027000C6000E433969CD00BA600021F960BD683F
:10028000FE682900490F3000C4000C432900CB0050
:1002900013000733DB08DB006946CB1A9D466B462B
:1002A0000033FB621F23FB181A781E23FB181B78F0
:1002B00017490C201824A446BC446044154CA047A0
:1002C0001F231822BA18D4180C2318229446BC44B1
:1002D00063441800104B984703002370FA6A1F23E9
:1002E00018217918CC181D23FB181B781900100051
:1002F0000A4B9847030023701F2318229446BC44DE
:1003000063441B78BA6995461800BD460FB0F0BD2E
:10031000206C00003D5A00009D050000E50500002E
:1003200080B582B000AF0200FB1D1A70064BFA1DAB
:10033000127811001F220A40012191400A001A6020
:10034000C046BD4602B080BD00E100E0B0B582B05D
:1003500000AF02003960FB1D1A70FB1D1B787F2B5C
:1003600032D92F4CFB1D1B781A000F231340083B7A
:1003700099082B4AFB1D1B7818000F230340083BEC
:100380009B0806339B00D31804331B68FA1D1278B0
:10039000100003220240D200FF2090400200D2430E
:1003A0001A403B689B01FF201840FB1D1B781D0075
:1003B00003232B40DB00984003001A438B1D9B0056
:1003C000E31804331A6027E0164CFB1D1B785BB260
:1003D0009B081449FA1D127852B29208C03292005A
:1003E0005258F91D0978080003210140C900FF2077
:1003F00088400100C94311403A689201FF20104033
:10040000FA1D1278150003222A40D2009040020003
:100410000A43C0339B001A51C046BD4602B0B0BD6E
:1004200000ED00E000E100E080B500AF134A136882
:1004300001210B431360C046104B1B68DB07DB0F29
:10044000DBB2002BF8D10D4BDB69DB07DB0FDBB236
:10045000002BF1D10A4B0A4A126A08210A431A6298
:10046000084B094A5A80C046064B5B78DBB25BB248
:10047000002BF9DBC046BD4680BDC046000C0042E3
:1004800000040040000C00401540000080B582B020
:1004900000AF1C4B802252025A601A4B8022D202BB
:1004A0009A60184B8022D2029A61164A3923D35C93
:1004B000DBB21A00202313407B60124A7B68DBB258
:1004C00002210B43D9B23923D1540E4A52230121C0
:1004D000D1540C4A3823D35CDBB21A0020231340DA
:1004E0007B60084A7B68DBB202210B43D9B2382318
:1004F000D154044A50230321D154C046BD4602B012
:1005000080BDC0460044004180B500AF1A4B9847FB
:100510001A4B98471A4B00221A601A4B00221A6095
:10052000194B1A4A1A60184B194A9A81164BC02265
:1005300092025A60C046144BDB695B07DB0FDBB2EB
:10054000002BF8D1104B04229A750A20114B9847C2
:1005500001210A20104B98470B4A136802210B43D4
:100560001360C046084BDB699B07DB0FDBB2002B37
:10057000F8D1C046BD4680BD290400008D040000AE
:100580005805002098090020000C004284002040FB
:1005900014FBFFFF210300004D03000080B584B071
:1005A00000AF78600023FB600FE00D4B1B7EDB0784
:1005B000DB0FDBB2012B08D10949FB685A1CFA603A
:1005C0007A68D3181B789BB20B857A68FB68D318BE
:1005D0001B78002BE9D100231800BD4604B080BD74
:1005E000000C004280B584B000AF78600A00FB1CAC
:1005F0001A700F23FB1800221A700E23FB1800221A
:100600001A7029E00023BB6011E01A4B1B7E5B07C8
:10061000DB0FDBB2002B0FD1BB68174A934203D12B
:100620000E23FB1812221A70BB680133BB60BB6833
:10063000114A9342E9D900E0C0460F23FB181B780A
:100640000F22BA18591C11701A007B689B18094AAE
:10065000128D92B2D2B21A70FB1C1B78FA1C591E72
:100660001170002BCED10E23FB181B781800BD464D
:1006700004B080BD000C0042FFFF000080B582B0D6
:1006800000AF78607B6800221A707B6801225A7084
:100690007B6804229A707B680C22DA707B680022E7
:1006A0001A717B6800225A71C046BD4602B080BDF7
:1006B00080B582B000AF3B001800094B98473B0063
:1006C00000221A703B000A22DA703B0009225A719C
:1006D0003B001800034B9847C046BD4602B080BDA2
:1006E0007D060000A910000080B500AFC046BD46E1
:1006F00080BD000080B584B000AF0200FB1D1A7001
:100700000F23FB18FA1D127852091A700F23FB18D9
:100710001B78002B0CD1094BBB600F23FB181B78F7
:100720009B0010229446BC446344083B1B6800E0D5
:1007300000231800BD4604B080BDC046001800402C
:1007400080B584B000AF0200FB1D1A70FB1D1B7842
:1007500018000B4B98470300FB60FB1D1B781F2202
:10076000134001229A401300BB60FB681B69BA6802
:1007700013405A1E9341DBB21800BD4604B080BD41
:10078000F506000080B584B000AF0200FB1D1A70B2
:10079000FB1D1B781800094B98470300FB60FB1DED
:1007A0001B781F22134001229A401300BB60FB6894
:1007B000BA681A61C046BD4604B080BDF5060000A7
:1007C00080B500AF154B00221A7020E0134B1B7848
:1007D0001800134B9847031E13D0104B1B781800BA
:1007E000104B98470D4B1B781A000F4B9200D358B3
:1007F000002B06D0094B1B781A000B4B9200D358E4
:100800009847064B1B780133DAB2044B1A70034B3E
:100810001B780F2BDAD9C046BD4680BDAD0900203C
:100820004107000085070000B009002080B582B0B4
:1008300000AF78607B6800221A70C046BD4602B0E7
:1008400080BD000080B582B000AF02003960FB1DA2
:100850001A70FB1D1B78012B0AD0022B0FD0002B26
:1008600014D10E4B0D4A91693A680A439A610FE020
:100870000A4B0A4AD1693A680A43DA6108E0074B31
:10088000064A116A3A680A431A6201E0172300E037
:1008900000231800BD4602B080BDC04600040040E1
:1008A00080B582B000AF0200FB1D1A70064BFA1D26
:1008B000127811001F220A40012191400A001A609B
:1008C000C046BD4602B080BD00E100E080B582B008
:1008D00000AF0F4B3B6000237B6011E07B689B0007
:1008E00008229446BC446344083B1B685B78DBB237
:1008F0005BB2002B01DA012306E07B6801337B60E9
:100900007B68002BEAD000231800BD4602B080BDF2
:100910000018004080B584B000AF2D4B7B604021B3
:1009200000202C4B98473B0018002B4B98473B006E
:1009300000221A703B0019000520284B984705201B
:10094000274B98470023FB6018E0FB689B001022B0
:100950009446BC4463440C3B1A68FB689B0010211E
:100960008C46BC4463440C3B1B681B78DBB2012102
:100970000B43DBB21370FB680133FB60FB68002B99
:10098000E3D0C046174B9847031EFBD10B23FB183F
:1009900000221A700DE00B23FB181A78124B9200FC
:1009A0000021D1500B23FB181A780B23FB180132BE
:1009B0001A700B23FB181B780F2BECD904200B4B60
:1009C00098470B4B9847C046BD4604B080BDC04613
:1009D00000180040450800002D0800007D4B000075
:1009E000C14B0000CD080000B0090020A1080000A4
:1009F000F509000080B582B000AF154B3B600023C5
:100A00007B6018E07B689B0008229446BC446344EA
:100A1000083B1A687B689B0008218C46BC446344F1
:100A2000083B1B681B78DBB202210B43DBB213705F
:100A30007B6801337B607B68002BE3D0C046054BAD
:100A40009847031EFBD1C046BD4602B080BDC046DC
:100A500000180040CD08000080B584B000AF786079
:100A60007B681B68FB60FB68DB69072213405A1E2A
:100A70009341DBB21800BD4604B080BD80B582B0A2
:100A800000AF7860C0467B681800044B9847031E8F
:100A9000F9D1C046BD4602B080BDC046590A00002B
:100AA00080B584B000AF78607B681B68FB60FB6832
:100AB0001B7EDBB21A00022313400BD0FB6802221C
:100AC0001A76FB685B8B9BB21A000223134011D08D
:100AD000412310E0FB685B8B9BB21A000423134098
:100AE00008D0FB685B68C02292021A43FB685A6018
:100AF000182300E000231800BD4604B080BD80B577
:100B000084B000AF78607B681B68BB600E23FB1865
:100B100000221A800FE00E23FB180E22BA1812884A
:100B200001321A807B681B890E22BA1812889A42F9
:100B300001D312230EE0BB681B7EDBB21A00012337
:100B4000134006D1BB681B7EDBB21A0002231340A0
:100B5000E1D000231800BD4604B080BD90B585B03B
:100B600000AF78600A00FB1C1A707B681B68FB6092
:100B7000FB685B688022D2021A43FB685A60FB1C48
:100B80001A78FB685A620B23FC187B681800074B25
:100B9000984703002370FB6801221A760B23FB1889
:100BA0001B781800BD4605B090BDC046FF0A000086
:100BB00090B587B000AF786039607B681B68FB60D8
:100BC0001423FB183A6852881A801223FB1800225B
:100BD0001A80FB681B681B01DB0FDBB21A000B23BA
:100BE000FB18511E8A411A703B685B7A002B06D0B5
:100BF0003B689A7A7B6811001800854B9847FB6820
:100C00005B68844A1A40FB685A603B681B7A002B79
:100C100042D03B681B885A003B685B7A9B031343B6
:100C20001A0080231B021A43FB685A621723FC1820
:100C30007B681800784B984703002370FB685B685B
:100C4000744A1A40FB685A601723FB181B78002B64
:100C500007D11723FC187B681800704B98470300D6
:100C600023701723FB181B78002B11D13B681B88BE
:100C70001B0A9BB2782213439BB25A003B685B7AF3
:100C80009B031343012213431A00FB685A620FE0CF
:100C90001723FB181B78B6E03B681B885B0001221A
:100CA0001A433B685B7A9B0313431A00FB685A6242
:100CB0001723FC187B681800574B984703002370D4
:100CC0000B23FB181B78002B0BD03B685B88012B98
:100CD00007D1FB685B688022D2021A43FB685A6026
:100CE00005E0FB685B684B4A1A40FB685A601723B3
:100CF000FB181B78002B07D11723FC187B68180002
:100D0000464B9847030023701723FB181B78002BD2
:100D100000D075E04BE0FB685B8B9BB21A00202390
:100D2000134001D141236EE07B68DB7A002B1ED09B
:100D30000B23FB181B7801225340DBB2002B04D09D
:100D40001423FB181B88002B09D00B23FB181B78DE
:100D5000002B0CD01423FB181B88012B07D1FB6838
:100D60005B688022D2021A43FB685A601AE07B68F3
:100D700018002B4B98473B685A681223FB181B88B6
:100D800012217918581C0880D318FA682821525C5F
:100D9000D2B21A701723FC187B6818001E4B9847B4
:100DA000030023701723FB181B78002B09D1142391
:100DB000FB181B881422BA18591E1180002BAAD1C7
:100DC00000E0C0467B689B7A002B0AD07B68180045
:100DD000134B9847FB685B68C02292021A43FB687A
:100DE0005A607B6818000E4B98473B685A6812237C
:100DF000FB181B88D318FA682821525CD2B21A70EB
:100E00001723FB181B781800BD4607B090BDC046DD
:100E10005D0B0000FFFFFBFFFF0A0000A10A0000BE
:100E20007D0A000080B582B000AF786039607B68D1
:100E300001229A727B680122DA723A687B6811009B
:100E40001800034B984703001800BD4602B080BD50
:100E5000B10B000090B587B000AF786039607B6857
:100E60001B68FB601423FB183A6852881A807B6861
:100E70001800514B98473B685B7A002B06D03B68C3
:100E80009A7A7B68110018004C4B9847FB685B68A6
:100E90004B4A1A40FB685A603B681B7A002B0DD006
:100EA0003B681B885A003B685B7A9B0313431A001C
:100EB00080231B021A43FB685A6209E03B681B88C7
:100EC0005A003B685B7A9B0313431A00FB685A6223
:100ED0001723FC187B6818003A4B984703002370CF
:100EE0001723FB181B78002B07D11723FC187B68EE
:100EF0001800354B9847030023701723FB181B7805
:100F0000002B52D11223FB1800221A8033E0FB6819
:100F10005B8B9BB21A002023134001D1412347E091
:100F20007B681800244B98473B685A681223FB18CB
:100F30001B8812217918581C0880D3181978FB686F
:100F4000282299541723FC187B6818001D4B9847DA
:100F5000030023701723FB181B78002B15D1FB68A7
:100F60005B8B9BB21A000423134004D01723FB1899
:100F70001E221A700AE01423FB181B881422BA18C8
:100F8000591E1180002BC2D100E0C0467B689B7ABD
:100F9000002B0AD07B681800074B9847FB685B68FA
:100FA000C02292021A43FB685A601723FB181B7871
:100FB0001800BD4607B090BD7D0A00005D0B000023
:100FC000FFFFFBFFFF0A0000A10A000080B582B00E
:100FD00000AF786039607B6801229A727B680122D9
:100FE000DA723A687B6811001800034B98470300D7
:100FF0001800BD4602B080BD550E000080B582B01D
:1010000000AF02003960FB1D1A70FB1D1B78012B1D
:101010000AD0022B0FD0002B14D10E4B0D4A916930
:101020003A680A439A610FE00A4B0A4AD1693A6862
:101030000A43DA6108E0074B064A116A3A680A4334
:101040001A6201E0172300E000231800BD4602B039
:1010500080BDC0460004004080B582B000AF074BA1
:101060007B607B68DB79DBB25BB2002B01DA0123AA
:1010700000E000231800BD4602B080BD0010004013
:1010800080B582B000AF074B7B607B681B78DBB21A
:101090001A00802313405A1E9341DBB21800BD464C
:1010A00002B080BD0010004080B586B000AF78600F
:1010B000544B3B6110210020534B9847534B9847AA
:1010C000031E01D0102398E07B68DB78002B01D150
:1010D000172392E07B68DA787B681B799A4205D304
:1010E0007B68DA787B685B799A4201D2172384E0C7
:1010F0003B691B78DBB202229343DAB23B691A7078
:10110000C046434B9847031EFBD17B685B780122A6
:101110005340DBB2002B01D000236EE07B689A784D
:101120000C23FB181A700C23FB1819000320394BF1
:1011300098470320384B98477B681B78002B02D0D8
:101140000320364B984700237B617B68DB78013BAB
:101150001A007B6913437B617B681B79002B10D0DD
:101160003B691B78DBB204221343DAB23B691A7085
:101170007B681B79013B1B011A007B6913437B6170
:1011800007E03B691B78DBB204229343DAB23B6988
:101190001A70C0461E4B9847031EFBD17B69DAB21A
:1011A0003B695A707B685B79002B0AD0C046184BAC
:1011B0009847031EFBD17B685B79013BDAB23B6940
:1011C0009A707B681B78002B09D03B691B78DBB2D7
:1011D000802252421343DAB23B691A7007E03B693E
:1011E0001B78DBB202221343DAB23B691A70C046A5
:1011F000074B9847031EFBD100231800BD4606B0DD
:1012000080BDC04600100040FD0F000081100000AE
:10121000591000007D4B0000C14B0000A14C0000A4
:1012200080B582B000AF044B7B607B6801229A716D
:10123000C046BD4602B080BD0010004080B500AF82
:10124000054B9847054B1B68002B02D0034B1B68CE
:101250009847C046BD4680BD21120000F00900201D
:1012600080B500AF044B01221A70BFF35F8F62B6E6
:10127000C046BD4680BDC0466803002080B500AFB3
:1012800072B6BFF35F8F034B00221A70C046BD4693
:1012900080BDC0466803002080B584B000AF786090
:1012A000104B98470023FB600FE00F4B1B7EDB07C2
:1012B000DB0FDBB2012B08D10B49FB685A1CFA602B
:1012C0007A68D3181B789BB20B857A68FB68D318B1
:1012D0001B78002BE9D1054B9847C046BD4604B0AA
:1012E00080BDC0467D120000001000426112000067
:1012F00080B500AF134B1B7E5B07DB0FDBB2002B0F
:101300001CD0114B1B681A00104B9A420BD90E4B84
:1013100000221A600C4B1B680A4A128D92B2D1B29D
:101320000B4AD1540AE0084B1B68591C064A11604D
:10133000044A128D92B2D1B2054AD154C046BD467C
:1013400080BDC046001000425C050020FF03000085
:10135000240A002080B582B000AF00237B6007E044
:10136000094A7B68D31800221A707B6801337B60BE
:101370007B68064A9342F3D9054B00221A60C046A7
:10138000BD4602B080BDC046240A0020FF03000015
:101390005C05002080B500AF044B01221A70BFF33A
:1013A0005F8F62B6C046BD4680BDC0466803002060
:1013B00080B500AF72B6BFF35F8F034B00221A7087
:1013C000C046BD4680BDC04668030020F0B59BB056
:1013D00000AFF860FB681800E84B984703007B6695
:1013E000E749FB6807221800E64B9847031E03D124
:1013F000E54B1800E54B9847E549FB6803221800C8
:10140000E04B9847031E0CD1E24B1800DF4B984786
:1014100058230822BA18D218DF49FB681800DF4B9E
:101420009847DF49FB6803221800D64B9847031EF4
:1014300032D1DC4B1800D54B9847FB681800CF4BD6
:1014400098470400D64B1800CC4B984703009C42A9
:1014500022D954230822BA18D218D349FB6818009D
:10146000CE4B9847FB6D002B01DC0123FB65FA6D29
:10147000CE4B1A60FA6DCE490C2308208446BC443A
:1014800063441800CB4B98470C2308229446BC4475
:1014900063441800BD4B9847C749FB6804221800F5
:1014A000B84B9847031E00D088E001230022012199
:1014B0000020C24CA0470123002202210020BF4C83
:1014C000A0470123002203210020BC4CA047012398
:1014D000002204210020B94CA0470123012202214F
:1014E0000020B64CA0470123012201210020B34C6B
:1014F000A0470123022202210020B04CA047012373
:10150000022201210020AD4CA04701230222042128
:101510000020AA4CA0470123022203210020A74C4F
:10152000A0470123012203210020A44CA04701234E
:10153000012204210020A14CA04701230322022103
:1015400000209E4CA04701230322012100209B4C38
:10155000A0470123032203210020984CA047012328
:10156000042203210020954CA047012304220121DD
:101570000020924CA04701230322052100208F4C1C
:10158000A04701230222052100208C4CA047012303
:10159000042205210020894CA047894B01221A70A2
:1015A000FB681800794B9847864B1800774B984793
:1015B000854B1800754B984700F085FE8349FB6802
:1015C000042218006F4B9847031E00D088E00023C8
:1015D000002201210020794CA04700230022022193
:1015E0000020764CA0470023002203210020734CEA
:1015F000A0470023002204210020704CA0470023B4
:101600000122022100206D4CA0470023012201216C
:1016100000206A4CA0470023022202210020674CD0
:10162000A0470023022201210020644CA047002390
:10163000022204210020614CA04700230222032142
:1016400000205E4CA04700230122032100205B4CB8
:10165000A0470023012204210020584CA04700236A
:10166000032202210020554CA04700230322012120
:101670000020524CA04700230322032100204F4C9E
:10168000A04700230422032100204C4CA047002344
:10169000042201210020494CA047002303220521F8
:1016A0000020464CA0470023022205210020434C85
:1016B000A0470023042205210020404CA047404BB6
:1016C00000221A70FB681800304B98473D4B1800F9
:1016D0002E4B98473C4B18002C4B984700F0F3FDDD
:1016E0003B49FB6805221800264B9847031E0AD188
:1016F000384B01221A70384B01221A70374B0122E5
:101700001A7000F0E0FD3649FB68052218001D4BF9
:101710009847031E0AD12F4B00221A702E4B00222D
:101720001A702E4B00221A7000F0CDFD2D49FB6877
:1017300005221800134B9847031E04D1254B0122A4
:101740001A7000F0C0FD2849FB68052218000D4BF7
:101750009847031E04D11F4B00221A7000F0B3FDFE
:101760002249FB6805221800064B9847031E3FD10B
:10177000194B01221A7000F0A6FDC046015B000063
:101780002C6C00000F5B0000386C00009912000008
:10179000406C0000446C0000486C0000815A00005E
:1017A0000C000020506C0000606C0000D81200207B
:1017B000686C00003D5A0000706C0000352F00007E
:1017C0003E0E0020786C00007C6C0000806C0000F5
:1017D000886C0000090A00203D0E00203A0E00200F
:1017E000906C0000986C0000A06C0000A86C0000D9
:1017F000C949FB6805221800C84B9847031E04D14D
:10180000C74B00221A7000F05EFDC649FB68062235
:101810001800C24B9847031E04D1C34B01221A7013
:1018200000F051FDC149FB6806221800BB4B9847E8
:10183000031E04D1BC4B00221A7000F044FDBC49C9
:10184000FB6806221800B54B9847031E04D1B94B1C
:1018500001221A7000F037FDB749FB680622180014
:10186000AE4B9847031E04D1B24B00221A7000F011
:101870002AFDB249FB6806221800A84B9847031EB0
:1018800004D1AF4B01221A7000F01DFDAD49FB6879
:1018900006221800A14B9847031E04D1A84B002232
:1018A0001A7000F010FDA849FB68062218009B4B37
:1018B0009847031E04D1A54B01221A7000F003FDC6
:1018C000A349FB6806221800944B9847031E04D1D5
:1018D0009E4B00221A7000F0F6FC9E4AFB68110035
:1018E00018009D4B9847031E1ED0FB6818009B4BA9
:1018F00098470300052B17D9FB6805331B78312B5C
:101900000ED150230822BA18D2189549FB68180046
:10191000944B9847BB6D1800934B984700F0D3FC4D
:10192000924B984700F0CFFC9149FB6808221800C1
:101930007A4B9847031E07D18E4B18008E4B984761
:101940008E4B984700F0BFFC8D49FB6805221800BC
:10195000724B9847031E04D18A4B01221A7000F083
:10196000B2FC8949FB68052218006C4B9847031E9E
:1019700006D1844B00221A70844B984700F0A3FCD8
:101980008349FB6805221800644B9847031E04D165
:10199000804B01221A7000F096FC7D49FB680522FD
:1019A00018005E4B9847031E04D17A4B00221A7030
:1019B00000F089FC7849FB6805221800574B9847CE
:1019C000031E04D1754B01221A7000F07CFC74498F
:1019D000FB6805221800514B9847031E04D16F4B3A
:1019E00000221A7000F06FFC6E49FB680522180097
:1019F0004A4B9847031E22D10123022201210020D5
:101A0000694CA0470123022202210020664CA04716
:101A10000123042201210020634CA047634B0122D3
:101A20001A70FB681800544B9847614B1800524BD2
:101A30009847604B1800504B984700F044FC5E49B3
:101A4000FB6805221800354B9847031E22D100235E
:101A5000022201210020544CA0470023022202212F
:101A60000020514CA04700230422012100204E4CAD
:101A7000A0474E4B00221A70FB6818003E4B984757
:101A80004B4B18003C4B98474A4B18003A4B984731
:101A900000F019FC4949FB68052218001F4B9847C4
:101AA000031E00D092E0464B9847012301220221F9
:101AB00000203D4CA04701230122012100203A4C87
:101AC000A0470123002201210020374CA047012319
:101AD000002202210020344CA047012300220321D0
:101AE0000020314CA04701230022042100202E4C6D
:101AF000A047344B9847344B9847FB6818001E4B5F
:101B000098472B4B18001C4B98472A4B18001A4B30
:101B1000984700F0D8FBC046B06C00000F5B000097
:101B20003D0E0020B86C0000400E0020C06C00008C
:101B3000C86C00000A0A0020D06C0000D86C0000BD
:101B4000250E0020E06C0000E86C0000480E00202C
:101B5000F06C0000F86C0000315B0000015B0000DD
:101B6000FC6C0000815A0000F94000002D4100008B
:101B7000046D0000106D000099120000C93C0000C7
:101B8000206D0000390E0020286D0000BD2C0000E3
:101B9000306D0000F5090020386D0000460E002071
:101BA000406D0000486D0000352F0000240E00201D
:101BB000786C00007C6C0000506D0000586D0000D7
:101BC000B11300002535000095130000D949FB68CA
:101BD00005221800D84B9847031E36D1D74B98479B
:101BE0000023012202210020D54CA047002301221E
:101BF00001210020D24CA047002300220121002017
:101C0000CF4CA0470023002202210020CC4CA0474B
:101C10000023002203210020C94CA04700230022FA
:101C200004210020C64CA047C64B9847C64B984796
:101C3000FB681800C54B9847C54B1800C34B984725
:101C4000C44B1800C14B98473DE3C349FB680722CA
:101C50001800B94B9847031E36D1B84B984701235B
:101C6000032202210020B64CA047012303220121B8
:101C70000020B34CA0470123002201210020B04CDA
:101C8000A0470123002202210020AD4CA0470123E0
:101C9000002203210020AA4CA04701230022042196
:101CA0000020A74CA047A74B9847A74B9847FB6835
:101CB0001800A64B9847A64B1800A44B9847A54B75
:101CC0001800A24B9847FEE2A449FB6807221800BF
:101CD000994B9847031E36D1984B9847002303220F
:101CE00002210020964CA04700230322012100205E
:101CF000934CA0470023002201210020904CA047D4
:101D000000230022022100208D4CA0470023002246
:101D1000032100208A4CA047002300220421002038
:101D2000874CA047874B9847874B9847FB6818001C
:101D3000864B9847864B1800844B9847854B180074
:101D4000824B9847BFE28649FB68072218007A4B0E
:101D50009847031E0FD1834B01221A70FB681800AD
:101D60007A4B98477A4B1800784B9847794B180074
:101D7000764B9847A7E27C49FB68072218006E4B18
:101D80009847031E11D1774B00221A70774B984762
:101D9000FB6818006D4B98476D4B18006B4B9847CC
:101DA0006C4B1800694B98478DE27149FB6807221C
:101DB0001800614B9847031E0FD16E4B01221A7019
:101DC000FB681800614B9847614B18005F4B9847C0
:101DD000604B18005D4B984775E26749FB68072226
:101DE0001800554B9847031E11D1604B9847614B23
:101DF00000221A70FB681800544B9847544B180087
:101E0000524B9847534B1800504B98475BE25B4945
:101E1000FB6807221800484B9847031E0FD1584B08
:101E200001221A70FB681800484B9847484B18006D
:101E3000464B9847474B1800444B984743E251495B
:101E4000FB68072218003C4B9847031E11D1474BF3
:101E500098474B4B00221A70FB6818003B4B984781
:101E60003B4B1800394B98473A4B1800374B984773
:101E700029E24549FB68082218002F4B9847031EAA
:101E80000FD1424B01221A70FB6818002F4B984764
:101E90002F4B18002D4B98472E4B18002B4B984773
:101EA00011E23B49FB6808221800234B9847031EA8
:101EB00011D12E4B9847354B00221A70FB68180041
:101EC000224B9847224B1800204B9847214B180073
:101ED0001E4B9847F7E12F49FB680A221800164B62
:101EE0009847031E68D12C4B1800184B98470020C8
:101EF0002A4B984703003B6000237B60284CFA2262
:101F0000002338687968A04703000C0019002200FC
:101F1000244B0024C918624108001100224C234AB6
:101F20000023A04703000C001800214B9847214BC9
:101F30009847FEE7606D00000F5B0000B1130000E2
:101F4000352F000025350000951300009912000080
:101F5000786C00007C6C0000686D0000706D000003
:101F6000786D0000100A0020806D0000BD2C00007C
:101F7000886D0000270E0020906D0000986D000015
:101F8000450E0020A06D0000A86D0000430E00204B
:101F9000B46D0000C06D0000CC6D0000A54A0000CB
:101FA00021560000571B0000E1550000581B00009F
:101FB00001000020B1060000C549FB680922180095
:101FC000C44B9847031E2FD1C34B1800C34B9847EF
:101FD0000020C34B984703001D0000231E00C14C86
:101FE000FA22002328003100A04703000C0019004A
:101FF0002200BD4B0024C918624108001100BB4CEF
:10200000BB4A0023A04703000C001800B94B9847B7
:10201000B94B9847B94B9847B94B00221A70B94B46
:102020001800AE4B98474EE1B749FB6808221800EC
:10203000A84B9847031E0FD109237B654C23082228
:10204000BA18D218B149FB681800B14B98477B6D9C
:102050009AB2B04B1A8036E1AF49FB6808221800EB
:102060009C4B9847031E0FD1AC4B3B65482308227D
:10207000BA18D218AA49FB681800A54B98473B6DBF
:102080009AB2A44B5A801EE1A649FB6808221800A8
:10209000904B9847031E0FD1A04BFB6444230822AA
:1020A000BA18D218A049FB681800994B9847FB6CE6
:1020B0009AB2984B9A8006E19C49FB680822180066
:1020C000844B9847031E0FD1944BBB6440230822D6
:1020D000BA18D2189649FB6818008D4B9847BB6C0C
:1020E0009AB28C4BDA80EEE09249FB680822180025
:1020F000784B9847031E0FD1884B7B643C23082202
:10210000BA18D2188C49FB681800814B98477B6C31
:102110009AB2804B1A81D6E08849FB6808221800E1
:102120006C4B9847031E0FD17C4B3B64382308222D
:10213000BA18D2188249FB681800754B98473B6C57
:102140009AB2744B5A81BEE07E49FB68082218009F
:10215000604B9847031E0FD1704BFB63342308225A
:10216000BA18D2187849FB681800694B9847FB6B7E
:102170009AB2684B9A81A6E07449FB68082218005D
:10218000544B9847031E0FD1644BBB633023082286
:10219000BA18D2186E49FB6818005D4B9847BB6BA4
:1021A0009AB25C4BDA818EE06A49FB68052218001E
:1021B000484B9847031E12D1674B01221A70674B98
:1021C00000221A70FB681800444B9847644B1800B3
:1021D000424B9847634B1800404B984773E0624965
:1021E000FB68052218003B4B9847031E12D15A4B3F
:1021F00000221A70594B01221A70FB681800374BE5
:102200009847574B1800354B9847564B1800334B9F
:10221000984758E05549FB68072218002D4B98470E
:10222000031E20D12F230822BA18D2185049FB6868
:102230001800374B98472F2308229446BC44634428
:102240001A784C4B1A704C4B01221A70FB6818001C
:10225000224B9847424B1800204B9847414B18009F
:102260001E4B98472FE04549FB6807221800194B81
:102270009847031E0FD1404B00221A70FB681800CC
:10228000164B9847364B1800144B9847354B18009F
:10229000124B984717E03A49FB680A2218000D4B89
:1022A0009847031E0FD1FB6818000C4B98472C4B26
:1022B00018000A4B98472B4B1800084B9847314B96
:1022C00001221A70FFE7C046BD461BB0F0BDC046F4
:1022D000D86D00000F5B0000E46D00009912000053
:1022E000A54A000021560000571B0000E1550000E0
:1022F000581B000001000020C93C0000053300000D
:10230000390E0020F86D00000C6E0000186E000001
:10231000815A0000140A0020246E0000C409000045
:10232000306E00003C6E0000486E0000546E0000ED
:10233000606E00006C6E0000786E0000846E00001D
:10234000906E00009C6E0000A86E0000B46E00004D
:10235000C06E0000CC6E00000F0A00200C0A0020A6
:10236000786C00007C6C0000D46E0000DC6E000015
:10237000E46E0000470E00200D0A0020F06E000001
:10238000F86E0000CC0E002080B582B000AF274B65
:102390001B7801225340DBB2002B42D0234B012299
:1023A0001A70234B984700237B6034E0214A7B68F6
:1023B00008211B01D3185B181A78802149420A436F
:1023C0001A701C4A7B6808211B01D3185B185A78C5
:1023D000802149420A435A707B68DBB22033D8B26D
:1023E000144A7B681B01D31808331978114A7B689B
:1023F0001B01D31809331B781A000F4B98470300B1
:1024000019000C4A7B681B01D31803330A1C1A708D
:102410007B6801337B607B68072BC7DD034B0022A1
:102420001A70C046BD4602B080BDC0463F0E0020B7
:1024300005330000E0000020DD33000090B583B0DC
:1024400000AF78607B681A88944B1B889A421ED92B
:102450000123032203210020914CA04701230422E1
:10246000032100208E4CA0470123012204210020DB
:102470008B4CA0470123012203210020884CA04758
:102480000123042205210020854CA0471DE00023E4
:10249000032203210020824CA047002304220321B1
:1024A00000207F4CA04700230122042100207C4C07
:1024B000A0470023012203210020794CA0470023DC
:1024C000042205210020764CA0477B6802331A883D
:1024D000724B5B889A4218D9012300220221002006
:1024E0006F4CA04701230022012100206C4CA04723
:1024F0000123002204210020694CA047012300226F
:1025000003210020664CA04717E00023002202218F
:102510000020634CA0470023002201210020604CD2
:10252000A04700230022042100205D4CA047002387
:102530000022032100205A4CA0477B6804331A88EC
:10254000564B9B889A420CD901230122022100207C
:10255000534CA0470123012201210020504CA047E9
:102560000BE000230122022100204D4CA047002354
:102570000122012100204A4CA0477B6806331A88BB
:10258000464BDB889A4212D9012302220221002005
:10259000434CA0470123022201210020404CA047C8
:1025A00001230322052100203D4CA04711E0002318
:1025B0000222022100203A4CA047002302220121DE
:1025C0000020374CA0470023032205210020344C73
:1025D000A0477B6808331A88304B1B899A4212D96E
:1025E00001230222042100202D4CA04701230222B6
:1025F000032100202A4CA0470123022205210020AC
:10260000274CA04711E00023022204210020244C83
:10261000A0470023022203210020214CA0470023D1
:102620000222052100201E4CA0477B680A331A882D
:102630001A4B5B899A420CD9012303220121002005
:10264000174CA0470123032202210020144CA0476D
:102650000BE00023032201210020114CA04700239E
:102660000322022100200E4CA0477B680C331A88FD
:102670000A4B9B899A4206D901230422012100209A
:10268000074CA04705E00023042201210020044C50
:10269000A047C046BD4603B090BDC046140A002006
:1026A000352F0000B0B500AF484B1B780C2B00D97C
:1026B0007CE09A00464BD3181B689F46454B9847D1
:1026C0000123012202210020434CA04774E0414B2A
:1026D000984701230222022100203F4CA0476BE0D3
:1026E0003C4B984701230022022100203A4CA0478E
:1026F00062E0384B98470123002201210020364C2C
:10270000A047324B1B780133DAB2304B1A7053E0DA
:10271000304B984701230122012100202E4CA04775
:102720004AE02C4B984701230222012100202A4C29
:10273000A04741E0274B98470123022203210020B4
:10274000254CA04738E0234B984701230122032161
:102750000020214CA0472FE01E4B98470123002268
:10276000032100201C4CA04726E01A4B9847012368
:10277000002204210020184CA0471DE0154B98476B
:102780000123012204210020134CA04714E0114B27
:10279000984701230222042100200F4CA0470BE0A0
:1027A0000C4B9847094B00221A7005E0094B9847DB
:1027B000064B00221A70C046044B1B780133DAB274
:1027C000024B1A70C046BD46B0BDC0466005002031
:1027D000406F0000BD2C0000352F0000B0B500AFE9
:1027E0008E4B1B780A2B00D910E19A008C4BD31822
:1027F0001B689F468B4B9847012304220121002030
:10280000894CA047854B1B780133DAB2834B1A7091
:1028100001E10023042201210020834CA0477F4BCB
:102820001B780133DAB27D4B1A70F4E001230422E5
:10283000012100207C4CA047784B1B780133DAB291
:10284000764B1A70E7E00023042201210020764C29
:10285000A047724B1B780133DAB2704B1A70DAE082
:1028600001230422012100206F4CA0476B4B1B78F1
:102870000133DAB2694B1A70CDE000230422012142
:102880000020694CA047654B1B780133DAB2634BDB
:102890001A70C0E00123022201210020624CA047EF
:1028A00001230222022100205F4CA04701230122C4
:1028B000032100205C4CA0470123012204210020B9
:1028C000594CA047554B1B780133DAB2534B1A7061
:1028D000A1E00023022201210020534CA047002345
:1028E000022202210020504CA04701230122012195
:1028F00000204D4CA04701230122022100204A4C18
:10290000A0470023012203210020474CA0470023B9
:10291000012204210020444CA047404B1B78013386
:10292000DAB23E4B1A7076E000230122012100202A
:102930003D4CA04700230122022100203A4CA04731
:102940000123032201210020374CA0470123032249
:1029500002210020344CA047012300220321002043
:10296000314CA04701230022042100202E4CA04717
:102970002A4B1B780133DAB2284B1A704BE0002344
:10298000032201210020284CA0470023032202211A
:102990000020254CA0470123012201210020224CC8
:1029A000A04701230122022100201F4CA047002341
:1029B0000022032100201C4CA047002300220421F8
:1029C0000020194CA047154B1B780133DAB2134B8A
:1029D0001A7020E00023012201210020124CA047A0
:1029E00000230122022100200F4CA04701230222D4
:1029F000012100200C4CA0470123022202210020CB
:102A0000094CA047054B00221A7004E0054B98477B
:102A1000024B00221A70C046BD46B0BD61050020C1
:102A2000746F0000BD2C0000352F0000B0B500AF62
:102A3000614B1B781A00614B1B689A4254DA0123E0
:102A40000022012100205E4CA04701230022022128
:102A500000205B4CA0470123002203210020584C9A
:102A6000A0470123002204210020554CA047012348
:102A7000012202210020524CA04701230122012102
:102A800000204F4CA04701230222022100204C4C81
:102A9000A0470123022201210020494CA047012325
:102AA000022204210020464CA047012302220321D8
:102AB0000020434CA0470123012203210020404C69
:102AC000A04701230122042100203D4CA0470123FF
:102AD0000322022100203A4CA047012303220121B6
:102AE0000020374CA04753E00023002201210020A2
:102AF000334CA0470023002202210020304CA04785
:102B000000230022032100202D4CA0470023002297
:102B1000042100202A4CA04700230122022100208A
:102B2000274CA0470023012201210020244CA0476C
:102B30000023022202210020214CA0470023022270
:102B4000012100201E4CA047002302220421002066
:102B50001B4CA0470023022203210020184CA04751
:102B60000023012203210020154CA047002301224D
:102B700004210020124CA047002303220221002040
:102B80000F4CA04700230322012100200C4CA0473A
:102B90000A4B1B68F92B0CDD074B1B781933DAB293
:102BA000054B1A70044B1B78F92B02D9024B3E22BD
:102BB0001A70C046BD46B0BD60010020001700205D
:102BC000352F0000B0B500AF384B9847384B1B7815
:102BD0001A00384BD200D35C022203210020364C6D
:102BE000A047334B1B78334ADB00D31801331B78E3
:102BF000012201210020304CA0472D4B1B782D4A8B
:102C0000DB00D31802331B780222012100202A4C5A
:102C1000A047274B1B78274ADB00D31803331B78C8
:102C2000002201210020244CA047214B1B78214A7F
:102C3000DB00D31804331B780022022100201E4C35
:102C4000A0471B4B1B781B4ADB00D31805331B78AE
:102C5000022202210020184CA047154B1B78154A70
:102C6000DB00D31806331B78012202210020124C0E
:102C7000A0470F4B1B780F4ADB00D31807331B7894
:102C80000222042100200C4CA047094B1B78013381
:102C9000DAB2074B1A70064B1B78192B02D9044B7A
:102CA00000221A70C046BD46B0BDC046BD2C000013
:102CB0006205002010000020352F000080B582B092
:102CC00000AF00237B6010E00B4A7B681B01D31828
:102CD000083380221A70084A7B681B01D318093315
:102CE00080221A707B6801337B607B68072BEBDDE9
:102CF000C046BD4602B080BDE0000020F0B5CE4623
:102D0000474680B595B006AF0823FA18814B1100ED
:102D10001800814B98472F2308229446BC446344F3
:102D200001221A7000233B63A2E07C4B3A6B120134
:102D3000D35C002B6ED0794A3B6B1B01D318083350
:102D40001A7874493B6BCB181B78D31AD9B2734AE3
:102D50003B6B1B01D3180C330A1C1A706F4A3B6B78
:102D60001B01D31809331A786A493B6BCB18083317
:102D70001B78D31AD9B2694A3B6B1B01D3180D33A8
:102D80000A1C1A70654A3B6B1B01D3180C331B7865
:102D90001900624A3B6B1B01D3180D331B78CB180B
:102DA000002B06DD5D4A3B6B1B01D3180233012269
:102DB0001A70584A3B6BD3181A7858493B6B1B0161
:102DC000CB1808331B785340DBB21A0080239A4398
:102DD000131E06D02F2308229446BC4463440022CD
:102DE0001A704C4A3B6BD31808331A784B493B6B2B
:102DF0001B01CB1809331B785340DBB21A00802328
:102E00009A43131E06D02F2308229446BC446344E1
:102E100000221A700823FA183B6BD31819783F4A1E
:102E20003B6B1B01D31803330A1C1A703B4A3B6BE4
:102E30001B01D31803331B783A6B39490820082447
:102E4000A446BC446044374CA0470823082294465B
:102E5000BC4463441800344B984708230822944626
:102E6000BC4463441800314B98473B6B01333B63D0
:102E70003B6B072B00DC58E7284B72229B5C7B6086
:102E8000264B62229B5C3B60244B52229B5C1C00C5
:102E9000224B42229B5C1D00204B32229B5C1E0079
:102EA0001E4B22229B5C1A001C4B9B7C9C461B4B9E
:102EB0009B7899461E49082008239846B844404408
:102EC0004B46059363460493039202960195009442
:102ED0003B687A68134CA047082308229446BC44F8
:102EE00063441800104B9847082308229446BC44BA
:102EF000634418000D4B98472F2308229446BC4486
:102F000063441B781800BD460FB00CBC9046994630
:102F1000F0BDC046280E002075340000E0000020FF
:102F2000046F00003D5A000099120000F5410000B6
:102F3000146F0000B0B582B000AF05000C001000A7
:102F40001900FB1D2A1C1A70BB1D221C1A707B1D48
:102F5000021C1A703B1D0A1C1A703B1D1B78002BAB
:102F60001FD0BB1D1A78FB1D1B78B91D0878F91DF1
:102F700009781E4C0001201841180831097848B220
:102F8000791D097801248C40210049B2014349B2DE
:102F9000C8B2164912018A18D3180833021C1A70D5
:102FA00020E0BB1D1A78FB1D1B78B91D0878F91DA0
:102FB00009780E4C0001201841180831097849B2EF
:102FC000781D007801248440200040B2C04340B204
:102FD000014049B2C8B2054912018A18D318083312
:102FE000021C1A70C046BD4602B0B0BDE000002011
:102FF00090B58BB000AF2723FB1800221A70002376
:103000003B6225E01C4B3A6A1201D35C19001A4A54
:103010003B6A1B01D31803331B785A1E9341DBB262
:103020000B4012D0144A3B6A1B01D31803331B78A0
:103030003A6A12493800124CA0473B001800114B65
:1030400098472723FB1801221A703B6A01333B6221
:103050003B6A072BD6DD2723FB181B780122534040
:10306000DBB2002B03D0084B1800064B9847C04634
:10307000BD460BB090BDC046E00000202C6F0000A4
:103080003D5A000099120000386F000080B586B0EC
:1030900000AF39601100FB1D021C1A70BB1D0A1C19
:1030A0001A70FB1D1B789AB20823FB181A80BB1DEF
:1030B0001B789AB20823FB185A800823FB183A6839
:1030C0005A600823FB1800221A720823FB180022FA
:1030D0005A720823FB1800229A721623FB1800224A
:1030E0001A800823FA18054B11001800044B984762
:1030F00003001800BD4606B080BDC046041700207E
:10310000CD0F000090B58BB000AF04000800110097
:103110003B60FB1D221C1A70BB1D021C1A707B1D1C
:103120000A1C1A702523FB1800221A702023FB1892
:10313000BA1D12781A702023FB18FF225A70FB1D4B
:103140001B789BB28022520013439AB21423FB18BF
:103150001A807B1D1B789AB21423FB185A80142303
:10316000FB182022BA185A601423FB1800221A7286
:103170001423FB1800225A721423FB1800229A729F
:103180002623FB1800221A802523FC181423FA1882
:10319000234B11001800234B98470300237026236C
:1031A000FB181B882622BA18591C11800A2B03D140
:1031B0002523FB181B782EE02523FB181B78002BFA
:1031C000E2D1FB1D1B789AB20823FB181A807B1DE5
:1031D0001B789AB20823FB185A800823FB183A6818
:1031E0005A600823FB1800221A720823FB180022D9
:1031F0005A720823FB1800229A722523FC18082310
:10320000FA18074B11001800074B9847030023706A
:103210002523FB181B781800BD460BB090BDC04697
:1032200004170020CD0F0000250E000080B584B0EB
:1032300000AF0200FB1D1A700F23FB18FA1D127855
:10324000D2091A700E23FB18FA1D127852091A704F
:103250000D4BBB600F23FB181B78002B0FD10F23E6
:10326000FB181B789B0010229446BC446344083B27
:103270001A680E23FB181B78DB01D31800E000232B
:103280001800BD4604B080BD0044004180B582B046
:1032900000AF0200FB1D1A70FB1D1B781800034BCA
:1032A000984703001800BD4602B080BD2D320000D3
:1032B00080B584B000AF0200FB1D1A70BB1D0A1C54
:1032C0001A70FB1D1B7818000D4B98470300FB601C
:1032D000FB1D1B781F22134001229A401300BB6084
:1032E000BB1D1B78002B03D0FB68BA689A6102E013
:1032F000FB68BA685A61C046BD4604B080BDC0468E
:103300008D32000090B585B000AF0F23FB1800226E
:103310001A703B1D00225A700023BB6036E03B1D33
:1033200000221A70BB68DBB22033DBB2FC1D391DF2
:1033300002221800284B984703002370FB1D1B78BE
:10334000002B20D13B1D01221A70BB68DBB2203359
:10335000DBB2FC1D391D022218001F4B98470300E9
:103360002370FB1D1B78002B0DD10122BB689A40F6
:1033700013005AB20F23FB181B785BB213435AB2E7
:103380000F23FB181A70BB680133BB60BB68072BA7
:10339000C5DD3B1D80225A703B1D12221A70BC1DD8
:1033A0003B1D0222190021200B4B9847030023707C
:1033B0003B1D13221A70BC1D3B1D02221900212047
:1033C000054B9847030023700F23FB181B78180048
:1033D000BD4605B090BDC0468D30000090B585B0AB
:1033E00000AF040008001100FB1D221C1A70BB1D59
:1033F000021C1A707B1D0A1C1A700F23FB18002276
:103400001A700C23FB1812221A700C23FB18BA1D19
:1034100012785A700F23FC180C23F918FB1D1B7827
:1034200002221800124B9847030023700C23FB184C
:1034300013221A700C23FB187A1D12785A700C2371
:10344000F918FB1D1B7802221800094B984703004E
:1034500019000F23FB180F22BA1812780A431A70AA
:103460000F23FB181B781800BD4605B090BDC04661
:103470008D300000B0B584B000AF786039600E23A5
:10348000FB1800221A700F23FB1800221A703EE06E
:103490000F23FB181B782033D8B20F23FB181B789F
:1034A0007A68D3180E22BC18012212211C4DA8479D
:1034B000030023700F23FB181B782033D8B27B68DE
:1034C00008331A000F23FB181B78D318012213218D
:1034D000134CA047030019000E23FB180E22BA1844
:1034E00012780A431A700F23FB181B783A68D31816
:1034F0000E22BA1812781A700E23FB1800221A70C6
:103500000F23FB181A780F23FB1801321A700F23B0
:10351000FB181B78072BBBD9C046BD4604B0B0BD15
:1035200005310000F0B587B000AF00210720324B15
:1035300098470020314B984703001D0000231E00D0
:103540002F4CFA22002328003100A04703000C0072
:10355000190022002B4B0024C918624108001100F9
:10356000294C2A4A0023A04703000C001800284BCE
:10357000984701210720204B984700201F4B984770
:1035800003003B6000237B603868796803000C000F
:10359000DA0E65017D617D6915437D615B013B61EB
:1035A0003C697D6902000B00A41A9D4123002C0098
:1035B0009A0FA500FD60FD681543FD609B00BB6090
:1035C00003000C00B968FA685B1854410D490022E9
:1035D0005B185441180021000B4C0C4A0023A047F3
:1035E00003000C0018000A4B98470A4B9847C04646
:1035F000BD4607B0F0BDC046B1320000A54A00008C
:1036000021560000571B0000E1550000581B000028
:10361000010000200533000080B584B000AF020037
:10362000FB1D1A700F23FB18FA1D1278D2091A70AD
:103630000E23FB18FA1D127852091A700D4BBB604D
:103640000F23FB181B78002B0FD10F23FB181B78BF
:103650009B0010229446BC446344083B1A680E2326
:10366000FB181B78DB01D31800E000231800BD46CF
:1036700004B080BD0044004180B584B000AF7860E4
:103680007B681B68FB60FB685B7EDBB25BB2002B78
:1036900001DA012300E000231800BD4604B080BD1C
:1036A00080B586B000AF78607B681B683B613B6982
:1036B0001B7EDBB2FB6000237B61FB6801221340B1
:1036C00003D07B69012213437B61FB680422134012
:1036D00003D07B69022213437B61FB680222134003
:1036E00003D07B69042213437B617B691800BD46CC
:1036F00006B080BD80B584B000AF786039607B686B
:103700001B68BB600023FB603B680122134003D0B1
:10371000FB6801221343FB603B680222134003D085
:10372000FB6804221343FB603B680422134003D070
:10373000FB6802221343FB60FB68DAB2BB681A76AF
:10374000C046BD4604B080BD80B584B000AF78608F
:103750007B681B68FB60C0467B6818000B4B984772
:10376000031EF9D1FB681B7BDBB202221343DAB2E2
:10377000FB681A73C0467B681800044B9847031E09
:10378000F9D1C046BD4604B080BDC04679360000C0
:1037900080B584B000AF786039607B681800184B42
:1037A000984702000123134001D1052323E07B68E1
:1037B0001B68FB60C0467B681800124B9847031ECD
:1037C000F9D1FB685B8B9AB23B681A807B68012158
:1037D00018000D4B98477B681800094B984702006A
:1037E0000423134006D07B6804211800064B984739
:1037F0001E2300E000231800BD4604B080BDC04673
:10380000A136000079360000F536000080B582B0A0
:1038100000AF0200FB1D1A70FB1D1B781800034B44
:10382000984703001800BD4602B080BD193600005D
:1038300080B584B000AF0200FB1D1A70BB1D0A1CCE
:103840001A70FB1D1B7818000D4B98470300FB6096
:10385000FB1D1B781F22134001229A401300BB60FE
:10386000BB1D1B78002B03D0FB68BA689A6102E08D
:10387000FB68BA685A61C046BD4604B080BDC04608
:103880000D38000080B582B000AF094B1800094B1D
:103890009847BA1D064B11001800074B98470300C4
:1038A000052BF6D0BB1D1B881800BD4602B080BD9D
:1038B000101700204937000091370000F0B58FB095
:1038C00000AFF86201211920534B98470020534B59
:1038D000984703003B6100237B61514B002438690A
:1038E0007969C01861414F4C4F4A0023A04703003B
:1038F0000C0018004D4B984700211920464B984763
:103900000020464B98470300BB610023FB61BB6965
:10391000FC699A0FA0007862786A104378629B0075
:103920003B623B6A7C6AB969FA695B1854411A0FB9
:10393000260116431D01ED1AA6412B00340038491B
:1039400000225B18544118002100364C364A0023EF
:10395000A04703000C001800344B984700237B63FA
:1039600052E0002118202C4B984700202B4B984701
:103970000300BB600023FB602D4C28220023B868A5
:10398000F968A04703000C0019002200244B002412
:10399000C918624108001100224C234A0023A047A5
:1039A00003000C001800214B98477B6B5B00FA6A00
:1039B000D418204B98470300238001211820164B70
:1039C00098470020154B984703003B6000237B601D
:1039D000174C2822002338687968A04703000C00A0
:1039E000190022000E4B0024C91862410800110082
:1039F0000C4C0D4A0023A04703000C0018000B4B91
:103A000098477B6B01337B637B6B062BA9DDC0463C
:103A1000BD460FB0F0BDC04631380000A54A0000D9
:103A2000BFCF6A00E1550000C0CF6A00010000204E
:103A3000215600008538000080B500AF1D4B9B7BF0
:103A4000DB07DB0FDBB2012B31D11B4B1A681B4BA1
:103A50000521100098470B1E07D1194B01221A703F
:103A6000184B1B685A1C174B1A60134B1B685A1CC7
:103A7000114B1A60104B1B68FA2B15DD114B0022FD
:103A80001A60114B1B685A1C0F4B1A600E4B1A68B8
:103A90000A4B0521100098470B1E02D10B4B012247
:103AA0001A70054B00221A60024B10229A73C0460E
:103AB000BD4680BD002C004200170020D5550000F7
:103AC000D0120020D4120020DC120020E0120020CE
:103AD000F0B587B004AF2B4B1B78DBB2002B26D0A0
:103AE000294B1800294B9847274B1800284B98471B
:103AF000254B1B881E00244B5B887B60224B9B88D8
:103B00001A00214BDB881C001F4B1B891D001E4B1C
:103B10005B892049204803930295019400927B68B9
:103B200032001E4CA0471C4B18001D4B98471D4BE4
:103B30001A681D4B1921100098470B1E16D11B4BFC
:103B40001B78DBB2002B02D0194B98470EE0194BC3
:103B50001B78DBB2002B02D0174B984706E0174BBF
:103B60001B78DBB2002B01D0154B9847154B1B7807
:103B7000DBB2002B01D0144B9847C046BD4603B0C2
:103B8000F0BDC046390E002058170020BD38000097
:103B90003D240000A06F0000181700203D5A0000CF
:103BA000F5410000D4120020D5550000100A002075
:103BB000A5260000270E0020DD270000450E00206E
:103BC000C52B0000430E00202D2A000080B584B0D4
:103BD00000AF0200FB1D1A700F23FB18FA1D1278AC
:103BE000D2091A700E23FB18FA1D127852091A70A6
:103BF0000D4BBB600F23FB181B78002B0FD10F233D
:103C0000FB181B789B0010229446BC446344083B7D
:103C10001A680E23FB181B78DB01D31800E0002381
:103C20001800BD4604B080BD0044004180B582B09C
:103C300000AF0200FB1D1A70FB1D1B781800034B20
:103C4000984703001800BD4602B080BDCD3B000080
:103C500080B584B000AF0200FB1D1A70BB1D0A1CAA
:103C60001A70FB1D1B7818000D4B98470300FB6072
:103C7000FB1D1B781F22134001229A401300BB60DA
:103C8000BB1D1B78002B03D0FB68BA689A6102E069
:103C9000FB68BA685A61C046BD4604B080BDC046E4
:103CA0002D3C000080B582B000AF0200FB1D1A70F1
:103CB000FB1D1B7801211800024B9847C046BD46EA
:103CC00002B080BD513C0000F8B500AF00210720D4
:103CD000244B98470020244B984703001D000023E5
:103CE0001E00224C3222002328003100A04703008E
:103CF0000C00190022001E4B0024C9186241080064
:103D000011001C4C1C4A0023A04703000C001800A3
:103D10001A4B984701210720124B98470B20184B4C
:103D200098470C20164B98470D20154B98470E20AE
:103D3000134B98470F20124B98471020104B984771
:103D400011200F4B984712200D4B984713200C4B16
:103D5000984714200A4B98471520094B9847C046AE
:103D6000BD46F8BD513C0000A54A000021560000A8
:103D7000571B0000E1550000581B00000100002007
:103D8000A53C0000F0B595B002AF7860BC4A7B68F6
:103D900011001800BB4B9847031E56D0BA4B1B6846
:103DA000032B52DDB84B00221A600023BB63B74AD5
:103DB0007B6811001800B34B984703003B6438231D
:103DC000FA18B3493B6C1800B24B9847BA6BB24B28
:103DD0005A60B24A7B6811001800AA4B984703004A
:103DE0003B643B6C002B09D03423FA18AC493B6C84
:103DF0001800A84B98477A6BA74B9A60A94B984735
:103E00000020A94B984703001D0000231E00A74C6B
:103E1000FA225200002328003100A04703000C00C2
:103E200019002200A24B0024C918624108001100A9
:103E3000A04CA14A0023A04703000C0018009F4B90
:103E400098479F4B18009F4B98479F4A7B681100EB
:103E500018008C4B9847031E02D08B4B00221A602F
:103E60009A4A7B6811001800864B9847031E12D0AF
:103E7000854B00221A60884B00225A70864BDA6804
:103E8000854913009B009B189B00CB181033002220
:103E90001A70844B98478E4A7B6811001800794B42
:103EA0009847031E3CD08B4A7B6811001800754B65
:103EB0009847031E07D1884A7B6811001800714B90
:103EC0009847031E2CD0704B00221A602C23FC183C
:103ED0003023FA18814978682823FB1800932300BF
:103EE0006C4CA0472023FC183023FA187C497868D2
:103EF0002823FB1800932300664CA047664B012241
:103F00005A70FA6A644913009B009B189B00CB18F7
:103F1000103301221A70FA6A5F4BDA60614B9847DE
:103F20006B4A7B6811001800564B9847031E00D05F
:103F3000A1E0684A7B6811001800524B9847031EA5
:103F400008D1654A7B68110018004E4B9847031E44
:103F500000D190E0634A7B6811001800494B9847F4
:103F6000031E00D187E04C4B5B689A1C464B1B68D4
:103F70009A4200D07FE0444B1B68002B00DC7AE0C3
:103F8000454B5B68002B76DD3F4B00221A60002317
:103F90007B6466E07B680A211800534B9847030056
:103FA000FB637A6C13009B009B189A009B181A0005
:103FB000FB6B9B18FB63FB6B002B4FD01023FC1893
:103FC0001423FA184949F86B0C23FB1800932300BB
:103FD000304CA0470420464B9847030018002E4958
:103FE0007A6C13009B009B189B00CB181C33186045
:103FF00029497A6C13009B009B189B00CB181C333B
:104000001B681022BA18110018003A4B9847092073
:10401000374B9847030018001F497A6C13009B0028
:104020009B189B00CB18183318601B497A6C13003F
:104030009B009B189B00CB1818331B681422BA18DE
:10404000110018002B4B9847F96813487A6C13003D
:104050009B009B189B00C318203319607B6C0133B5
:104060007B640D4B5A687B6C9A4293DC0A4B0122AD
:104070001A700C4B9847C046BD4613B0F0BDC04601
:10408000D46F0000315B000098090020EC6F000045
:10409000F46F0000815A00006401002000700000ED
:1040A000087000003D420000A54A000021560000B3
:1040B000571B0000E1550000581B000001000020C4
:1040C00014700000F541000018700000207000001E
:1040D000287000003070000034700000387000005C
:1040E0005470000070700000D55A00007470000019
:1040F00091580000F15A000080B584B000AF78609C
:104100007A6807490823FB181800064B98470823CC
:10411000FB181800044B9847C046BD4604B080BD4C
:10412000807000003D5A0000F541000080B500AFEE
:10413000034B1800034B9847C046BD4680BDC046A0
:1041400088700000F541000080B500AF024B1B787D
:104150001800BD4680BDC0466401002080B500AF98
:104160001F4B1B7E5B07DB0FDBB2002B35D01D4BDB
:104170001B681A001C4B9A4217D91A4B00221A606E
:10418000184B1B68164A128D92B2D1B2174AD154FD
:10419000144B1B68154AD35CDBB20D2B1DD1144B9D
:1041A0001B685A1C124B1A6017E00E4B1B68591CF7
:1041B0000C4A11600A4A128D92B2D1B20B4AD15404
:1041C000084B1B68013B094AD35CDBB20D2B04D1C1
:1041D000074B1B685A1C064B1A60C046BD4680BD83
:1041E000000C004264050020FF030000D00E0020F8
:1041F0009809002080B584B000AF78600023FB6090
:104200000FE00D4B1B7EDB07DB0FDBB2012B08D170
:104210000949FB685A1CFA607A68D3181B789BB26C
:104220000B857A68FB68D3181B78002BE9D1C04650
:10423000BD4604B080BDC046000C004280B582B0CF
:1042400000AF00237B6007E0094A7B68D318002297
:104250001A707B6801337B607B68064A9342F3D90E
:10426000054B00221A60C046BD4602B080BDC04664
:10427000D00E0020FF0300006405002080B500AFD1
:10428000C046BD4680BD000080B582B000AF104B77
:104290001B68002B12D1EFF310837B607B68002B2F
:1042A00009D172B6BFF35F8F0A4B00221A700A4B16
:1042B00001221A7002E0084B00221A70044B1B689E
:1042C0005A1C034B1A60C046BD4602B080BDC046B2
:1042D00068050020680300206C05002080B500AF51
:1042E0000B4B1B685A1E0A4B1A60094B1B68002BAC
:1042F0000AD1084B1B78DBB2002B05D0064B0122FC
:104300001A70BFF35F8F62B6C046BD4680BDC0461F
:10431000680500206C0500206803002080B582B08D
:1043200000AF78607B6801225A607B6800225A7077
:104330007B6806221A707B6800221A727B68002252
:104340005A72C046BD4602B080BD80B582B000AF93
:1043500078607B6803221A707B6800225A707B6841
:1043600001229A70C046BD4602B080BD80B582B0C1
:1043700000AF0200FB1D1A70034AFB1D1B7813726D
:10438000C046BD4602B080BD0004004080B582B08A
:1043900000AF0200FB1D1A70BB1D0A1C1A70FB1D2A
:1043A0001B78012B08D0022B0BD0002B0ED10B4A0F
:1043B000BB1D1B7853720BE0084ABB1D1B78937220
:1043C00006E0064ABB1D1B78D37201E0172300E00C
:1043D00000231800BD4602B080BDC0460004004066
:1043E00080B582B000AF0200FB1D1A70084AFB1DA9
:1043F0001B780F210B40D9B253680F2001404900B0
:104400001E2083430B435360C046BD4602B080BDAF
:104410000040004180B500AFC046044BDB6810226D
:104420001340FAD0C046BD4680BDC04600080040DB
:1044300080B500AF0C4B02229A840C4B98470A4A75
:104440000B4B9B68D362084A094B5B689362064B2F
:1044500000229A84054B9847034A054B1B689BB280
:104460009384C046BD4680BD00080040154400004E
:104470007005002080B582B000AF0200FB1D1A70ED
:10448000FB1D1B78082B40D89A00224BD3181B68C1
:104490009F46214B1B6939E0204B1B6A9B059B0FF4
:1044A000DBB21A001E4BD34030E080231B022DE00C
:1044B00080231B022AE0184B5B6927E0164B1B6820
:1044C0000222134001D1002320E0164B9847124BE3
:1044D0001B680422134009D00020134B98470200A8
:1044E0000D4B9B681B041B0C53430FE00F4B0DE05F
:1044F0000A4A5023D35CDBB21A000423134001D1D3
:10450000002303E0044BDB6800E000231800BD46F5
:1045100002B080BD8C7000007005002000080040D3
:1045200000127A0015440000E94C0000006CDC0227
:1045300080B584B000AF78601A4B1B6AFB607B6863
:104540001B781A1C03231340DAB20D23FB18032136
:104550000A4010001A7803218A43111C021C0A43E6
:104560001A707B689A780C23FB18D0011A787F2187
:104570000A40111C021C0A431A707B685A780C23EB
:10458000FB1801210A4090011A7840218A43111C2E
:10459000021C0A431A70034BFA681A62C046BD46F1
:1045A00004B080BD0008004080B582B000AF0200BA
:1045B000FB1D1A70FB1D1B78082B3BD89A00214B62
:1045C000D3181B689F46204B1F4A126A02210A43D8
:1045D0001A62002331E01C4B1B4A926902210A43F4
:1045E0009A6129E0184A184B1B8A9BB202210B439F
:1045F0009BB2138220E0144A134B9B8A9BB2022188
:104600000B439BB2938217E0104B1B6802221A43A4
:104610000E4B1A600E4B98470EE00B4A0A49442392
:10462000CB5CDBB202210B43D9B24423D15403E06B
:10463000002302E0172300E000231800BD4602B06B
:1046400080BDC046B070000000080040700500202A
:104650003144000080B582B000AF3B0005221A70E3
:1046600000237B6009E07B68DBB23A001100180090
:10467000054B98477B6801337B607B68242BF2D91C
:10468000C046BD4602B080BD7D4B000080B5A0B0E5
:1046900000AF634BC222D2009A600020614B984762
:1046A000614B98477C23FB181800604B98477C238C
:1046B000FB1800221A707C23FB1801229A707C23BD
:1046C000FB1800225A707C23FB181800584B98479F
:1046D0000620584B9847584B98476423FB181800FE
:1046E000564B98476423FB1806221A706423FB1864
:1046F00001225A606423FB1801221A726423FB18FA
:1047000000225A726423FB18190001204C4B984771
:1047100001204C4B98475823FB181800474B9847EB
:104720005823FB1806221A705823FB1801225A60DE
:104730005823FB1801221A725823FB1800225A72C0
:104740005823FB18190002203D4B984702203D4B8F
:1047500098474C23FB181800384B98474C23FB18FC
:1047600006221A704C23FB1801225A604C23FB18B6
:1047700001221A724C23FB1800225A724C23FB1898
:10478000190003202E4B984703202E4B98474023B7
:10479000FB181800294B98474023FB1806221A7073
:1047A0004023FB1801225A604023FB1800221A7292
:1047B0004023FB1800225A724023FB1819000420E2
:1047C0001F4B984704201F4B984700201E4B9847CB
:1047D000002100201D4B9847002101201B4B9847CA
:1047E00000210220194B98473B1D1800134B984796
:1047F0003B1D06221A703B1D01225A603B1D0122FF
:104800001A723B1D00225A723B1D190000200C4BEE
:10481000984700200B4B9847C046BD4620B080BD4E
:1048200000080040E1430000554600004B430000F3
:1048300031450000A9450000F54800001D43000077
:1048400025490000494A00006D4300008D430000E7
:1048500080B582B000AF02003960FB1D1A70FB1DED
:104860001B78012B0AD0022B0FD0002B14D10E4B3A
:104870000D4A91693A680A439A610FE00A4B0A4A65
:10488000D1693A680A43DA6108E0074B064A116ABF
:104890003A680A431A6201E0172300E00023180077
:1048A000BD4602B080BDC0460004004080B500AFE8
:1048B000024B9847C046BD4680BDC04689420000B5
:1048C00080B500AF024B9847C046BD4680BDC0468C
:1048D000DD42000080B500AF054B5B78DBB25BB218
:1048E000002B01DA012300E000231800BD4680BD43
:1048F000000C004080B500AF08210020074B98470E
:10490000074B01221A70C046054B1B78DBB21A0018
:1049100001231340F8D1C046BD4680BD5148000078
:10492000000C004080B586B000AF02003960FB1D6E
:104930001A70FB1D1B787B61FB1D1B783B613B687C
:104940001B781B021A007B6913437B613B685B7811
:10495000002B04D07B698022D20213437B613B6829
:104960005B7A002B04D07B698022120313437B61A6
:104970003B685B68012B2CD93B685A683B685B68D5
:10498000013B13401AD10023FB600223BB6005E00A
:10499000FB680133FB60BB685B00BB603B685A6827
:1049A000BB689A42F4D8FB681B023A6913433B6127
:1049B0007B698022520313437B610AE03B685B689A
:1049C0001B023A6913433B617B69802292021343C5
:1049D0007B613B681B7A002B04D07B6980229203A9
:1049E00013437B61C046134B9847031EFBD1124B08
:1049F0009847124AFB1D1B781370C0460D4B984711
:104A0000031EFBD10E4B3A699A60C046094B98478A
:104A1000031EFBD10A4B0A4A516880225202114000
:104A20007A690A435A60074B9847C046BD4606B0AC
:104A300080BDC046D5480000AD480000080C0040CD
:104A4000000C0040C148000080B582B000AF0200F9
:104A5000FB1D1A70C0460E4B9847031EFBD10D4B31
:104A600098470D4AFB1D1B781370C046084B9847AA
:104A7000031EFBD1094B094A5268802149020A43AF
:104A80005A60074B9847C046BD4602B080BDC0463D
:104A9000D5480000AD480000040C0040000C004068
:104AA000C148000080B586B000AF0200FB1D1A703F
:104AB000C0462A4B9847031EFBD1294B9847294AE9
:104AC000FB1D1B781370C046244B9847031EFBD177
:104AD000254B5B68DB04DB0EDBB21800234B9847E9
:104AE00003007B611F4AFB1D1B7813701E4B5B6824
:104AF000DB02DB0FDAB21323FB181A701C4AFB1D12
:104B00001B781370C046154B9847031EFBD1164BFC
:104B10009B681B021B0C9BB2FB60164B9847132330
:104B2000FB181B78002B09D1FB68012B06D9124B0F
:104B3000F9687869984703007B610AE01323FB1842
:104B40001B78002B05D0FB6801337A69DA4013002B
:104B50007B617B691800BD4606B080BDD54800006A
:104B6000AD480000040C0040000C004075440000FB
:104B7000080C0040C1480000F552000080B584B028
:104B800000AF02003960FB1D1A70FB1D1B78FB6033
:104B90003B681B781B021A00FB681343FB60FB1D7C
:104BA0001B781800044B9847044BFA6892B25A805D
:104BB000C046BD4604B080BD094C0000000C00405A
:104BC00080B582B000AF0200FB1D1A700A4B9847F7
:104BD0000A4AFB1D1B7813700949094B5B889BB27D
:104BE0008022D20113439BB24B80064B9847C046AC
:104BF000BD4602B080BDC046AD480000020C00407A
:104C0000000C0040C148000080B584B000AF020035
:104C1000FB1D1A701C4B98471C4AFB1D1B78137018
:104C20001B4B5B881B051B0FDBB2FB60184A5388CC
:104C300018490B405380164A154B5B889BB21649A6
:104C40000B409BB25380C046114B5B889BB21A004D
:104C50008023DB011340F7D10D4AFB68DBB2191C3E
:104C60000F230B40D9B25388081C0F2101400802C2
:104C700008490B40191C031C0B435380074B9847F2
:104C8000C046BD4604B080BDAD480000020C0040E7
:104C9000000C0040FFF0FFFFFFBFFFFFC148000016
:104CA00080B582B000AF0200FB1D1A70094B984717
:104CB000094AFB1D1B781370084A084B5B889BB29E
:104CC00007490B439BB25380064B9847C046BD46ED
:104CD00002B080BDAD480000020C0040000C004056
:104CE00000C0FFFFC148000080B584B000AF0200E3
:104CF000FB1D1A700D4B98470D4AFB1D1B78137056
:104D00000C4B5B881B051B0FDAB20F23FB181A70C4
:104D1000094B98470F23FB181B781800074B98473F
:104D200003001800BD4604B080BDC046AD48000079
:104D3000020C0040000C0040C1480000A54A0000E1
:104D400080B500AFC046BD4680BD000080B500AF55
:104D5000064B9847064B9847064B9847064B984793
:104D6000064B9847C046BD4680BDC0468D460000F4
:104D70007D420000414D000015090000414D00003A
:104D800080B582B000AF2F4B7B602F4B3B607A68C1
:104D90003B689A420CD007E03B681A1D3A607A687B
:104DA000111D796012681A603A68284B9A42F3D351
:104DB000274B3B6004E03B681A1D3A6000221A60F2
:104DC0003A68244B9A42F6D3234B7B60234B7A6894
:104DD000FF218A439A60224A90235B000221D1502E
:104DE000204AD37803218B43191C02230B43D37031
:104DF0001C4AD3780C218B43191C08230B43D37016
:104E0000194A937B30218B43191C20230B43937346
:104E1000154A937B0C218B43191C08230B43937376
:104E2000114A937B03218B43191C02230B43937379
:104E30000E4A536880210B4353600D4B98470D4B2E
:104E40009847FEE7D4720000000000203C050020D7
:104E50003C050020681700200000000000ED00E085
:104E600000700041005000410048004100400041F6
:104E700049580000094F000080B582B000AF044BD4
:104E80007B60EFF305833B603B687B60F9E7C046DE
:104E90000F27000080B584B000AF78600A4B1B6814
:104EA000002B02D1084B094A1A60074B1B68FB60B4
:104EB000054B1A687B68D218034B1A60FB68180010
:104EC000BD4604B080BDC04688050020683700207C
:104ED00080B500AF044B01221A70BFF35F8F62B63A
:104EE000C046BD4680BDC0466803002080B500AF07
:104EF00072B6BFF35F8F034B00221A70C046BD46E7
:104F000080BDC04668030020F0B58FB000AFD94B1C
:104F10009847D94B98470020D84B984703001D006D
:104F200000231E00D64CD74A002328003100A0479A
:104F300003000C0019002200D34B0024C918624161
:104F400008001100D14CD24A0023A04703000C00F6
:104F50001800D04B9847D04B984700233B63CF4B6A
:104F6000984700237B6325E0CD4A7B6BD3181B78E1
:104F7000DBB20A3B5A425341D9B27B6B5A1CC84B35
:104F80009B5CDBB25A425341DBB20B40DBB2002BDD
:104F900006D0C34B1800C34B9847C34B984706E055
:104FA000BF4A7B6BD3181B78DBB2002B07D07B6B1F
:104FB00001337B637A6BBD4B9A42D5D900E0C04682
:104FC000BB4B1800BB4B9847BB4B1B78002B06D044
:104FD000B94A00231370B94B9847B94B9847B94B5E
:104FE0001B78002B0ED0B84B9847B84B1800B84B25
:104FF0009847B44A00231370B64B9847B64B98476E
:10500000B64B9847B64B1B78DBB2002B00D18FE034
:10501000AD4B9847B24A00231370012300220521AB
:105020000020B04CA0470023012205210020AD4CF8
:10503000A047A34B98470020904B98470300BB62C2
:105040000023FB628E4C962252000023B86AF96A54
:10505000A04703000C00190022008B4B0024C91844
:10506000624108001100894C894A0023A0470300CF
:105070000C001800874B98470023002205210020D0
:10508000984CA0478E4B984700207C4B98470300D4
:105090003B6200237B627A4CFA2212010023386AB9
:1050A000796AA04703000C0019002200764B002407
:1050B000C918624108001100744C754A0023A047CA
:1050C00003000C001800734B9847012300220521B0
:1050D0000020844CA0477A4B98470020674B9847A4
:1050E0000300BB610023FB61654C96225200002344
:1050F000B869F969A04703000C0019002200624B4F
:105100000024C918624108001100604C604A002365
:10511000A04703000C0018005E4B984700230022B4
:10512000052100206F4CA047654B98476B4B984773
:105130006D4B1B78DBB2002B00D18FE0624B9847A0
:10514000694A002313700023002205210020654CCA
:10515000A0470123012205210020624CA047584BA3
:1051600098470020454B984703003B6100237B6133
:10517000434C96225200002338697969A047030006
:105180000C0019002200404B0024C918624108009D
:1051900011003E4C3E4A0023A04703000C001800BB
:1051A0003C4B984700230122052100204D4CA0478D
:1051B000434B98470020314B98470300BB600023C6
:1051C000FB602F4CFA2212010023B868F968A0474F
:1051D00003000C00190022002B4B0024C918624167
:1051E00008001100294C2A4A0023A04703000C00A4
:1051F0001800284B98470123012205210020394C33
:10520000A0472F4B984700201C4B984703003B605A
:1052100000237B601A4C962252000023386879687C
:10522000A04703000C0019002200174B0024C918E6
:10523000624108001100154C154A0023A0470300E5
:105240000C001800134B9847002301220521002071
:10525000244CA0471A4B9847204B9847234B1B7868
:10526000002B00D17BE6214A00231370204B984786
:1052700075E6C0464D4D0000E9060000A54A000055
:1052800021560000DC050000571B0000E15500001E
:10529000581B0000010000201501000049410000DA
:1052A000240A0020CD13000055130000FE03000067
:1052B000D00E0020853D0000D0120020D13A000021
:1052C00089230000CC0E0020ED4E0000D4700000B9
:1052D0009912000025350000FD2C0000D14E000081
:1052E0000F0A0020352F00000C0A0020E0120020D9
:1052F000F12F0000002243088B4274D303098B4234
:105300005FD3030A8B4244D3030B8B4228D3030C95
:105310008B420DD3FF22090212BA030C8B4202D337
:105320001212090265D0030B8B4219D300E0090A5F
:10533000C30B8B4201D3CB03C01A5241830B8B4268
:1053400001D38B03C01A5241430B8B4201D34B0351
:10535000C01A5241030B8B4201D30B03C01A5241B6
:10536000C30A8B4201D3CB02C01A5241830A8B423B
:1053700001D38B02C01A5241430A8B4201D34B0224
:10538000C01A5241030A8B4201D30B02C01A524188
:10539000CDD2C3098B4201D3CB01C01A524183093C
:1053A0008B4201D38B01C01A524143098B4201D376
:1053B0004B01C01A524103098B4201D30B01C01AA1
:1053C0005241C3088B4201D3CB00C01A524183081B
:1053D0008B4201D38B00C01A524143088B4201D348
:1053E0004B00C01A5241411A00D2014652411046A8
:1053F0007047FFE701B5002000F0F0F802BDC0469D
:105400000029F7D076E7704703460B437FD400228C
:1054100043088B4274D303098B425FD3030A8B4248
:1054200044D3030B8B4228D3030C8B420DD3FF22B2
:10543000090212BA030C8B4202D31212090265D080
:10544000030B8B4219D300E0090AC30B8B4201D333
:10545000CB03C01A5241830B8B4201D38B03C01A7A
:105460005241430B8B4201D34B03C01A5241030BF1
:105470008B4201D30B03C01A5241C30A8B4201D3A2
:10548000CB02C01A5241830A8B4201D38B02C01A4D
:105490005241430A8B4201D34B02C01A5241030AC4
:1054A0008B4201D30B02C01A5241CDD2C3098B42A9
:1054B00001D3CB01C01A524183098B4201D38B0126
:1054C000C01A524143098B4201D34B01C01A5241C9
:1054D00003098B4201D30B01C01A5241C3088B420E
:1054E00001D3CB00C01A524183088B4201D38B00F9
:1054F000C01A524143088B4201D34B00C01A52419B
:10550000411A00D201465241104670475DE0CA0F71
:1055100000D04942031000D34042534000229C4631
:1055200003098B422DD3030A8B4212D3FC2289013B
:1055300012BA030A8B420CD3890192118B4208D311
:10554000890192118B4204D389013AD0921100E073
:105550008909C3098B4201D3CB01C01A5241830987
:105560008B4201D38B01C01A524143098B4201D3B4
:105570004B01C01A524103098B4201D30B01C01ADF
:105580005241C3088B4201D3CB00C01A5241830859
:105590008B4201D38B00C01A5241D9D243088B42AF
:1055A00001D34B00C01A5241411A00D20146634652
:1055B00052415B10104601D34042002B00D54942B6
:1055C000704763465B1000D3404201B5002000F0F5
:1055D00005F802BD0029F8D016E770477047C046AD
:1055E000002B11D1002A0FD1002900D1002802D0B0
:1055F0000021C943081C07B4024802A140180290C8
:1056000003BDC046D9FFFFFF03B4684601B5029849
:1056100000F030F8019B9E4602B00CBC7047C046BB
:10562000F0B5CE46474615042D0C2E0080B5070474
:10563000140C3F0C9946030C7E435D436743634360
:105640007F19340CE4199C46A54203D980235B02E0
:105650009846C4444B46514343433604360C250C0C
:1056600024046544A4195918491920000CBC90461B
:105670009946F0BDF0B557464E464546DE46E0B584
:10568000040083B00D00924699468B422FD82CD04F
:105690004946504600F0CCF829000600200000F0F2
:1056A000C7F8331A9846203B9B4600D574E0534612
:1056B0005A4693401F005346424693401E00AF4255
:1056C00029D826D05B46A41BBD41002B00DA79E027
:1056D000002200230092019301235A469340019334
:1056E000012342469340009319E08242D0D9002220
:1056F0000023009201930C9B002B01D01C605D6085
:105700000098019903B03CBC90469946A246AB462E
:10571000F0BDA342D6D90022002300920193434654
:10572000002BE8D0FB0772081A4346467B080EE0C0
:10573000AB4201D1A2420CD8A41A9D4101202419E8
:105740006D410021013E24184D41002E06D0AB4290
:10575000EED9013E24196D41002EF8D15B46009828
:10576000019900196941002B22DB2B005A46D340D6
:105770002A004446E2401C005B461500002B2CDB4F
:1057800026009E40330026004746BE403200801A65
:10579000994100900191AEE7424620239B1A524660
:1057A000DA40414613004A468A4017001F4382E709
:1057B000424620239B1A2A0046469A402300F34083
:1057C0001343D5E74246202300219B1A0022009173
:1057D00001920122DA40019282E74246202326000C
:1057E0009B1ADE402F00B446974066463B00334389
:1057F000C9E7C0461C2101231B04984201D3000CB9
:1058000010391B0A984201D3000A08391B09984233
:1058100001D30009043902A2105C40187047C04649
:105820000403020201010101000000000000000069
:1058300010B5002903D1FFF7DDFF203002E0081C7E
:10584000FFF7D8FF10BDC04670B500260C4D0D4CBB
:10585000641BA410A64209D1002601F027FD0A4DC1
:105860000A4C641BA410A64205D170BDB300EB58CE
:1058700098470136EEE7B300EB5898470136F2E758
:10588000B8720000B8720000B8720000BC7200006C
:1058900010B5034B0100186800F060F810BDC04659
:1058A0006C030020002310B59A4200D110BDCC5CDF
:1058B000C4540133F8E703008218934200D17047C3
:1058C00019700133F9E7000070B50500002910D008
:1058D0000C1F2368002B00DAE418280000F040F9C0
:1058E0001D4A1368002B05D163601460280000F086
:1058F00038F970BDA34209D9216860188342F3D1F9
:1059000018685B6841182160EEE713005A68002AA6
:1059100001D0A242F9D919685818A0420BD12068C9
:105920000918581819608242E0D11068526841186D
:1059300019605A60DAE7A04202D90C232B60D5E740
:1059400021686018824203D11068526841182160B2
:1059500062605C60CAE7C0468C050020032370B516
:10596000CD1C9D43083506000C2D1ED20C25A942E6
:105970001DD8300000F0F4F8254A146821000029F1
:1059800019D1244C2368002B03D1300000F044F8D7
:1059900020602900300000F03FF8431C2CD10C237C
:1059A0003000336000F0DDF803E0002DDFDA0C2377
:1059B0003360002070BD0B685B1B1AD40B2B03D91E
:1059C0000B60CC18256003E08C420ED16368136035
:1059D000300000F0C6F8200007220B30231D904352
:1059E000C31AE7D05A42E250E4E74B6863600C0008
:1059F000EEE70C004968C2E70323C41C9C43A042A5
:105A0000E0D0211A300000F007F8431CDAD1C6E7D5
:105A10008C05002090050020002370B5064C050081
:105A200008002360FFF736FA431C03D12368002BDC
:105A300000D02B6070BDC046641700200EB410B5B6
:105A40009DB002A9029008610B48822488604861D9
:105A5000012040421FABC881084804CBA400006865
:105A600001938C8100F0E0F80023029A13701DB0BE
:105A700010BC08BC03B01847FFFFFF7F6C03002079
:105A80000EB4812370B59DB002AC21AD9B0040CD1A
:105A9000A3810290069000F033F80B4B60606362C4
:105AA0000023606109486363A364013BE381320022
:105AB0002B0021000068019500F016FA1DB070BCA3
:105AC00008BC03B01847C046D15A00006C03002040
:105AD00000207047C9B20378002B04D0994200D14E
