:1000000070310020A54F00009D5000009D50000061
:1000100000000000000000000000000000000000E0
:100020000000000000000000000000009D500000E3
:1000300000000000000000009D5000009D500000E6
:100040009D5000009D500000610D00009D5000007B
:10005000590200009D5000009D5000009D5000007E
:100060009D5000009D500000C5410000150E00008D
:100070009D5000009D5000009D5000009D500000CC
:100080009D5000009D500000793700009D500000F9
:100090009D50000000000000000000009D50000086
:1000A0009D5000009D5000009D5000009D5000009C
:1000B0000000000010B5064C2378002B07D1054B3B
:1000C000002B02D0044800E000BF0123237010BDC4
:1000D0005C03002000000000C4740000084B10B551
:1000E000002B03D00749084800E000BF0748036819
:1000F000002B00D110BD064B002BFBD09847F9E731
:100100000000000060030020C4740000C4740000FC
:100110000000000080B582B000AF78607B680022EC
:100120001A707B6801225A707B6804229A707B687F
:100130000C22DA707B6800221A717B6800225A71E7
:10014000C046BD4602B080BD80B582B000AF3B0066
:100150001800094B98473B0000221A703B000A2206
:10016000DA703B0009225A713B001800034B984794
:10017000C046BD4602B080BD15010000CD0B000099
:1001800080B500AFC046BD4680BDC04680B584B0D6
:1001900000AF0200FB1D1A700F23FB18FA1D127826
:1001A00052091A700F23FB181B78002B0CD1094B36
:1001B000BB600F23FB181B789B0010229446BC44A5
:1001C0006344083B1B6800E000231800BD4604B0F0
:1001D00080BDC0460018004080B584B000AF02006A
:1001E000FB1D1A70FB1D1B7818000B4B9847030072
:1001F000FB60FB1D1B781F22134001229A40130055
:10020000BB60FB681B69BA6813405A1E9341DBB29E
:100210001800BD4604B080BD8D01000080B584B0DB
:1002200000AF0200FB1D1A70FB1D1B781800094B64
:1002300098470300FB60FB1D1B781F22134001221F
:100240009A401300BB60FB68BA681A61C046BD469D
:1002500004B080BD8D01000080B500AF154B0022B9
:100260001A7020E0134B1B781800134B9847031E9D
:1002700013D0104B1B781800104B98470D4B1B7870
:100280001A000F4B9200D358002B06D0094B1B7855
:100290001A000B4B9200D3589847064B1B7801333A
:1002A000DAB2044B1A70034B1B780F2BDAD9C04615
:1002B000BD4680BDB0030020D90100001D02000032
:1002C000B403002080B582B000AF78607B68002264
:1002D0001A70C046BD4602B080BDC04680B582B02F
:1002E00000AF02003960FB1D1A70FB1D1B78012B4B
:1002F0000AD0022B0FD0002B14D10E4B0D4A91695E
:100300003A680A439A610FE00A4B0A4AD1693A688F
:100310000A43DA6108E0074B064A116A3A680A4361
:100320001A6201E0172300E000231800BD4602B066
:1003300080BDC0460004004080B582B000AF02001E
:10034000FB1D1A70064BFA1D127811001F220A407D
:10035000012191400A001A60C046BD4602B080BD2E
:1003600000E100E080B582B000AF0F4B3B6000239E
:100370007B6011E07B689B0008229446BC44634488
:10038000083B1B685B78DBB25BB2002B01DA012310
:1003900006E07B6801337B607B68002BEAD000239A
:1003A0001800BD4602B080BD0018004080B584B082
:1003B00000AF2D4B7B60402100202C4B98473B0029
:1003C00018002B4B98473B0000221A703B00190085
:1003D0000520284B98470520274B98470023FB60B2
:1003E00018E0FB689B0010229446BC4463440C3B1D
:1003F0001A68FB689B0010218C46BC4463440C3B8C
:100400001B681B78DBB201210B43DBB21370FB6866
:100410000133FB60FB68002BE3D0C046174B9847C5
:10042000031EFBD10B23FB1800221A700DE00B23D7
:10043000FB181A78124B92000021D1500B23FB18A5
:100440001A780B23FB1801321A700B23FB181B7848
:100450000F2BECD904200B4B98470B4B9847C04609
:10046000BD4604B080BDC04600180040DD0200005B
:10047000C5020000E94B00002D4C000065030000A0
:10048000B4030020390300008D04000080B582B061
:1004900000AF154B3B6000237B6018E07B689B003E
:1004A00008229446BC446344083B1A687B689B005E
:1004B00008218C46BC446344083B1B681B78DBB2B4
:1004C00002210B43DBB213707B6801337B607B68D6
:1004D000002BE3D0C046054B9847031EFBD1C04616
:1004E000BD4602B080BDC046001800406503000054
:1004F00080B582B000AF78607B6880221A707B681C
:1005000000225A707B6801229A707B680022DA70A0
:10051000C046BD4602B080BD80B584B000AF0200C9
:100520003960FB1D1A700C23FB181800104B9847FC
:100530000C23FB1880221A703B681A780C23FB18D6
:100540005A703B685A780C23FB189A703B689A786B
:100550000C23FB18DA700C23FA18FB1D1B78110012
:100560001800044B9847C046BD4604B080BDC04645
:10057000F10400001D4F000080B584B000AF78602A
:100580007B681B68FB60FB68DB69072213405A1E0F
:100590009341DBB21800BD4604B080BD80B582B087
:1005A00000AF7860C0467B681800044B9847031E74
:1005B000F9D1C046BD4602B080BDC04679050000F5
:1005C00080B584B000AF78607B681B68FB60FB6817
:1005D0001B7EDBB21A00022313400BD0FB68022201
:1005E0001A76FB685B8B9BB21A000223134011D072
:1005F000412310E0FB685B8B9BB21A00042313407D
:1006000008D0FB685B68C02292021A43FB685A60FC
:10061000182300E000231800BD4604B080BDC0468A
:1006200080B584B000AF78607B681B68BB600E2328
:10063000FB1800221A800FE00E23FB180E22BA18B6
:10064000128801321A807B681B890E22BA18128820
:100650009A4201D312230EE0BB681B7EDBB21A0064
:100660000123134006D1BB681B7EDBB21A000223B4
:100670001340E1D000231800BD4604B080BDC04641
:1006800090B585B000AF78600A00FB1C1A707B68DB
:100690001B68FB60FB685B688022D2021A43FB6820
:1006A0005A60FB1C1A78FB685A620B23FC187B68A3
:1006B0001800074B984703002370FB6801221A7645
:1006C0000B23FB181B781800BD4605B090BDC04633
:1006D0002106000090B587B000AF786039607B6874
:1006E0001B68FB601423FB183A6852881A80122397
:1006F000FB1800221A80FB681B681B01DB0FDBB2B2
:100700001A000B23FB18511E8A411A703B685B7A52
:10071000002B06D03B689A7A7B6811001800854B45
:100720009847FB685B68844A1A40FB685A603B68DC
:100730001B7A002B42D03B681B885A003B685B7ACF
:100740009B0313431A0080231B021A43FB685A625F
:100750001723FC187B681800784B98470300237018
:10076000FB685B68744A1A40FB685A601723FB18E1
:100770001B78002B07D11723FC187B681800704BDF
:100780009847030023701723FB181B78002B11D107
:100790003B681B881B0A9BB2782213439BB25A000A
:1007A0003B685B7A9B031343012213431A00FB68E7
:1007B0005A620FE01723FB181B78B6E03B681B88D2
:1007C0005B0001221A433B685B7A9B0313431A00C8
:1007D000FB685A621723FC187B681800574B984730
:1007E000030023700B23FB181B78002B0BD03B68F6
:1007F0005B88012B07D1FB685B688022D2021A4319
:10080000FB685A6005E0FB685B684B4A1A40FB686E
:100810005A601723FB181B78002B07D11723FC18ED
:100820007B681800464B9847030023701723FB187A
:100830001B78002B00D075E04BE0FB685B8B9BB214
:100840001A002023134001D141236EE07B68DB7A3C
:10085000002B1ED00B23FB181B7801225340DBB268
:10086000002B04D01423FB181B88002B09D00B236A
:10087000FB181B78002B0CD01423FB181B88012BB2
:1008800007D1FB685B688022D2021A43FB685A607A
:100890001AE07B6818002B4B98473B685A68122374
:1008A000FB181B8812217918581C0880D318FA6885
:1008B0002821525CD2B21A701723FC187B681800EA
:1008C0001E4B9847030023701723FB181B78002B3F
:1008D00009D11423FB181B881422BA18591E118041
:1008E000002BAAD100E0C0467B689B7A002B0AD07F
:1008F0007B681800134B9847FB685B68C022920224
:100900001A43FB685A607B6818000E4B98473B6897
:100910005A681223FB181B88D318FA682821525CE6
:10092000D2B21A701723FB181B781800BD4607B007
:1009300090BDC04681060000FFFFFBFF21060000BE
:10094000C10500009D05000080B582B000AF786051
:1009500039607B6801229A727B680122DA723A68F8
:100960007B6811001800034B984703001800BD4630
:1009700002B080BDD506000090B587B000AF7860AA
:1009800039607B681B68FB601423FB183A68528847
:100990001A807B681800514B98473B685B7A002BA4
:1009A00006D03B689A7A7B68110018004C4B984738
:1009B000FB685B684B4A1A40FB685A603B681B7ACD
:1009C000002B0DD03B681B885A003B685B7A9B0369
:1009D00013431A0080231B021A43FB685A6209E082
:1009E0003B681B885A003B685B7A9B0313431A00E1
:1009F000FB685A621723FC187B6818003A4B98472B
:100A0000030023701723FB181B78002B07D1172333
:100A1000FC187B681800354B984703002370172398
:100A2000FB181B78002B52D11223FB1800221A80CE
:100A300033E0FB685B8B9BB21A002023134001D18B
:100A4000412347E07B681800244B98473B685A686D
:100A50001223FB181B8812217918581C0880D31800
:100A60001978FB68282299541723FC187B68180012
:100A70001D4B9847030023701723FB181B78002B8E
:100A800015D1FB685B8B9BB21A000423134004D082
:100A90001723FB181E221A700AE01423FB181B8868
:100AA0001422BA18591E1180002BC2D100E0C04692
:100AB0007B689B7A002B0AD07B681800074B98470D
:100AC000FB685B68C02292021A43FB685A601723D6
:100AD000FB181B781800BD4607B090BD9D050000AF
:100AE00081060000FFFFFBFF21060000C10500009A
:100AF00080B582B000AF786039607B6801229A725D
:100B00007B680122DA723A687B6811001800034B97
:100B1000984703001800BD4602B080BD7909000067
:100B200080B582B000AF02003960FB1D1A70FB1D5A
:100B30001B78012B0AD0022B0FD0002B14D10E4BA7
:100B40000D4A91693A680A439A610FE00A4B0A4AD2
:100B5000D1693A680A43DA6108E0074B064A116A2C
:100B60003A680A431A6201E0172300E000231800E4
:100B7000BD4602B080BDC0460004004080B582B0D2
:100B800000AF074B7B607B68DB79DBB25BB2002B8D
:100B900001DA012300E000231800BD4602B080BD49
:100BA0000010004080B582B000AF074B7B607B68CF
:100BB0001B78DBB21A00802313405A1E9341DBB22C
:100BC0001800BD4602B080BD0010004080B586B060
:100BD00000AF7860544B3B6110210020534B984785
:100BE000534B9847031E01D0102398E07B68DB78B5
:100BF000002B01D1172392E07B68DA787B681B79A0
:100C00009A4205D37B68DA787B685B799A4201D295
:100C1000172384E03B691B78DBB202229343DAB2EC
:100C20003B691A70C046434B9847031EFBD17B6853
:100C30005B7801225340DBB2002B01D000236EE031
:100C40007B689A780C23FB181A700C23FB18190088
:100C50000320394B98470320384B98477B681B7813
:100C6000002B02D00320364B984700237B617B6822
:100C7000DB78013B1A007B6913437B617B681B793E
:100C8000002B10D03B691B78DBB204221343DAB28D
:100C90003B691A707B681B79013B1B011A007B6959
:100CA00013437B6107E03B691B78DBB2042293436B
:100CB000DAB23B691A70C0461E4B9847031EFBD13F
:100CC0007B69DAB23B695A707B685B79002B0AD08A
:100CD000C046184B9847031EFBD17B685B79013BEC
:100CE000DAB23B699A707B681B78002B09D03B69AC
:100CF0001B78DBB2802252421343DAB23B691A708E
:100D000007E03B691B78DBB202221343DAB23B698E
:100D10001A70C046074B9847031EFBD100231800EA
:100D2000BD4606B080BDC04600100040210B00004B
:100D3000A50B00007D0B0000E94B00002D4C0000CE
:100D40000D4D000080B582B000AF044B7B607B6826
:100D500001229A71C046BD4602B080BD001000401D
:100D600080B500AF054B9847054B1B68002B02D0A0
:100D7000034B1B689847C046BD4680BD450D00002B
:100D8000F403002080B500AF044B01221A70BFF3BA
:100D90005F8F62B6C046BD4680BDC046F0020020EF
:100DA00080B500AF72B6BFF35F8F034B00221A709D
:100DB000C046BD4680BDC046F002002080B584B06C
:100DC00000AF7860104B98470023FB600FE00F4B9B
:100DD0001B7EDB07DB0FDBB2012B08D10B49FB6865
:100DE0005A1CFA607A68D3181B789BB20B857A6814
:100DF000FB68D3181B78002BE9D1054B9847C046F8
:100E0000BD4604B080BDC046A10D000000100042E8
:100E1000850D000080B500AF134B1B7E5B07DB0F19
:100E2000DBB2002B1CD0114B1B681A1E104B9A42D0
:100E30000BD90E4B00221A600C4B1B680A4A128D0C
:100E400092B2D1B20B4AD1540AE0084B1B68591C2C
:100E5000064A1160044A128D92B2D1B2054AD154A9
:100E6000C046BD4680BDC046001000427803002049
:100E7000FF0300002804002080B582B000AF0023EB
:100E80007B6007E0094A7B68D31800221A707B68F0
:100E900001337B607B68064A9342F3D9054B0022FD
:100EA0001A60C046BD4602B080BDC046280400207E
:100EB000FF0300007803002080B500AF044B01223F
:100EC0001A70BFF35F8F62B6C046BD4680BDC04694
:100ED000F002002080B500AF72B6BFF35F8F034B06
:100EE00000221A70C046BD4680BDC046F0020020F8
:100EF000F0B599B000AFF860FB681800E84B984770
:100F00000300FB65E749FB6807221800E64B98479A
:100F1000031E03D1E54B1800E54B9847E549FB68F4
:100F200003221800E04B9847031E0CD1E24B180037
:100F3000DF4B984750230822BA18D218DF49FB68C4
:100F40001800DF4B9847DF49FB6803221800D64B97
:100F50009847031E32D1DC4B1800D54B9847FB68ED
:100F60001800CF4B98470400D64B1800CC4B98473D
:100F700003009C4222D94C230822BA18D218D34924
:100F8000FB681800CE4B98477B6D002B01DC0123DA
:100F90007B657A6DCE4B1A607A6DCE4908230820A6
:100FA0008446BC4463441800CB4B9847082308226E
:100FB0009446BC4463441800BD4B9847C749FB683E
:100FC00004221800B84B9847031E00D088E0012384
:100FD000002201210020C24CA0470123002202214F
:100FE0000020BF4CA0470123002203210020BC4C5D
:100FF000A0470123002204210020B94CA04701236F
:10100000012202210020B64CA04701230122012128
:101010000020B34CA0470123022202210020B04C43
:10102000A0470123022201210020AD4CA04701234B
:10103000022204210020AA4CA047012302220321FE
:101040000020A74CA0470123012203210020A44C2B
:10105000A0470123012204210020A14CA047012325
:101060000322022100209E4CA047012303220121DC
:1010700000209B4CA0470123032203210020984C11
:10108000A0470123042203210020954CA0470123FF
:10109000042201210020924CA047012303220521B4
:1010A00000208F4CA04701230222052100208C4CF8
:1010B000A0470123042205210020894CA047894B29
:1010C00001221A70FB681800794B9847864B18006C
:1010D000774B9847854B1800754B984700F0C4FF35
:1010E0008349FB68042218006F4B9847031E00D009
:1010F00088E00023002201210020794CA047002332
:10110000002202210020764CA04700230022032168
:101110000020734CA0470023002204210020704CC3
:10112000A04700230122022100206D4CA04700238C
:101130000122012100206A4CA04700230222022143
:101140000020674CA0470023022201210020644CAC
:10115000A0470023022204210020614CA047002365
:101160000222032100205E4CA0470023012203211C
:1011700000205B4CA0470023012204210020584C92
:10118000A0470023032202210020554CA047002342
:10119000032201210020524CA047002303220321F7
:1011A00000204F4CA04700230422032100204C4C78
:1011B000A0470023042201210020494CA04700231E
:1011C000032205210020464CA047002302220521CE
:1011D0000020434CA0470023042205210020404C5E
:1011E000A047404B00221A70FB681800304B98470C
:1011F0003D4B18002E4B98473C4B18002C4B984702
:1012000000F032FF3B49FB6805221800264B984747
:10121000031E0AD1384B01221A70384B01221A7072
:10122000374B01221A7000F01FFF3649FB68052278
:1012300018001D4B9847031E0AD12F4B00221A702D
:101240002E4B00221A702E4B00221A7000F00CFF59
:101250002D49FB6805221800134B9847031E04D143
:10126000254B01221A7000F0FFFE2849FB68052279
:1012700018000D4B9847031E04D11F4B00221A7013
:1012800000F0F2FE2249FB6805221800064B984741
:10129000031E3FD1194B01221A7000F0E5FEC04633
:1012A000155D0000846D0000235D0000906D00005E
:1012B000BD0D0000986D00009C6D0000A06D000049
:1012C000955C00000C000020A86D0000B86D0000C7
:1012D000E00C0020C06D0000515C0000C86D0000F3
:1012E000752C000042080020D06D0000D46D000075
:1012F000D86D0000E06D00000D04002041080020C2
:101300003E080020E86D0000F06D0000F86D000060
:10131000006E0000C949FB6805221800C84B9847B9
:10132000031E04D1C74B00221A7000F09DFEC6496F
:10133000FB6806221800C24B9847031E04D1C34B1A
:1013400001221A7000F090FEC149FB6806221800C5
:10135000BB4B9847031E04D1BC4B00221A7000F00F
:1013600083FEBC49FB6806221800B54B9847031E54
:1013700004D1B94B01221A7000F076FEB749FB6820
:1013800006221800AE4B9847031E04D1B24B002230
:101390001A7000F069FEB249FB6806221800A84BDB
:1013A0009847031E04D1AF4B01221A7000F05CFE77
:1013B000AD49FB6806221800A14B9847031E04D1D3
:1013C000A84B00221A7000F04FFEA849FB680622C5
:1013D00018009B4B9847031E04D1A54B01221A709D
:1013E00000F042FEA349FB6806221800944B984780
:1013F000031E04D19E4B00221A7000F035FE9E4958
:10140000FB68062218008E4B9847031E04D10B2060
:101410009A4B984700F028FE9949FB68062218006D
:10142000874B9847031E04D10B20964B984700F03A
:101430001BFE9549FB6806221800814B9847031E46
:1014400004D10C208D4B984700F00EFE8F49FB68AD
:10145000062218007A4B9847031E04D10C20894BB2
:10146000984700F001FE8A49FB6806221800744B79
:101470009847031E04D10D20804B984700F0F4FDDF
:101480008449FB68062218006D4B9847031E04D15F
:101490000D207C4B984700F0E7FD7F49FB68062252
:1014A0001800674B9847031E04D10E20734B9847D2
:1014B00000F0DAFD7949FB6806221800604B984776
:1014C000031E04D10E206F4B984700F0CDFD7449E8
:1014D000FB68062218005A4B9847031E04D10F20C0
:1014E000664B984700F0C0FD6E49FB680622180065
:1014F000534B9847031E04D10F20624B984700F0CE
:10150000B3FD6949FB68062218004D4B9847031E3E
:1015100004D11020594B984700F0A6FD6349FB68A1
:1015200006221800464B9847031E04D11020554B45
:10153000984700F099FD5E49FB6806221800404B71
:101540009847031E04D111204C4B984700F08CFDA6
:101550005849FB6806221800394B9847031E04D1EE
:101560001120484B984700F07FFD5349FB68062245
:101570001800334B9847031E04D112203F4B984765
:1015800000F072FD4D49FB68062218002C4B98476D
:10159000031E04D112203B4B984700F065FD4849DB
:1015A000FB6806221800264B9847031E04D113201F
:1015B000324B984700F058FD4249FB68062218005C
:1015C0001F4B9847031E04D113202E4B984700F061
:1015D0004BFD3D49FB6806221800194B9847031E36
:1015E00004D11420254B984700F03EFD3749FB6895
:1015F00006221800124B9847031E04D11420214BD9
:10160000984700F031FD3249FB68062218000C4B68
:101610009847031E04D11520184B984700F024FD6D
:101620002C49FB6806221800054B9847031E53D12E
:101630001520144B984700F017FDC046086E0000B7
:10164000235D000041080020106E000044080020C7
:10165000186E0000206E00000E040020286E0000AE
:10166000306E000029080020386E0000406E000037
:101670004C080020486E0000506E00006D3A0000DB
:10168000586E0000F53A0000606E0000686E0000C1
:10169000706E0000786E0000806E0000886E0000A2
:1016A000906E0000986E0000A06E0000A86E000012
:1016B000B06E0000B86E0000C06E0000C86E000082
:1016C000D06E0000D86E0000E06E0000E86E0000F2
:1016D000F06E0000F86E0000E549FB680822180073
:1016E000E44B9847031E07D1E34B1800E34B9847A0
:1016F000E34B984700F0B8FCE249FB68052218006C
:10170000DC4B9847031E04D1DF4B01221A7000F016
:10171000ABFCDE49FB6805221800D64B9847031E38
:1017200006D1D94B00221A70D94B984700F09CFC87
:10173000D849FB6805221800CE4B9847031E04D1F8
:10174000D54B01221A7000F08FFCD249FB680522AC
:101750001800C84B9847031E04D1CF4B00221A70C3
:1017600000F082FCCD49FB6805221800C14B984768
:10177000031E04D1CA4B01221A7000F075FCC9493E
:10178000FB6805221800BB4B9847031E04D1C44BCD
:1017900000221A7000F068FCC349FB68052218009B
:1017A000B44B9847031E22D10123022201210020BD
:1017B000BE4CA0470123022202210020BB4CA047BF
:1017C0000123042201210020B84CA047B84B01227C
:1017D0001A70FB681800A94B9847B64B1800A74B26
:1017E0009847B54B1800A54B984700F03DFCB3490E
:1017F000FB68052218009F4B9847031E22D1002347
:10180000022201210020A94CA0470023022202212C
:101810000020A64CA0470023042201210020A34C55
:10182000A047A34B00221A70FB681800934B9847FF
:10183000A04B1800914B98479F4B18008F4B98472F
:1018400000F012FC9E49FB6805221800894B98475E
:10185000031E37D19B4B9847012301220221002010
:10186000924CA04701230122012100208F4CA04768
:1018700001230022012100208C4CA04701230022DB
:1018800002210020894CA0470123002203210020CF
:10189000864CA0470123002204210020834CA0474E
:1018A000894B9847894B9847FB681800734B9847BA
:1018B000804B1800714B98477F4B18006F4B98472F
:1018C00000F0D2FB8249FB6805221800694B98475B
:1018D000031E36D17B4B98470023012202210020B2
:1018E000724CA04700230122012100206F4CA04729
:1018F00000230022012100206C4CA047002300227D
:1019000002210020694CA04700230022032100206F
:10191000664CA0470023002204210020634CA0470E
:10192000694B9847694B9847FB681800534B984799
:10193000604B1800514B98475F4B18004F4B98472E
:1019400092E36449FB68072218004A4B9847031E3C
:1019500036D15C4B98470123032202210020534CCF
:10196000A0470123032201210020504CA04701235E
:101970000022012100204D4CA0470123002202211A
:1019800000204A4CA0470123002203210020474C9D
:10199000A0470123002204210020444CA0474A4BC9
:1019A00098474A4B9847FB681800344B9847414B7F
:1019B0001800324B9847404B1800304B984753E380
:1019C0004549FB68072218002A4B9847031E36D169
:1019D0003C4B98470023032202210020334CA047B0
:1019E0000023032201210020304CA04700230022C5
:1019F000012100202D4CA0470023002202210020BD
:101A00002A4CA0470023002203210020274CA04796
:101A10000023002204210020244CA0472A4B984791
:101A20002A4B9847FB681800144B9847214B180025
:101A3000124B9847204B1800104B984714E3274946
:101A4000FB68072218000B4B9847031E4AD1244B12
:101A500001221A70FB681800084B9847154B1800B4
:101A6000064B9847144B1800044B9847FCE2C046BD
:101A7000006F0000235D00000C6F0000BD0D000032
:101A8000193B00001C6F00003D080020246F00007F
:101A9000FD2900002C6F0000F9030020346F0000C6
:101AA0004A0800203C6F0000446F0000752C0000C5
:101AB00028080020D06D0000D46D00004C6F00009D
:101AC000546F0000D50E000065320000B90E000012
:101AD0005C6F0000646F00006C6F0000746F0000AA
:101AE00014040020D349FB6807221800D24B984702
:101AF000031E11D1D14B00221A70D14B9847FB68BD
:101B00001800D04B9847D04B1800CE4B9847CF4B7E
:101B10001800CC4B9847A7E2CD49FB680722180074
:101B2000C54B9847031E0FD1CA4B01221A70FB68A0
:101B30001800C44B9847C44B1800C24B9847C34B7E
:101B40001800C04B98478FE2C349FB680722180072
:101B5000B94B9847031E11D1B94B9847BD4B002292
:101B60001A70FB681800B74B9847B74B1800B54B75
:101B70009847B64B1800B34B984775E2B749FB68D6
:101B800007221800AC4B9847031E0FD1B44B01221B
:101B90001A70FB681800AB4B9847AB4B1800A94B69
:101BA0009847AA4B1800A74B98475DE2AD49FB68E0
:101BB00007221800A04B9847031E11D1A04B98474D
:101BC000A74B00221A70FB6818009E4B98479E4B4B
:101BD00018009C4B98479D4B18009A4B984743E23E
:101BE000A149FB6808221800934B9847031E0FD1A8
:101BF0009E4B01221A70FB681800924B9847924B3B
:101C00001800904B9847914B18008E4B98472BE249
:101C10009749FB6808221800874B9847031E11D18B
:101C2000874B9847914B00221A70FB681800854B30
:101C30009847854B1800834B9847844B1800814B7D
:101C4000984711E28B49FB680A2218007A4B9847A3
:101C5000031E26D1884B18007A4B98470020874BEB
:101C6000984703003B6000237B60854CFA220023E9
:101C700038687968A04703000C0019002200814BE6
:101C80000024C9186241080011007F4C7F4A0023DC
:101C9000A04703000C0018007D4B98477D4B9847E8
:101CA000FEE77D49FB6809221800634B9847031E35
:101CB0002FD17A4B1800634B984700206F4B984701
:101CC00003001D0000231E006D4CFA220023280093
:101CD0003100A04703000C0019002200694B0024CA
:101CE000C918624108001100674C684A0023A047E8
:101CF00003000C001800664B9847694B9847694BE6
:101D00009847694B00221A70684B18004D4B984752
:101D1000AAE16749FB6808221800474B9847031E51
:101D20000FD109233B6548230822BA18D21861490C
:101D3000FB681800604B98473B6D9AB25F4B1A8066
:101D400092E15F49FB68082218003B4B9847031E4D
:101D50000FD15C4BFB6444230822BA18D2185A49AD
:101D6000FB681800544B9847FB6C9AB2534B5A804F
:101D70007AE15649FB68082218002F4B9847031E4A
:101D80000FD1504BBB6440230822BA18D2185049D7
:101D9000FB681800484B9847BB6C9AB2474B9A8037
:101DA00062E14C49FB6808221800234B9847031E48
:101DB0000FD1444B7B643C230822BA18D218464901
:101DC000FB6818003C4B98477B6C9AB23B4BDA801F
:101DD0004AE14249FB6808221800174B9847031E46
:101DE0000FD1384B3B6438230822BA18D2183C492B
:101DF000FB681800304B98473B6C9AB22F4B1A8106
:101E000032E13849FB68082218000B4B9847031E43
:101E10006CD12C4BFB6334230822BA18D2183249F8
:101E2000FB681800244B9847FB6B9AB2234B5A81EE
:101E30001AE1C0467C6F0000235D000014040020FE
:101E4000FD290000BD0D0000D06D0000D46D000024
:101E5000846F00002B0800208C6F0000946F00003E
:101E6000490800209C6F0000A46F00004708002074
:101E7000B06F0000BC6F0000C86F0000114B000085
:101E800055580000571B000015580000581B000053
:101E90000100002049010000D46F0000E06F000045
:101EA000193B0000453000003D080020F46F0000A1
:101EB0000870000014700000955C000018040020F9
:101EC00020700000C40900002C7000003870000071
:101ED00044700000507000005C70000068700000EA
:101EE00074700000807000008C7000006049FB6816
:101EF000082218005F4B9847031E0FD15E4BBB634F
:101F000030230822BA18D2185C49FB6818005C4BD1
:101F10009847BB6B9AB25B4B9A81A5E05A49FB6824
:101F200008221800534B9847031E0FD1524B7B6376
:101F30002C230822BA18D2185449FB681800504BB9
:101F400098477B6B9AB24F4BDA818DE05049FB6822
:101F500005221800474B9847031E12D14D4B012212
:101F60001A704D4B00221A70FB6818004B4B9847B3
:101F70004B4B1800494B98474A4B1800474B984722
:101F800072E04949FB68052218003A4B9847031E46
:101F900012D1404B00221A703F4B01221A70FB688D
:101FA00018003E4B98473E4B18003C4B98473D4B22
:101FB00018003A4B984757E03C49FB680722180045
:101FC0002C4B9847031E20D12B230822BA18D21875
:101FD0003749FB6818002A4B98472B230822944660
:101FE000BC4463441A78334B1A70334B01221A7085
:101FF000FB681800294B9847294B1800274B984736
:10200000284B1800254B98472EE02C49FB680722E7
:102010001800184B9847031E0FD1274B00221A7047
:10202000FB6818001D4B98471D4B18001B4B984729
:102030001C4B1800194B984716E02149FB680A22EF
:1020400018000C4B9847031E0ED1FB681800134B69
:102050009847134B1800114B9847124B18000F4B21
:102060009847184B01221A70C046BD4619B0F0BD02
:1020700098700000235D0000C4090000A4700000F7
:10208000955C000018040020B0700000BC700000D7
:10209000C87000001304002010040020BD0D0000D3
:1020A000D06D0000D46D0000D0700000D87000002A
:1020B000E07000004B08002011040020EC700000CC
:1020C000F4700000D008002080B582B000AF274B2C
:1020D0001B7801225340DBB2002B42D0234B01225C
:1020E0001A70234B984700237B6034E0214A7B68B9
:1020F00008211B01D3185B181A78802149420A4332
:102100001A701C4A7B6808211B01D3185B185A7887
:10211000802149420A435A707B68DBB22033D8B22F
:10212000144A7B681B01D31808331978114A7B685D
:102130001B01D31809331B781A000F4B9847030073
:1021400019000C4A7B681B01D31803330A1C1A7050
:102150007B6801337B607B68072BC7DD034B002264
:102160001A70C046BD4602B080BDC046430800207C
:1021700045300000E00000201D31000090B583B024
:1021800000AF78607B681A88944B1B889A421ED9EE
:102190000123032203210020914CA04701230422A4
:1021A000032100208E4CA04701230122042100209E
:1021B0008B4CA0470123012203210020884CA0471B
:1021C0000123042205210020854CA0471DE00023A7
:1021D000032203210020824CA04700230422032174
:1021E00000207F4CA04700230122042100207C4CCA
:1021F000A0470023012203210020794CA04700239F
:10220000042205210020764CA0477B6802331A88FF
:10221000724B5B889A4218D90123002202210020C8
:102220006F4CA04701230022012100206C4CA047E5
:102230000123002204210020694CA0470123002231
:1022400003210020664CA04717E000230022022152
:102250000020634CA0470023002201210020604C95
:10226000A04700230022042100205D4CA04700234A
:102270000022032100205A4CA0477B6804331A88AF
:10228000564B9B889A420CD901230122022100203F
:10229000534CA0470123012201210020504CA047AC
:1022A0000BE000230122022100204D4CA047002317
:1022B0000122012100204A4CA0477B6806331A887E
:1022C000464BDB889A4212D90123022202210020C8
:1022D000434CA0470123022201210020404CA0478B
:1022E00001230322052100203D4CA04711E00023DB
:1022F0000222022100203A4CA047002302220121A1
:102300000020374CA0470023032205210020344C35
:10231000A0477B6808331A88304B1B899A4212D930
:1023200001230222042100202D4CA0470123022278
:10233000032100202A4CA04701230222052100206E
:10234000274CA04711E00023022204210020244C46
:10235000A0470023022203210020214CA047002394
:102360000222052100201E4CA0477B680A331A88F0
:102370001A4B5B899A420CD90123032201210020C8
:10238000174CA0470123032202210020144CA04730
:102390000BE00023032201210020114CA047002361
:1023A0000322022100200E4CA0477B680C331A88C0
:1023B0000A4B9B899A4206D901230422012100205D
:1023C000074CA04705E00023042201210020044C13
:1023D000A047C046BD4603B090BDC04618040020CB
:1023E000752C0000B0B500AF484B1B780C2B00D902
:1023F0007CE09A00464BD3181B689F46454B984794
:102400000123012202210020434CA04774E0414BEC
:10241000984701230222022100203F4CA0476BE095
:102420003C4B984701230022022100203A4CA04750
:1024300062E0384B98470123002201210020364CEE
:10244000A047324B1B780133DAB2304B1A7053E09D
:10245000304B984701230122012100202E4CA04738
:102460004AE02C4B984701230222012100202A4CEC
:10247000A04741E0274B9847012302220321002077
:10248000254CA04738E0234B984701230122032124
:102490000020214CA0472FE01E4B9847012300222B
:1024A000032100201C4CA04726E01A4B984701232B
:1024B000002204210020184CA0471DE0154B98472E
:1024C0000123012204210020134CA04714E0114BEA
:1024D000984701230222042100200F4CA0470BE063
:1024E0000C4B9847094B00221A7005E0094B98479E
:1024F000064B00221A70C046044B1B780133DAB237
:10250000024B1A70C046BD46B0BDC0467C030020D9
:102510003C710000FD290000752C0000B0B500AF33
:102520008E4B1B780A2B00D910E19A008C4BD318E4
:102530001B689F468B4B98470123042201210020F2
:10254000894CA047854B1B780133DAB2834B1A7054
:1025500001E10023042201210020834CA0477F4B8E
:102560001B780133DAB27D4B1A70F4E001230422A8
:10257000012100207C4CA047784B1B780133DAB254
:10258000764B1A70E7E00023042201210020764CEC
:10259000A047724B1B780133DAB2704B1A70DAE045
:1025A00001230422012100206F4CA0476B4B1B78B4
:1025B0000133DAB2694B1A70CDE000230422012105
:1025C0000020694CA047654B1B780133DAB2634B9E
:1025D0001A70C0E00123022201210020624CA047B2
:1025E00001230222022100205F4CA0470123012287
:1025F000032100205C4CA04701230122042100207C
:10260000594CA047554B1B780133DAB2534B1A7023
:10261000A1E00023022201210020534CA047002307
:10262000022202210020504CA04701230122012157
:1026300000204D4CA04701230122022100204A4CDA
:10264000A0470023012203210020474CA04700237C
:10265000012204210020444CA047404B1B78013349
:10266000DAB23E4B1A7076E00023012201210020ED
:102670003D4CA04700230122022100203A4CA047F4
:102680000123032201210020374CA047012303220C
:1026900002210020344CA047012300220321002006
:1026A000314CA04701230022042100202E4CA047DA
:1026B0002A4B1B780133DAB2284B1A704BE0002307
:1026C000032201210020284CA047002303220221DD
:1026D0000020254CA0470123012201210020224C8B
:1026E000A04701230122022100201F4CA047002304
:1026F0000022032100201C4CA047002300220421BB
:102700000020194CA047154B1B780133DAB2134B4C
:102710001A7020E00023012201210020124CA04762
:1027200000230122022100200F4CA0470123022296
:10273000012100200C4CA04701230222022100208D
:10274000094CA047054B00221A7004E0054B98473E
:10275000024B00221A70C046BD46B0BD7D0300206A
:1027600070710000FD290000752C0000B0B500AFAD
:10277000614B1B781A1E614B1B689A4254DA012385
:102780000022012100205E4CA047012300220221EB
:1027900000205B4CA0470123002203210020584C5D
:1027A000A0470123002204210020554CA04701230B
:1027B000012202210020524CA047012301220121C5
:1027C00000204F4CA04701230222022100204C4C44
:1027D000A0470123022201210020494CA0470123E8
:1027E000022204210020464CA0470123022203219B
:1027F0000020434CA0470123012203210020404C2C
:10280000A04701230122042100203D4CA0470123C1
:102810000322022100203A4CA04701230322012178
:102820000020374CA04753E0002300220121002064
:10283000334CA0470023002202210020304CA04747
:1028400000230022032100202D4CA047002300225A
:10285000042100202A4CA04700230122022100204D
:10286000274CA0470023012201210020244CA0472F
:102870000023022202210020214CA0470023022233
:10288000012100201E4CA047002302220421002029
:102890001B4CA0470023022203210020184CA04714
:1028A0000023012203210020154CA0470023012210
:1028B00004210020124CA047002303220221002003
:1028C0000F4CA04700230322012100200C4CA047FD
:1028D0000A4B1B68F92B0CDD074B1B781933DAB256
:1028E000054B1A70044B1B78F92B02D9024B3E2280
:1028F0001A70C046BD46B0BD60010020081100201E
:10290000752C0000B0B500AF384B9847384B1B789A
:102910001A00384BD200D35C022203210020364C2F
:10292000A047334B1B78334ADB00D31801331B78A5
:10293000012201210020304CA0472D4B1B782D4A4D
:10294000DB00D31802331B780222012100202A4C1D
:10295000A047274B1B78274ADB00D31803331B788B
:10296000002201210020244CA047214B1B78214A42
:10297000DB00D31804331B780022022100201E4CF8
:10298000A0471B4B1B781B4ADB00D31805331B7871
:10299000022202210020184CA047154B1B78154A33
:1029A000DB00D31806331B78012202210020124CD1
:1029B000A0470F4B1B780F4ADB00D31807331B7857
:1029C0000222042100200C4CA047094B1B78013344
:1029D000DAB2074B1A70064B1B78192B02D9044B3D
:1029E00000221A70C046BD46B0BDC046FD29000099
:1029F0007E03002010000020752C000080B582B0FE
:102A000000AF00237B6010E00B4A7B681B01D318EA
:102A1000083380221A70084A7B681B01D3180933D7
:102A200080221A707B6801337B607B68072BEBDDAB
:102A3000C046BD4602B080BDE0000020F0B54F4664
:102A40004646C0B495B006AF0823FA18814B110072
:102A50001800814B98472F2308229446BC446344B6
:102A600001221A7000233B63A2E07C4B3A6B1201F7
:102A7000D35C002B6ED0794A3B6B1B01D318083313
:102A80001A7874493B6BCB181B78D31AD9B2734AA6
:102A90003B6B1B01D3180C330A1C1A706F4A3B6B3B
:102AA0001B01D31809331A786A493B6BCB180833DA
:102AB0001B78D31AD9B2694A3B6B1B01D3180D336B
:102AC0000A1C1A70654A3B6B1B01D3180C331B7828
:102AD0001900624A3B6B1B01D3180D331B78CB18CE
:102AE000002B06DD5D4A3B6B1B01D318023301222C
:102AF0001A70584A3B6BD3181A7858493B6B1B0124
:102B0000CB1808331B785340DBB21A0080239A435A
:102B1000131E06D02F2308229446BC44634400228F
:102B20001A704C4A3B6BD31808331A784B493B6BED
:102B30001B01CB1809331B785340DBB21A008023EA
:102B40009A43131E06D02F2308229446BC446344A4
:102B500000221A700823FA183B6BD31819783F4AE1
:102B60003B6B1B01D31803330A1C1A703B4A3B6BA7
:102B70001B01D31803331B783A6B3949082008240A
:102B8000A446BC446044374CA0470823082294461E
:102B9000BC4463441800344B9847082308229446E9
:102BA000BC4463441800314B98473B6B01333B6393
:102BB0003B6B072B00DC58E7284B72229B5C7B6049
:102BC000264B62229B5C3B60244B52229B5C1C0088
:102BD000224B42229B5C1D00204B32229B5C1E003C
:102BE0001E4B22229B5C1A001C4B9B7C9C461B4B61
:102BF0009B7899461E49082008239846B8444044CB
:102C00004B46059363460493039202960195009404
:102C10003B687A68134CA047082308229446BC44BA
:102C200063441800104B9847082308229446BC447C
:102C3000634418000D4B98472F2308229446BC4448
:102C400063441B781800BD460FB00CBC90469946F3
:102C5000F0BDC0462C080020B5310000E000002087
:102C600000710000515C0000BD0D00005D420000DD
:102C700010710000B0B582B000AF05000C0010006C
:102C80001900FB1D2A1C1A70BB1D221C1A707B1D0B
:102C9000021C1A703B1D0A1C1A703B1D1B78002B6E
:102CA0001FD0BB1D1A78FB1D1B78B91D0878F91DB4
:102CB00009781E4C0001201841180831097848B2E3
:102CC000791D097801248C40210049B2014349B2A1
:102CD000C8B2164912018A18D3180833021C1A7098
:102CE00020E0BB1D1A78FB1D1B78B91D0878F91D63
:102CF00009780E4C0001201841180831097849B2B2
:102D0000781D007801248440200040B2C04340B2C6
:102D1000014049B2C8B2054912018A18D3180833D4
:102D2000021C1A70C046BD4602B0B0BDE0000020D3
:102D300090B58BB000AF2723FB1800221A70002338
:102D40003B6225E01C4B3A6A1201D35C19001A4A17
:102D50003B6A1B01D31803331B785A1E9341DBB225
:102D60000B4012D0144A3B6A1B01D31803331B7863
:102D70003A6A12493800124CA0473B001800114B28
:102D800098472723FB1801221A703B6A01333B62E4
:102D90003B6A072BD6DD2723FB181B780122534003
:102DA000DBB2002B03D0084B1800064B9847C046F7
:102DB000BD460BB090BDC046E00000202871000069
:102DC000515C0000BD0D00003471000080B586B07C
:102DD00000AF39601100FB1D021C1A70BB1D0A1CDC
:102DE0001A70FB1D1B789AB20823FB181A80BB1DB2
:102DF0001B789AB20823FB185A800823FB183A68FC
:102E00005A600823FB1800221A720823FB180022BC
:102E10005A720823FB1800229A721623FB1800220C
:102E20001A800823FA18054B11001800044B984724
:102E300003001800BD4606B080BDC0460C1100203E
:102E4000F10A000090B58BB000AF0400080011003B
:102E50003B60FB1D221C1A70BB1D021C1A707B1DDF
:102E60000A1C1A702523FB1800221A702023FB1855
:102E7000BA1D12781A702023FB18FF225A70FB1D0E
:102E80001B789BB28022520013439AB21423FB1882
:102E90001A807B1D1B789AB21423FB185A801423C6
:102EA000FB182022BA185A601423FB1800221A7249
:102EB0001423FB1800225A721423FB1800229A7262
:102EC0002623FB1800221A802523FC181423FA1845
:102ED000234B11001800234B98470300237026232F
:102EE000FB181B882622BA18591C11800A2B03D103
:102EF0002523FB181B782EE02523FB181B78002BBD
:102F0000E2D1FB1D1B789AB20823FB181A807B1DA7
:102F10001B789AB20823FB185A800823FB183A68DA
:102F20005A600823FB1800221A720823FB1800229B
:102F30005A720823FB1800229A722523FC180823D2
:102F4000FA18074B11001800074B9847030023702D
:102F50002523FB181B781800BD460BB090BDC0465A
:102F60000C110020F10A00004909000080B584B06E
:102F700000AF0200FB1D1A700F23FB18FA1D127818
:102F8000D2091A700E23FB18FA1D127852091A7012
:102F90000D4BBB600F23FB181B78002B0FD10F23A9
:102FA000FB181B789B0010229446BC446344083BEA
:102FB0001A680E23FB181B78DB01D31800E00023EE
:102FC0001800BD4604B080BD0044004180B582B009
:102FD00000AF0200FB1D1A70FB1D1B781800034B8D
:102FE000984703001800BD4602B080BD6D2F000059
:102FF00080B584B000AF0200FB1D1A70BB1D0A1C17
:103000001A70FB1D1B7818000D4B98470300FB60DE
:10301000FB1D1B781F22134001229A401300BB6046
:10302000BB1D1B78002B03D0FB68BA689A6102E0D5
:10303000FB68BA685A61C046BD4604B080BDC04650
:10304000CD2F000090B585B000AF0F23FB180022F4
:103050001A703B1D00225A700023BB6036E03B1DF6
:1030600000221A70BB68DBB22033DBB2FC1D391DB5
:1030700002221800284B984703002370FB1D1B7881
:10308000002B20D13B1D01221A70BB68DBB220331C
:10309000DBB2FC1D391D022218001F4B98470300AC
:1030A0002370FB1D1B78002B0DD10122BB689A40B9
:1030B00013005AB20F23FB181B785BB213435AB2AA
:1030C0000F23FB181A70BB680133BB60BB68072B6A
:1030D000C5DD3B1D80225A703B1D12221A70BC1D9B
:1030E0003B1D0222190021200B4B9847030023703F
:1030F0003B1D13221A70BC1D3B1D0222190021200A
:10310000054B9847030023700F23FB181B7818000A
:10311000BD4605B090BDC046CD2D000090B585B030
:1031200000AF040008001100FB1D221C1A70BB1D1B
:10313000021C1A707B1D0A1C1A700F23FB18002238
:103140001A700C23FB1812221A700C23FB18BA1DDC
:1031500012785A700F23FC180C23F918FB1D1B78EA
:1031600002221800124B9847030023700C23FB180F
:1031700013221A700C23FB187A1D12785A700C2334
:10318000F918FB1D1B7802221800094B9847030011
:1031900019000F23FB180F22BA1812780A431A706D
:1031A0000F23FB181B781800BD4605B090BDC04624
:1031B000CD2D0000B0B584B000AF786039600E232B
:1031C000FB1800221A700F23FB1800221A703EE031
:1031D0000F23FB181B782033D8B20F23FB181B7862
:1031E0007A68D3180E22BC18012212211C4DA84760
:1031F000030023700F23FB181B782033D8B27B68A1
:1032000008331A000F23FB181B78D318012213214F
:10321000134CA047030019000E23FB180E22BA1806
:1032200012780A431A700F23FB181B783A68D318D8
:103230000E22BA1812781A700E23FB1800221A7088
:103240000F23FB181A780F23FB1801321A700F2373
:10325000FB181B78072BBBD9C046BD4604B0B0BDD8
:10326000452E0000F0B587B000AF00210720324B9B
:1032700098470020314B984703001D0000231E0093
:103280002F4CFA22002328003100A04703000C0035
:10329000190022002B4B0024C918624108001100BC
:1032A000294C2A4A0023A04703000C001800284B91
:1032B000984701210720204B984700201F4B984733
:1032C00003003B6000237B603868796803000C00D2
:1032D000DA0E65017D617D6915437D615B013B61AE
:1032E0003C697D6902000B00A41A9D4123002C005B
:1032F0009A0FA500FD60FD681543FD609B00BB6053
:1033000003000C00B968FA685B1854410D490022AB
:103310005B185441180021000B4C0C4A0023A047B5
:1033200003000C0018000A4B98470A4B9847C04608
:10333000BD4607B0F0BDC046F12F0000114B0000A4
:1033400055580000571B000015580000581B00007E
:10335000010000204530000080B584B000AF0200BD
:10336000FB1D1A700F23FB18FA1D1278D2091A7070
:103370000E23FB18FA1D127852091A700D4BBB6010
:103380000F23FB181B78002B0FD10F23FB181B7882
:103390009B0010229446BC446344083B1A680E23E9
:1033A000FB181B78DB01D31800E000231800BD4692
:1033B00004B080BD0044004180B584B000AF7860A7
:1033C0007B681B68FB60FB685B7EDBB25BB2002B3B
:1033D00001DA012300E000231800BD4604B080BDDF
:1033E00080B586B000AF78607B681B683B613B6945
:1033F0001B7EDBB2FB6000237B61FB680122134074
:1034000003D07B69012213437B61FB6804221340D4
:1034100003D07B69022213437B61FB6802221340C5
:1034200003D07B69042213437B617B691800BD468E
:1034300006B080BD80B584B000AF786039607B682D
:103440001B68BB600023FB603B680122134003D074
:10345000FB6801221343FB603B680222134003D048
:10346000FB6804221343FB603B680422134003D033
:10347000FB6802221343FB60FB68DAB2BB681A7672
:10348000C046BD4604B080BD80B584B000AF786052
:103490007B681B68FB60C0467B6818000B4B984735
:1034A000031EF9D1FB681B7BDBB202221343DAB2A5
:1034B000FB681A73C0467B681800044B9847031ECC
:1034C000F9D1C046BD4604B080BDC046B933000046
:1034D00080B584B000AF786039607B681800184B05
:1034E000984702000123134001D1052323E07B68A4
:1034F0001B68FB60C0467B681800124B9847031E90
:10350000F9D1FB685B8B9AB23B681A807B6801211A
:1035100018000D4B98477B681800094B984702002C
:103520000423134006D07B6804211800064B9847FB
:103530001E2300E000231800BD4604B080BDC04635
:10354000E1330000B93300003534000080B582B0AB
:1035500000AF0200FB1D1A70FB1D1B781800034B07
:10356000984703001800BD4602B080BD59330000E3
:1035700080B584B000AF0200FB1D1A70BB1D0A1C91
:103580001A70FB1D1B7818000D4B98470300FB6059
:10359000FB1D1B781F22134001229A401300BB60C1
:1035A000BB1D1B78002B03D0FB68BA689A6102E050
:1035B000FB68BA685A61C046BD4604B080BDC046CB
:1035C0004D35000080B582B000AF094B1800094BA3
:1035D0009847BA1D064B11001800074B9847031E69
:1035E000052BF6D0BB1D1B881800BD4602B080BD60
:1035F0001811002089340000D1340000F0B58FB0DC
:1036000000AFF86201211920534B98470020534B1B
:10361000984703003B6100237B61514B00243869CC
:103620007969C01861414F4C4F4A0023A0470300FD
:103630000C0018004D4B984700211920464B984725
:103640000020464B98470300BB610023FB61BB6928
:10365000FC699A0FA0007862786A104378629B0038
:103660003B623B6A7C6AB969FA695B1854411A0F7C
:10367000260116431D01ED1AA6412B0034003849DE
:1036800000225B18544118002100364C364A0023B2
:10369000A04703000C001800344B984700237B63BD
:1036A00052E0002118202C4B984700202B4B9847C4
:1036B0000300BB600023FB602D4C28220023B86868
:1036C000F968A04703000C0019002200244B0024D5
:1036D000C918624108001100224C234A0023A04768
:1036E00003000C001800214B98477B6B5B00FA6AC3
:1036F000D418204B98470300238001211820164B33
:1037000098470020154B984703003B6000237B60DF
:10371000174C2822002338687968A04703000C0062
:10372000190022000E4B0024C91862410800110044
:103730000C4C0D4A0023A04703000C0018000B4B53
:1037400098477B6B01337B637B6B062BA9DDC046FF
:10375000BD460FB0F0BDC04671350000114B0000F2
:10376000BFCF6A0015580000C0CF6A0001000020DA
:1037700055580000C535000080B500AF1D4B9B7B40
:10378000DB07DB0FDBB2012B31D11B4B1A681B4B64
:103790000521100098470B1E07D1194B01221A7002
:1037A000184B1B685A1C174B1A60134B1B685A1C8A
:1037B000114B1A60104B1B68FA2B15DD114B0022C0
:1037C0001A60114B1B685A1C0F4B1A600E4B1A687B
:1037D0000A4B0521100098470B1E02D10B4B01220A
:1037E0001A70054B00221A60024B10229A73C046D1
:1037F000BD4680BD002C0042081100200958000081
:10380000D40C0020DC0C0020E40C0020E80C00208C
:10381000F0B587B004AF2B4B1B78DBB2002B26D062
:10382000294B1800294B9847274B1800284B9847DD
:10383000254B1B881E00244B5B887B60224B9B889A
:103840001A00214BDB881C001F4B1B891D001E4BDF
:103850005B892049204803930295019400927B687C
:1038600032001E4CA0471C4B18001D4B98471D4BA7
:103870001A681D4B1921100098470B1E16D11B4BBF
:103880001B78DBB2002B02D0194B98470EE0194B86
:103890001B78DBB2002B02D0174B984706E0174B82
:1038A0001B78DBB2002B01D0154B9847154B1B78CA
:1038B000DBB2002B01D0144B9847C046BD4603B085
:1038C000F0BDC0463D08002060110020FD3500001D
:1038D0007D2100009C71000020110020515C00003F
:1038E0005D420000DC0C0020095800001404002098
:1038F000E52300002B0800201D25000049080020BA
:1039000005290000470800206D27000080B584B01D
:1039100000AF0200FB1D1A700F23FB18FA1D12786E
:10392000D2091A700E23FB18FA1D127852091A7068
:103930000D4BBB600F23FB181B78002B0FD10F23FF
:10394000FB181B789B0010229446BC446344083B40
:103950001A680E23FB181B78DB01D31800E0002344
:103960001800BD4604B080BD0044004180B582B05F
:1039700000AF0200FB1D1A70FB1D1B781800034BE3
:10398000984703001800BD4602B080BD0D39000005
:1039900080B582B000AF78607B6800221A707B68C7
:1039A00001225A707B6800229A70C046BD4602B060
:1039B00080BDC04680B584B000AF0200FB1D1A7008
:1039C000BB1D0A1C1A70FB1D1B7818000D4B984775
:1039D0000300FB60FB1D1B781F22134001229A404D
:1039E0001300BB60BB1D1B78002B03D0FB68BA68BB
:1039F0009A6102E0FB68BA685A61C046BD4604B0ED
:103A000080BDC0466D39000080B582B000AF3B1D5F
:103A10001800134B98473B1D01225A703B1D012291
:103A20001A703B1D190005200E4B98473B1D1900CD
:103A300007200C4B9847012107200B4B98473B1D53
:103A400002221A703B1D19001B20064B98470021CB
:103A50001B20054B9847C046BD4602B080BDC046FE
:103A60009139000019050000B5390000F0B583B0A8
:103A700000AF0200FB1D1A70FB1D1B78002118000F
:103A8000154B98470020154B984703001D00002355
:103A90001E00134C9622002328003100A04703008B
:103AA0000C00190022000F4B0024C91862410800C5
:103AB00011000D4C0D4A0023A04703000C00180014
:103AC0000B4B9847FB1D1B7801211800024B9847B0
:103AD000C046BD4603B0F0BDB5390000114B000033
:103AE00055580000571B000015580000581B0000D7
:103AF0000100002080B582B000AF0200FB1D1A70EB
:103B0000FB1D1B7801211800024B9847C046BD469B
:103B100002B080BDB5390000F8B500AF0021072024
:103B2000244B98470020244B984703001D00002396
:103B30001E00224C3222002328003100A04703003F
:103B40000C00190022001E4B0024C9186241080015
:103B500011001C4C1C4A0023A04703000C00180055
:103B60001A4B984701210720124B98470B20184BFE
:103B700098470C20164B98470D20154B98470E2060
:103B8000134B98470F20124B98471020104B984723
:103B900011200F4B984712200D4B984713200C4BC8
:103BA000984714200A4B98471520094B9847C04660
:103BB000BD46F8BDB5390000114B00005558000056
:103BC000571B000015580000581B00000100002082
:103BD000F53A0000F0B595B002AF7860BC4A7B685A
:103BE00011001800BB4B9847031E56D0BA4B1B68F8
:103BF000032B52DDB84B00221A600023BB63B74A87
:103C00007B6811001800B34B984703003B643823CE
:103C1000FA18B3493B6C1800B24B9847BA6BB24BD9
:103C20005A60B24A7B6811001800AA4B98470300FB
:103C30003B643B6C002B09D03423FA18AC493B6C35
:103C40001800A84B98477A6BA74B9A60A94B9847E6
:103C50000020A94B984703001D0000231E00A74C1D
:103C6000FA225200002328003100A04703000C0074
:103C700019002200A24B0024C9186241080011005B
:103C8000A04CA14A0023A04703000C0018009F4B42
:103C900098479F4B18009F4B98479F4A7B6811009D
:103CA00018008C4B9847031E02D08B4B00221A60E1
:103CB0009A4A7B6811001800864B9847031E12D061
:103CC000854B00221A60884B00225A70864BDA68B6
:103CD000854913009B009B189B00CB1810330022D2
:103CE0001A70844B98478E4A7B6811001800794BF4
:103CF0009847031E3CD08B4A7B6811001800754B17
:103D00009847031E07D1884A7B6811001800714B41
:103D10009847031E2CD0704B00221A602C23FC18ED
:103D20003023FA18814978682823FB180093230070
:103D30006C4CA0472023FC183023FA187C49786883
:103D40002823FB1800932300664CA047664B0122F2
:103D50005A70FA6A644913009B009B189B00CB18A9
:103D6000103301221A70FA6A5F4BDA60614B984790
:103D70006B4A7B6811001800564B9847031E00D011
:103D8000A1E0684A7B6811001800524B9847031E57
:103D900008D1654A7B68110018004E4B9847031EF6
:103DA00000D190E0634A7B6811001800494B9847A6
:103DB000031E00D187E04C4B5B689A1C464B1B6886
:103DC0009A4200D07FE0444B1B68002B00DC7AE075
:103DD000454B5B68002B76DD3F4B00221A600023C9
:103DE0007B6466E07B680A211800534B9847030008
:103DF000FB637A6C13009B009B189A009B181A00B7
:103E0000FB6B9B18FB63FB6B002B4FD01023FC1844
:103E10001423FA184949F86B0C23FB18009323006C
:103E2000304CA0470420464B9847030018002E4909
:103E30007A6C13009B009B189B00CB181C331860F6
:103E400029497A6C13009B009B189B00CB181C33EC
:103E50001B681022BA18110018003A4B9847092025
:103E6000374B9847030018001F497A6C13009B00DA
:103E70009B189B00CB18183318601B497A6C1300F1
:103E80009B009B189B00CB1818331B681422BA1890
:103E9000110018002B4B9847F96813487A6C1300EF
:103EA0009B009B189B00C318203319607B6C013367
:103EB0007B640D4B5A687B6C9A4293DC0A4B01225F
:103EC0001A700C4B9847C046BD4613B0F0BDC046B3
:103ED000D0710000475D0000D80C0020E8710000A0
:103EE000F0710000955C000064010020FC7100008E
:103EF00004720000A5420000114B0000555800005C
:103F0000571B000015580000581B0000010000203E
:103F1000107200005D420000147200001C7200006C
:103F2000247200002C720000307200003472000015
:103F3000507200006C720000E95C000070720000BA
:103F4000CD5A0000055D000080B582B000AF0200D0
:103F5000FB1D1A70064BFA1D127811001F220A4031
:103F6000012191400A001A60C046BD4602B080BDE2
:103F700000E100E0B0B582B000AF02003960FB1D87
:103F80001A70FB1D1B787F2B32D92F4CFB1D1B7821
:103F90001A000F231340083B99082B4AFB1D1B787E
:103FA00018000F230340083B9B0806339B00D318DF
:103FB00004331B68FA1D1278100003220240D2005D
:103FC000FF2090400200D2431A403B689B01FF2033
:103FD0001840FB1D1B781D0003232B40DB0098407D
:103FE00003001A438B1D9B00E31804331A6027E07B
:103FF000164CFB1D1B785BB29B081449FA1D127806
:1040000052B29208C03292005258F91D0978080045
:1040100003210140C900FF2088400100C94311402D
:104020003A689201FF201040FA1D12781500032211
:104030002A40D200904002000A43C0339B001A512C
:10404000C046BD4602B0B0BD00ED00E000E100E0BA
:1040500080B500AF134A136801210B431360C046BB
:10406000104B1B68DB07DB0FDBB2002BF8D10D4BCD
:10407000DB69DB07DB0FDBB2002BF1D10A4B0A4A0D
:10408000126A08210A431A62084B094A5A80C0463C
:10409000064B5B78DBB25BB2002BF9DBC046BD465A
:1040A00080BDC046000C004200040040000C0040EF
:1040B0001540000080B582B000AF1C4B8022520238
:1040C0005A601A4B8022D2029A60184B8022D20288
:1040D0009A61164A3923D35CDBB21A0020231340BD
:1040E0007B60124A7B68DBB202210B43D9B23923D1
:1040F000D1540E4A52230121D1540C4A3823D35CA7
:10410000DBB21A00202313407B60084A7B68DBB2D5
:1041100002210B43D9B23823D154044A502303213E
:10412000D154C046BD4602B080BDC04600440041E7
:1041300080B500AF1A4B98471A4B98471A4B00228C
:104140001A601A4B00221A60194B1A4A1A60184B4F
:10415000194A9A81164BC02292025A60C046144BEB
:10416000DB695B07DB0FDBB2002BF8D1104B0422BD
:104170009A750A20114B984701210A20104B984745
:104180000B4A136802210B431360C046084BDB69DE
:104190009B07DB0FDBB2002BF8D1C046BD4680BDCC
:1041A00051400000B540000080030020D80C0020E2
:1041B000000C00428400204014FBFFFF493F000038
:1041C000753F000080B500AF1F4B1B7E5B07DB0F08
:1041D000DBB2002B35D01D4B1B681A1E1C4B9A42BC
:1041E00017D91A4B00221A60184B1B68164A128DF9
:1041F00092B2D1B2174AD154144B1B68154AD35C02
:10420000DBB20D2B1DD1144B1B685A1C124B1A60CC
:1042100017E00E4B1B68591C0C4A11600A4A128D9C
:1042200092B2D1B20B4AD154084B1B68013B094AE8
:10423000D35CDBB20D2B04D1074B1B685A1C064B19
:104240001A60C046BD4680BD000C004280030020BD
:10425000FF030000D4080020D80C002080B584B0F3
:1042600000AF78600023FB600FE00D4B1B7EDB0787
:10427000DB0FDBB2012B08D10949FB685A1CFA603D
:104280007A68D3181B789BB20B857A68FB68D318C1
:104290001B78002BE9D1C046BD4604B080BDC046A6
:1042A000000C004280B582B000AF00237B6007E0C5
:1042B000094A7B68D31800221A707B6801337B603F
:1042C0007B68064A9342F3D9054B00221A60C04628
:1042D000BD4602B080BDC046D4080020FF030000E8
:1042E0008003002080B500AFC046BD4680BDC046FB
:1042F00080B582B000AF104B1B68002B12D1EFF3DA
:1043000010837B607B68002B09D172B6BFF35F8F8F
:104310000A4B00221A700A4B01221A7002E0084B65
:1043200000221A70044B1B685A1C034B1A60C046CB
:10433000BD4602B080BDC04684030020F0020020CC
:104340008803002080B500AF0B4B1B685A1E0A4B38
:104350001A60094B1B68002B0AD1084B1B78DBB293
:10436000002B05D0064B01221A70BFF35F8F62B697
:10437000C046BD4680BDC04684030020880300209F
:10438000F002002080B582B000AF78607B68012227
:104390005A607B6800225A707B6806221A707B681C
:1043A00000221A727B6800225A72C046BD4602B0D3
:1043B00080BDC04680B582B000AF78607B680322C4
:1043C0001A707B6800225A707B6801229A70C0467E
:1043D000BD4602B080BDC04680B582B000AF0200CD
:1043E000FB1D1A70034AFB1D1B781372C046BD46A5
:1043F00002B080BD0004004080B582B000AF020072
:10440000FB1D1A70BB1D0A1C1A70FB1D1B78012BAB
:1044100008D0022B0BD0002B0ED10B4ABB1D1B78F2
:1044200053720BE0084ABB1D1B78937206E0064AE4
:10443000BB1D1B78D37201E0172300E00023180096
:10444000BD4602B080BDC0460004004080B582B0C9
:1044500000AF0200FB1D1A70084AFB1D1B780F21DC
:104460000B40D9B253680F20014049001E208343FE
:104470000B435360C046BD4602B080BD00400041C2
:1044800080B500AFC046044BDB6810221340FAD061
:10449000C046BD4680BDC0460008004080B500AFA4
:1044A0000C4B02229A840C4B98470A4A0B4B9B6890
:1044B000D362084A094B5B689362064B00229A84D8
:1044C000054B9847034A054B1B689BB29384C04633
:1044D000BD4680BD00080040814400008C030020E0
:1044E00080B582B000AF0200FB1D1A70FB1D1B7867
:1044F000082B40D89A00224BD3181B689F46214BAB
:104500001B6939E0204B1B6A9B059B0FDBB21A002D
:104510001E4BD34030E080231B022DE080231B0282
:104520002AE0184B5B6927E0164B1B6802221340F8
:1045300001D1002320E0164B9847124B1B68042240
:10454000134009D00020134B984702000D4B9B6885
:104550001B041B0C53430FE00F4B0DE00A4A502382
:10456000D35CDBB21A000423134001D1002303E023
:10457000044BDB6800E000231800BD4602B080BD9C
:10458000887200008C0300200008004000127A00AE
:1045900081440000554D0000006CDC0280B584B001
:1045A00000AF78601A4B1B6AFB607B681B781A1C93
:1045B00003231340DAB20D23FB1803210A40100035
:1045C0001A7803218A43111C021C0A431A707B6863
:1045D0009A780C23FB18D0011A787F210A40111C0D
:1045E000021C0A431A707B685A780C23FB180121BD
:1045F0000A4090011A7840218A43111C021C0A4388
:104600001A70034BFA681A62C046BD4604B080BDFA
:104610000008004080B582B000AF0200FB1D1A7098
:10462000FB1D1B78082B3BD89A00214BD3181B6825
:104630009F46204B1F4A126A02210A431A62002336
:1046400031E01C4B1B4A926902210A439A6129E01E
:10465000184A184B1B8A9BB202210B439BB2138250
:1046600020E0144A134B9B8A9BB202210B439BB25E
:10467000938217E0104B1B6802221A430E4B1A60FC
:104680000E4B98470EE00B4A0A494423CB5CDBB241
:1046900002210B43D9B24423D15403E0002302E0AA
:1046A000172300E000231800BD4602B080BDC046BD
:1046B000AC720000000800408C0300209D44000004
:1046C00080B582B000AF3B0005221A7000237B60EA
:1046D00009E07B68DBB23A0011001800054B9847EF
:1046E0007B6801337B607B68242BF2D9C046BD46D2
:1046F00002B080BDE94B000080B5A0B000AF634BB5
:10470000C222D2009A600020614B9847614B9847C3
:104710007C23FB181800604B98477C23FB18002271
:104720001A707C23FB1801229A707C23FB1800224C
:104730005A707C23FB181800584B98470620584B9A
:104740009847584B98476423FB181800564B9847D6
:104750006423FB1806221A706423FB1801225A6096
:104760006423FB1801221A726423FB1800225A7278
:104770006423FB18190001204C4B984701204C4B37
:1047800098475823FB181800474B98475823FB18A5
:1047900006221A705823FB1801225A605823FB186E
:1047A00001221A725823FB1800225A725823FB1850
:1047B000190002203D4B984702203D4B98474C235F
:1047C000FB181800384B98474C23FB1806221A7028
:1047D0004C23FB1801225A604C23FB1801221A7249
:1047E0004C23FB1800225A724C23FB18190003209B
:1047F0002E4B984703202E4B98474023FB18180058
:10480000294B98474023FB1806221A704023FB18B7
:1048100001225A604023FB1800221A724023FB1821
:1048200000225A724023FB18190004201F4B98479E
:1048300004201F4B984700201E4B98470021002062
:104840001D4B9847002101201B4B98470021022057
:10485000194B98473B1D1800134B98473B1D0622E8
:104860001A703B1D01225A603B1D01221A723B1D2A
:1048700000225A723B1D190000200C4B9847002063
:104880000B4B9847C046BD4620B080BD0008004095
:104890004D440000C1460000B54300009D450000A6
:1048A0001546000061490000854300009149000061
:1048B000B54A0000D9430000F943000080B582B03A
:1048C00000AF02003960FB1D1A70FB1D1B78012B25
:1048D0000AD0022B0FD0002B14D10E4B0D4A916938
:1048E0003A680A439A610FE00A4B0A4AD1693A686A
:1048F0000A43DA6108E0074B064A116A3A680A433C
:104900001A6201E0172300E000231800BD4602B040
:1049100080BDC0460004004080B500AF024B984700
:10492000C046BD4680BDC046F142000080B500AF24
:10493000024B9847C046BD4680BDC0464543000077
:1049400080B500AF054B5B78DBB25BB2002B01DAC0
:10495000012300E000231800BD4680BD000C00408C
:1049600080B500AF08210020074B9847074B012274
:104970001A70C046054B1B78DBB21A0001231340A6
:10498000F8D1C046BD4680BDBD480000000C0040C7
:1049900080B586B000AF02003960FB1D1A70FB1DA8
:1049A0001B787B61FB1D1B783B613B681B781B02FE
:1049B0001A007B6913437B613B685B78002B04D052
:1049C0007B698022D20213437B613B685B7A002BB8
:1049D00004D07B698022120313437B613B685B68D0
:1049E000012B2CD93B685A683B685B68013B13403C
:1049F0001AD10023FB600223BB6005E0FB68013392
:104A0000FB60BB685B00BB603B685A68BB689A424E
:104A1000F4D8FB681B023A6913433B617B6980222F
:104A2000520313437B610AE03B685B681B023A69EF
:104A300013433B617B698022920213437B613B6895
:104A40001B7A002B04D07B698022920313437B6185
:104A5000C046134B9847031EFBD1124B9847124A8E
:104A6000FB1D1B781370C0460D4B9847031EFBD1EE
:104A70000E4B3A699A60C046094B9847031EFBD11A
:104A80000A4B0A4A51688022520211407A690A434D
:104A90005A60074B9847C046BD4606B080BDC04629
:104AA0004149000019490000080C0040000C00407A
:104AB0002D49000080B582B000AF0200FB1D1A70C6
:104AC000C0460E4B9847031EFBD10D4B98470D4A2D
:104AD000FB1D1B781370C046084B9847031EFBD183
:104AE000094B094A5268802149020A435A60074B20
:104AF0009847C046BD4602B080BDC046414900004F
:104B000019490000040C0040000C00402D49000031
:104B100080B586B000AF0200FB1D1A70C0462A4B5C
:104B20009847031EFBD1294B9847294AFB1D1B7848
:104B30001370C046244B9847031EFBD1254B5B687E
:104B4000DB04DB0EDBB21800234B984703007B61CC
:104B50001F4AFB1D1B7813701E4B5B68DB02DB0FCB
:104B6000DAB21323FB181A701C4AFB1D1B78137052
:104B7000C046154B9847031EFBD1164B9B681B0282
:104B80001B0C9BB2FB60164B98471323FB181B783A
:104B9000002B09D1FB68012B06D9124BF968786903
:104BA000984703007B610AE01323FB181B78002B56
:104BB00005D0FB6801337A69DA4013007B617B69B9
:104BC0001800BD4606B080BD4149000019490000EB
:104BD000040C0040000C0040E1440000080C0040C0
:104BE0002D4900002955000080B584B000AF0200B7
:104BF0003960FB1D1A70FB1D1B78FB603B681B783E
:104C00001B021A00FB681343FB60FB1D1B78180096
:104C1000044B9847044BFA6892B25A80C046BD468E
:104C200004B080BD754C0000000C004080B582B01F
:104C300000AF0200FB1D1A700A4B98470A4AFB1D81
:104C40001B7813700949094B5B889BB28022D20103
:104C500013439BB24B80064B9847C046BD4602B0FB
:104C600080BDC04619490000020C0040000C004005
:104C70002D49000080B584B000AF0200FB1D1A7002
:104C80001C4B98471C4AFB1D1B7813701B4B5B8801
:104C90001B051B0FDBB2FB60184A538818490B40F9
:104CA0005380164A154B5B889BB216490B409BB24A
:104CB0005380C046114B5B889BB21A008023DB01F6
:104CC0001340F7D10D4AFB68DBB2191C0F230B40D0
:104CD000D9B25388081C0F210140080208490B4033
:104CE000191C031C0B435380074B9847C046BD4615
:104CF00004B080BD19490000020C0040000C0040C7
:104D0000FFF0FFFFFFBFFFFF2D49000080B582B01D
:104D100000AF0200FB1D1A70094B9847094AFB1DA2
:104D20001B781370084A084B5B889BB207490B43FA
:104D30009BB25380064B9847C046BD4602B080BD2B
:104D400019490000020C0040000C004000C0FFFFA9
:104D50002D49000080B584B000AF0200FB1D1A7021
:104D60000D4B98470D4AFB1D1B7813700C4B5B884D
:104D70001B051B0FDAB20F23FB181A70094B98475B
:104D80000F23FB181B781800074B984703001800E7
:104D9000BD4604B080BDC04619490000020C004069
:104DA000000C00402D490000114B000080B584B07C
:104DB00000AF0200FB1D1A700F23FB18FA1D1278BA
:104DC000D2091A700E23FB18FA1D127852091A70B4
:104DD0000D4BBB600F23FB181B78002B0FD10F234B
:104DE000FB181B789B0010229446BC446344083B8C
:104DF0001A680E23FB181B78DB01D31800E0002390
:104E00001800BD4604B080BD0044004180B588B0A4
:104E100000AFF860B9607A600023FB617B68DB78E3
:104E200001225340DBB2002B35D07B681B78802BEE
:104E30000BD0FB69802252021343FB617B681B7815
:104E40001B061A00FB691343FB617B685B78002B30
:104E500003D07B685B78022B10D1FB698022920221
:104E60001343FB617B689B78002B04D0FB69802295
:104E7000D2021343FB61FB68BA685A607B685B78B7
:104E8000012B03D07B685B78022B07D1FB69224A98
:104E90001340FB6102E0FB68BA685A60BB681B0400
:104EA0001B0CBB61BB681B0C7B61BA69FB691343BC
:104EB000A022D2051A43FB689A627A69FB69134300
:104EC000D02212061A43FB689A627B68DB780122C3
:104ED0005340DBB2002B1AD0FA698023DB02134067
:104EE0000AD07B689B78012B03D1FB68BA689A6172
:104EF00002E0FB68BA685A617B685B78012B03D0DB
:104F00007B685B78022B02D1FB68BA689A60C04666
:104F1000BD4608B080BDC046FFFFFBFF80B584B032
:104F200000AF02003960FB1D1A70FB1D1B781800D2
:104F30000A4B98470300FB60FB1D1B781F221340A0
:104F400001229A401300BB603A68B968FB681800F8
:104F5000034B9847C046BD4604B080BDAD4D000030
:104F60000D4E000080B500AFC046BD4680BDC046B6
:104F700080B500AF064B9847064B9847064B9847BD
:104F8000064B9847064B9847C046BD4680BDC04675
:104F9000F9460000E5420000654F0000AD03000047
:104FA000654F000080B582B000AF2F4B7B602F4B68
:104FB0003B607A683B689A420CD007E03B681A1D58
:104FC0003A607A68111D796012681A603A68284B55
:104FD0009A42F3D3274B3B6004E03B681A1D3A60CA
:104FE00000221A603A68244B9A42F6D3234B7B6026
:104FF000234B7A68FF218A439A60224A90235B0000
:105000000221D150204AD37803218B43191C02235B
:105010000B43D3701C4AD3780C218B43191C0823F3
:105020000B43D370194A937B30218B43191C2023E7
:105030000B439373154A937B0C218B43191C082354
:105040000B439373114A937B03218B43191C022357
:105050000B4393730E4A536880210B4353600D4BEF
:1050600098470D4B9847FEE7C474000000000020ED
:105070005C0300205C030020701100200000000091
:1050800000ED00E000700041005000410048004188
:1050900000400041815A00002D51000080B582B0CF
:1050A00000AF044B7B60EFF305833B603B687B60A4
:1050B000F9E7C0460F27000080B584B000AF7860E4
:1050C0000A4B1B68002B02D1084B094A1A60074B98
:1050D0001B68FB60054B1A687B68D218034B1A608B
:1050E000FB681800BD4604B080BDC046A403002084
:1050F0007031002080B500AF044B01221A70BFF35D
:105100005F8F62B6C046BD4680BDC046F00200203B
:1051100080B500AF72B6BFF35F8F034B00221A70E9
:10512000C046BD4680BDC046F0020020F0B58FB03D
:1051300000AFDB4B9847DB4B9847DB4B9847DB4B8B
:105140009847DB4B98470020DA4B984703001D0037
:1051500000231E00D84CD94A002328003100A04764
:1051600003000C0019002200D54B0024C91862412D
:1051700008001100D34CD44A0023A04703000C00C0
:105180001800D24B9847D24B984700233B6300232B
:105190007B6325E0CF4A7B6BD3181B78DBB20A3BDD
:1051A0005A425341D9B27B6B5A1CCA4B9B5CDBB24F
:1051B0005A425341DBB20B40DBB2002B06D0C54B49
:1051C0001800C54B9847C54B984706E0C14A7B6B12
:1051D000D3181B78DBB2002B07D07B6B01337B63CA
:1051E0007A6BBF4B9A42D5D900E0C046BD4B180040
:1051F000BD4B9847BD4B1B78002B06D0BB4A002304
:105200001370BB4B9847BB4B9847BB4B1B78002B8D
:105210000ED0BA4B9847BA4B1800BA4B9847B64ACB
:1052200000231370B84B9847B84B9847B84B984732
:10523000B84B1B78DBB2002B00D18FE0AF4B984707
:10524000B44A002313700123002205210020B24C30
:10525000A0470023012205210020AF4CA047A54B09
:1052600098470020934B98470300BB620023FB62E2
:10527000914C962252000023B86AF96AA0470300B5
:105280000C00190022008E4B0024C918624108004E
:1052900011008C4C8C4A0023A04703000C0018001E
:1052A0008A4B984700230022052100209A4CA047F2
:1052B000904B984700207F4B984703003B620023A8
:1052C0007B627D4CFA2212010023386A796AA0477A
:1052D00003000C0019002200794B0024C918624118
:1052E00008001100774C784A0023A04703000C0007
:1052F0001800764B98470123002205210020864C98
:10530000A0477C4B984700206A4B98470300BB613D
:105310000023FB61684C962252000023B869F969AA
:10532000A04703000C0019002200654B0024C91897
:10533000624108001100634C634A0023A047030048
:105340000C001800614B9847002300220521002023
:10535000714CA047674B98476D4B98476F4B1B7834
:10536000DBB2002B00D18FE0644B98476B4A0023DF
:1053700013700023002205210020674CA047012361
:10538000012205210020644CA0475A4B9847002079
:10539000484B984703003B6100237B61464C9622B3
:1053A0005200002338697969A04703000C001900F6
:1053B0002200434B0024C918624108001100414CEF
:1053C000414A0023A04703000C0018003F4B9847B8
:1053D00000230122052100204F4CA047454B984750
:1053E0000020344B98470300BB600023FB60324C25
:1053F000FA2212010023B868F968A04703000C00E4
:10540000190022002E4B0024C91862410800110027
:105410002C4C2D4A0023A04703000C0018002B4BF6
:10542000984701230122052100203B4CA047314B26
:10543000984700201F4B984703003B6000237B6088
:105440001D4C96225200002338687968A04703005B
:105450000C00190022001A4B0024C91862410800F0
:105460001100184C184A0023A04703000C00180034
:10547000164B98470023012205210020264CA04707
:105480001C4B9847224B9847254B1B78002B00D18B
:105490007DE6234A00231370224B984777E6C046E7
:1054A000714F000081010000A5420000093A000090
:1054B00031410000114B000055580000DC05000090
:1054C000571B000015580000581B00000100002069
:1054D000193B000028040020F10E0000790E0000A6
:1054E000FE030000D4080020D53B0000D40C0020AF
:1054F00011380000C9200000D00800201151000020
:10550000D0720000BD0D0000653200003D2A000091
:10551000F550000013040020752C0000100400203A
:10552000E80C0020312D0000002243088B4274D388
:1055300003098B425FD3030A8B4244D3030B8B4294
:1055400028D3030C8B420DD3FF22090212BA030C9D
:105550008B4202D31212090265D0030B8B4219D37E
:1055600000E0090AC30B8B4201D3CB03C01A52419E
:10557000830B8B4201D38B03C01A5241430B8B42E6
:1055800001D34B03C01A5241030B8B4201D30B03CF
:10559000C01A5241C30A8B4201D3CB02C01A5241F6
:1055A000830A8B4201D38B02C01A5241430A8B42B9
:1055B00001D34B02C01A5241030A8B4201D30B02A2
:1055C000C01A5241CDD2C3098B4201D3CB01C01ABC
:1055D000524183098B4201D38B01C01A52414309C6
:1055E0008B4201D34B01C01A524103098B4201D3B4
:1055F0000B01C01A5241C3088B4201D3CB00C01A21
:10560000524183088B4201D38B00C01A5241430898
:105610008B4201D34B00C01A5241411A00D20146BD
:10562000524110467047FFE701B5002000F0F0F846
:1056300002BDC0460029F7D076E7704703460B430A
:105640007FD4002243088B4274D303098B425FD37B
:10565000030A8B4244D3030B8B4228D3030C8B42A7
:105660000DD3FF22090212BA030C8B4202D312128D
:10567000090265D0030B8B4219D300E0090AC30B62
:105680008B4201D3CB03C01A5241830B8B4201D30F
:105690008B03C01A5241430B8B4201D34B03C01AF8
:1056A0005241030B8B4201D30B03C01A5241C30A70
:1056B0008B4201D3CB02C01A5241830A8B4201D3E1
:1056C0008B02C01A5241430A8B4201D34B02C01ACB
:1056D0005241030A8B4201D30B02C01A5241CDD270
:1056E000C3098B4201D3CB01C01A524183098B42BB
:1056F00001D38B01C01A524143098B4201D34B01A4
:10570000C01A524103098B4201D30B01C01A524106
:10571000C3088B4201D3CB00C01A524183088B428D
:1057200001D38B00C01A524143088B4201D34B0076
:10573000C01A5241411A00D20146524110467047E8
:105740005DE0CA0F00D04942031000D340425340ED
:1057500000229C4603098B422DD3030A8B4212D3AD
:10576000FC22890112BA030A8B420CD389019211DF
:105770008B4208D3890192118B4204D389013AD01C
:10578000921100E08909C3098B4201D3CB01C01AF1
:10579000524183098B4201D38B01C01A5241430904
:1057A0008B4201D34B01C01A524103098B4201D3F2
:1057B0000B01C01A5241C3088B4201D3CB00C01A5F
:1057C000524183088B4201D38B00C01A5241D9D277
:1057D00043088B4201D34B00C01A5241411A00D2F8
:1057E0000146634652415B10104601D34042002BF4
:1057F00000D54942704763465B1000D3404201B573
:10580000002000F005F802BD0029F8D016E7704727
:105810007047C046002B11D1002A0FD1002900D1BA
:10582000002802D00021C943081C07B4024802A185
:105830004018029003BDC046D9FFFFFF03B468467D
:1058400001B5029800F032F8019B9E4602B00CBCF4
:105850007047C046F0B54F464646C0B41604360CF5
:105860009946330005042C0C070C150C63437E434A
:105870006F4365431C0CAD1964199C46A64203D9BD
:1058800080235B02984647446346250CEF191D04AC
:105890004B464A4343432D0C240464199918C919F3
:1058A00020000CBC90469946F0BDC046F0B54D4670
:1058B000564644465F46F0B4924683B004000D005D
:1058C00099468B422FD82CD04946504600F0CCF850
:1058D00029000600200000F0C7F8331A9846203B44
:1058E0009B4600D574E053465A4693401F005346EA
:1058F000424693401E00AF4229D826D05B46A41BE7
:10590000BD41002B00DA79E00022002300920193D0
:1059100001235A469340019301234246934000934A
:1059200019E08242D0D900220023009201930C9BFF
:10593000002B01D01C605D600098019903B03CBC55
:1059400090469946A246AB46F0BDA342D6D9002266
:105950000023009201934346002BE8D0FB07720816
:105960001A4346467B080EE0AB4201D1A2420CD856
:10597000A41A9D41012024196D410021013E2418E3
:105980004D41002E06D0AB42EED9013E24196D41A7
:10599000002EF8D15B460098019900196941002B4F
:1059A00022DB2B005A46D3402A004446E2401C002A
:1059B0005B461500002B2CDB26009E4033002600A2
:1059C0004746BE403200801A994100900191AEE7EF
:1059D000424620239B1A5246DA40414613004A466B
:1059E0008A4017001F4382E7424620239B1A2A0061
:1059F00046469A402300F3401343D5E7424620230E
:105A000000219B1A0022009101920122DA400192AA
:105A100082E74246202326009B1ADE402F00B44630
:105A2000974066463B003343C9E7C0461C2101232B
:105A30001B04984201D3000C10391B0A984201D371
:105A4000000A08391B09984201D30009043902A24F
:105A5000105C40187047C0460403020201010101B6
:105A6000000000000000000010B5002903D1FFF77E
:105A7000DDFF203002E0081CFFF7D8FF10BDC04654
:105A80000E4B70B500251E000D4CE41AA410A54263
:105A900004D0AB00F35898470135F8E701F0FEFC5D
:105AA000084B00251E00084CE41AA410A54204D09F
:105AB000AB00F35898470135F8E770BDA8740000B3
:105AC000A8740000A8740000AC74000010B5034B6B
:105AD0000100186800F054F810BDC04654030020BF
