:1000000058240020256300001D6400001D640000CA
:1000100000000000000000000000000000000000E0
:100020000000000000000000000000001D6400004F
:1000300000000000000000001D6400001D640000BE
:100040001D6400001D640000611D00001D640000AF
:10005000290A00001D6400001D6400001D640000EA
:100060001D6400001D6400001D6400008520000068
:100070001D6400001D6400001D6400001D6400007C
:100080001D6400001D640000A14E00001D640000FE
:100090001D64000000000000000000001D6400005E
:1000A0001D6400001D6400001D6400001D6400004C
:1000B0000000000010B5064C2378002B07D1054B3B
:1000C000002B02D0044800E000BF0123237010BDC4
:1000D000CC0100200000000010A30000084B10B568
:1000E000002B03D00749084800E000BF0748036819
:1000F000002B00D110BD064B002BFBD09847F9E731
:1001000000000000D001002010A3000010A3000098
:100110000000000080B582B000AF78607B680022EC
:100120001A707B6801225A707B6804229A707B687F
:100130000C22DA707B6800221A717B6800225A71E7
:10014000C046BD4602B080BD80B582B000AF3B0066
:100150001800094B98473B0000221A703B000A2206
:10016000DA703B0009225A713B001800034B984794
:10017000C046BD4602B080BD15010000CD1B000089
:1001800080B500AFC046BD4680BDC04680B582B0D8
:1001900000AF78607B6800221A70C046BD4602B08E
:1001A00080BDC04680B582B000AF02003960FB1D43
:1001B0001A70FB1D1B78012B0AD0022B0FD0002BCD
:1001C00014D10E4B0D4A91693A680A439A610FE0C7
:1001D0000A4B0A4AD1693A680A43DA6108E0074BD8
:1001E000064A116A3A680A431A6201E0172300E0DE
:1001F00000231800BD4602B080BDC0460004004088
:1002000080B582B000AF78607B6880221A707B680E
:1002100000225A707B6801229A707B680022DA7093
:10022000C046BD4602B080BD80B582B000AF0200BE
:10023000FB1D1A70FB1D1B78002B02D0012B07D071
:100240000DE0084B074A126C02210A431A6406E0CB
:10025000044B044A126C04210A431A64C046BD468A
:1002600002B080BD0008004080B584B000AF786067
:100270007B681B68FB60FB685B7EDBB25BB2002BBC
:1002800001DA012300E000231800BD4604B080BD60
:1002900080B582B000AF78607B6800221A707B68FE
:1002A00000225A707B6800225A807B6800221A71F3
:1002B0007B6800221A767B6800221A627B68002223
:1002C000DA617B6800229A607B6800221A737B687F
:1002D000C0225201DA817B6800221A747B680022F6
:1002E0005A747B6800229A747B680022DA747B68F7
:1002F00000221A757B682A22002199547B6800220B
:100300005A757B6800229A757B68242200219954D3
:100310007B680022DA847B6800221A857B680022D1
:10032000DA757B682B22002199547B682C220021EE
:100330009954C046BD4602B080BDC04680B598B055
:1003400000AF78600C23FA18154B100019005023E9
:100350001A00144B9847144BFB657B68132B1AD873
:100360000C23FB187A689200D358FB650823FB180E
:1003700018000E4B98470823FB1800229A70082398
:10038000FB1801221A70FB6DDBB20822BA181100AB
:100390001800074B9847C046BD4618B080BDC04600
:1003A000989A000055880000FFFF0000010200003D
:1003B0009D620000F0B589B000AF786039601F23FE
:1003C000FB1800221A701023BB611723FB180022B0
:1003D0001A707B681B683B610C23FB181800CE4B1E
:1003E00098473B681A780C23FB181A700C23FB18EB
:1003F00019001E20C94B98471E20C94B98473B68DF
:100400002C229B5C002B40D01623FB183A682B2132
:10041000525C1A703B68197B1523FB181622BA1818
:1004200012788A181A703B682C22995C0F23FB18EB
:100430001522BA1812788A181A7018E01623FB18B9
:100440001B780F2213403A68127B9B181800B54B9B
:1004500098471523FB181A781523FB1801321A70D8
:100460001623FB181A781623FB1801321A7015236D
:10047000FA180F23FB1812781B789A42DED33B68D8
:10048000DB891800A74B984709E03B681B7B1800E5
:10049000A44B98473B68DB891800A24B98473B6800
:1004A0005B7D9B00DAB23B691A703B689B7DDB0188
:1004B0005AB23B685B785BB213435BB2DAB23B691A
:1004C0005A703B681B79342B46D89A00964BD31848
:1004D0001B689F461F23FB183A68527C1A7017232B
:1004E000FB183A68127C1A701023BB6136E01F2398
:1004F000FB1801221A701723FB1802221A7010230E
:10050000BB612BE01F23FB1802221A701723FB1874
:1005100004221A701023BB6120E01F23FB18012264
:100520001A701723FB1806221A701023BB6115E0FE
:100530001F23FB1800221A701723FB1808221A70B9
:100540001023BB610AE03023BB6107E02023BB61BD
:1005500004E00023BB6101E01723AEE11F23FB1879
:100560001B781B01DBB270221340DAB21723FB1891
:100570001B781343DAB23B699A703B68DB7D3F2BF3
:1005800001D9172399E13B68DA7D3B69DA70C046EF
:100590007B681800654B9847031EF9D13B685A8861
:1005A000BB699BB213439AB23B6824215B5C9BB24C
:1005B000DB009BB213439AB23B681B7D9BB29B004E
:1005C0009BB213439AB23B689B7C9BB2DB189BB2F5
:1005D00013439AB23B68DB7C9BB213439AB23B69EC
:1005E0009A803B681B7E002B00D1C4E0BB69102BB6
:1005F00000D176E002D8002B4DD0BCE0202B23D0D8
:10060000302B00D0B7E03B68DB7C002B11D03B687F
:10061000DB697F2B0BDC3B68DB69803307DB3B68E6
:100620001B6A7F2B03DC3B681B6A803301DA1723CC
:1006300043E13B68DB69FF2B04DC3B681B6AFF2B53
:1006400000DC91E0172338E13B68DB7C002B15D000
:100650003B68DB69364A93420EDC3B68DB69354A0E
:10066000934209DB3B681B6A314A934204DC3B68D6
:100670001B6A304A934201DA17231EE13B68DB69AB
:100680002D4A934205DC3B681B6A2B4A934200DCEF
:100690006CE0172311E13B68DB7C002B15D03B6835
:1006A000DB69264A93420EDC3B68DB69244A9342AD
:1006B00009DB3B681B6A214A934204DC3B681B6AE6
:1006C0001F4A934201DA1723F7E03B68DB691D4AB2
:1006D000934204DC3B681B6A1A4A934248DD1723A5
:1006E000EBE03B68DB7C002B32D03B68DB69164AD1
:1006F00093420EDC3B68DB69144A934209DB3B689A
:100700001B6A114A934204DC3B681B6A0F4A9342FE
:100710001EDA1723D1E0C0468D010000695F00009A
:10072000AD5F00003D030000E89A00006902000090
:10073000FF01000000FEFFFFFF030000FF070000B5
:1007400000F8FFFFFF0F0000FF7F00000080FFFFA9
:100750003B68DB695B4A934204DC3B681B6A594A8D
:10076000934207DD1723A8E0C04604E0C04602E03C
:10077000C04600E0C046C0467B681800524B984710
:10078000031EF9D13B681A7E3B691A72C0467B682A
:1007900018004D4B9847031EF9D13B68DB699AB2AC
:1007A0003B699A83C0467B681800474B9847031EF5
:1007B000F9D13B681B6A9AB23B691A841423FB186F
:1007C0003A682C21525C1A701423FB181B78002BFA
:1007D00006D01423FB181A781423FB18013A1A7058
:1007E0001423FB181B780F2B04D83B682B229B5C2F
:1007F0000F2B01D9172360E0C0467B681800324BED
:100800009847031EF9D13B689B683A682B21525CDC
:10081000120513431422BA181278120413433A68CB
:10082000D28913433A68127B1A433B691A613B68C9
:100830002A229A5C3B691A753B690F229A753B68BC
:1008400024229B5C002B1ED03B68DB8C1F4A93420A
:1008500001D9172331E03B68DA8C3B699A843B6805
:1008600028229B5E1A4A934205DC3B6828229B5E45
:10087000184A934201DA17231FE03B6828229B5E47
:100880009AB23B69DA84144B1B68DB089BB21B02EB
:100890009AB2E023DB0013409AB2104B5C681B68ED
:1008A0006101DD0E0D43E60EABB2FF210B409BB2A2
:1008B00013439AB23B691A8500231800BD4609B05C
:1008C000F0BDC046FFFF000069020000FF0F0000FE
:1008D000FF07000000F8FFFF246080002060800018
:1008E00080B584B000AFF860B9607A60FB68BA6820
:1008F0001A6080235B0219000220154B9847BB68E1
:100900001B78DBB21A000123134001D005231AE043
:10091000BB681B78DBB21A000223134001D01C23F2
:1009200011E07B685A78FB681A71FB681B79002B11
:1009300002D10120074B98477A68FB681100180024
:10094000054B984703001800BD4604B080BDC04663
:10095000A501000029020000B503000080B584B0A5
:1009600000AF0200FB1D1A700F23FB18FA1D12784E
:1009700052091A700F23FB181B78002B0CD1094B5E
:10098000BB600F23FB181B789B0010229446BC44CD
:100990006344083B1B6800E000231800BD4604B018
:1009A00080BDC0460018004080B584B000AF020092
:1009B000FB1D1A70FB1D1B7818000B4B984703009A
:1009C000FB60FB1D1B781F22134001229A4013007D
:1009D000BB60FB681B69BA6813405A1E9341DBB2C7
:1009E0001800BD4604B080BD5D09000080B584B02C
:1009F00000AF0200FB1D1A70FB1D1B781800094B8D
:100A000098470300FB60FB1D1B781F221340012247
:100A10009A401300BB60FB68BA681A61C046BD46C5
:100A200004B080BD5D09000080B500AF154B002209
:100A30001A7020E0134B1B781800134B9847031EC5
:100A400013D0104B1B781800104B98470D4B1B7898
:100A50001A000F4B9200D358002B06D0094B1B787D
:100A60001A000B4B9200D3589847064B1B78013362
:100A7000DAB2044B1A70034B1B780F2BDAD9C0463D
:100A8000BD4680BD20020020A9090000ED0900003C
:100A90002402002080B582B000AF78607B6800221D
:100AA0001A70C046BD4602B080BDC04680B582B057
:100AB00000AF02003960FB1D1A70FB1D1B78012B73
:100AC0000AD0022B0FD0002B14D10E4B0D4A916986
:100AD0003A680A439A610FE00A4B0A4AD1693A68B8
:100AE0000A43DA6108E0074B064A116A3A680A438A
:100AF0001A6201E0172300E000231800BD4602B08F
:100B000080BDC0460004004080B582B000AF020046
:100B1000FB1D1A70064BFA1D127811001F220A40A5
:100B2000012191400A001A60C046BD4602B080BD56
:100B300000E100E080B582B000AF0F4B3B600023C6
:100B40007B6011E07B689B0008229446BC446344B0
:100B5000083B1B685B78DBB25BB2002B01DA012338
:100B600006E07B6801337B607B68002BEAD00023C2
:100B70001800BD4602B080BD0018004080B584B0AA
:100B800000AF2D4B7B60402100202C4B98473B0051
:100B900018002B4B98473B0000221A703B001900AD
:100BA0000520284B98470520274B98470023FB60DA
:100BB00018E0FB689B0010229446BC4463440C3B45
:100BC0001A68FB689B0010218C46BC4463440C3BB4
:100BD0001B681B78DBB201210B43DBB21370FB688F
:100BE0000133FB60FB68002BE3D0C046174B9847EE
:100BF000031EFBD10B23FB1800221A700DE00B2300
:100C0000FB181A78124B92000021D1500B23FB18CD
:100C10001A780B23FB1801321A700B23FB181B7870
:100C20000F2BECD904200B4B98470B4B9847C04631
:100C3000BD4604B080BDC04600180040AD0A0000AB
:100C4000950A0000695F0000AD5F0000350B0000F1
:100C500024020020090B00005D0C000080B582B06A
:100C600000AF154B3B6000237B6018E07B689B0066
:100C700008229446BC446344083B1A687B689B0086
:100C800008218C46BC446344083B1B681B78DBB2DC
:100C900002210B43DBB213707B6801337B607B68FE
:100CA000002BE3D0C046054B9847031EFBD1C0463E
:100CB000BD4602B080BDC04600180040350B0000A4
:100CC00080B582B000AF78607B6880221A707B6844
:100CD00000225A707B6801229A707B680022DA70C9
:100CE000C046BD4602B080BD80B584B000AF0200F2
:100CF0003960FB1D1A700C23FB181800104B984725
:100D00000C23FB1880221A703B681A780C23FB18FE
:100D10005A703B685A780C23FB189A703B689A7893
:100D20000C23FB18DA700C23FA18FB1D1B7811003A
:100D30001800044B9847C046BD4604B080BDC0466D
:100D4000C10C00009D62000080B582B000AF7860E9
:100D50007B6800221A70C046BD4602B080BDC04606
:100D600080B582B000AF02003960FB1D1A70FB1D18
:100D70001B78012B0AD0022B0FD0002B14D10E4B65
:100D80000D4A91693A680A439A610FE00A4B0A4A90
:100D9000D1693A680A43DA6108E0074B064A116AEA
:100DA0003A680A431A6201E0172300E000231800A2
:100DB000BD4602B080BDC0460004004080B582B090
:100DC00000AF78607B6880221A707B6800225A70BE
:100DD0007B6801229A707B680022DA70C046BD46AB
:100DE00002B080BD80B500AF054B9B78DBB21A0026
:100DF000022313405A1E9341DBB21800BD4680BD4A
:100E00000020004180B584B000AF78607B681B682B
:100E1000FB60FB68DB69072213405A1E9341DBB27B
:100E20001800BD4604B080BD80B582B000AF7860C8
:100E3000C0467B681800044B9847031EF9D1C04692
:100E4000BD4602B080BDC046050E0000F0B595B0AD
:100E500000AFF860B96000237B630023BB6400230C
:100E60007B643B2308229446BC44634400221A70EE
:100E7000FB681B683B63FB681B68FB62232308223B
:100E8000BA18D418FB6A1800DB4B9847030023708C
:100E90000C2308229446BC4463441800D74B98475F
:100EA000BB68DB69FB63BB681B6ABB63FB6B002B26
:100EB00006D1FB6A00211800D14B98470300FB6361
:100EC000FB6BDAB20C2308218C46BC4463441A70D5
:100ED0000C2308229446BC44634402225A70FB6BE4
:100EE0001B0CDBB20C2208218C46BC44624411006E
:100EF0001800C44B9847BB6B002B06D1FB6A01213D
:100F00001800BF4B98470300BB63BB6BDAB20C23DE
:100F100008218C46BC4463441A700C230822944672
:100F2000BC44634402225A70BB6B1B0CDBB20C2224
:100F300008218C46BC44624411001800B14B98470C
:100F4000BB689A8AFB68DA80BB68DA8AFB681A8118
:100F5000BB681B7E002B03D1AB4B9847031E02D00E
:100F60008023FB6401E00023FB64BB681B69002B4A
:100F700004D0BB681B69FA6C1343FB64BB689B68B5
:100F8000FA6C1343FB64BB6824229B5C002B04D0E7
:100F9000FB6C8022D2051343FB64BB689B6A002B69
:100FA00004D0BB689B6AFA6C1343FB64BB682C22B9
:100FB0009B5C002B05D1BB689A6880239B049A42F6
:100FC00004D1FB6C802212051343FB64BB682D2205
:100FD0009B5C002B04D0FB6C802212041343FB6447
:100FE000BB682E229B5C002B04D0FB6C8022D203BA
:100FF0001343FB643B6B1A68FB6C1A433B6B1A6030
:101000003B6B802252005A60232308229446BC4442
:1010100063441B781433DBB218007C4B9847030001
:101020007B62BB681B68FA22920053433B62BB6839
:101030005B68FA2292005343FB61BB681B8EBB6165
:10104000734B786A984705000E00714B386A9847D1
:10105000386079607B6ABA695A436D4B10009847D3
:101060006C4C6D4A6D4BA04703000C00180021002A
:101070006B4C00226B4BA04703000C001A002300AE
:10108000644C38687968A04703000C001A002300FC
:10109000654C28003100A04703000C001D0026000D
:1010A0003B6A5A005A4B1000984702000B005C4CF8
:1010B00028003100A04703000C00180021005A4C02
:1010C00000225A4BA04703000C001D0026003B6A7B
:1010D0005A004F4B1000984702000B00544C280058
:1010E0003100A04703000C0019002200514B0800FA
:1010F0001100984703007B63BB689A6880239B04B8
:101100009A4245D1424B786A9847454C02000B0001
:10111000A04703000C001D0026003D4BF8699847CE
:101120003C4C0022444BA04703000C001A00230053
:101130003F4C28003100A04703000C00180021009C
:10114000394C0022394BA04703000C001900220043
:10115000384B08001100984703007B647B6C002B20
:1011600009D0364BF969786A984703009A1E7B6C60
:10117000D31ABB640CE0FB695A007B6AD3185A1E71
:10118000FB6959002D4B100098470300013BBB64DD
:101190007B6BFF2B08DC7B6B002B05DBBB6CFF2B19
:1011A00002DCBB6C002B06DA3B2308229446BC44CD
:1011B000634440221A703B2308229446BC44634493
:1011C0001B78402B0ED07B6BFF221A40BB6C1B049C
:1011D0001900FF231B040B4013437A6C12061A43B9
:1011E0003B6BDA603B2308229446BC4463441B7883
:1011F0001800BD4615B0F0BDD11A0000BD0D0000AD
:10120000151900009D620000E50D0000D56000008A
:10121000458700003D7B000095D626E80B2E113E49
:10122000B96E000000002440318000000000F03F53
:1012300011750000D986000000000840B569000063
:1012400080B58AB000AFF860B9607A60FB68BA68B0
:101250001A60FB681B687B62FB681B681800254BE3
:10126000984703003B623B6A0233FB613B6A1433DD
:10127000BB610122FB699A401300190002201E4B3A
:1012800098471423FB1818001C4B98477B681A7B5F
:101290001423FB181A70BB69DBB21422BA181100B0
:1012A0001800174B9847BB69DBB21800154B9847DD
:1012B0007B681B7B00211800134B98477B6A1B68D7
:1012C0000222134001D01C2310E07B6A1B6801221C
:1012D000134001D0052309E07B6A14221A607A6862
:1012E000FB6811001800094B984703001800BD4621
:1012F0000AB080BDD11A0000610D0000490D000048
:10130000695F0000AD5F0000891800004D0E00000D
:1013100080B584B000AF78607B681B68FB60FB68B9
:101320001B7EDBB21A00022313400BD0FB680222A3
:101330001A76FB685B8B9BB21A000223134011D014
:10134000412310E0FB685B8B9BB21A00042313401F
:1013500008D0FB685B68C02292021A43FB685A609F
:10136000182300E000231800BD4604B080BDC0462D
:1013700080B584B000AF78607B681B68BB600E23CB
:10138000FB1800221A800FE00E23FB180E22BA1859
:10139000128801321A807B681B890E22BA181288C3
:1013A0009A4201D312230EE0BB681B7EDBB21A0007
:1013B0000123134006D1BB681B7EDBB21A00022357
:1013C0001340E1D000231800BD4604B080BDC046E4
:1013D00090B585B000AF78600A00FB1C1A707B687E
:1013E0001B68FB60FB685B688022D2021A43FB68C3
:1013F0005A60FB1C1A78FB685A620B23FC187B6846
:101400001800074B984703002370FB6801221A76E7
:101410000B23FB181B781800BD4605B090BDC046D5
:101420007113000090B587B000AF786039607B68B9
:101430001B68FB601423FB183A6852881A80122339
:10144000FB1800221A80FB681B681B01DB0FDBB254
:101450001A000B23FB18511E8A411A703B685B7AF5
:10146000002B06D03B689A7A7B6811001800854BE8
:101470009847FB685B68844A1A40FB685A603B687F
:101480001B7A002B42D03B681B885A003B685B7A72
:101490009B0313431A0080231B021A43FB685A6202
:1014A0001723FC187B681800784B984703002370BB
:1014B000FB685B68744A1A40FB685A601723FB1884
:1014C0001B78002B07D11723FC187B681800704B82
:1014D0009847030023701723FB181B78002B11D1AA
:1014E0003B681B881B0A9BB2782213439BB25A00AD
:1014F0003B685B7A9B031343012213431A00FB688A
:101500005A620FE01723FB181B78B6E03B681B8874
:101510005B0001221A433B685B7A9B0313431A006A
:10152000FB685A621723FC187B681800574B9847D2
:10153000030023700B23FB181B78002B0BD03B6898
:101540005B88012B07D1FB685B688022D2021A43BB
:10155000FB685A6005E0FB685B684B4A1A40FB6811
:101560005A601723FB181B78002B07D11723FC1890
:101570007B681800464B9847030023701723FB181D
:101580001B78002B00D075E04BE0FB685B8B9BB2B7
:101590001A002023134001D141236EE07B68DB7ADF
:1015A000002B1ED00B23FB181B7801225340DBB20B
:1015B000002B04D01423FB181B88002B09D00B230D
:1015C000FB181B78002B0CD01423FB181B88012B55
:1015D00007D1FB685B688022D2021A43FB685A601D
:1015E0001AE07B6818002B4B98473B685A68122317
:1015F000FB181B8812217918581C0880D318FA6828
:101600002821525CD2B21A701723FC187B6818008C
:101610001E4B9847030023701723FB181B78002BE1
:1016200009D11423FB181B881422BA18591E1180E3
:10163000002BAAD100E0C0467B689B7A002B0AD021
:101640007B681800134B9847FB685B68C0229202C6
:101650001A43FB685A607B6818000E4B98473B683A
:101660005A681223FB181B88D318FA682821525C89
:10167000D2B21A701723FB181B781800BD4607B0AA
:1016800090BDC046D1130000FFFFFBFF71130000A7
:1016900011130000290E000080B582B000AF786001
:1016A00039607B6801229A727B680122DA723A689B
:1016B0007B6811001800034B984703001800BD46D3
:1016C00002B080BD2514000090B587B000AF7860EF
:1016D00039607B681B68FB601423FB183A685288EA
:1016E0001A807B681800514B98473B685B7A002B47
:1016F00006D03B689A7A7B68110018004C4B9847DB
:10170000FB685B684B4A1A40FB685A603B681B7A6F
:10171000002B0DD03B681B885A003B685B7A9B030B
:1017200013431A0080231B021A43FB685A6209E024
:101730003B681B885A003B685B7A9B0313431A0083
:10174000FB685A621723FC187B6818003A4B9847CD
:10175000030023701723FB181B78002B07D11723D6
:10176000FC187B681800354B98470300237017233B
:10177000FB181B78002B52D11223FB1800221A8071
:1017800033E0FB685B8B9BB21A002023134001D12E
:10179000412347E07B681800244B98473B685A6810
:1017A0001223FB181B8812217918581C0880D318A3
:1017B0001978FB68282299541723FC187B681800B5
:1017C0001D4B9847030023701723FB181B78002B31
:1017D00015D1FB685B8B9BB21A000423134004D025
:1017E0001723FB181E221A700AE01423FB181B880B
:1017F0001422BA18591E1180002BC2D100E0C04635
:101800007B689B7A002B0AD07B681800074B9847AF
:10181000FB685B68C02292021A43FB685A60172378
:10182000FB181B781800BD4607B090BD290E0000BC
:10183000D1130000FFFFFBFF711300001113000024
:1018400080B582B000AF786039607B6801229A72FF
:101850007B680122DA723A687B6811001800034B3A
:10186000984703001800BD4602B080BDC9160000AD
:1018700080B582B000AF78607B6800221A70C046E5
:10188000BD4602B080BDC04680B584B000AF020046
:10189000FB1D1A70BB1D0A1C1A701A4B1B78012203
:1018A0005340DBB2002B03D1BB1D1B78002B1BD098
:1018B0000C23FB181800144B98470C23FB18FA1D37
:1018C00012781A700C23FB18190013200F4B98473D
:1018D00013200F4B98470B4BFA1D12785A70094B87
:1018E00001221A70002308E0064B5B78FA1D12787B
:1018F0009A4201D1002300E01D231800BD4604B028
:1019000080BDC046E801002071180000695F00003A
:10191000AD5F000080B582B000AF78600A00FB1CAC
:101920001A707B684D4A93423FD04C4A934206D886
:101930004B4A93420FD04B4A934221D089E04A4A06
:10194000934200D15BE0494A934200D16CE0484A9F
:1019500093423FD07DE0FB1C1B78012B0AD002DCB8
:10196000002B05D075E0022B06D0032B06D070E0CB
:10197000404B6FE0404B6DE0404B6BE0404B69E00B
:10198000FB1C1B78012B0AD002DC002B05D060E089
:10199000022B06D0032B06D05BE003235AE0394B21
:1019A00058E0394B56E0394B54E0FB1C1B78012BB7
:1019B0000AD002DC002B05D04BE0022B06D0032B13
:1019C00006D046E0324B45E0324B43E0324B41E03B
:1019D000324B3FE0FB1C1B78012B0AD002DC002BB2
:1019E00005D036E0022B06D0032B06D031E02C4B7D
:1019F00030E02C4B2EE02C4B2CE02C4B2AE0FB1C37
:101A00001B78012B0AD002DC002B05D021E0022B31
:101A100006D0032B06D01CE0254B1BE0254B19E01C
:101A2000254B17E0254B15E0FB1C1B78012B0AD03A
:101A300002DC002B05D00CE0022B06D0032B06D0D5
:101A400007E01F4B06E01F4B04E01F4B02E01F4B5B
:101A500000E000231800BD4602B080BD0010004227
:101A600000080042000C004200180042001C004226
:101A700000140042030004000300050003000600F8
:101A8000030007000300010003001E0003001F0005
:101A9000030008000300090003000A0003000B0014
:101AA00003001000030011000300120003001300E4
:101AB00003000C0003000D0003000E0003000F00E4
:101AC00003001600030017000300180003001900AC
:101AD00090B58BB000AF78600C23FB180F4A13CA87
:101AE00013C313CA13C300237B620EE00C23FB183D
:101AF0007A6A9200D3581A1E7B689A4202D17B6A96
:101B0000DBB206E07B6A01337B627B6A052BEDD991
:101B100000231800BD460BB090BDC046BC9B000022
:101B200080B582B000AF02003960FB1D1A70FB1D4A
:101B30001B78012B0AD0022B0FD0002B14D10E4B97
:101B40000D4A91693A680A439A610FE00A4B0A4AC2
:101B5000D1693A680A43DA6108E0074B064A116A1C
:101B60003A680A431A6201E0172300E000231800D4
:101B7000BD4602B080BDC0460004004080B582B0C2
:101B800000AF074B7B607B68DB79DBB25BB2002B7D
:101B900001DA012300E000231800BD4602B080BD39
:101BA0000010004080B582B000AF074B7B607B68BF
:101BB0001B78DBB21A00802313405A1E9341DBB21C
:101BC0001800BD4602B080BD0010004080B586B050
:101BD00000AF7860544B3B6110210020534B984775
:101BE000534B9847031E01D0102398E07B68DB78A5
:101BF000002B01D1172392E07B68DA787B681B7990
:101C00009A4205D37B68DA787B685B799A4201D285
:101C1000172384E03B691B78DBB202229343DAB2DC
:101C20003B691A70C046434B9847031EFBD17B6843
:101C30005B7801225340DBB2002B01D000236EE021
:101C40007B689A780C23FB181A700C23FB18190078
:101C50000320394B98470320384B98477B681B7803
:101C6000002B02D00320364B984700237B617B6812
:101C7000DB78013B1A007B6913437B617B681B792E
:101C8000002B10D03B691B78DBB204221343DAB27D
:101C90003B691A707B681B79013B1B011A007B6949
:101CA00013437B6107E03B691B78DBB2042293435B
:101CB000DAB23B691A70C0461E4B9847031EFBD12F
:101CC0007B69DAB23B695A707B685B79002B0AD07A
:101CD000C046184B9847031EFBD17B685B79013BDC
:101CE000DAB23B699A707B681B78002B09D03B699C
:101CF0001B78DBB2802252421343DAB23B691A707E
:101D000007E03B691B78DBB202221343DAB23B697E
:101D10001A70C046074B9847031EFBD100231800DA
:101D2000BD4606B080BDC04600100040211B00002B
:101D3000A51B00007D1B0000695F0000AD5F000077
:101D40008D60000080B582B000AF044B7B607B6883
:101D500001229A71C046BD4602B080BD001000400D
:101D600080B500AF054B9847054B1B68002B02D090
:101D7000034B1B689847C046BD4680BD451D00000B
:101D80006402002080B582B000AF0200FB1D1A7013
:101D9000064BFA1D127811001F220A4001219140C2
:101DA0000A001A60C046BD4602B080BD00E100E0F6
:101DB000B0B582B000AF02003960FB1D1A70FB1D88
:101DC0001B787F2B32D92F4CFB1D1B781A000F2359
:101DD0001340083B99082B4AFB1D1B7818000F2362
:101DE0000340083B9B0806339B00D31804331B6851
:101DF000FA1D1278100003220240D200FF2090400A
:101E00000200D2431A403B689B01FF201840FB1D93
:101E10001B781D0003232B40DB00984003001A436E
:101E20008B1D9B00E31804331A6027E0164CFB1D42
:101E30001B785BB29B081449FA1D127852B29208C3
:101E4000C03292005258F91D097808000321014060
:101E5000C900FF2088400100C94311403A6892013F
:101E6000FF201040FA1D1278150003222A40D200EC
:101E7000904002000A43C0339B001A51C046BD4641
:101E800002B0B0BD00ED00E000E100E080B500AFC1
:101E9000044B01221A70BFF35F8F62B6C046BD4685
:101EA00080BDC0466101002080B500AF72B6BFF3AF
:101EB0005F8F034B00221A70C046BD4680BDC046EE
:101EC0006101002080B500AF134A136801210B4364
:101ED0001360C046104B1B68DB07DB0FDBB2002B27
:101EE000F8D10D4BDB69DB07DB0FDBB2002BF1D147
:101EF0000A4B0A4A126A10210A431A62084B094A1D
:101F00005A80C046064B5B78DBB25BB2002BF9DB34
:101F1000C046BD4680BDC0460010004200040040DF
:101F2000000C00401640000080B582B000AF1C4B92
:101F3000802252005A601A4B8022D2009A60184BBD
:101F40008022D2009A61164A3523D35CDBB21A0094
:101F5000302313407B60124A7B68DBB203210B43C2
:101F6000D9B23523D1540E4A4A230121D1540C4A07
:101F70003423D35CDBB21A00302313407B60084A61
:101F80007B68DBB203210B43D9B23423D154044A1A
:101F900048230321D154C046BD4602B080BDC0468F
:101FA0000044004180B500AF184B9847184B984744
:101FB000184B194A1A60174B184A9A81154BC022C0
:101FC00092025A60C046134BDB695B07DB0FDBB242
:101FD000002BF8D10F4B04229A750B20104B984719
:101FE00001210B200F4B98470A4A136802210B432B
:101FF0001360C046074BDB699B07DB0FDBB2002B8E
:10200000F8D1094B9847C046BD4680BDC51E0000AB
:10201000291F0000001000428400014014FBFFFF54
:10202000851D0000B11D0000E120000080B584B0D6
:1020300000AF7860104B98470023FB600FE00F4B18
:102040001B7EDB07DB0FDBB2012B08D10B49FB68E2
:102050005A1CFA607A68D3181B789BB20B857A6891
:10206000FB68D3181B78002BE9D1054B9847C04675
:10207000BD4604B080BDC046A91E0000001000424D
:102080008D1E000080B500AF124B1B7E5B07DB0F7F
:10209000DBB2002B1AD0104B1B687F2B0BDD0E4BD5
:1020A00000221A600C4B1B680A4A128D92B2D1B200
:1020B0000A4AD1540AE0084B1B68591C064A1160B1
:1020C000044A128D92B2D1B2044AD154C046BD46E0
:1020D00080BDC04600100042EC01002098020020A4
:1020E00080B582B000AFFB1D00221A7009E0FB1D15
:1020F0001B780A4A0021D154FB1D1A78FB1D0132BE
:102100001A70FB1D1B785BB2002BF0DA044B002227
:102110001A60C046BD4602B080BDC046980200208D
:10212000EC01002080B500AF044B01221A70BFF310
:102130005F8F62B6C046BD4680BDC04661010020CB
:1021400080B500AF72B6BFF35F8F034B00221A70E9
:10215000C046BD4680BDC04661010020F0B599B0C3
:1021600000AFF860FB681800EB4B98470300FB6575
:10217000EA49FB6803221800E94B9847031E32D155
:10218000E84B1800E84B9847FB681800E24B98476B
:102190000400E24B1800E04B984703009C4222D910
:1021A00050230822BA18D218E049FB681800E04B07
:1021B0009847BB6D002B01DC0123BB65BA6DDD4B7D
:1021C0001A60BA6DDC490C2308208446BC44634481
:1021D0001800DA4B98470C2308229446BC44634409
:1021E0001800D14B9847D649FB6804221800CC4B05
:1021F0009847031E00D088E001230022012100201F
:10220000D04CA0470123002202210020CD4CA04742
:102210000123002203210020CA4CA04701230022F1
:1022200004210020C74CA0470123012202210020E5
:10223000C44CA0470123012201210020C14CA0472A
:102240000123022202210020BE4CA04701230222CA
:1022500001210020BB4CA0470123022204210020C1
:10226000B84CA0470123022203210020B54CA0470F
:102270000123012203210020B24CA04701230122A7
:1022800004210020AF4CA04701230322022100209B
:10229000AC4CA0470123032201210020A94CA047F8
:1022A0000123032203210020A64CA047012304227E
:1022B00003210020A34CA047012304220121002078
:1022C000A04CA04701230322052100209D4CA047DC
:1022D00001230222052100209A4CA0470123042259
:1022E00005210020974CA047974B01221A70FB68EC
:1022F00018008D4B9847954B18008B4B9847944B83
:102300001800894B984700F0BDFF9249FB680422F2
:102310001800834B9847031E00D088E0002300225A
:1023200001210020874CA047002300220221002029
:10233000844CA0470023002203210020814CA047A9
:1023400000230022042100207E4CA047002301220C
:10235000022100207B4CA047002301220121002004
:10236000784CA0470023022202210020754CA04790
:102370000023022201210020724CA04700230222E8
:10238000042100206F4CA0470023022203210020DB
:102390006C4CA0470023012203210020694CA04778
:1023A0000023012204210020664CA04700230322C1
:1023B00002210020634CA0470023032201210020BA
:1023C000604CA04700230322032100205D4CA0475E
:1023D00000230422032100205A4CA047002304229A
:1023E00001210020574CA047002303220521002093
:1023F000544CA0470023022205210020514CA04745
:1024000000230422052100204E4CA0474E4B002201
:102410001A70FB681800444B98474C4B1800424B0D
:1024200098474B4B1800404B984700F02BFF4A4908
:10243000FB68052218003A4B9847031E0AD1474B08
:1024400001221A70464B01221A70464B01221A7063
:1024500000F018FF4449FB6805221800304B9847EC
:10246000031E0AD13D4B00221A703D4B00221A7008
:102470003C4B00221A7000F005FF3C49FB68052226
:102480001800274B9847031E04D1344B01221A70C1
:1024900000F0F8FE3649FB6805221800204B9847EB
:1024A000031E04D12D4B00221A7000F0EBFE3149BF
:1024B000FB68052218001A4B9847031E04D1284BCD
:1024C00001221A7000F0DEFE2B49FB68052218007D
:1024D000134B9847031E04D1214B00221A7000F0C1
:1024E000D1FE2649FB68062218000D4B9847031EB3
:1024F00004D1234B01221A7000F0C4FE2149FB686D
:1025000006221800064B9847031E3DD11C4B0022A3
:102510001A7000F0B7FEC046018900000C000020D0
:102520000F890000D49B00002D200000E49B0000D8
:10253000AD880000C8030020EC9B00006988000003
:10254000F49B0000893E000032030020FC9B000049
:10255000009C0000049C00000C9C00007D020020F8
:10256000310300202E030020149C00001C9C00005E
:10257000249C00002C9C0000349C00003C9C00002B
:1025800034030020449C0000CB49FB68062218005D
:10259000CA4B9847031E04D1C94B01221A7000F0A0
:1025A00071FEC849FB6806221800C44B9847031EF9
:1025B00004D1C34B00221A7000F064FEC249FB68CC
:1025C00006221800BD4B9847031E04D1BF4B0122C1
:1025D0001A7000F057FEBE49FB6806221800B74B80
:1025E0009847031E04D1B94B00221A7000F04AFE2E
:1025F000B849FB6806221800B04B9847031E04D167
:10260000B54B01221A7000F03DFEB449FB6806226A
:102610001800AA4B9847031E04D1AF4B00221A7032
:1026200000F030FEAE49FB6806221800A34B984725
:10263000031E04D10B20AB4B984700F023FEAA49A0
:10264000FB68062218009D4B9847031E04D10B20FF
:10265000A64B984700F016FEA549FB680622180015
:10266000964B9847031E04D10C209E4B984700F0D0
:1026700009FEA049FB6806221800904B9847031EEC
:1026800004D10C20994B984700F0FCFD9A49FB6857
:1026900006221800894B9847031E04D10D20914B48
:1026A000984700F0EFFD9549FB6806221800834B20
:1026B0009847031E04D10D208C4B984700F0E2FD93
:1026C0008F49FB68062218007C4B9847031E04D1F3
:1026D0000E20844B984700F0D5FD8A49FB680622FE
:1026E0001800764B9847031E04D10E207F4B984765
:1026F00000F0C8FD8449FB68062218006F4B98471C
:10270000031E04D10F20774B984700F0BBFD7F4993
:10271000FB6806221800694B9847031E04D10F205E
:10272000724B984700F0AEFD7949FB68062218000D
:10273000624B9847031E04D110206A4B984700F063
:10274000A1FD7449FB68062218005C4B9847031EE4
:1027500004D11020654B984700F094FD6E49FB684A
:1027600006221800554B9847031E04D111205D4BDB
:10277000984700F087FD6949FB68062218004F4B17
:102780009847031E04D11120584B984700F07AFD5A
:102790006349FB6806221800484B9847031E04D182
:1027A0001220504B984700F06DFD5E49FB680622F1
:1027B0001800424B9847031E04D112204B4B9847F8
:1027C00000F060FD5849FB68062218003B4B984713
:1027D000031E04D11320434B984700F053FD534987
:1027E000FB6806221800354B9847031E04D11320BE
:1027F0003E4B984700F046FD4D49FB680622180005
:102800002E4B9847031E04D11420364B984700F0F6
:1028100039FD4849FB6806221800284B9847031EDB
:1028200004D11420314B984700F02CFD4249FB683D
:1028300006221800214B9847031E04D11520294B6E
:10284000984700F01FFD3D49FB68062218001B4B0E
:102850009847031E04D11520244B984700F012FD21
:102860003749FB6808221800144B9847031E07D10C
:10287000344B1800344B9847344B984700F002FD16
:102880003349FB68052218000C4B9847031E04D1FE
:10289000304B01221A7000F0F5FC2F49FB6805222D
:1028A0001800064B9847031E5AD12A4B00221A7073
:1028B0002A4B984700F0E6FC4C9C00000F89000072
:1028C0007E020020549C00005C9C00001903002044
:1028D000649C00006C9C00003C030020749C000081
:1028E0007C9C000059520000849C0000E1520000D2
:1028F0008C9C0000949C00009C9C0000A49C000008
:10290000AC9C0000B49C0000BC9C0000C49C000077
:10291000CC9C0000D49C0000DC9C0000E49C0000E7
:10292000EC9C0000F49C0000FC9C0000049D000056
:102930000C9D0000149D00001C9D0000249D0000C3
:102940002C9D0000389D00002D2000000553000044
:10295000489D00002D030020509D0000113C000008
:10296000DC49FB6805221800DB4B9847031E04D1A5
:10297000DA4B01221A7000F085FCD649FB6805226B
:102980001800D54B9847031E04D1D44B00221A706F
:1029900000F078FCD249FB6805221800CE4B98471E
:1029A000031E04D1CF4B01221A7000F06BFCCE49FC
:1029B000FB6805221800C84B9847031E04D1C94B79
:1029C00000221A7000F05EFCC849FB68052218005E
:1029D000C14B9847031E22D101230222012100206E
:1029E000C34CA0470123022202210020C04CA04773
:1029F0000123042201210020BD4CA047BD4B012230
:102A00001A70FB681800BC4B9847BC4B1800BA4BB7
:102A10009847BB4B1800B84B984700F033FCB949B6
:102A2000FB6805221800AC4B9847031E22D10023F7
:102A3000022201210020AE4CA047002302220221E5
:102A40000020AB4CA0470023042201210020A84C09
:102A5000A047A84B00221A70FB681800A64B9847A5
:102A6000A64B1800A44B9847A54B1800A24B9847BB
:102A700000F008FCA449FB6805221800964B984713
:102A8000031E37D1A14B98470123012202210020C8
:102A9000974CA0470123012201210020944CA0471C
:102AA0000123002201210020914CA0470123002294
:102AB000022100208E4CA047012300220321002088
:102AC0008B4CA0470123002204210020884CA04702
:102AD0008F4B98478F4B9847FB681800864B984759
:102AE000864B1800844B9847854B1800824B9847BB
:102AF00000F0C8FB8849FB6805221800764B984710
:102B0000031E36D1814B9847002301220221002069
:102B1000774CA0470023012201210020744CA047DC
:102B20000023002201210020714CA0470023002235
:102B3000022100206E4CA047002300220321002028
:102B40006B4CA0470023002204210020684CA047C2
:102B50006F4B98476F4B9847FB681800664B984738
:102B6000664B1800644B9847654B1800624B9847BA
:102B700088E36A49FB6807221800574B9847031EF1
:102B800036D1624B98470123032202210020584C82
:102B9000A0470123032201210020554CA047012317
:102BA000002201210020524CA047012300220221D3
:102BB00000204F4CA04701230022032100204C4C51
:102BC000A0470123002204210020494CA047504B7C
:102BD0009847504B9847FB681800474B9847474B1E
:102BE0001800454B9847464B1800434B984749E31C
:102BF0004B49FB6807221800374B9847031E36D114
:102C0000424B98470023032202210020384CA04762
:102C10000023032201210020354CA047002300227D
:102C200001210020324CA047002300220221002075
:102C30002F4CA04700230022032100202C4CA0474A
:102C40000023002204210020294CA047304B984744
:102C5000304B9847FB681800274B9847274B1800C4
:102C6000254B9847264B1800234B98470AE32D49DC
:102C7000FB6807221800184B9847031E0FD12A4BF8
:102C800001221A70FB6818001B4B98471B4B180059
:102C9000194B98471A4B1800174B9847F2E22349F3
:102CA000FB68072218000C4B9847031E42D11E4BAD
:102CB00000221A701E4B9847FB6818000E4B98476D
:102CC0000E4B18000C4B98470D4B18000A4B9847B9
:102CD000D8E2C046589D00000F890000690200201C
:102CE000609D00003A030020689D0000709D000078
:102CF000893E0000180300202D200000FC9B0000EE
:102D0000009C0000789D0000809D00004121000093
:102D10006546000025210000889D0000909D000070
:102D2000989D0000A09D000084020020A89D000046
:102D3000113C0000D249FB6807221800D14B98478C
:102D4000031E0FD1D04B01221A70FB681800CF4B25
:102D50009847CF4B1800CD4B9847CE4B1800CB4B24
:102D600098478FE2CC49FB6807221800C54B98476B
:102D7000031E11D1C94B9847C34B00221A70FB6840
:102D80001800C24B9847C24B1800C04B9847C14B24
:102D90001800BE4B984775E2C149FB68072218002E
:102DA000B84B9847031E0FD1BE4B01221A70FB6827
:102DB0001800B64B9847B64B1800B44B9847B54B24
:102DC0001800B24B98475DE2B749FB68072218002C
:102DD000AC4B9847031E11D1B04B9847B14B002222
:102DE0001A70FB681800A94B9847A94B1800A74B0D
:102DF0009847A84B1800A54B984743E2AB49FB689E
:102E0000082218009F4B9847031E0FD1A84B0122A0
:102E10001A70FB6818009D4B98479D4B18009B4B00
:102E200098479C4B1800994B98472BE2A149FB68A7
:102E300008221800934B9847031E11D1974B9847CF
:102E40009B4B00221A70FB681800904B9847904BE0
:102E500018008E4B98478F4B18008C4B984711E207
:102E60009549FB680A221800864B9847031E26D115
:102E7000924B1800854B98470020914B98470300D0
:102E80003B6000237B608F4CFA220023386879680E
:102E9000A04703000C00190022008B4B0024C91826
:102EA000624108001100894C894A0023A0470300B1
:102EB0000C001800874B9847874B9847FEE78749D7
:102EC000FB68092218006F4B9847031E2FD1844BD3
:102ED00018006E4B98470020794B984703001D005F
:102EE00000231E00774CFA22002328003100A0475F
:102EF00003000C0019002200734B0024C918624122
:102F000008001100714C724A0023A04703000C0016
:102F10001800704B9847734B9847734B9847734B07
:102F200000221A70724B1800584B9847AAE1714959
:102F3000FB6808221800534B9847031E0FD1092342
:102F40007B654C230822BA18D2186B49FB6818001D
:102F50006A4B98477B6D9AB2694B1A8092E1694936
:102F6000FB6808221800474B9847031E0FD1664B99
:102F70003B6548230822BA18D2186449FB68180038
:102F80005E4B98473B6D9AB25D4B5A807AE160493F
:102F9000FB68082218003B4B9847031E0FD15A4B81
:102FA000FB6444230822BA18D2185A49FB68180057
:102FB000524B9847FB6C9AB2514B9A8062E156494A
:102FC000FB68082218002F4B9847031E0FD14E4B69
:102FD000BB6440230822BA18D2185049FB68180075
:102FE000464B9847BB6C9AB2454BDA804AE14C4954
:102FF000FB6808221800234B9847031E0FD1424B51
:103000007B643C230822BA18D2184649FB68180092
:103010003A4B98477B6C9AB2394B1A8132E142495C
:10302000FB6808221800174B9847031E0FD1364B38
:103030003B6438230822BA18D2183C49FB681800B0
:103040002E4B98473B6C9AB22D4B5A811AE1384966
:10305000FB68082218000B4B9847031E6CD12A4BC3
:10306000FB6334230822BA18D2183249FB681800CF
:10307000224B9847FB6B9AB2214B9A8102E1C046E2
:10308000B09D00000F8900001B0300202D200000D0
:10309000FC9B0000009C0000B89D0000113C00005B
:1030A000C09D000039030020C89D0000D09D000095
:1030B00037030020DC9D0000E89D0000F49D000027
:1030C000915E0000E16C0000571B0000A16C000045
:1030D000581B00000100002049010000009E000074
:1030E0000C9E000005530000054400002D03002045
:1030F000209E0000349E0000409E0000AD8800002D
:10310000880200204C9E0000C4090000589E000068
:10311000649E0000709E00007C9E0000889E00005F
:10312000949E0000A09E0000AC9E0000B89E00008F
:10313000C49E0000D09E00005449FB68082218007D
:10314000534B9847031E0FD1524BBB6330230822C9
:10315000BA18D2185049FB681800504B9847BB6BFF
:103160009AB24F4BDA818DE04E49FB680522180078
:10317000474B9847031E12D14B4B01221A704B4B01
:1031800000221A70FB681800494B9847494B1800F9
:10319000474B9847484B1800454B984772E04749C2
:1031A000FB68052218003A4B9847031E12D13E4B8C
:1031B00000221A703D4B01221A70FB6818003C4B2C
:1031C00098473C4B18003A4B98473B4B1800384BFC
:1031D000984757E03A49FB68072218002C4B98475C
:1031E000031E20D12F230822BA18D2183549FB68B4
:1031F00018002A4B98472F2308229446BC44634466
:103200001A78314B1A70314B01221A70FB68180082
:10321000274B9847274B1800254B9847264B1800FB
:10322000234B98472EE02A49FB6807221800184BC9
:103230009847031E0FD1254B00221A70FB68180017
:103240001B4B98471B4B1800194B98471A4B1800FB
:10325000174B984716E01F49FB680A2218000C4BD1
:103260009847031E0ED1FB681800114B9847114B6D
:1032700018000F4B9847104B18000D4B9847164BF2
:1032800001221A70C046BD4619B0F0BDDC9E000098
:103290000F890000C4090000E89E0000AD8800000E
:1032A00088020020F49E000083020020800200209B
:1032B0002D200000FC9B0000009C0000FC9E0000F4
:1032C000049F00000C9F00003B03002081020020AF
:1032D000189F0000209F0000C003002080B582B02E
:1032E00000AF274B1B7801225340DBB2002B42D0AA
:1032F000234B01221A70234B984700237B6034E054
:10330000214A7B6808211B01D3185B181A78802199
:1033100049420A431A701C4A7B6808211B01D318D2
:103320005B185A78802149420A435A707B68DBB2A5
:103330002033D8B2144A7B681B01D318083319789C
:10334000114A7B681B01D31809331B781A000F4BF5
:103350009847030019000C4A7B681B01D3180333FC
:103360000A1C1A707B6801337B607B68072BC7DD02
:10337000034B00221A70C046BD4602B080BDC04655
:103380003303002005440000E0000020DD4400007D
:1033900090B583B000AF78607B681A88944B1B8827
:1033A0009A421ED90123032203210020914CA047F9
:1033B00001230422032100208E4CA0470123012277
:1033C000042100208B4CA04701230122032100206F
:1033D000884CA0470123042205210020854CA047EA
:1033E0001DE00023032203210020824CA04700237C
:1033F0000422032100207F4CA04700230122042146
:1034000000207C4CA0470023012203210020794C9E
:10341000A0470023042205210020764CA0477B68AA
:1034200002331A88724B5B889A4218D90123002212
:10343000022100206F4CA04701230022012100201F
:103440006C4CA0470123002204210020694CA047B6
:103450000123002203210020664CA04717E000232F
:10346000002202210020634CA047002300220121FA
:103470000020604CA04700230022042100205D4C66
:10348000A04700230022032100205A4CA0477B685C
:1034900004331A88564B9B889A420CD90123012287
:1034A00002210020534CA0470123012201210020CA
:1034B000504CA0470BE000230122022100204D4C7C
:1034C000A04700230122012100204A4CA0477B682D
:1034D00006331A88464BDB889A4212D9012302220E
:1034E00002210020434CA047012302220121002099
:1034F000404CA04701230322052100203D4CA0475A
:1035000011E000230222022100203A4CA0470023B0
:10351000022201210020374CA0470023032205216D
:103520000020344CA0477B6808331A88304B1B8935
:103530009A4212D901230222042100202D4CA047D7
:1035400001230222032100202A4CA047012302224A
:1035500005210020274CA04711E00023022204216E
:103560000020244CA0470023022203210020214CEC
:10357000A04700230222052100201E4CA0477B68A3
:103580000A331A881A4B5B899A420CD90123032209
:1035900001210020174CA047012303220221002013
:1035A000144CA0470BE00023032201210020114C02
:1035B000A04700230322022100200E4CA0477B6875
:1035C0000C331A880A4B9B899A4206D9012304229C
:1035D00001210020074CA04705E00023042201211F
:1035E0000020044CA047C046BD4603B090BDC04675
:1035F00088020020893E0000B0B500AF484B1B7820
:103600000C2B00D97CE09A00464BD3181B689F46D0
:10361000454B98470123012202210020434CA0473B
:1036200074E0414B984701230222022100203F4CC5
:10363000A0476BE03C4B9847012300220221002069
:103640003A4CA04762E0384B984701230022012101
:103650000020364CA047324B1B780133DAB2304B96
:103660001A7053E0304B98470123012201210020BA
:103670002E4CA0474AE02C4B9847012302220121FF
:1036800000202A4CA04741E0274B98470123022203
:1036900003210020254CA04738E0234B9847012305
:1036A000012203210020214CA0472FE01E4B984708
:1036B00001230022032100201C4CA04726E01A4BC6
:1036C00098470123002204210020184CA0471DE048
:1036D000154B98470123012204210020134CA047D9
:1036E00014E0114B984701230222042100200F4CC3
:1036F000A0470BE00C4B9847094B00221A7005E0DD
:10370000094B9847064B00221A70C046044B1B78A1
:103710000133DAB2024B1A70C046BD46B0BDC04696
:10372000F0010020689F0000113C0000893E00006D
:10373000B0B500AF8E4B1B780A2B00D910E19A0070
:103740008C4BD3181B689F468B4B98470123042250
:1037500001210020894CA047854B1B780133DAB248
:10376000834B1A7001E10023042201210020834CC5
:10377000A0477F4B1B780133DAB27D4B1A70F4E01F
:1037800001230422012100207C4CA047784B1B78A8
:103790000133DAB2764B1A70E7E0002304220121EC
:1037A0000020764CA047724B1B780133DAB2704B85
:1037B0001A70DAE001230422012100206F4CA04797
:1037C0006B4B1B780133DAB2694B1A70CDE00023E2
:1037D000042201210020694CA047654B1B7801336E
:1037E000DAB2634B1A70C0E00123022201210020EB
:1037F000624CA04701230222022100205F4CA04717
:1038000001230122032100205C4CA0470123012257
:1038100004210020594CA047554B1B780133DAB2E4
:10382000534B1A70A1E00023022201210020534CC7
:10383000A0470023022202210020504CA047012370
:103840000122012100204D4CA04701230122022129
:1038500000204A4CA0470023012203210020474CAE
:10386000A0470023012204210020444CA047404BE4
:103870001B780133DAB23E4B1A7076E00023012246
:10388000012100203D4CA0470023012202210020FD
:103890003A4CA0470123032201210020374CA047C6
:1038A0000123032202210020344CA04701230022DF
:1038B00003210020314CA0470123002204210020D5
:1038C0002E4CA0472A4B1B780133DAB2284B1A70D2
:1038D0004BE00023032201210020284CA0470023B5
:1038E000032202210020254CA047012301220121AF
:1038F0000020224CA04701230122022100201F4C5E
:10390000A04700230022032100201C4CA0470023D5
:10391000002204210020194CA047154B1B780133CD
:10392000DAB2134B1A7020E000230122012100209B
:10393000124CA04700230122022100200F4CA04777
:1039400001230222012100200C4CA0470123022266
:1039500002210020094CA047054B00221A7004E008
:10396000054B9847024B00221A70C046BD46B0BDB9
:10397000F10100209C9F0000113C0000893E0000E6
:10398000B0B500AF614B1B781A1E614B1B689A42A1
:1039900054DA01230022012100205E4CA0470123BC
:1039A0000022022100205B4CA047012300220321BA
:1039B0000020584CA0470123002204210020554C30
:1039C000A0470123012202210020524CA0470123DD
:1039D0000122012100204F4CA04701230222022195
:1039E00000204C4CA0470123022201210020494C19
:1039F000A0470123022204210020464CA0470123B6
:103A0000022203210020434CA0470123012203216D
:103A10000020404CA04701230122042100203D4CFE
:103A2000A04701230322022100203A4CA047012392
:103A3000032201210020374CA04753E0002300223D
:103A400001210020334CA047002300220221002046
:103A5000304CA04700230022032100202D4CA0471A
:103A600000230022042100202A4CA0470023012229
:103A700002210020274CA047002301220121002021
:103A8000244CA0470023022202210020214CA04701
:103A900000230222012100201E4CA0470023022205
:103AA000042100201B4CA0470023022203210020F8
:103AB000184CA0470023012203210020154CA047E9
:103AC0000023012204210020124CA04700230322DE
:103AD000022100200F4CA0470023032201210020D7
:103AE0000C4CA0470A4B1B68F92B0CDD074B1B78CD
:103AF0001933DAB2054B1A70044B1B78F92B02D933
:103B0000024B3E221A70C046BD46B0BD6001002087
:103B1000F0030020893E0000B0B500AF384B984755
:103B2000384B1B781A00384BD200D35C0222032199
:103B30000020364CA047334B1B78334ADB00D318A8
:103B400001331B78012201210020304CA0472D4B6E
:103B50001B782D4ADB00D31802331B780222012187
:103B600000202A4CA047274B1B78274ADB00D3189C
:103B700003331B78002201210020244CA047214B55
:103B80001B78214ADB00D31804331B780022022162
:103B900000201E4CA0471B4B1B781B4ADB00D31890
:103BA00005331B78022202210020184CA047154B38
:103BB0001B78154ADB00D31806331B78012202213B
:103BC0000020124CA0470F4B1B780F4ADB00D31884
:103BD00007331B780222042100200C4CA047094B1C
:103BE0001B780133DAB2074B1A70064B1B78192B7E
:103BF00002D9044B00221A70C046BD46B0BDC04673
:103C0000113C0000F201002010000020893E00005D
:103C100080B582B000AF00237B6010E00B4A7B6868
:103C20001B01D318083380221A70084A7B681B01D5
:103C3000D318093380221A707B6801337B607B685C
:103C4000072BEBDDC046BD4602B080BDE000002082
:103C5000F0B54F464646C0B495B006AF0823FA18F3
:103C6000814B11001800814B98472F23082294465E
:103C7000BC44634401221A7000233B63A2E07C4BE6
:103C80003A6B1201D35C002B6ED0794A3B6B1B015F
:103C9000D31808331A7874493B6BCB181B78D31AA6
:103CA000D9B2734A3B6B1B01D3180C330A1C1A7030
:103CB0006F4A3B6B1B01D31809331A786A493B6B77
:103CC000CB1808331B78D31AD9B2694A3B6B1B0156
:103CD000D3180D330A1C1A70654A3B6B1B01D318AD
:103CE0000C331B781900624A3B6B1B01D3180D3350
:103CF0001B78CB18002B06DD5D4A3B6B1B01D318EC
:103D0000023301221A70584A3B6BD3181A7858496B
:103D10003B6B1B01CB1808331B785340DBB21A00F6
:103D200080239A43131E06D02F2308229446BC44B6
:103D3000634400221A704C4A3B6BD31808331A783C
:103D40004B493B6B1B01CB1809331B785340DBB24B
:103D50001A0080239A43131E06D02F23082294466C
:103D6000BC44634400221A700823FA183B6BD31832
:103D700019783F4A3B6B1B01D31803330A1C1A7096
:103D80003B4A3B6B1B01D31803331B783A6B394911
:103D900008200824A446BC446044374CA0470823AC
:103DA00008229446BC4463441800344B98470823C7
:103DB00008229446BC4463441800314B98473B6B3F
:103DC00001333B633B6B072B00DC58E7284B722227
:103DD0009B5C7B60264B62229B5C3B60244B5222A7
:103DE0009B5C1C00224B42229B5C1D00204B32221C
:103DF0009B5C1E001E4B22229B5C1A001C4B9B7C72
:103E00009C461B4B9B7899461E49082008239846E0
:103E1000B84440444B46059363460493039202968C
:103E2000019500943B687A68134CA0470823082248
:103E30009446BC4463441800104B9847082308225A
:103E40009446BC44634418000D4B98472F23082226
:103E50009446BC4463441B781800BD460FB00CBCAC
:103E600090469946F0BDC0461C03002075450000F1
:103E7000E00000202C9F0000698800002D20000039
:103E80001D5600003C9F0000B0B582B000AF050099
:103E90000C0010001900FB1D2A1C1A70BB1D221CEF
:103EA0001A707B1D021C1A703B1D0A1C1A703B1DE8
:103EB0001B78002B1FD0BB1D1A78FB1D1B78B91D6A
:103EC0000878F91D09781E4C0001201841180831A6
:103ED000097848B2791D097801248C40210049B243
:103EE000014349B2C8B2164912018A18D3180833DF
:103EF000021C1A7020E0BB1D1A78FB1D1B78B91D2F
:103F00000878F91D09780E4C000120184118083175
:103F1000097849B2781D007801248440200040B21D
:103F2000C04340B2014049B2C8B2054912018A18E3
:103F3000D3180833021C1A70C046BD4602B0B0BD8B
:103F4000E000002090B58BB000AF2723FB180022C3
:103F50001A7000233B6225E01C4B3A6A1201D35CC5
:103F600019001A4A3B6A1B01D31803331B785A1EE7
:103F70009341DBB20B4012D0144A3B6A1B01D318A9
:103F800003331B783A6A12493800124CA0473B00B1
:103F90001800114B98472723FB1801221A703B6A1F
:103FA00001333B623B6A072BD6DD2723FB181B78C6
:103FB00001225340DBB2002B03D0084B1800064B04
:103FC0009847C046BD460BB090BDC046E0000020FB
:103FD000549F0000698800002D200000609F0000B1
:103FE00080B584B000AF78607B681B68FB60FB68BD
:103FF000DB69072213405A1E9341DBB21800BD460D
:1040000004B080BD80B582B000AF7860C0467B68E8
:104010001800044B9847031EF9D1C046BD4602B0B4
:1040200080BDC046E13F000080B582B000AF78603F
:104030007B6864221A607B681B4A5A607B68002296
:104040009A607B6800221A737B6800221A767B686C
:10405000802292031A617B6801225242DA827B68D5
:10406000012252429A827B680022DA617B68002238
:104070001A627B682422002199547B6800229A628C
:104080007B682C22002199547B682D2200219954B1
:104090007B682E22002199547B68D7221A86C0465D
:1040A000BD4602B080BDC046480D000080B584B05A
:1040B00000AF78607B681B68BB600023FB607B6897
:1040C0001800104B9847BB681B6802221A43BB6854
:1040D0001A600CE0FB680133FB607B68DB881A1E0A
:1040E000FB689A4203D8BB6810225A8306E0BB687B
:1040F0005B8B9BB21A0010231340EBD0BD4604B07B
:1041000080BDC0460540000080B58EB000AF3B1DAD
:1041100018000E4B98473B1D6422DA823B1D642237
:104120001A603B1D0A4ADA613B1D0A4A1A623A1DAF
:1041300009490A4B18000A4B9847084B1800094BCD
:104140009847C046BD460EB080BDC046294000001D
:10415000020016000200170000140042F4030020C1
:1041600041120000AD40000080B586B000AF39605C
:104170001100FB1D021C1A70BB1D0A1C1A70FB1DCE
:104180001B789AB20823FB181A80BB1D1B789AB2C1
:104190000823FB185A800823FB183A685A60082342
:1041A000FB1800221A720823FB1800225A720823F7
:1041B000FB1800229A721623FB1800221A8008238B
:1041C000FA18054B11001800044B9847030018001B
:1041D000BD4606B080BDC046F40300204118000073
:1041E00090B58BB000AF0400080011003B60FB1DD0
:1041F000221C1A70BB1D021C1A707B1D0A1C1A702F
:104200002523FB1800221A702023FB18BA1D1278F0
:104210001A702023FB18FF225A70FB1D1B789BB2DB
:104220008022520013439AB21423FB181A807B1D7C
:104230001B789AB21423FB185A801423FB182022EF
:10424000BA185A601423FB1800221A721423FB18A0
:1042500000225A721423FB1800229A722623FB189C
:1042600000221A802523FC181423FA18234B11006E
:104270001800234B9847030023702623FB181B8844
:104280002622BA18591C11800A2B03D12523FB18AA
:104290001B782EE02523FB181B78002BE2D1FB1D99
:1042A0001B789AB20823FB181A807B1D1B789AB2E0
:1042B0000823FB185A800823FB183A685A60082321
:1042C000FB1800221A720823FB1800225A720823D6
:1042D000FB1800229A722523FC180823FA18074BB2
:1042E00011001800074B9847030023702523FB1883
:1042F0001B781800BD460BB090BDC046F4030020EB
:10430000411800009916000080B584B000AF02008B
:10431000FB1D1A700F23FB18FA1D1278D2091A70B0
:104320000E23FB18FA1D127852091A700D4BBB6050
:104330000F23FB181B78002B0FD10F23FB181B78C2
:104340009B0010229446BC446344083B1A680E2329
:10435000FB181B78DB01D31800E000231800BD46D2
:1043600004B080BD0044004180B582B000AF0200BF
:10437000FB1D1A70FB1D1B781800034B98470300A8
:104380001800BD4602B080BD0943000080B582B070
:1043900000AF78607B6800221A707B6801225A7037
:1043A0007B6800229A70C046BD4602B080BDC04600
:1043B00080B584B000AF0200FB1D1A70BB1D0A1C43
:1043C0001A70FB1D1B7818000D4B98470300FB600B
:1043D000FB1D1B781F22134001229A401300BB6073
:1043E000BB1D1B78002B03D0FB68BA689A6102E002
:1043F000FB68BA685A61C046BD4604B080BDC0467D
:104400006943000090B585B000AF0F23FB18002270
:104410001A703B1D00225A700023BB6036E03B1D22
:1044200000221A70BB68DBB22033DBB2FC1D391DE1
:1044300002221800284B984703002370FB1D1B78AD
:10444000002B20D13B1D01221A70BB68DBB2203348
:10445000DBB2FC1D391D022218001F4B98470300D8
:104460002370FB1D1B78002B0DD10122BB689A40E5
:1044700013005AB20F23FB181B785BB213435AB2D6
:104480000F23FB181A70BB680133BB60BB68072B96
:10449000C5DD3B1D80225A703B1D12221A70BC1DC7
:1044A0003B1D0222190021200B4B9847030023706B
:1044B0003B1D13221A70BC1D3B1D02221900212036
:1044C000054B9847030023700F23FB181B78180037
:1044D000BD4605B090BDC0466941000090B585B0AD
:1044E00000AF040008001100FB1D221C1A70BB1D48
:1044F000021C1A707B1D0A1C1A700F23FB18002265
:104500001A700C23FB1812221A700C23FB18BA1D08
:1045100012785A700F23FC180C23F918FB1D1B7816
:1045200002221800124B9847030023700C23FB183B
:1045300013221A700C23FB187A1D12785A700C2360
:10454000F918FB1D1B7802221800094B984703003D
:1045500019000F23FB180F22BA1812780A431A7099
:104560000F23FB181B781800BD4605B090BDC04650
:1045700069410000B0B584B000AF786039600E23A7
:10458000FB1800221A700F23FB1800221A703EE05D
:104590000F23FB181B782033D8B20F23FB181B788E
:1045A0007A68D3180E22BC18012212211C4DA8478C
:1045B000030023700F23FB181B782033D8B27B68CD
:1045C00008331A000F23FB181B78D318012213217C
:1045D000134CA047030019000E23FB180E22BA1833
:1045E00012780A431A700F23FB181B783A68D31805
:1045F0000E22BA1812781A700E23FB1800221A70B5
:104600000F23FB181A780F23FB1801321A700F239F
:10461000FB181B78072BBBD9C046BD4604B0B0BD04
:10462000E141000080B582B000AF3B1D18000A4B8D
:1046300098473B1D01225A703B1D01221A703B1DF9
:1046400019000720054B984701210720044B984784
:10465000C046BD4602B080BD8D430000E90C00009D
:10466000B1430000F0B587B000AF00210720324B06
:1046700098470020314B984703001D0000231E007F
:104680002F4CFA22002328003100A04703000C0021
:10469000190022002B4B0024C918624108001100A8
:1046A000294C2A4A0023A04703000C001800284B7D
:1046B000984701210720204B984700201F4B98471F
:1046C00003003B6000237B603868796803000C00BE
:1046D000DA0E65017D617D6915437D615B013B619A
:1046E0003C697D6902000B00A41A9D4123002C0047
:1046F0009A0FA500FD60FD681543FD609B00BB603F
:1047000003000C00B968FA685B1854410D49002297
:104710005B185441180021000B4C0C4A0023A047A1
:1047200003000C0018000A4B98470A4B9847C046F4
:10473000BD4607B0F0BDC046B1430000915E000029
:10474000E16C0000571B0000A16C0000581B00002A
:10475000010000200544000080B584B000AF0200D5
:10476000FB1D1A700F23FB18FA1D1278D2091A705C
:104770000E23FB18FA1D127852091A700D4BBB60FC
:104780000F23FB181B78002B0FD10F23FB181B786E
:104790009B0010229446BC446344083B1A680E23D5
:1047A000FB181B78DB01D31800E000231800BD467E
:1047B00004B080BD0044004180B584B000AF786093
:1047C0007B681B68FB60FB685B7EDBB25BB2002B27
:1047D00001DA012300E000231800BD4604B080BDCB
:1047E00080B586B000AF78607B681B683B613B6931
:1047F0001B7EDBB2FB6000237B61FB680122134060
:1048000003D07B69012213437B61FB6804221340C0
:1048100003D07B69022213437B61FB6802221340B1
:1048200003D07B69042213437B617B691800BD467A
:1048300006B080BD80B584B000AF786039607B6819
:104840001B68BB600023FB603B680122134003D060
:10485000FB6801221343FB603B680222134003D034
:10486000FB6804221343FB603B680422134003D01F
:10487000FB6802221343FB60FB68DAB2BB681A765E
:10488000C046BD4604B080BD80B584B000AF78603E
:104890007B681B68FB60C0467B6818000E4B98471E
:1048A000031EF9D1FB680F229A75FB680F221A7656
:1048B000FB681B78DBB202221343DAB2FB681A7082
:1048C000C0467B681800044B9847031EF9D10023AB
:1048D0001800BD4604B080BDB947000080B584B063
:1048E00000AF78607B681B68FB60C0467B6818007F
:1048F0000B4B9847031EF9D1FB681B7BDBB20222EE
:104900001343DAB2FB681A73C0467B681800044B85
:104910009847031EF9D1C046BD4604B080BDC046CD
:10492000B947000080B584B000AF786039607B681B
:104930001800184B984702000123134001D10523AA
:1049400023E07B681B68FB60C0467B681800124B45
:104950009847031EF9D1FB685B8B9AB23B681A80BB
:104960007B68012118000D4B98477B681800094BA4
:10497000984702000423134006D07B6804211800E6
:10498000064B98471E2300E000231800BD4604B0E4
:1049900080BDC046E1470000B9470000354800002F
:1049A00080B582B000AF0200FB1D1A70FB1D1B78A2
:1049B0001800034B984703001800BD4602B080BDA5
:1049C0005947000080B582B000AF78607B68002254
:1049D0001A707B6801225A707B6800229A70C04668
:1049E000BD4602B080BDC04680B584B000AF0200B5
:1049F000FB1D1A70BB1D0A1C1A70FB1D1B781800CA
:104A00000D4B98470300FB60FB1D1B781F221340D2
:104A100001229A401300BB60BB1D1B78002B03D002
:104A2000FB68BA689A6102E0FB68BA685A61C046DE
:104A3000BD4604B080BDC046A149000080B500AFAE
:104A4000034B9847034B9847C046BD4680BDC046C0
:104A5000594A0000B14A000080B582B000AF3B1D4A
:104A60001800104B98473B1D02225A703B1D012233
:104A70001A703B1D190019200B4B98470021192073
:104A80000A4B98473B1D01225A703B1D1900182004
:104A9000054B984701211820044B9847C046BD4656
:104AA00002B080BDC5490000E90C0000E9490000E2
:104AB00080B58CB000AF3B0018000E4B98473B0010
:104AC00000229A603B0002221A733B000022DA7433
:104AD0003B00C0225201DA813A000749074B180017
:104AE000074B9847054B1800064B9847C046BD46F4
:104AF0000CB080BD91020000004000420004002084
:104B0000E10800008948000080B582B000AF094B81
:104B10001800094B9847BA1D064B11001800074BA7
:104B20009847031E052BF6D0BB1D1B881800BD46F9
:104B300002B080BD00040020DD48000025490000CF
:104B4000F0B58FB000AFF86201211920534B9847A0
:104B50000020534B984703003B6100237B61514B7E
:104B6000002438697969C01861414F4C4F4A0023CD
:104B7000A04703000C0018004D4B98470021192056
:104B8000464B98470020464B98470300BB610023E3
:104B9000FB61BB69FC699A0FA0007862786A1043D8
:104BA00078629B003B623B6A7C6AB969FA695B1870
:104BB00054411A0F260116431D01ED1AA6412B0080
:104BC0003400384900225B18544118002100364C4B
:104BD000364A0023A04703000C001800344B9847C6
:104BE00000237B6352E0002118202C4B98470020C3
:104BF0002B4B98470300BB600023FB602D4C282201
:104C00000023B868F968A04703000C0019002200CF
:104C1000244B0024C918624108001100224C234A89
:104C20000023A04703000C001800214B98477B6B22
:104C30005B00FA6AD418204B9847030023800121B7
:104C40001820164B98470020154B984703003B60EF
:104C500000237B60174C2822002338687968A0471E
:104C600003000C00190022000E4B0024C9186241F9
:104C7000080011000C4C0D4A0023A04703000C0053
:104C800018000B4B98477B6B01337B637B6B062BC8
:104C9000A9DDC046BD460FB0F0BDC046E9490000E1
:104CA000915E0000BFCF6A00A16C0000C0CF6A0017
:104CB00001000020E16C0000094B000080B582B0CB
:104CC00000AF0200FB1D1A70064BFA1D127811008E
:104CD0001F220A40012191400A001A60C046BD46C9
:104CE00002B080BD00E100E0B0B582B000AF0200CC
:104CF0003960FB1D1A70FB1D1B787F2B32D92F4C9E
:104D0000FB1D1B781A000F231340083B99082B4A00
:104D1000FB1D1B7818000F230340083B9B0806333C
:104D20009B00D31804331B68FA1D1278100003226D
:104D30000240D200FF2090400200D2431A403B685C
:104D40009B01FF201840FB1D1B781D0003232B40F7
:104D5000DB00984003001A438B1D9B00E3180433CB
:104D60001A6027E0164CFB1D1B785BB29B081449A8
:104D7000FA1D127852B29208C03292005258F91DB0
:104D80000978080003210140C900FF208840010084
:104D9000C94311403A689201FF201040FA1D127871
:104DA000150003222A40D200904002000A43C0337B
:104DB0009B001A51C046BD4602B0B0BD00ED00E0F8
:104DC00000E100E080B582B000AF78607B6800222F
:104DD0001A707B6801225A707B6800229A70C04664
:104DE000BD4602B080BDC04680B582B000AF0B4B5F
:104DF00000221A603B1D1800094B98473B1D0022FA
:104E00005A703B1D01221A703B1D19000220054BF0
:104E10009847C046BD4602B080BDC046F0030020A2
:104E2000C54D0000E90C000080B500AF154B154AD8
:104E3000126A802109010A431A62134B134A5A80ED
:104E4000134B144A1A80124B00221A82104BFA227A
:104E5000D2011A830E4A0E4B1B889BB202210B43D0
:104E60009BB213800A4B01221A72094B10225A730B
:104E70001220094B984702211220084B9847C04640
:104E8000BD4680BD00040040000C00401B400000F7
:104E9000002C004220200000BD4C0000E94C000026
:104EA00080B500AF1D4B9B7BDB07DB0FDBB2012B1B
:104EB00031D11B4B1A681B4B0521100098470B1E64
:104EC00007D1194B01221A70184B1B685A1C174B3B
:104ED0001A60134B1B685A1C114B1A60104B1B684D
:104EE000FA2B15DD114B00221A60114B1B685A1C5E
:104EF0000F4B1A600E4B1A680A4B05211000984799
:104F00000B1E02D10B4B01221A70054B00221A60B6
:104F1000024B10229A73C046BD4680BD002C004251
:104F2000F0030020956C0000C1030020C4030020A2
:104F3000CC030020D0030020F0B587B004AF2B4B8A
:104F40001B78DBB2002B26D0294B1800294B984741
:104F5000274B1800284B9847254B1B881E00244BD5
:104F60005B887B60224B9B881A00214BDB881C00EE
:104F70001F4B1B891D001E4B5B8920492048039352
:104F80000295019400927B6832001E4CA0471C4B96
:104F900018001D4B98471D4B1A681D4B1921100016
:104FA00098470B1E16D11B4B1B78DBB2002B02D08F
:104FB000194B98470EE0194B1B78DBB2002B02D03F
:104FC000174B984706E0174B1B78DBB2002B01D03C
:104FD000154B9847154B1B78DBB2002B01D0144BB7
:104FE0009847C046BD4603B0F0BDC0462D03002023
:104FF00048040020414B000091330000C89F00008E
:1050000008040020698800001D560000C403002029
:10501000956C000084020020F93500001B0300207D
:105020003137000039030020193B0000370300200E
:105030008139000080B584B000AF0200FB1D1A70FA
:105040000F23FB18FA1D1278D2091A700E23FB18D1
:10505000FA1D127852091A700D4BBB600F23FB1812
:105060001B78002B0FD10F23FB181B789B001022FD
:105070009446BC446344083B1A680E23FB181B7813
:10508000DB01D31800E000231800BD4604B080BD4A
:105090000044004180B582B000AF0200FB1D1A70D1
:1050A000FB1D1B781800034B984703001800BD46F2
:1050B00002B080BD3550000080B582B000AF78608E
:1050C0007B6800221A707B6801225A707B6800227C
:1050D0009A70C046BD4602B080BDC04680B584B05F
:1050E00000AF0200FB1D1A70BB1D0A1C1A70FB1DCD
:1050F0001B7818000D4B98470300FB60FB1D1B78C5
:105100001F22134001229A401300BB60BB1D1B7875
:10511000002B03D0FB68BA689A6102E0FB68BA68AA
:105120005A61C046BD4604B080BDC04695500000DF
:1051300080B582B000AF3B1D1800444B98473B1D23
:1051400001225A703B1D01221A703B1D19000520D7
:105150003F4B98473B1D19001C203D4B98470121B0
:105160001C203C4B98473B1D19000B20384B98479F
:1051700001210B20374B98473B1D19000C20344B65
:10518000984701210C20334B98473B1D19000D20F7
:105190002F4B984701210D202E4B98473B1D19009E
:1051A0000E202B4B984701210E202A4B98473B1D80
:1051B00019000F20264B984701210F20254B9847B7
:1051C0003B1D19001020224B984701211020214B34
:1051D00098473B1D190011201D4B984701211120B4
:1051E0001C4B98473B1D19001220194B9847012171
:1051F0001220184B98473B1D19001320144B984759
:1052000001211320134B98473B1D19001420104B0C
:105210009847012114200F4B98473B1D190015207A
:105220000B4B9847012115200A4B98473B1D012243
:105230001A703B1D19001B20054B984701211B20AC
:10524000044B9847C046BD4602B080BDB95000002F
:10525000E90C0000DD500000F0B583B000AF0200A3
:10526000FB1D1A70FB1D1B7800211800154B984779
:105270000020154B984703001D0000231E00134C0F
:105280009622002328003100A04703000C001900DB
:1052900022000F4B0024C9186241080011000D4C78
:1052A0000D4A0023A04703000C0018000B4B984741
:1052B000FB1D1B7801211800024B9847C046BD46D4
:1052C00003B0F0BDDD500000915E0000E16C000015
:1052D000571B0000A16C0000581B000001000020BB
:1052E00080B582B000AF0200FB1D1A70FB1D1B7859
:1052F00001211800024B9847C046BD4602B080BD50
:10530000DD500000F0B583B000AF00211C20354B0C
:1053100098470020344B984703003B6000237B6094
:10532000324C3222002338687968A04703000C0011
:10533000190022002E4B0024C918624108001100F8
:105340002C4C2D4A0023A04703000C0018002B4BC7
:10535000984701211C20234B98470B20284B984746
:105360000C20274B98470D20254B98470E20244BA7
:1053700098470F20224B98471020214B9847112027
:105380001F4B984712201E4B984713201C4B9847E1
:1053900014201B4B98471520194B98470020124B9F
:1053A000984703001D0000231E00104C9622002386
:1053B00028003100A04703000C00190022000C4B0C
:1053C0000024C9186241080011000A4C0A4A00234F
:1053D000A04703000C001800084B9847C046BD4684
:1053E00003B0F0BDDD500000915E0000E16C0000F4
:1053F000571B0000A16C0000581B0000010000209A
:10540000E152000080B582B000AF78607B688022F6
:10541000D2051A607B6800225A607B68FF221A81DD
:105420007B6800229A727B680022DA727B6896227F
:1054300092011A627B682422012199547B682522FB
:10544000012199547B682622002199547B682722E8
:10545000002199547B6800229A627B68882252035B
:10546000DA607B682C22002199547B682D22002170
:1054700099547B6800221A637B6800225A637B6818
:1054800000229A637B680022DA637B6800225A61FB
:105490007B6800221A827B680022DA767B68002211
:1054A0001A767B6800221A777B6800225A767B681E
:1054B00013229A767B6800225A77C046BD4602B016
:1054C00080BDC04680B592B000AF3B1D1800494B6F
:1054D00098473B1D80225203DA603B1D464A1A63FF
:1054E0003B1D464A5A633B1D012252429A633B1DB3
:1054F00001225242DA633B1D2D2203219954404A76
:10550000136801210B431360C0463D4B1B68DB074A
:10551000DB0FDBB2002BF8D1394BDB69DB07DB0F8C
:10552000DBB2002BF1D1374B364A126A80210A4395
:105530001A62354B354A5A80C046334B5B78DBB232
:105540005BB2002BF9DB324A84230821D150304A68
:1055500088230421D1502E4A98230421D1502C4A6B
:10556000B123D35CDBB21A00302313407B64284A9A
:105570007B6CDBB203210B43D9B2B123D154244A53
:10558000C2230121D154224AB123D35CDBB21A00D9
:10559000302313407B641E4A7B6CDBB203210B4338
:1055A000D9B2B123D1541A4AC3230321D154144B85
:1055B000184A1A60124B184A9A81114BC022920263
:1055C0005A60C0460E4BDB695B07DB0FDBB2002B7A
:1055D000F8D10B4A136802210B431360C046084BF5
:1055E000DB699B07DB0FDBB2002BF8D1C046BD4661
:1055F00012B080BD05540000030022000300230008
:10560000001C004200040040000C00401943000050
:10561000004400418400104003C5FFFF80B584B002
:1056200000AF78600023FB600FE00D4B1B7EDB07B3
:10563000DB0FDBB2012B08D10949FB685A1CFA6069
:105640007A68D3181B789BB20B857A68FB68D318ED
:105650001B78002BE9D1C046BD4604B080BDC046D2
:10566000001C004280B500AFC046BD4680BDC046AC
:1056700080B582B000AF104B1B68002B12D1EFF346
:1056800010837B607B68002B09D172B6BFF35F8FFC
:105690000A4B00221A700A4B01221A7002E0084BD2
:1056A00000221A70044B1B685A1C034B1A60C04638
:1056B000BD4602B080BDC046F4010020610100205B
:1056C000F801002080B500AF0B4B1B685A1E0A4B37
:1056D0001A60094B1B68002B0AD1084B1B78DBB200
:1056E000002B05D0064B01221A70BFF35F8F62B604
:1056F000C046BD4680BDC046F4010020F801002030
:105700006101002080B582B000AF78607B68012223
:105710005A607B6800225A707B6806221A707B6888
:1057200000221A727B6800225A72C046BD4602B03F
:1057300080BDC04680B582B000AF78607B68032230
:105740001A707B6800225A707B6801229A70C046EA
:10575000BD4602B080BDC04680B582B000AF020039
:10576000FB1D1A70034AFB1D1B781372C046BD4611
:1057700002B080BD0004004080B582B000AF0200DE
:10578000FB1D1A70BB1D0A1C1A70FB1D1B78012B18
:1057900008D0022B0BD0002B0ED10B4ABB1D1B785F
:1057A00053720BE0084ABB1D1B78937206E0064A51
:1057B000BB1D1B78D37201E0172300E00023180003
:1057C000BD4602B080BDC0460004004080B582B036
:1057D00000AF0200FB1D1A70084AFB1D1B780F2149
:1057E0000B40D9B253680F20014049001E2083436B
:1057F0000B435360C046BD4602B080BD004000412F
:1058000080B500AFC046044BDB6810221340FAD0CD
:10581000C046BD4680BDC0460008004080B500AF10
:105820000C4B02229A840C4B98470A4A0B4B9B68FC
:10583000D362084A094B5B689362064B00229A8444
:10584000054B9847034A054B1B689BB29384C0469F
:10585000BD4680BD0008004001580000FC0100204A
:1058600080B582B000AF0200FB1D1A70FB1D1B78D3
:10587000082B40D89A00224BD3181B689F46214B17
:105880001B6939E0204B1B6A9B059B0FDBB21A009A
:105890001E4BD34030E080231B022DE080231B02EF
:1058A0002AE0184B5B6927E0164B1B680222134065
:1058B00001D1002320E0164B9847124B1B680422AD
:1058C000134009D00020134B984702000D4B9B68F2
:1058D0001B041B0C53430FE00F4B0DE00A4A5023EF
:1058E000D35CDBB21A000423134001D1002303E090
:1058F000044BDB6800E000231800BD4602B080BD09
:10590000E89F0000FC0100200008004000127A001F
:1059100001580000D5600000006CDC0280B584B046
:1059200000AF78601A4B1B6AFB607B681B781A1CFF
:1059300003231340DAB20D23FB1803210A401000A1
:105940001A7803218A43111C021C0A431A707B68CF
:105950009A780C23FB18D0011A787F210A40111C79
:10596000021C0A431A707B685A780C23FB18012129
:105970000A4090011A7840218A43111C021C0A43F4
:105980001A70034BFA681A62C046BD4604B080BD67
:105990000008004080B582B000AF0200FB1D1A7005
:1059A000FB1D1B78082B3BD89A00214BD3181B6892
:1059B0009F46204B1F4A126A02210A431A620023A3
:1059C00031E01C4B1B4A926902210A439A6129E08B
:1059D000184A184B1B8A9BB202210B439BB21382BD
:1059E00020E0144A134B9B8A9BB202210B439BB2CB
:1059F000938217E0104B1B6802221A430E4B1A6069
:105A00000E4B98470EE00B4A0A494423CB5CDBB2AD
:105A100002210B43D9B24423D15403E0002302E016
:105A2000172300E000231800BD4602B080BDC04629
:105A30000CA0000000080040FC0100201D580000E0
:105A400080B582B000AF3B0005221A7000237B6056
:105A500009E07B68DBB23A0011001800054B98475B
:105A60007B6801337B607B68242BF2D9C046BD463E
:105A700002B080BD695F000080B5A0B000AF634B8D
:105A8000C222D2009A600020614B9847614B984730
:105A90007C23FB181800604B98477C23FB180022DE
:105AA0001A707C23FB1801229A707C23FB180022B9
:105AB0005A707C23FB181800584B98470620584B07
:105AC0009847584B98476423FB181800564B984743
:105AD0006423FB1806221A706423FB1801225A6003
